{
  "transactions": [
    {
      "hash": "0x2358b6fbbc2f02c57c68659cde67fc419ab6d32ba089b842f8669272aa08e45c",
      "transactionType": "CREATE",
      "contractName": "P2P",
      "contractAddress": "0xa6ab09b6074a07f86362430cecf4a8fab3d54d65",
      "function": null,
      "arguments": [
        "0xA2aa501b19aff244D90cc15a4Cf739D2725B5729"
      ],
      "transaction": {
        "from": "0xdafe44ce6933ba24459453fe20f40d55a454a07f",
        "gas": "0x1ee002",
        "value": "0x0",
        "input": "0x608034608657601f611a2338819003918201601f19168301916001600160401b03831184841017608a57808492602094604052833981010312608657516001600160a01b0381169081900360865760015f819055600555600380546001600160a01b03199081169290921790556004805490911633179055604051611984908161009f8239f35b5f80fd5b634e487b7160e01b5f52604160045260245ffdfe610280806040526004361015610013575f80fd5b5f6101c0525f3560e01c908163207fd126146113a6575080634e10ebb4146110ca5780635236017214610c675780637564912b14610be45780638da5cb5b14610bb95780639dcb511a14610b7b578063adcb085a14610ab9578063cdb788eb146100e2578063dd231ae2146100c25763f98d06f014610090575f80fd5b346100bb576101c0513660031901126100bb576003546040516001600160a01b039091168152602090f35b6101c05180fd5b346100bb576101c0513660031901126100bb576020600554604051908152f35b60803660031901126100bb5760043567ffffffffffffffff81116100bb5761010e903690600401611685565b9061011761166f565b6101605260443560c08190526001600160a01b03811690036100bb57604051602081019061015d8161014f60c05161016051866116b6565b03601f198101835282611712565b5190206101c05152600160205261018460018060a01b0360406101c051205416151561174d565b60026101c0515414610aa45760026101c0515560405160208101906101b38161014f60c05161016051866116b6565b5190206101205260035460405163d47eed4560e01b815292906001600160a01b0316602084806101e78587600484016117c8565b0381845afa93841561069d576101c05194610a6c575b50803b156100bb5761022a91604051948580948193631df3cbc560e31b83526101c05197600484016117c8565b03925af1801561069d57610a51575b50610160516101c080516001600160a01b03928316905260026020818152825160408082205460c051871690925292909152915181902054600354915163052571af60e51b81526004810193909352600f602484015291921690608083604481855afa92831561069d576101c05193610a2f575b5060809060446040518094819363052571af60e51b83526004830152600f60248301525afa90811561069d576101c05191610a00575b506101c051825160070b126100bb576101c051815160070b126100bb5763ffffffff610315604084015160030b6118cf565b169067ffffffffffffffff63ffffffff610335604084015160030b6118cf565b1693511691670de0b6b3a7640000830292808404670de0b6b3a764000014901517156108045767ffffffffffffffff9261037161037792611907565b90611930565b610180525116670de0b6b3a7640000810290808204670de0b6b3a76400001490151715610804576103716103aa92611907565b610260526201870461018051026101a052610180516101a0510462018704146101805115171561080457620186d2610180510260e0526101805160e05104620186d2146101805115171561080457610120516101c05152600160205260406101c051206102405261043960ff600161024051015461042c828260a01c166118e3565b6102205260a81c166118e3565b60805261046e61045a61022051610455610260516064356118f4565b6118f4565b610371608051620186a06101a051046118f4565b6101005261010051156109c8576101c051610240516004015461014082905290805b60326101405110806109bc575b806109b3575b1561082e57826101c051526002610240510160205260406101c0512061020052826101c051526003610240510160205260406101c051209283549160026102005101548015908115809261081e575b61076d575b505060208161058a61058061056c6105156105da966101005161178f565b6101c0516101e052610200516001015490808210610762576101e0525b61055f61054f608051610455620186a060e051046101e0516118f4565b61037161022051610260516118f4565b60a0526101e0519061178f565b928360016102005101556101e05190611923565b9660a05190611923565b9660018060a01b0361020051541691156106ab575b506040516323b872dd60e01b815260a0513360048301526001600160a01b039092166024820152604481019190915291829081906064820190565b03816101c05160018060a01b0360c051165af1801561069d57610671575b5060408051610160516001600160a01b03908116825260c0511660208201526101e0519181019190915260a0516060820152610120513392917fc6660e365b3b6bede9a0359f8ed99f67bbe20f7e8be55a00d1881b5a3cdb99f590608090a4905b61066561014051611915565b61014052919091610490565b6106919060203d8111610696575b6106898183611712565b8101906117b0565b6105f8565b503d61067f565b6040513d6101c051823e3d90fd5b805460019091015490811561075457816101c051526003610240510184528060406101c05120555b8015610746576101c05152600361024051018352600160406101c0512001555b836101c0515260026102405101825261072360406101c0512060035f918281558260018201558260028201550155565b6101c080518590526102405160030183525160408120818155600101558761059f565b5060056102405101556106f3565b8060046102405101556106d3565b50806101e052610532565b61018051670de0b6b3a7640000610180510204670de0b6b3a76400001461018051151715610804576107af61026051670de0b6b3a76400006101805102611930565b90826107fa575b5081156107d4575b506107ca5785806104f7565b9293505090610659565b9050600361020051015480151591826107f0575b5050866107be565b10905086806107e8565b81119150876107b6565b634e487b7160e01b6101c05152601160045260246101c051fd5b50600361020051015415156104f2565b908115610952576006610240510161084783825461178f565b905560405163a9059cbb60e01b8152336004820152602481018390526101c05161016051602091839160449183916001600160a01b03165af1801561069d576108b3936108ae9261054f92610935575b5061045560805191620186a06101a05104906118f4565b61178f565b806108c4575b6101c0516001815580f35b600480546040516323b872dd60e01b815233928101929092526001600160a01b03908116602483015260448201929092526101c05160c051919260209284926064928492165af1801561069d57156108b95761092e9060203d602011610696576106898183611712565b50806108b9565b61094d9060203d602011610696576106898183611712565b610897565b60405162461bcd60e51b815260206004820152603360248201527f4e6f206f72646572732061742063757272656e74207072696365206c6576656c6044820152721cc8185d985a5b18589b19481d1bc8199a5b1b606a1b6064820152608490fd5b508215156104a3565b5061010051811061049d565b60405162461bcd60e51b815260206004820152601060248201526f105b5bdd5b9d081d1bdbc81cdb585b1b60821b6044820152606490fd5b610a22915060803d608011610a28575b610a1a8183611712565b81019061186c565b826102e3565b503d610a10565b6080919350610a4a90823d8411610a2857610a1a8183611712565b92906102ad565b6101c051610a5e91611712565b6101c0516100bb5780610239565b9093506020813d602011610a9c575b81610a8860209383611712565b81010312610a98575192846101fd565b5f80fd5b3d9150610a7b565b633ee5aeb560e01b6101c0515260046101c051fd5b346100bb5760403660031901126100bb57610ad2611659565b60045460243591906001600160a01b03163303610b365760018060a01b0316806101c0515260026020528160406101c05120557f75a24a37f901a299cd9c661617ab1893a57e34c17b82c0898ddd5114a221b4056020604051338152a36101c05180f35b60405162461bcd60e51b815260206004820152601e60248201527f4f6e6c79206f776e65722063616e2073657420707269636520666565647300006044820152606490fd5b346100bb5760203660031901126100bb576001600160a01b03610b9c611659565b166101c051526002602052602060406101c0512054604051908152f35b346100bb576101c0513660031901126100bb576004546040516001600160a01b039091168152602090f35b346100bb5760203660031901126100bb576004356101c05152600160205260e060406101c0512060018060a01b0381541690600181015490600481015460ff600660058401549301549360405195865260018060a01b0381166020870152818160a01c16604087015260a81c166060850152608084015260a083015260c0820152f35b60c0366003190112610a9857610c7b611659565b610c8361166f565b906044359060843560643560a43567ffffffffffffffff8111610a9857610cae903690600401611685565b94906040516020810190610cc78161014f8b8a866116b6565b5190205f90815260016020526040902054610cec906001600160a01b0316151561174d565b6040516020810190610d038161014f8b8a866116b6565b51902060035460405163d47eed4560e01b81529197906001600160a01b031660208380610d348588600484016117c8565b0381845afa92831561108b575f93611096575b50803b15610a9857604051631df3cbc560e31b8152935f93859384928391610d7291600484016117c8565b03925af1801561108b57611076575b50846101c05152600160205260406101c051209360018060a01b031695866101c05152600260205260406101c0512054608060018060a01b03600354169160446040518094819363052571af60e51b83526004830152603c60248301525afa90811561069d576101c05191611057575b506101c051815160070b126100bb5763ffffffff610e15604083015160030b6118cf565b16610e2960ff600189015460a01c166118e3565b80600a0290600a82040361080457610e5667ffffffffffffffff91610e50610e5f94611907565b906118f4565b925116846118f4565b106100bb5760055494610e7186611915565b600555604051610e80816116e2565b3381526003602082018581526040830187815260608401918983528a6101c051526002860160205260406101c051209460018060a01b039060018060a01b03905116166001600160601b0360a01b865416178555516001850155516002840155519101556005810180549060405191604083019280841067ffffffffffffffff85111761103d5789936040526101c05181526020810191825260016003860192856101c051528360205260406101c051209251835551910155815480611025575b5050816004840180541561101d575b50505560068101610f62848254611923565b9055546040516323b872dd60e01b8152336004820152306024820152604481018490526101c0519091602091839160649183916001600160a01b03165af1801561069d57611000575b5060405196875260018060a01b0316602087015260408601526060850152608084015260a08301527f7448c7b7b021897f4f19bd7cdda03bed9c26cf75e56ea3bafd3c0d2c7ef24f4b60c03393a36101c05180f35b6110189060203d602011610696576106898183611712565b610fab565b55818b610f50565b6101c051526020528160406101c05120558a80610f41565b634e487b7160e01b6101c05152604160045260246101c051fd5b611070915060803d608011610a2857610a1a8183611712565b88610df1565b5f61108091611712565b5f6101c05286610d81565b6040513d5f823e3d90fd5b9092506020813d6020116110c2575b816110b260209383611712565b81010312610a985751918a610d47565b3d91506110a5565b34610a98576080366003190112610a98576110e3611659565b6110eb61166f565b9060443560643592604051602081019061110a8161014f8588866116b6565b5190205f9081526001602052604090205461112f906001600160a01b0316151561174d565b60405160208101906111468161014f8588866116b6565b51902092835f52600160205260405f2060028101865f528060205260405f20906003830191885f528260205260405f209060018060a01b038154163303610a98576001018054801561134e578089116112f357886111a39161178f565b8091551561126d575b505050600681016111be85825461178f565b90555460405163a9059cbb60e01b8152336004820152602481018590529390602090859060449082905f906001600160a01b03165af192831561108b577fd3256e8bbdb24f280dca57cc82df4d5742b897cb9699d4657638aa44eb5aa17c94608094611250575b50604080513381526001600160a01b03948516602082015291909316928101929092526060820152a3005b6112689060203d602011610696576106898183611712565b611225565b805460018201549182156112e75754825f528460205260405f20555b80156112dc575f5282602052600160405f2001555b875f526020526112c260405f2060035f918281558260018201558260028201550155565b865f526020525f60016040822082815501558680806111ac565b50600584015561129e565b50806004860155611289565b60405162461bcd60e51b815260206004820152602d60248201527f636c6f736520616d6f756e7420626967676572207468616e2072656d61696e6960448201526c6e67206f726465722073697a6560981b6064820152608490fd5b60405162461bcd60e51b815260206004820152602a60248201527f6f7264657220686173206265656e2066696c6c6564206f722063616e63656c6c604482015269656420616c726561647960b01b6064820152608490fd5b34610a98576040366003190112610a98576113bf611659565b906113c861166f565b916001600160a01b0381169182151580611647575b1561160d57506001600160a01b038316928284146115c857825f52600260205260405f205415610a9857835f52600260205260405f205415610a985761143161014f916040519283916020830195866116b6565b5190205f818152600160205260409020546001600160a01b031661158b57805f526001602052600160405f20836001600160601b0360a01b8254161781550192806001600160601b0360a01b8554161784556040519263313ce56760e01b8452602084600481845afa93841561108b575f9461156a575b50845460ff60a01b19811660a09590951b60ff60a01b16948517865560405163313ce56760e01b8152949590602086600481875afa96871561108b577fbc2bccc2713ac25dc4bcda6e2a6c18b5c5cd08d9c00fa807a841a510d6c11a79976060975f9161153b575b5060ff60a81b9060a81b169161ffff60a01b19161717905560405192835260208301526040820152a1005b61155d915060203d602011611563575b6115558183611712565b810190611734565b89611510565b503d61154b565b61158491945060203d602011611563576115558183611712565b92856114a8565b60405162461bcd60e51b81526020600482015260156024820152744d61726b657420616c72656164792065786973747360581b6044820152606490fd5b60405162461bcd60e51b815260206004820152601860248201527f546f6b656e73206d75737420626520646966666572656e7400000000000000006044820152606490fd5b62461bcd60e51b8152602060048201526015602482015274496e76616c696420746f6b656e206164647265737360581b6044820152606490fd5b506001600160a01b03841615156113dd565b600435906001600160a01b0382168203610a9857565b602435906001600160a01b0382168203610a9857565b9181601f84011215610a985782359167ffffffffffffffff8311610a98576020808501948460051b010111610a9857565b90916028926001600160601b03199060601b1682526001600160601b03199060601b1660148201520190565b6080810190811067ffffffffffffffff8211176116fe57604052565b634e487b7160e01b5f52604160045260245ffd5b90601f8019910116810190811067ffffffffffffffff8211176116fe57604052565b90816020910312610a98575160ff81168103610a985790565b1561175457565b60405162461bcd60e51b81526020600482015260136024820152721b585c9ad95d08191bd95cdb9d08195e1a5cdd606a1b6044820152606490fd5b9190820391821161179c57565b634e487b7160e01b5f52601160045260245ffd5b90816020910312610a9857518015158103610a985790565b9180602084016020855252604083019060408160051b85010193835f91601e1982360301905b8484106117ff575050505050505090565b90919293949596603f19828203018752873583811215610a98578401906020823592019167ffffffffffffffff8111610a98578036038313610a98576020828280600196849695859652848401375f828201840152601f01601f19160101990197019594019291906117ee565b90816080910312610a985760405190611884826116e2565b80518060070b8103610a98578252602081015167ffffffffffffffff81168103610a985760208301526040810151908160030b8203610a985760609160408401520151606082015290565b60030b637fffffff19811461179c575f0390565b60ff16604d811161179c57600a0a90565b8181029291811591840414171561179c57565b604d811161179c57600a0a90565b5f19811461179c5760010190565b9190820180921161179c57565b811561193a570490565b634e487b7160e01b5f52601260045260245ffdfea2646970667358221220175079a59c2eccc942fe3aeb41e83d26df3aacad82b1eb3f99e5a1633f4e736864736f6c634300081e0033000000000000000000000000a2aa501b19aff244d90cc15a4cf739d2725b5729",
        "nonce": "0x6c",
        "chainId": "0x14a34"
      },
      "additionalContracts": [],
      "isFixedGasLimit": false
    },
    {
      "hash": "0x9429f65ee21edd3b11b3d688cd6322094ca1ea34292099b411c23b6c6d660097",
      "transactionType": "CALL",
      "contractName": "P2P",
      "contractAddress": "0xa6ab09b6074a07f86362430cecf4a8fab3d54d65",
      "function": "setPriceFeed(address,bytes32)",
      "arguments": [
        "0x4200000000000000000000000000000000000006",
        "0x9d4294bbcd1174d6f2003ec365831e64cc31d9f6f15a2b85399db8d5000960f6"
      ],
      "transaction": {
        "from": "0xdafe44ce6933ba24459453fe20f40d55a454a07f",
        "to": "0xa6ab09b6074a07f86362430cecf4a8fab3d54d65",
        "gas": "0x10439",
        "value": "0x0",
        "input": "0xadcb085a00000000000000000000000042000000000000000000000000000000000000069d4294bbcd1174d6f2003ec365831e64cc31d9f6f15a2b85399db8d5000960f6",
        "nonce": "0x6d",
        "chainId": "0x14a34"
      },
      "additionalContracts": [],
      "isFixedGasLimit": false
    },
    {
      "hash": "0xcf8c416e6abe363cf3ce4d18b7c7889534e392a73390f455af58ae6ad6aad19d",
      "transactionType": "CALL",
      "contractName": "P2P",
      "contractAddress": "0xa6ab09b6074a07f86362430cecf4a8fab3d54d65",
      "function": "setPriceFeed(address,bytes32)",
      "arguments": [
        "0x036CbD53842c5426634e7929541eC2318f3dCF7e",
        "0xeaa020c61cc479712813461ce153894a96a6c00b21ed0cfc2798d1f9a9e9c94a"
      ],
      "transaction": {
        "from": "0xdafe44ce6933ba24459453fe20f40d55a454a07f",
        "to": "0xa6ab09b6074a07f86362430cecf4a8fab3d54d65",
        "gas": "0x10584",
        "value": "0x0",
        "input": "0xadcb085a000000000000000000000000036cbd53842c5426634e7929541ec2318f3dcf7eeaa020c61cc479712813461ce153894a96a6c00b21ed0cfc2798d1f9a9e9c94a",
        "nonce": "0x6e",
        "chainId": "0x14a34"
      },
      "additionalContracts": [],
      "isFixedGasLimit": false
    },
    {
      "hash": "0x19f12afa308ff7e9d737d0abea48c2e218254aac4e2d11928eda0904ae38c950",
      "transactionType": "CALL",
      "contractName": "P2P",
      "contractAddress": "0xa6ab09b6074a07f86362430cecf4a8fab3d54d65",
      "function": "setPriceFeed(address,bytes32)",
      "arguments": [
        "0xE4aB69C077896252FAFBD49EFD26B5D171A32410",
        "0x8ac0c70fff57e9aefdf5edf44b51d62c2d433653cbb2cf5cc06bb115af04d221"
      ],
      "transaction": {
        "from": "0xdafe44ce6933ba24459453fe20f40d55a454a07f",
        "to": "0xa6ab09b6074a07f86362430cecf4a8fab3d54d65",
        "gas": "0x10584",
        "value": "0x0",
        "input": "0xadcb085a000000000000000000000000e4ab69c077896252fafbd49efd26b5d171a324108ac0c70fff57e9aefdf5edf44b51d62c2d433653cbb2cf5cc06bb115af04d221",
        "nonce": "0x6f",
        "chainId": "0x14a34"
      },
      "additionalContracts": [],
      "isFixedGasLimit": false
    },
    {
      "hash": "0xcc3ef218b2fc1580c9f35cae1794ee0768704da51d9315e4dabb31b3eb525976",
      "transactionType": "CALL",
      "contractName": "P2P",
      "contractAddress": "0xa6ab09b6074a07f86362430cecf4a8fab3d54d65",
      "function": "setPriceFeed(address,bytes32)",
      "arguments": [
        "0x5Fe161a97511aa3C185cBfFDCf281Fd510411343",
        "0x2b89b9dc8fdf9f34709a5b106b472f0f39bb6ca9ce04b0fd7f2e971688e2e53b"
      ],
      "transaction": {
        "from": "0xdafe44ce6933ba24459453fe20f40d55a454a07f",
        "to": "0xa6ab09b6074a07f86362430cecf4a8fab3d54d65",
        "gas": "0x10584",
        "value": "0x0",
        "input": "0xadcb085a0000000000000000000000005fe161a97511aa3c185cbffdcf281fd5104113432b89b9dc8fdf9f34709a5b106b472f0f39bb6ca9ce04b0fd7f2e971688e2e53b",
        "nonce": "0x70",
        "chainId": "0x14a34"
      },
      "additionalContracts": [],
      "isFixedGasLimit": false
    },
    {
      "hash": "0xd53a7d3946deb7848f0b53e679a444ce9bca07e989bf28e89c5d0228f905797b",
      "transactionType": "CALL",
      "contractName": "P2P",
      "contractAddress": "0xa6ab09b6074a07f86362430cecf4a8fab3d54d65",
      "function": "setPriceFeed(address,bytes32)",
      "arguments": [
        "0x58c445B391c553A216DEfEd1631997eddF604B49",
        "0x7eab5e260e42d81013207e623be60c66c9c55bfe0ace4797ad00d1c5a1335eae"
      ],
      "transaction": {
        "from": "0xdafe44ce6933ba24459453fe20f40d55a454a07f",
        "to": "0xa6ab09b6074a07f86362430cecf4a8fab3d54d65",
        "gas": "0x114d5",
        "value": "0x0",
        "input": "0xadcb085a00000000000000000000000058c445b391c553a216defed1631997eddf604b497eab5e260e42d81013207e623be60c66c9c55bfe0ace4797ad00d1c5a1335eae",
        "nonce": "0x71",
        "chainId": "0x14a34"
      },
      "additionalContracts": [],
      "isFixedGasLimit": false
    },
    {
      "hash": "0xb8dfc44d838a0ca543f5b9b8eb0491946f41aa1ed6254d1ff7207f199f80fb71",
      "transactionType": "CALL",
      "contractName": "P2P",
      "contractAddress": "0xa6ab09b6074a07f86362430cecf4a8fab3d54d65",
      "function": "setPriceFeed(address,bytes32)",
      "arguments": [
        "0xA4d20763EB35092bdd5B2545079AACF048fA96B7",
        "0x2817d7bfe5c64b8ea956e9a26f573ef64e72e4d7891f2d6af9bcc93f7aff9a97"
      ],
      "transaction": {
        "from": "0xdafe44ce6933ba24459453fe20f40d55a454a07f",
        "to": "0xa6ab09b6074a07f86362430cecf4a8fab3d54d65",
        "gas": "0x10584",
        "value": "0x0",
        "input": "0xadcb085a000000000000000000000000a4d20763eb35092bdd5b2545079aacf048fa96b72817d7bfe5c64b8ea956e9a26f573ef64e72e4d7891f2d6af9bcc93f7aff9a97",
        "nonce": "0x72",
        "chainId": "0x14a34"
      },
      "additionalContracts": [],
      "isFixedGasLimit": false
    },
    {
      "hash": "0x5889159e4bf3fee1eec472e89090f17b4b8fbfeafd0e9562ed32db2064ab7431",
      "transactionType": "CALL",
      "contractName": "P2P",
      "contractAddress": "0xa6ab09b6074a07f86362430cecf4a8fab3d54d65",
      "function": "setPriceFeed(address,bytes32)",
      "arguments": [
        "0x7f24751c3aECdCC72981CBF9bbdefAD11094AB2D",
        "0xf0d57deca57b3da2fe63a493f4c25925fdfd8edf834b20f93e1f84dbd1504d4a"
      ],
      "transaction": {
        "from": "0xdafe44ce6933ba24459453fe20f40d55a454a07f",
        "to": "0xa6ab09b6074a07f86362430cecf4a8fab3d54d65",
        "gas": "0x10584",
        "value": "0x0",
        "input": "0xadcb085a0000000000000000000000007f24751c3aecdcc72981cbf9bbdefad11094ab2df0d57deca57b3da2fe63a493f4c25925fdfd8edf834b20f93e1f84dbd1504d4a",
        "nonce": "0x73",
        "chainId": "0x14a34"
      },
      "additionalContracts": [],
      "isFixedGasLimit": false
    },
    {
      "hash": "0x26624af650915c8acab6a96683666376eff27f76fd70be4344e6968316a74774",
      "transactionType": "CALL",
      "contractName": "P2P",
      "contractAddress": "0xa6ab09b6074a07f86362430cecf4a8fab3d54d65",
      "function": "setPriceFeed(address,bytes32)",
      "arguments": [
        "0x67Abb24DAC2b03550F6594909917a5BBDFDbEDb2",
        "0x9db37f4d5654aad3e37e2e14ffd8d53265fb3026d1d8f91146539eebaa2ef45f"
      ],
      "transaction": {
        "from": "0xdafe44ce6933ba24459453fe20f40d55a454a07f",
        "to": "0xa6ab09b6074a07f86362430cecf4a8fab3d54d65",
        "gas": "0x10584",
        "value": "0x0",
        "input": "0xadcb085a00000000000000000000000067abb24dac2b03550f6594909917a5bbdfdbedb29db37f4d5654aad3e37e2e14ffd8d53265fb3026d1d8f91146539eebaa2ef45f",
        "nonce": "0x74",
        "chainId": "0x14a34"
      },
      "additionalContracts": [],
      "isFixedGasLimit": false
    },
    {
      "hash": "0xef596d54becf10b3217507cb169342efc33aeb24982024b491588ab1d2235df3",
      "transactionType": "CALL",
      "contractName": "P2P",
      "contractAddress": "0xa6ab09b6074a07f86362430cecf4a8fab3d54d65",
      "function": "setPriceFeed(address,bytes32)",
      "arguments": [
        "0xbB792AfFD9152d17E0772e2B7CcE48A17103E59d",
        "0x95fd9e16d4cfc5d1370f32bb0bf2346860ad9c92fec83acf4ca263baf16c961d"
      ],
      "transaction": {
        "from": "0xdafe44ce6933ba24459453fe20f40d55a454a07f",
        "to": "0xa6ab09b6074a07f86362430cecf4a8fab3d54d65",
        "gas": "0x10584",
        "value": "0x0",
        "input": "0xadcb085a000000000000000000000000bb792affd9152d17e0772e2b7cce48a17103e59d95fd9e16d4cfc5d1370f32bb0bf2346860ad9c92fec83acf4ca263baf16c961d",
        "nonce": "0x75",
        "chainId": "0x14a34"
      },
      "additionalContracts": [],
      "isFixedGasLimit": false
    },
    {
      "hash": "0x5536ada5a92c23bd5909fcd56aba13bd6d581b301543fc8986a8d14f85386575",
      "transactionType": "CALL",
      "contractName": "P2P",
      "contractAddress": "0xa6ab09b6074a07f86362430cecf4a8fab3d54d65",
      "function": "setPriceFeed(address,bytes32)",
      "arguments": [
        "0x69F2ecec8707359204dea8249b64a5a3d3e1aE05",
        "0xd69731a2e74ac1ce884fc3890f7ee324b6deb66147055249568869ed700882e4"
      ],
      "transaction": {
        "from": "0xdafe44ce6933ba24459453fe20f40d55a454a07f",
        "to": "0xa6ab09b6074a07f86362430cecf4a8fab3d54d65",
        "gas": "0x10584",
        "value": "0x0",
        "input": "0xadcb085a00000000000000000000000069f2ecec8707359204dea8249b64a5a3d3e1ae05d69731a2e74ac1ce884fc3890f7ee324b6deb66147055249568869ed700882e4",
        "nonce": "0x76",
        "chainId": "0x14a34"
      },
      "additionalContracts": [],
      "isFixedGasLimit": false
    }
  ],
  "receipts": [
    {
      "status": "0x1",
      "cumulativeGasUsed": "0x2fe3bf",
      "logs": [],
      "logsBloom": "0x00000000000000000000000000000000000000000000000000000000000000000000000000000000000000000000000000000000000000000000000000000000000000000000000000000000000000000000000000000000000000000000000000000000000000000000000000000000000000000000000000000000000000000000000000000000000000000000000000000000000000000000000000000000000000000000000000000000000000000000000000000000000000000000000000000000000000000000000000000000000000000000000000000000000000000000000000000000000000000000000000000000000000000000000000000000",
      "type": "0x2",
      "transactionHash": "0x2358b6fbbc2f02c57c68659cde67fc419ab6d32ba089b842f8669272aa08e45c",
      "transactionIndex": "0x8",
      "blockHash": "0x8e301c9c5c5a835d6176acff6f35978dfa7cae56eb2a2e2e217f7268527226ff",
      "blockNumber": "0x1f4c909",
      "gasUsed": "0x17c002",
      "effectiveGasPrice": "0xf427a",
      "from": "0xdafe44ce6933ba24459453fe20f40d55a454a07f",
      "to": null,
      "contractAddress": "0xa6ab09b6074a07f86362430cecf4a8fab3d54d65",
      "l1BaseFeeScalar": "0x44d",
      "l1BlobBaseFee": "0x1",
      "l1BlobBaseFeeScalar": "0xa118b",
      "l1Fee": "0xcbc",
      "l1GasPrice": "0x8",
      "l1GasUsed": "0xfe82"
    },
    {
      "status": "0x1",
      "cumulativeGasUsed": "0x30a025",
      "logs": [
        {
          "address": "0xa6ab09b6074a07f86362430cecf4a8fab3d54d65",
          "topics": [
            "0x75a24a37f901a299cd9c661617ab1893a57e34c17b82c0898ddd5114a221b405",
            "0x0000000000000000000000004200000000000000000000000000000000000006",
            "0x9d4294bbcd1174d6f2003ec365831e64cc31d9f6f15a2b85399db8d5000960f6"
          ],
          "data": "0x000000000000000000000000dafe44ce6933ba24459453fe20f40d55a454a07f",
          "blockHash": "0x8e301c9c5c5a835d6176acff6f35978dfa7cae56eb2a2e2e217f7268527226ff",
          "blockNumber": "0x1f4c909",
          "blockTimestamp": "0x68fcf0f2",
          "transactionHash": "0x9429f65ee21edd3b11b3d688cd6322094ca1ea34292099b411c23b6c6d660097",
          "transactionIndex": "0x9",
          "logIndex": "0xb",
          "removed": false
        }
      ],
      "logsBloom": "0x00000000000000000000000100000000000000000000000000000000000000000000000000000000000000000000000000000200000000000020000000000000000000000000000000000000000000000000000000000000000000000000000000000000000000000000000000000000004010000000000000000000000000000000000000000000000000000000000000000000000000000000000000000000000000000000000000000000000000000040000001000000000000000000000000200000000004000000000000200000000000000000000000000002000000000000000000000000000000000000000000000000000000000000800000000000",
      "type": "0x2",
      "transactionHash": "0x9429f65ee21edd3b11b3d688cd6322094ca1ea34292099b411c23b6c6d660097",
      "transactionIndex": "0x9",
      "blockHash": "0x8e301c9c5c5a835d6176acff6f35978dfa7cae56eb2a2e2e217f7268527226ff",
      "blockNumber": "0x1f4c909",
      "gasUsed": "0xbc66",
      "effectiveGasPrice": "0xf427a",
      "from": "0xdafe44ce6933ba24459453fe20f40d55a454a07f",
      "to": "0xa6ab09b6074a07f86362430cecf4a8fab3d54d65",
      "contractAddress": null,
      "l1BaseFeeScalar": "0x44d",
      "l1BlobBaseFee": "0x1",
      "l1BlobBaseFeeScalar": "0xa118b",
      "l1Fee": "0x50",
      "l1GasPrice": "0x8",
      "l1GasUsed": "0x640"
    },
    {
      "status": "0x1",
      "cumulativeGasUsed": "0x31fe64",
      "logs": [
        {
          "address": "0xa6ab09b6074a07f86362430cecf4a8fab3d54d65",
          "topics": [
            "0x75a24a37f901a299cd9c661617ab1893a57e34c17b82c0898ddd5114a221b405",
            "0x000000000000000000000000036cbd53842c5426634e7929541ec2318f3dcf7e",
            "0xeaa020c61cc479712813461ce153894a96a6c00b21ed0cfc2798d1f9a9e9c94a"
          ],
          "data": "0x000000000000000000000000dafe44ce6933ba24459453fe20f40d55a454a07f",
          "blockHash": "0x8e301c9c5c5a835d6176acff6f35978dfa7cae56eb2a2e2e217f7268527226ff",
          "blockNumber": "0x1f4c909",
          "blockTimestamp": "0x68fcf0f2",
          "transactionHash": "0xcf8c416e6abe363cf3ce4d18b7c7889534e392a73390f455af58ae6ad6aad19d",
          "transactionIndex": "0xb",
          "logIndex": "0xd",
          "removed": false
        }
      ],
      "logsBloom": "0x00000000000000000000000100000000000000000000000000000000000000000000000000000000000000000008000000000000000000000000000000000000000000000000000000400000000000000000000000000000000000000000000000000000000000000000000000000000004000000000000000000000000000000000000040000000000000000000000000000000000000000000000000000000000000000000000000000000000000000000000001000000100000000000000000200000000000000000000000200000000000000000000000000000000000000000000000000000000000000040000000000100000000000000800000000000",
      "type": "0x2",
      "transactionHash": "0xcf8c416e6abe363cf3ce4d18b7c7889534e392a73390f455af58ae6ad6aad19d",
      "transactionIndex": "0xb",
      "blockHash": "0x8e301c9c5c5a835d6176acff6f35978dfa7cae56eb2a2e2e217f7268527226ff",
      "blockNumber": "0x1f4c909",
      "gasUsed": "0xbd56",
      "effectiveGasPrice": "0xf427a",
      "from": "0xdafe44ce6933ba24459453fe20f40d55a454a07f",
      "to": "0xa6ab09b6074a07f86362430cecf4a8fab3d54d65",
      "contractAddress": null,
      "l1BaseFeeScalar": "0x44d",
      "l1BlobBaseFee": "0x1",
      "l1BlobBaseFeeScalar": "0xa118b",
      "l1Fee": "0x55",
      "l1GasPrice": "0x8",
      "l1GasUsed": "0x6a4"
    },
    {
      "status": "0x1",
      "cumulativeGasUsed": "0x32bbba",
      "logs": [
        {
          "address": "0xa6ab09b6074a07f86362430cecf4a8fab3d54d65",
          "topics": [
            "0x75a24a37f901a299cd9c661617ab1893a57e34c17b82c0898ddd5114a221b405",
            "0x000000000000000000000000e4ab69c077896252fafbd49efd26b5d171a32410",
            "0x8ac0c70fff57e9aefdf5edf44b51d62c2d433653cbb2cf5cc06bb115af04d221"
          ],
          "data": "0x000000000000000000000000dafe44ce6933ba24459453fe20f40d55a454a07f",
          "blockHash": "0x8e301c9c5c5a835d6176acff6f35978dfa7cae56eb2a2e2e217f7268527226ff",
          "blockNumber": "0x1f4c909",
          "blockTimestamp": "0x68fcf0f2",
          "transactionHash": "0x19f12afa308ff7e9d737d0abea48c2e218254aac4e2d11928eda0904ae38c950",
          "transactionIndex": "0xc",
          "logIndex": "0xe",
          "removed": false
        }
      ],
      "logsBloom": "0x02000000000000000000000100000000000000000000000000004000000000000000000000000000000000000000000000000000000000000000000000000000000000000000000000000000010000000000000000000000000000000000000000000000000000000000000000000000004000000000000000000000000000000000000000002000000000000000000000000000000000000000000000000000000000000000000000000000000000000000000001000000000000000000200000200000000000000000000000210000000000000000000000000000000000000000000000000000000000000000000000000000000000000000800000000000",
      "type": "0x2",
      "transactionHash": "0x19f12afa308ff7e9d737d0abea48c2e218254aac4e2d11928eda0904ae38c950",
      "transactionIndex": "0xc",
      "blockHash": "0x8e301c9c5c5a835d6176acff6f35978dfa7cae56eb2a2e2e217f7268527226ff",
      "blockNumber": "0x1f4c909",
      "gasUsed": "0xbd56",
      "effectiveGasPrice": "0xf427a",
      "from": "0xdafe44ce6933ba24459453fe20f40d55a454a07f",
      "to": "0xa6ab09b6074a07f86362430cecf4a8fab3d54d65",
      "contractAddress": null,
      "l1BaseFeeScalar": "0x44d",
      "l1BlobBaseFee": "0x1",
      "l1BlobBaseFeeScalar": "0xa118b",
      "l1Fee": "0x55",
      "l1GasPrice": "0x8",
      "l1GasUsed": "0x6a4"
    },
    {
      "status": "0x1",
      "cumulativeGasUsed": "0x337910",
      "logs": [
        {
          "address": "0xa6ab09b6074a07f86362430cecf4a8fab3d54d65",
          "topics": [
            "0x75a24a37f901a299cd9c661617ab1893a57e34c17b82c0898ddd5114a221b405",
            "0x0000000000000000000000005fe161a97511aa3c185cbffdcf281fd510411343",
            "0x2b89b9dc8fdf9f34709a5b106b472f0f39bb6ca9ce04b0fd7f2e971688e2e53b"
          ],
          "data": "0x000000000000000000000000dafe44ce6933ba24459453fe20f40d55a454a07f",
          "blockHash": "0x8e301c9c5c5a835d6176acff6f35978dfa7cae56eb2a2e2e217f7268527226ff",
          "blockNumber": "0x1f4c909",
          "blockTimestamp": "0x68fcf0f2",
          "transactionHash": "0xcc3ef218b2fc1580c9f35cae1794ee0768704da51d9315e4dabb31b3eb525976",
          "transactionIndex": "0xd",
          "logIndex": "0xf",
          "removed": false
        }
      ],
      "logsBloom": "0x00000000000000000000000100000000000000000000000000000000000000000000000000000000000000000000000000000000000000000000000000000000000001000000000000000000000010000000000000000000000000000000000000000000000000000000000000000000004000000000000000000000000000000000000000000000000000000000000000000000000000000000008000000000000000000000000000000000000010000000000001000000000000000000000000200000000000000000000000200040000000000000000000000000000000000000000000000000000000000000000000000000008000000000800000000000",
      "type": "0x2",
      "transactionHash": "0xcc3ef218b2fc1580c9f35cae1794ee0768704da51d9315e4dabb31b3eb525976",
      "transactionIndex": "0xd",
      "blockHash": "0x8e301c9c5c5a835d6176acff6f35978dfa7cae56eb2a2e2e217f7268527226ff",
      "blockNumber": "0x1f4c909",
      "gasUsed": "0xbd56",
      "effectiveGasPrice": "0xf427a",
      "from": "0xdafe44ce6933ba24459453fe20f40d55a454a07f",
      "to": "0xa6ab09b6074a07f86362430cecf4a8fab3d54d65",
      "contractAddress": null,
      "l1BaseFeeScalar": "0x44d",
      "l1BlobBaseFee": "0x1",
      "l1BlobBaseFeeScalar": "0xa118b",
      "l1Fee": "0x55",
      "l1GasPrice": "0x8",
      "l1GasUsed": "0x6a4"
    },
    {
      "status": "0x1",
      "cumulativeGasUsed": "0x34365a",
      "logs": [
        {
          "address": "0xa6ab09b6074a07f86362430cecf4a8fab3d54d65",
          "topics": [
            "0x75a24a37f901a299cd9c661617ab1893a57e34c17b82c0898ddd5114a221b405",
            "0x00000000000000000000000058c445b391c553a216defed1631997eddf604b49",
            "0x7eab5e260e42d81013207e623be60c66c9c55bfe0ace4797ad00d1c5a1335eae"
          ],
          "data": "0x000000000000000000000000dafe44ce6933ba24459453fe20f40d55a454a07f",
          "blockHash": "0x8e301c9c5c5a835d6176acff6f35978dfa7cae56eb2a2e2e217f7268527226ff",
          "blockNumber": "0x1f4c909",
          "blockTimestamp": "0x68fcf0f2",
          "transactionHash": "0xd53a7d3946deb7848f0b53e679a444ce9bca07e989bf28e89c5d0228f905797b",
          "transactionIndex": "0xe",
          "logIndex": "0x10",
          "removed": false
        }
      ],
      "logsBloom": "0x00000000000000000000000100000000000000000000000000000000010000000000000000000000000000000000000000000000000000200000000000000000000000000000000000000000000000000000000000000000000000000000000000000000000000000000000000000000004000000010000800000000000000000000020000000000000000000000000000000000000000000000000000000000000000000000000000000000000000000000000001000000000000000000000000200000000000000000000000200000000000000000000000000000000000000000000000000000000000000001000000000000000000000000800000000000",
      "type": "0x2",
      "transactionHash": "0xd53a7d3946deb7848f0b53e679a444ce9bca07e989bf28e89c5d0228f905797b",
      "transactionIndex": "0xe",
      "blockHash": "0x8e301c9c5c5a835d6176acff6f35978dfa7cae56eb2a2e2e217f7268527226ff",
      "blockNumber": "0x1f4c909",
      "gasUsed": "0xbd4a",
      "effectiveGasPrice": "0xf427a",
      "from": "0xdafe44ce6933ba24459453fe20f40d55a454a07f",
      "to": "0xa6ab09b6074a07f86362430cecf4a8fab3d54d65",
      "contractAddress": null,
      "l1BaseFeeScalar": "0x44d",
      "l1BlobBaseFee": "0x1",
      "l1BlobBaseFeeScalar": "0xa118b",
      "l1Fee": "0x55",
      "l1GasPrice": "0x8",
      "l1GasUsed": "0x6a4"
    },
    {
      "status": "0x1",
      "cumulativeGasUsed": "0x34f3b0",
      "logs": [
        {
          "address": "0xa6ab09b6074a07f86362430cecf4a8fab3d54d65",
          "topics": [
            "0x75a24a37f901a299cd9c661617ab1893a57e34c17b82c0898ddd5114a221b405",
            "0x000000000000000000000000a4d20763eb35092bdd5b2545079aacf048fa96b7",
            "0x2817d7bfe5c64b8ea956e9a26f573ef64e72e4d7891f2d6af9bcc93f7aff9a97"
          ],
          "data": "0x000000000000000000000000dafe44ce6933ba24459453fe20f40d55a454a07f",
          "blockHash": "0x8e301c9c5c5a835d6176acff6f35978dfa7cae56eb2a2e2e217f7268527226ff",
          "blockNumber": "0x1f4c909",
          "blockTimestamp": "0x68fcf0f2",
          "transactionHash": "0xb8dfc44d838a0ca543f5b9b8eb0491946f41aa1ed6254d1ff7207f199f80fb71",
          "transactionIndex": "0xf",
          "logIndex": "0x11",
          "removed": false
        }
      ],
      "logsBloom": "0x00000000000000000000000100000000000200000000000000000000000000000000000000000000000000000000000000000000000000000000000000000000004000000000000000000000000000000000000000000000000000000000000000000000000000000000000000000000004000000000000000000000000000000000000000000000000000000000000000000000000000000000000000000000000000040000000000000000000000000000000001000000000000000000000000200000000000000000000000204000000000000000000000000000000000000000000000000000000000000000000002000000000000000000800000000000",
      "type": "0x2",
      "transactionHash": "0xb8dfc44d838a0ca543f5b9b8eb0491946f41aa1ed6254d1ff7207f199f80fb71",
      "transactionIndex": "0xf",
      "blockHash": "0x8e301c9c5c5a835d6176acff6f35978dfa7cae56eb2a2e2e217f7268527226ff",
      "blockNumber": "0x1f4c909",
      "gasUsed": "0xbd56",
      "effectiveGasPrice": "0xf427a",
      "from": "0xdafe44ce6933ba24459453fe20f40d55a454a07f",
      "to": "0xa6ab09b6074a07f86362430cecf4a8fab3d54d65",
      "contractAddress": null,
      "l1BaseFeeScalar": "0x44d",
      "l1BlobBaseFee": "0x1",
      "l1BlobBaseFeeScalar": "0xa118b",
      "l1Fee": "0x55",
      "l1GasPrice": "0x8",
      "l1GasUsed": "0x6a4"
    },
    {
      "status": "0x1",
      "cumulativeGasUsed": "0x55cce1",
      "logs": [
        {
          "address": "0xa6ab09b6074a07f86362430cecf4a8fab3d54d65",
          "topics": [
            "0x75a24a37f901a299cd9c661617ab1893a57e34c17b82c0898ddd5114a221b405",
            "0x0000000000000000000000007f24751c3aecdcc72981cbf9bbdefad11094ab2d",
            "0xf0d57deca57b3da2fe63a493f4c25925fdfd8edf834b20f93e1f84dbd1504d4a"
          ],
          "data": "0x000000000000000000000000dafe44ce6933ba24459453fe20f40d55a454a07f",
          "blockHash": "0x8e301c9c5c5a835d6176acff6f35978dfa7cae56eb2a2e2e217f7268527226ff",
          "blockNumber": "0x1f4c909",
          "blockTimestamp": "0x68fcf0f2",
          "transactionHash": "0x5889159e4bf3fee1eec472e89090f17b4b8fbfeafd0e9562ed32db2064ab7431",
          "transactionIndex": "0x1a",
          "logIndex": "0x27",
          "removed": false
        }
      ],
      "logsBloom": "0x00000000008000000000000100000000000000000000000000000000000000000000000000000000000000000000000000000000000000000000000000000000000000000004000000000000000000000000000000000000000000000000000000000000000000000000000000000000004000000000000000000000000000000000000000000000000000000000000000000000000000000000000000000000000000200000000000000000000000000000000001000000000000000000000000200040000000000000000000200000000000000000004000000000000080000000000000000000000000000000000000000000000000000000800000000000",
      "type": "0x2",
      "transactionHash": "0x5889159e4bf3fee1eec472e89090f17b4b8fbfeafd0e9562ed32db2064ab7431",
      "transactionIndex": "0x1a",
      "blockHash": "0x8e301c9c5c5a835d6176acff6f35978dfa7cae56eb2a2e2e217f7268527226ff",
      "blockNumber": "0x1f4c909",
      "gasUsed": "0xbd56",
      "effectiveGasPrice": "0xf427a",
      "from": "0xdafe44ce6933ba24459453fe20f40d55a454a07f",
      "to": "0xa6ab09b6074a07f86362430cecf4a8fab3d54d65",
      "contractAddress": null,
      "l1BaseFeeScalar": "0x44d",
      "l1BlobBaseFee": "0x1",
      "l1BlobBaseFeeScalar": "0xa118b",
      "l1Fee": "0x55",
      "l1GasPrice": "0x8",
      "l1GasUsed": "0x6a4"
    },
    {
      "status": "0x1",
      "cumulativeGasUsed": "0x568a37",
      "logs": [
        {
          "address": "0xa6ab09b6074a07f86362430cecf4a8fab3d54d65",
          "topics": [
            "0x75a24a37f901a299cd9c661617ab1893a57e34c17b82c0898ddd5114a221b405",
            "0x00000000000000000000000067abb24dac2b03550f6594909917a5bbdfdbedb2",
            "0x9db37f4d5654aad3e37e2e14ffd8d53265fb3026d1d8f91146539eebaa2ef45f"
          ],
          "data": "0x000000000000000000000000dafe44ce6933ba24459453fe20f40d55a454a07f",
          "blockHash": "0x8e301c9c5c5a835d6176acff6f35978dfa7cae56eb2a2e2e217f7268527226ff",
          "blockNumber": "0x1f4c909",
          "blockTimestamp": "0x68fcf0f2",
          "transactionHash": "0x26624af650915c8acab6a96683666376eff27f76fd70be4344e6968316a74774",
          "transactionIndex": "0x1b",
          "logIndex": "0x28",
          "removed": false
        }
      ],
      "logsBloom": "0x00000000000000000000000100000000000000800000000000000000000000000000000000000000000000000000000000000000000000000000000000000000000000000800000000000000000000000000000000000000000000000000004000000000000000000000000000000000004000000000000000000000000000000000000000000000000000000000000000000000000400000000000000000000000000000000000000000000000000000000000005000000000000000000000000200000000000000000000000200000000000000000000000000000000000000000000000000000000000000000000080000000000000000000800000000000",
      "type": "0x2",
      "transactionHash": "0x26624af650915c8acab6a96683666376eff27f76fd70be4344e6968316a74774",
      "transactionIndex": "0x1b",
      "blockHash": "0x8e301c9c5c5a835d6176acff6f35978dfa7cae56eb2a2e2e217f7268527226ff",
      "blockNumber": "0x1f4c909",
      "gasUsed": "0xbd56",
      "effectiveGasPrice": "0xf427a",
      "from": "0xdafe44ce6933ba24459453fe20f40d55a454a07f",
      "to": "0xa6ab09b6074a07f86362430cecf4a8fab3d54d65",
      "contractAddress": null,
      "l1BaseFeeScalar": "0x44d",
      "l1BlobBaseFee": "0x1",
      "l1BlobBaseFeeScalar": "0xa118b",
      "l1Fee": "0x55",
      "l1GasPrice": "0x8",
      "l1GasUsed": "0x6a4"
    },
    {
      "status": "0x1",
      "cumulativeGasUsed": "0x57478d",
      "logs": [
        {
          "address": "0xa6ab09b6074a07f86362430cecf4a8fab3d54d65",
          "topics": [
            "0x75a24a37f901a299cd9c661617ab1893a57e34c17b82c0898ddd5114a221b405",
            "0x000000000000000000000000bb792affd9152d17e0772e2b7cce48a17103e59d",
            "0x95fd9e16d4cfc5d1370f32bb0bf2346860ad9c92fec83acf4ca263baf16c961d"
          ],
          "data": "0x000000000000000000000000dafe44ce6933ba24459453fe20f40d55a454a07f",
          "blockHash": "0x8e301c9c5c5a835d6176acff6f35978dfa7cae56eb2a2e2e217f7268527226ff",
          "blockNumber": "0x1f4c909",
          "blockTimestamp": "0x68fcf0f2",
          "transactionHash": "0xef596d54becf10b3217507cb169342efc33aeb24982024b491588ab1d2235df3",
          "transactionIndex": "0x1c",
          "logIndex": "0x29",
          "removed": false
        }
      ],
      "logsBloom": "0x80000000000000000000000100000000000000000000000000000000000000000000000000000000000002000000000000000000000000000000000000000000000000000000000000000000000000000000000000000000000000000000000000000000000000000000000000000000004000000000000000000000000000000000000000000000100000000000000000000000000000000008000000000000000000000000000000000000000000000000000001000000000200000000000000200000000000000000000000200000000000000000000000000000000000000400000000000000000000000000000000000000000000000000800000000000",
      "type": "0x2",
      "transactionHash": "0xef596d54becf10b3217507cb169342efc33aeb24982024b491588ab1d2235df3",
      "transactionIndex": "0x1c",
      "blockHash": "0x8e301c9c5c5a835d6176acff6f35978dfa7cae56eb2a2e2e217f7268527226ff",
      "blockNumber": "0x1f4c909",
      "gasUsed": "0xbd56",
      "effectiveGasPrice": "0xf427a",
      "from": "0xdafe44ce6933ba24459453fe20f40d55a454a07f",
      "to": "0xa6ab09b6074a07f86362430cecf4a8fab3d54d65",
      "contractAddress": null,
      "l1BaseFeeScalar": "0x44d",
      "l1BlobBaseFee": "0x1",
      "l1BlobBaseFeeScalar": "0xa118b",
      "l1Fee": "0x55",
      "l1GasPrice": "0x8",
      "l1GasUsed": "0x6a4"
    },
    {
      "status": "0x1",
      "cumulativeGasUsed": "0x5804e3",
      "logs": [
        {
          "address": "0xa6ab09b6074a07f86362430cecf4a8fab3d54d65",
          "topics": [
            "0x75a24a37f901a299cd9c661617ab1893a57e34c17b82c0898ddd5114a221b405",
            "0x00000000000000000000000069f2ecec8707359204dea8249b64a5a3d3e1ae05",
            "0xd69731a2e74ac1ce884fc3890f7ee324b6deb66147055249568869ed700882e4"
          ],
          "data": "0x000000000000000000000000dafe44ce6933ba24459453fe20f40d55a454a07f",
          "blockHash": "0x8e301c9c5c5a835d6176acff6f35978dfa7cae56eb2a2e2e217f7268527226ff",
          "blockNumber": "0x1f4c909",
          "blockTimestamp": "0x68fcf0f2",
          "transactionHash": "0x5536ada5a92c23bd5909fcd56aba13bd6d581b301543fc8986a8d14f85386575",
          "transactionIndex": "0x1d",
          "logIndex": "0x2a",
          "removed": false
        }
      ],
      "logsBloom": "0x00000000000000000000000100000000000000000000000000000000000000000000000000000000000000000000000000000000000000000000000000800000004000000000000000000000000000010000000000000000000000000000000000000000000000000000000000000000004000000000400000000000000000000000000000000000000000000000000000000000000000000000000000000000000000000000000000000000000000000000000001000000000000000000000000200000000000000000000000200000000000000000000000000008000000004000000000000000000000000000000000000000000000000000800000000000",
      "type": "0x2",
      "transactionHash": "0x5536ada5a92c23bd5909fcd56aba13bd6d581b301543fc8986a8d14f85386575",
      "transactionIndex": "0x1d",
      "blockHash": "0x8e301c9c5c5a835d6176acff6f35978dfa7cae56eb2a2e2e217f7268527226ff",
      "blockNumber": "0x1f4c909",
      "gasUsed": "0xbd56",
      "effectiveGasPrice": "0xf427a",
      "from": "0xdafe44ce6933ba24459453fe20f40d55a454a07f",
      "to": "0xa6ab09b6074a07f86362430cecf4a8fab3d54d65",
      "contractAddress": null,
      "l1BaseFeeScalar": "0x44d",
      "l1BlobBaseFee": "0x1",
      "l1BlobBaseFeeScalar": "0xa118b",
      "l1Fee": "0x55",
      "l1GasPrice": "0x8",
      "l1GasUsed": "0x6a4"
    }
  ],
  "libraries": [],
  "pending": [],
  "returns": {},
  "timestamp": 1761407221371,
  "chain": 84532,
  "commit": "5a552f8"
}