{
  "transactions": [
    {
      "hash": "0x15cfe0d2f064b13febafe4ba284613aaa06a26748380c398d131ec80a586e935",
      "transactionType": "CREATE",
      "contractName": "P2P",
      "contractAddress": "0x2a942237037394852f34cba4fcec3df00ff0aa6a",
      "function": null,
      "arguments": [
        "0xA2aa501b19aff244D90cc15a4Cf739D2725B5729"
      ],
      "transaction": {
        "from": "0xdafe44ce6933ba24459453fe20f40d55a454a07f",
        "gas": "0x1c28ad",
        "value": "0x0",
        "input": "0x608034608157601f61180a38819003918201601f19168301916001600160401b03831184841017608557808492602094604052833981010312608157516001600160a01b0381169081900360815760015f55600380546001600160a01b03199081169290921790556004805490911633179055604051611770908161009a8239f35b5f80fd5b634e487b7160e01b5f52604160045260245ffdfe610200806040526004361015610013575f80fd5b5f905f3560e01c908163207fd12614611168575080634e10ebb414610e8c578063518e62db14610c205780637564912b14610b975780638da5cb5b14610b6f5780639dcb511a14610b37578063adcb085a14610a80578063cdb788eb146100ad5763f98d06f014610082575f80fd5b346100aa57806003193601126100aa576003546040516001600160a01b039091168152602090f35b80fd5b506080366003190112610a395760043567ffffffffffffffff8111610a395736602382011215610a3957806004013567ffffffffffffffff8111610a39576024820191602436918360051b010111610a395761010761143c565b6101a0526044356101008190526001600160a01b0381169003610a3957604051602081019061014f81610141610100516101a05186611452565b03601f19810183528261149a565b5190205f90815260016020526040902054610174906001600160a01b031615156114d5565b60025f5414610a715760025f55604051602081019061019e81610141610100516101a05186611452565b5190206101605260035460405163d47eed4560e01b815291906001600160a01b0316602083806101d285886004840161156b565b0381845afa928315610a2e575f93610a3d575b5061020a6040516101f760408261149a565b60018152603160f81b60208201526116d6565b803b15610a3957604051631df3cbc560e31b8152935f93859384928391610234916004840161156b565b03925af18015610a2e57610a1b575b506101a0516001600160a01b0390811682526002602081815260408085205461010051851686529290915280842054600354915163052571af60e51b815260048101939093526301e13380602484015291921690608083604481855afa928315610a105784936109ee575b5060809060446040518094819363052571af60e51b835260048301526301e1338060248301525afa9081156108fa5783916109bf575b506103096040516102f660408261149a565b60018152601960f91b60208201526116d6565b82825160070b126109bb5782815160070b126109bb5763ffffffff610334604084015160030b611672565b1667ffffffffffffffff63ffffffff610353604085015160030b611672565b169361037960405161036660408261149a565b60018152603360f81b60208201526116d6565b511690670de0b6b3a7640000820291808304670de0b6b3a764000014901517156109a75767ffffffffffffffff92916103b46103ba92611699565b906116a7565b6101c052511690670de0b6b3a7640000820291808304670de0b6b3a7640000149015171561097f57906103b46103ef92611699565b61041360405161040060408261149a565b60018152600d60fa1b60208201526116d6565b620187046101c05102906101c051156101c0518304620187041481171561099357620186d26101c05102610140526101c0516101405104620186d214171561097f576101605183526001602052604083209261048960405161047660408261149a565b60018152603560f81b60208201526116d6565b6104d96001850154936104af60ff6104a5818860a01c166116c5565b9660a81c166116c5565b60c0526103b46104ca866104c587606435611686565b611686565b91620186a060c0519104611686565b92831561097b576006850154841161097b57816101e052819460048101549583610180525b603261018051108061096f575b80610966575b156107cf57868452600282016020526040842096808552600383016020526040852080549260028a015480151590816107c2575b50801561079f575b61079557906105db6105b693926105676101e0518c611517565b6101208a905260018d0154919080831061078a57610120525b6105a98b6103b48b6105a360c0516104c5620186a0610140510461012051611686565b92611686565b9586926101205190611517565b60e0528c600160e0519101556105d2610120516101e051611550565b6101e052611550565b99546001600160a01b031660a05260e051156106f8575b5060405160808181526323b872dd60e01b909152805160a0513360048301526001600160a01b03908116602483015260448201859052915161010051602093606492918b91165af180156106ed576106ba575b6040519160018060a01b036101a05116835260018060a01b0361010051166020840152610120516040840152606083015233917fc6660e365b3b6bede9a0359f8ed99f67bbe20f7e8be55a00d1881b5a3cdb99f560806101605192a4935b6106af6101805161155d565b6101805293956104fe565b60203d81116106e6575b806106d46106e09260805161149a565b60805101608051611538565b50610645565b503d6106c4565b6040513d88823e3d90fd5b805460019091015490811561077f57818852600386016020528060408920555b80156107745787526003850160205260016040882001555b808652600284016020526107586040872060035f918281558260018201558260028201550155565b808652600384016020528560016040822082815501555f6105f2565b506005850155610730565b806004870155610718565b508161012052610580565b98505050936106a3565b5060038a015480151590816107b5575b5061054d565b90506101c051105f6107af565b90506101c051115f610545565b91506101e051156109055760066107ec6101e05182840154611517565b91015560405163a9059cbb60e01b81526101e05133600483015260248201526101a0519091906020908390604490829087906001600160a01b03165af19182156108fa57610842926108dd575b50606435611517565b80610850575b506001815580f35b600480546040516323b872dd60e01b815233928101929092526001600160a01b031660248201526044810191909152602081806064810103818560018060a01b0361010051165af180156108d25715610848576108c49060203d6020116108cb575b6108bc818361149a565b810190611538565b5081610848565b503d6108b2565b6040513d84823e3d90fd5b6108f59060203d6020116108cb576108bc818361149a565b610839565b6040513d85823e3d90fd5b60405162461bcd60e51b815260206004820152603360248201527f4e6f206f72646572732061742063757272656e74207072696365206c6576656c6044820152721cc8185d985a5b18589b19481d1bc8199a5b1b606a1b6064820152608490fd5b50861515610511565b50856101e0511061050b565b5080fd5b634e487b7160e01b83526011600452602483fd5b634e487b7160e01b84526011600452602484fd5b634e487b7160e01b85526011600452602485fd5b8280fd5b6109e1915060803d6080116109e7575b6109d9818361149a565b81019061160f565b5f6102e4565b503d6109cf565b6080919350610a0990823d84116109e7576109d9818361149a565b92906102ae565b6040513d86823e3d90fd5b610a2791505f9061149a565b5f5f610243565b6040513d5f823e3d90fd5b5f80fd5b9092506020813d602011610a69575b81610a596020938361149a565b81010312610a395751915f6101e5565b3d9150610a4c565b633ee5aeb560e01b5f5260045ffd5b34610a39576040366003190112610a3957610a99611426565b60045460243591906001600160a01b03163303610af25760018060a01b0316805f5260026020528160405f20557f75a24a37f901a299cd9c661617ab1893a57e34c17b82c0898ddd5114a221b4056020604051338152a3005b60405162461bcd60e51b815260206004820152601e60248201527f4f6e6c79206f776e65722063616e2073657420707269636520666565647300006044820152606490fd5b34610a39576020366003190112610a39576001600160a01b03610b58611426565b165f526002602052602060405f2054604051908152f35b34610a39575f366003190112610a39576004546040516001600160a01b039091168152602090f35b34610a39576020366003190112610a39576004355f52600160205261010060405f2060018060a01b0381541690600181015490600481015460058201549060ff600760068501549401549460405196875260018060a01b0381166020880152818160a01c16604088015260a81c166060860152608085015260a084015260c083015260e0820152f35b34610a395760a0366003190112610a3957610c39611426565b610c4161143c565b60443590606435608435906040516020810190610c6381610141878a86611452565b5190205f90815260016020526040902054610c88906001600160a01b031615156114d5565b6040516020810190610c9f81610141878a86611452565b51902093845f52600160205260405f20936007850194855495604051610cc48161147e565b3381526003602082018681526040830188815260608401918a83528b5f526002870160205260405f209460018060a01b039060018060a01b03905116166001600160601b0360a01b865416178555516001850155516002840155519101556005820180549060405191604083019280841067ffffffffffffffff851117610e78578a936040525f81526020810191825260016003870192855f528360205260405f209251835551910155815480610e66575b50508160048501805415610e5e575b50505560068201610d97858254611550565b9055610da3815461155d565b9055546040516323b872dd60e01b81523360048201523060248201526044810184905290602090829060649082905f906001600160a01b03165af18015610a2e57610e41575b50604080516001600160a01b039889168152919097166020820152958601526060850152608084015260a083015233917f7448c7b7b021897f4f19bd7cdda03bed9c26cf75e56ea3bafd3c0d2c7ef24f4b9060c090a3005b610e599060203d6020116108cb576108bc818361149a565b610de9565b55818c610d85565b5f526020528160405f20558b80610d76565b634e487b7160e01b5f52604160045260245ffd5b34610a39576080366003190112610a3957610ea5611426565b610ead61143c565b90604435606435926040516020810190610ecc81610141858886611452565b5190205f90815260016020526040902054610ef1906001600160a01b031615156114d5565b6040516020810190610f0881610141858886611452565b51902092835f52600160205260405f2060028101865f528060205260405f20906003830191885f528260205260405f209060018060a01b038154163303610a395760010180548015611110578089116110b55788610f6591611517565b8091551561102f575b50505060068101610f80858254611517565b90555460405163a9059cbb60e01b8152336004820152602481018590529390602090859060449082905f906001600160a01b03165af1928315610a2e577fd3256e8bbdb24f280dca57cc82df4d5742b897cb9699d4657638aa44eb5aa17c94608094611012575b50604080513381526001600160a01b03948516602082015291909316928101929092526060820152a3005b61102a9060203d6020116108cb576108bc818361149a565b610fe7565b805460018201549182156110a95754825f528460205260405f20555b801561109e575f5282602052600160405f2001555b875f5260205261108460405f2060035f918281558260018201558260028201550155565b865f526020525f6001604082208281550155868080610f6e565b506005840155611060565b5080600486015561104b565b60405162461bcd60e51b815260206004820152602d60248201527f636c6f736520616d6f756e7420626967676572207468616e2072656d61696e6960448201526c6e67206f726465722073697a6560981b6064820152608490fd5b60405162461bcd60e51b815260206004820152602a60248201527f6f7264657220686173206265656e2066696c6c6564206f722063616e63656c6c604482015269656420616c726561647960b01b6064820152608490fd5b34610a39576040366003190112610a3957611181611426565b61118961143c565b6001600160a01b0382169290919083151580611414575b156113da57506001600160a01b0382169183831461139557835f52600260205260405f205415610a3957825f52600260205260405f205415610a39576111f461014191604051928391602083019586611452565b5190205f818152600160205260409020546001600160a01b031661135857805f52600160205260405f2091836001600160601b0360a01b8454161783556001830193816001600160601b0360a01b8654161785556040519463313ce56760e01b8652602086600481855afa958615610a2e575f96611337575b50805460ff60a01b19811660a09790971b60ff60a01b16968717825560405163313ce56760e01b8152909695602082600481885afa928315610a2e577fbc2bccc2713ac25dc4bcda6e2a6c18b5c5cd08d9c00fa807a841a510d6c11a79986060986001956007955f91611308575b5060ff60a81b9060a81b169161ffff60a01b191617179055015560405192835260208301526040820152a1005b61132a915060203d602011611330575b611322818361149a565b8101906114bc565b8c6112db565b503d611318565b61135191965060203d60201161133057611322818361149a565b948661126d565b60405162461bcd60e51b81526020600482015260156024820152744d61726b657420616c72656164792065786973747360581b6044820152606490fd5b60405162461bcd60e51b815260206004820152601860248201527f546f6b656e73206d75737420626520646966666572656e7400000000000000006044820152606490fd5b62461bcd60e51b8152602060048201526015602482015274496e76616c696420746f6b656e206164647265737360581b6044820152606490fd5b506001600160a01b03831615156111a0565b600435906001600160a01b0382168203610a3957565b602435906001600160a01b0382168203610a3957565b90916028926001600160601b03199060601b1682526001600160601b03199060601b1660148201520190565b6080810190811067ffffffffffffffff821117610e7857604052565b90601f8019910116810190811067ffffffffffffffff821117610e7857604052565b90816020910312610a39575160ff81168103610a395790565b156114dc57565b60405162461bcd60e51b81526020600482015260136024820152721b585c9ad95d08191bd95cdb9d08195e1a5cdd606a1b6044820152606490fd5b9190820391821161152457565b634e487b7160e01b5f52601160045260245ffd5b90816020910312610a3957518015158103610a395790565b9190820180921161152457565b5f1981146115245760010190565b9180602084016020855252604083019060408160051b85010193835f91601e1982360301905b8484106115a2575050505050505090565b90919293949596603f19828203018752873583811215610a39578401906020823592019167ffffffffffffffff8111610a39578036038313610a39576020828280600196849695859652848401375f828201840152601f01601f1916010199019701959401929190611591565b90816080910312610a3957604051906116278261147e565b80518060070b8103610a39578252602081015167ffffffffffffffff81168103610a395760208301526040810151908160030b8203610a395760609160408401520151606082015290565b60030b637fffffff198114611524575f0390565b8181029291811591840414171561152457565b604d811161152457600a0a90565b81156116b1570490565b634e487b7160e01b5f52601260045260245ffd5b60ff16604d811161152457600a0a90565b5f809160405161172760648260208082019563104c13eb60e21b87528160248401528051918291826044860152018484015e86838284010152601f801991011681010301601f19810183528261149a565b51906a636f6e736f6c652e6c6f675afa5056fea2646970667358221220c0519b4bc224c0828939e885d8e2cd964f759db10b695d27121032eef08a640264736f6c634300081e0033000000000000000000000000a2aa501b19aff244d90cc15a4cf739d2725b5729",
        "nonce": "0x7",
        "chainId": "0x14a34"
      },
      "additionalContracts": [],
      "isFixedGasLimit": false
    },
    {
      "hash": "0x60d795b549d2d710dcb240bcd8e22ff442b5f1595f42673d4e9771052c6081bc",
      "transactionType": "CALL",
      "contractName": "P2P",
      "contractAddress": "0x2a942237037394852f34cba4fcec3df00ff0aa6a",
      "function": "setPriceFeed(address,bytes32)",
      "arguments": [
        "0x4200000000000000000000000000000000000006",
        "0x9d4294bbcd1174d6f2003ec365831e64cc31d9f6f15a2b85399db8d5000960f6"
      ],
      "transaction": {
        "from": "0xdafe44ce6933ba24459453fe20f40d55a454a07f",
        "to": "0x2a942237037394852f34cba4fcec3df00ff0aa6a",
        "gas": "0x1040d",
        "value": "0x0",
        "input": "0xadcb085a00000000000000000000000042000000000000000000000000000000000000069d4294bbcd1174d6f2003ec365831e64cc31d9f6f15a2b85399db8d5000960f6",
        "nonce": "0x8",
        "chainId": "0x14a34"
      },
      "additionalContracts": [],
      "isFixedGasLimit": false
    },
    {
      "hash": "0xdcf3d4e16bd5e5dfff567d03002d85d73469a3fe963a819758ab3f7d4f79e335",
      "transactionType": "CALL",
      "contractName": "P2P",
      "contractAddress": "0x2a942237037394852f34cba4fcec3df00ff0aa6a",
      "function": "setPriceFeed(address,bytes32)",
      "arguments": [
        "0x036CbD53842c5426634e7929541eC2318f3dCF7e",
        "0xeaa020c61cc479712813461ce153894a96a6c00b21ed0cfc2798d1f9a9e9c94a"
      ],
      "transaction": {
        "from": "0xdafe44ce6933ba24459453fe20f40d55a454a07f",
        "to": "0x2a942237037394852f34cba4fcec3df00ff0aa6a",
        "gas": "0x10558",
        "value": "0x0",
        "input": "0xadcb085a000000000000000000000000036cbd53842c5426634e7929541ec2318f3dcf7eeaa020c61cc479712813461ce153894a96a6c00b21ed0cfc2798d1f9a9e9c94a",
        "nonce": "0x9",
        "chainId": "0x14a34"
      },
      "additionalContracts": [],
      "isFixedGasLimit": false
    },
    {
      "hash": "0xee322245e8d95726f7fc771ecef9bcdaaf450fa8d88e1e252ca8ceda7c4ced51",
      "transactionType": "CALL",
      "contractName": "P2P",
      "contractAddress": "0x2a942237037394852f34cba4fcec3df00ff0aa6a",
      "function": "setPriceFeed(address,bytes32)",
      "arguments": [
        "0xE4aB69C077896252FAFBD49EFD26B5D171A32410",
        "0x8ac0c70fff57e9aefdf5edf44b51d62c2d433653cbb2cf5cc06bb115af04d221"
      ],
      "transaction": {
        "from": "0xdafe44ce6933ba24459453fe20f40d55a454a07f",
        "to": "0x2a942237037394852f34cba4fcec3df00ff0aa6a",
        "gas": "0x10558",
        "value": "0x0",
        "input": "0xadcb085a000000000000000000000000e4ab69c077896252fafbd49efd26b5d171a324108ac0c70fff57e9aefdf5edf44b51d62c2d433653cbb2cf5cc06bb115af04d221",
        "nonce": "0xa",
        "chainId": "0x14a34"
      },
      "additionalContracts": [],
      "isFixedGasLimit": false
    },
    {
      "hash": "0x96f685bf462d73c1747ab2ce6364d24b9899c7855a26b7c6d22ef094eac7b90d",
      "transactionType": "CALL",
      "contractName": "P2P",
      "contractAddress": "0x2a942237037394852f34cba4fcec3df00ff0aa6a",
      "function": "setPriceFeed(address,bytes32)",
      "arguments": [
        "0x5Fe161a97511aa3C185cBfFDCf281Fd510411343",
        "0x2b89b9dc8fdf9f34709a5b106b472f0f39bb6ca9ce04b0fd7f2e971688e2e53b"
      ],
      "transaction": {
        "from": "0xdafe44ce6933ba24459453fe20f40d55a454a07f",
        "to": "0x2a942237037394852f34cba4fcec3df00ff0aa6a",
        "gas": "0x10558",
        "value": "0x0",
        "input": "0xadcb085a0000000000000000000000005fe161a97511aa3c185cbffdcf281fd5104113432b89b9dc8fdf9f34709a5b106b472f0f39bb6ca9ce04b0fd7f2e971688e2e53b",
        "nonce": "0xb",
        "chainId": "0x14a34"
      },
      "additionalContracts": [],
      "isFixedGasLimit": false
    },
    {
      "hash": "0x9cbdbd3506d9d6b25abb8cf221bfff5f9adea156b4f18cc6f42d9c89e0bd0ff2",
      "transactionType": "CALL",
      "contractName": "P2P",
      "contractAddress": "0x2a942237037394852f34cba4fcec3df00ff0aa6a",
      "function": "setPriceFeed(address,bytes32)",
      "arguments": [
        "0x58c445B391c553A216DEfEd1631997eddF604B49",
        "0x7eab5e260e42d81013207e623be60c66c9c55bfe0ace4797ad00d1c5a1335eae"
      ],
      "transaction": {
        "from": "0xdafe44ce6933ba24459453fe20f40d55a454a07f",
        "to": "0x2a942237037394852f34cba4fcec3df00ff0aa6a",
        "gas": "0x114a6",
        "value": "0x0",
        "input": "0xadcb085a00000000000000000000000058c445b391c553a216defed1631997eddf604b497eab5e260e42d81013207e623be60c66c9c55bfe0ace4797ad00d1c5a1335eae",
        "nonce": "0xc",
        "chainId": "0x14a34"
      },
      "additionalContracts": [],
      "isFixedGasLimit": false
    },
    {
      "hash": "0x7fa36f1d82cf418b4e04b4b9f9f17857b9ee5060e17a316e606e74957f26c9d4",
      "transactionType": "CALL",
      "contractName": "P2P",
      "contractAddress": "0x2a942237037394852f34cba4fcec3df00ff0aa6a",
      "function": "setPriceFeed(address,bytes32)",
      "arguments": [
        "0xA4d20763EB35092bdd5B2545079AACF048fA96B7",
        "0x2817d7bfe5c64b8ea956e9a26f573ef64e72e4d7891f2d6af9bcc93f7aff9a97"
      ],
      "transaction": {
        "from": "0xdafe44ce6933ba24459453fe20f40d55a454a07f",
        "to": "0x2a942237037394852f34cba4fcec3df00ff0aa6a",
        "gas": "0x10558",
        "value": "0x0",
        "input": "0xadcb085a000000000000000000000000a4d20763eb35092bdd5b2545079aacf048fa96b72817d7bfe5c64b8ea956e9a26f573ef64e72e4d7891f2d6af9bcc93f7aff9a97",
        "nonce": "0xd",
        "chainId": "0x14a34"
      },
      "additionalContracts": [],
      "isFixedGasLimit": false
    },
    {
      "hash": "0x168dc39832dacf95107029875e9c156bbce8b1947dbd9a2003d67b23be9b7e75",
      "transactionType": "CALL",
      "contractName": "P2P",
      "contractAddress": "0x2a942237037394852f34cba4fcec3df00ff0aa6a",
      "function": "setPriceFeed(address,bytes32)",
      "arguments": [
        "0x7f24751c3aECdCC72981CBF9bbdefAD11094AB2D",
        "0xf0d57deca57b3da2fe63a493f4c25925fdfd8edf834b20f93e1f84dbd1504d4a"
      ],
      "transaction": {
        "from": "0xdafe44ce6933ba24459453fe20f40d55a454a07f",
        "to": "0x2a942237037394852f34cba4fcec3df00ff0aa6a",
        "gas": "0x10558",
        "value": "0x0",
        "input": "0xadcb085a0000000000000000000000007f24751c3aecdcc72981cbf9bbdefad11094ab2df0d57deca57b3da2fe63a493f4c25925fdfd8edf834b20f93e1f84dbd1504d4a",
        "nonce": "0xe",
        "chainId": "0x14a34"
      },
      "additionalContracts": [],
      "isFixedGasLimit": false
    },
    {
      "hash": "0xc472b58f97da2d0c92380b7d5439ad7a799959452e09f940437b307527f28eb2",
      "transactionType": "CALL",
      "contractName": "P2P",
      "contractAddress": "0x2a942237037394852f34cba4fcec3df00ff0aa6a",
      "function": "setPriceFeed(address,bytes32)",
      "arguments": [
        "0x67Abb24DAC2b03550F6594909917a5BBDFDbEDb2",
        "0x9db37f4d5654aad3e37e2e14ffd8d53265fb3026d1d8f91146539eebaa2ef45f"
      ],
      "transaction": {
        "from": "0xdafe44ce6933ba24459453fe20f40d55a454a07f",
        "to": "0x2a942237037394852f34cba4fcec3df00ff0aa6a",
        "gas": "0x10558",
        "value": "0x0",
        "input": "0xadcb085a00000000000000000000000067abb24dac2b03550f6594909917a5bbdfdbedb29db37f4d5654aad3e37e2e14ffd8d53265fb3026d1d8f91146539eebaa2ef45f",
        "nonce": "0xf",
        "chainId": "0x14a34"
      },
      "additionalContracts": [],
      "isFixedGasLimit": false
    },
    {
      "hash": "0x6fba396e07165de5ead7250346097956e3a1d3fc99adcc09df84b61fbb99ec9c",
      "transactionType": "CALL",
      "contractName": "P2P",
      "contractAddress": "0x2a942237037394852f34cba4fcec3df00ff0aa6a",
      "function": "setPriceFeed(address,bytes32)",
      "arguments": [
        "0xbB792AfFD9152d17E0772e2B7CcE48A17103E59d",
        "0x95fd9e16d4cfc5d1370f32bb0bf2346860ad9c92fec83acf4ca263baf16c961d"
      ],
      "transaction": {
        "from": "0xdafe44ce6933ba24459453fe20f40d55a454a07f",
        "to": "0x2a942237037394852f34cba4fcec3df00ff0aa6a",
        "gas": "0x10558",
        "value": "0x0",
        "input": "0xadcb085a000000000000000000000000bb792affd9152d17e0772e2b7cce48a17103e59d95fd9e16d4cfc5d1370f32bb0bf2346860ad9c92fec83acf4ca263baf16c961d",
        "nonce": "0x10",
        "chainId": "0x14a34"
      },
      "additionalContracts": [],
      "isFixedGasLimit": false
    },
    {
      "hash": "0xc031b465893016c007fe774bd595e06c7c6d7cf570ffb428d11dced885a21ba2",
      "transactionType": "CALL",
      "contractName": "P2P",
      "contractAddress": "0x2a942237037394852f34cba4fcec3df00ff0aa6a",
      "function": "setPriceFeed(address,bytes32)",
      "arguments": [
        "0x69F2ecec8707359204dea8249b64a5a3d3e1aE05",
        "0xd69731a2e74ac1ce884fc3890f7ee324b6deb66147055249568869ed700882e4"
      ],
      "transaction": {
        "from": "0xdafe44ce6933ba24459453fe20f40d55a454a07f",
        "to": "0x2a942237037394852f34cba4fcec3df00ff0aa6a",
        "gas": "0x10558",
        "value": "0x0",
        "input": "0xadcb085a00000000000000000000000069f2ecec8707359204dea8249b64a5a3d3e1ae05d69731a2e74ac1ce884fc3890f7ee324b6deb66147055249568869ed700882e4",
        "nonce": "0x11",
        "chainId": "0x14a34"
      },
      "additionalContracts": [],
      "isFixedGasLimit": false
    }
  ],
  "receipts": [
    {
      "status": "0x1",
      "cumulativeGasUsed": "0x4405eb",
      "logs": [],
      "logsBloom": "0x00000000000000000000000000000000000000000000000000000000000000000000000000000000000000000000000000000000000000000000000000000000000000000000000000000000000000000000000000000000000000000000000000000000000000000000000000000000000000000000000000000000000000000000000000000000000000000000000000000000000000000000000000000000000000000000000000000000000000000000000000000000000000000000000000000000000000000000000000000000000000000000000000000000000000000000000000000000000000000000000000000000000000000000000000000000",
      "type": "0x2",
      "transactionHash": "0x15cfe0d2f064b13febafe4ba284613aaa06a26748380c398d131ec80a586e935",
      "transactionIndex": "0xc",
      "blockHash": "0x8e317b49e9de00d7e805ad23d550d88354dcd9583df7ad9308dea3d8353e1bb4",
      "blockNumber": "0x1f48e3d",
      "gasUsed": "0x15a923",
      "effectiveGasPrice": "0xf427a",
      "from": "0xdafe44ce6933ba24459453fe20f40d55a454a07f",
      "to": null,
      "contractAddress": "0x2a942237037394852f34cba4fcec3df00ff0aa6a",
      "l1BaseFeeScalar": "0x44d",
      "l1BlobBaseFee": "0x1",
      "l1BlobBaseFeeScalar": "0xa118b",
      "l1Fee": "0xcc1",
      "l1GasPrice": "0xa",
      "l1GasUsed": "0xf428"
    },
    {
      "status": "0x1",
      "cumulativeGasUsed": "0x44c231",
      "logs": [
        {
          "address": "0x2a942237037394852f34cba4fcec3df00ff0aa6a",
          "topics": [
            "0x75a24a37f901a299cd9c661617ab1893a57e34c17b82c0898ddd5114a221b405",
            "0x0000000000000000000000004200000000000000000000000000000000000006",
            "0x9d4294bbcd1174d6f2003ec365831e64cc31d9f6f15a2b85399db8d5000960f6"
          ],
          "data": "0x000000000000000000000000dafe44ce6933ba24459453fe20f40d55a454a07f",
          "blockHash": "0x8e317b49e9de00d7e805ad23d550d88354dcd9583df7ad9308dea3d8353e1bb4",
          "blockNumber": "0x1f48e3d",
          "blockTimestamp": "0x68fc7b5a",
          "transactionHash": "0x60d795b549d2d710dcb240bcd8e22ff442b5f1595f42673d4e9771052c6081bc",
          "transactionIndex": "0xd",
          "logIndex": "0x45",
          "removed": false
        }
      ],
      "logsBloom": "0x00000000000000000000000000000000000000000000000000000000000002000000000000000000000000000000000000000200000000000020000000000000000000000000000000000000000000000000000000000000000000000000000000000000000000000000000000000000000010000000000000000000000000000000000000000000000000000000000000000000000000000000000000000000000000000000000000000000000000000040000001000000000000000000020000200000000004000000001000000000000000000000000000000002000000000000000000000000000000000000000000000000000000000000800000000000",
      "type": "0x2",
      "transactionHash": "0x60d795b549d2d710dcb240bcd8e22ff442b5f1595f42673d4e9771052c6081bc",
      "transactionIndex": "0xd",
      "blockHash": "0x8e317b49e9de00d7e805ad23d550d88354dcd9583df7ad9308dea3d8353e1bb4",
      "blockNumber": "0x1f48e3d",
      "gasUsed": "0xbc46",
      "effectiveGasPrice": "0xf427a",
      "from": "0xdafe44ce6933ba24459453fe20f40d55a454a07f",
      "to": "0x2a942237037394852f34cba4fcec3df00ff0aa6a",
      "contractAddress": null,
      "l1BaseFeeScalar": "0x44d",
      "l1BlobBaseFee": "0x1",
      "l1BlobBaseFeeScalar": "0xa118b",
      "l1Fee": "0x53",
      "l1GasPrice": "0xa",
      "l1GasUsed": "0x640"
    },
    {
      "status": "0x1",
      "cumulativeGasUsed": "0x457f67",
      "logs": [
        {
          "address": "0x2a942237037394852f34cba4fcec3df00ff0aa6a",
          "topics": [
            "0x75a24a37f901a299cd9c661617ab1893a57e34c17b82c0898ddd5114a221b405",
            "0x000000000000000000000000036cbd53842c5426634e7929541ec2318f3dcf7e",
            "0xeaa020c61cc479712813461ce153894a96a6c00b21ed0cfc2798d1f9a9e9c94a"
          ],
          "data": "0x000000000000000000000000dafe44ce6933ba24459453fe20f40d55a454a07f",
          "blockHash": "0x8e317b49e9de00d7e805ad23d550d88354dcd9583df7ad9308dea3d8353e1bb4",
          "blockNumber": "0x1f48e3d",
          "blockTimestamp": "0x68fc7b5a",
          "transactionHash": "0xdcf3d4e16bd5e5dfff567d03002d85d73469a3fe963a819758ab3f7d4f79e335",
          "transactionIndex": "0xe",
          "logIndex": "0x46",
          "removed": false
        }
      ],
      "logsBloom": "0x00000000000000000000000000000000000000000000000000000000000002000000000000000000000000000008000000000000000000000000000000000000000000000000000000400000000000000000000000000000000000000000000000000000000000000000000000000000000000000000000000000000000000000000000040000000000000000000000000000000000000000000000000000000000000000000000000000000000000000000000001000000100000000000020000200000000000000000001000000000000000000000000000000000000000000000000000000000000000000040000000000100000000000000800000000000",
      "type": "0x2",
      "transactionHash": "0xdcf3d4e16bd5e5dfff567d03002d85d73469a3fe963a819758ab3f7d4f79e335",
      "transactionIndex": "0xe",
      "blockHash": "0x8e317b49e9de00d7e805ad23d550d88354dcd9583df7ad9308dea3d8353e1bb4",
      "blockNumber": "0x1f48e3d",
      "gasUsed": "0xbd36",
      "effectiveGasPrice": "0xf427a",
      "from": "0xdafe44ce6933ba24459453fe20f40d55a454a07f",
      "to": "0x2a942237037394852f34cba4fcec3df00ff0aa6a",
      "contractAddress": null,
      "l1BaseFeeScalar": "0x44d",
      "l1BlobBaseFee": "0x1",
      "l1BlobBaseFeeScalar": "0xa118b",
      "l1Fee": "0x58",
      "l1GasPrice": "0xa",
      "l1GasUsed": "0x6a4"
    },
    {
      "status": "0x1",
      "cumulativeGasUsed": "0xf08b5f",
      "logs": [
        {
          "address": "0x2a942237037394852f34cba4fcec3df00ff0aa6a",
          "topics": [
            "0x75a24a37f901a299cd9c661617ab1893a57e34c17b82c0898ddd5114a221b405",
            "0x000000000000000000000000e4ab69c077896252fafbd49efd26b5d171a32410",
            "0x8ac0c70fff57e9aefdf5edf44b51d62c2d433653cbb2cf5cc06bb115af04d221"
          ],
          "data": "0x000000000000000000000000dafe44ce6933ba24459453fe20f40d55a454a07f",
          "blockHash": "0x8e317b49e9de00d7e805ad23d550d88354dcd9583df7ad9308dea3d8353e1bb4",
          "blockNumber": "0x1f48e3d",
          "blockTimestamp": "0x68fc7b5a",
          "transactionHash": "0xee322245e8d95726f7fc771ecef9bcdaaf450fa8d88e1e252ca8ceda7c4ced51",
          "transactionIndex": "0x14",
          "logIndex": "0x23e",
          "removed": false
        }
      ],
      "logsBloom": "0x02000000000000000000000000000000000000000000000000004000000002000000000000000000000000000000000000000000000000000000000000000000000000000000000000000000010000000000000000000000000000000000000000000000000000000000000000000000000000000000000000000000000000000000000000002000000000000000000000000000000000000000000000000000000000000000000000000000000000000000000001000000000000000000220000200000000000000000001000010000000000000000000000000000000000000000000000000000000000000000000000000000000000000000800000000000",
      "type": "0x2",
      "transactionHash": "0xee322245e8d95726f7fc771ecef9bcdaaf450fa8d88e1e252ca8ceda7c4ced51",
      "transactionIndex": "0x14",
      "blockHash": "0x8e317b49e9de00d7e805ad23d550d88354dcd9583df7ad9308dea3d8353e1bb4",
      "blockNumber": "0x1f48e3d",
      "gasUsed": "0xbd36",
      "effectiveGasPrice": "0xf427a",
      "from": "0xdafe44ce6933ba24459453fe20f40d55a454a07f",
      "to": "0x2a942237037394852f34cba4fcec3df00ff0aa6a",
      "contractAddress": null,
      "l1BaseFeeScalar": "0x44d",
      "l1BlobBaseFee": "0x1",
      "l1BlobBaseFeeScalar": "0xa118b",
      "l1Fee": "0x58",
      "l1GasPrice": "0xa",
      "l1GasUsed": "0x6a4"
    },
    {
      "status": "0x1",
      "cumulativeGasUsed": "0xf14895",
      "logs": [
        {
          "address": "0x2a942237037394852f34cba4fcec3df00ff0aa6a",
          "topics": [
            "0x75a24a37f901a299cd9c661617ab1893a57e34c17b82c0898ddd5114a221b405",
            "0x0000000000000000000000005fe161a97511aa3c185cbffdcf281fd510411343",
            "0x2b89b9dc8fdf9f34709a5b106b472f0f39bb6ca9ce04b0fd7f2e971688e2e53b"
          ],
          "data": "0x000000000000000000000000dafe44ce6933ba24459453fe20f40d55a454a07f",
          "blockHash": "0x8e317b49e9de00d7e805ad23d550d88354dcd9583df7ad9308dea3d8353e1bb4",
          "blockNumber": "0x1f48e3d",
          "blockTimestamp": "0x68fc7b5a",
          "transactionHash": "0x96f685bf462d73c1747ab2ce6364d24b9899c7855a26b7c6d22ef094eac7b90d",
          "transactionIndex": "0x15",
          "logIndex": "0x23f",
          "removed": false
        }
      ],
      "logsBloom": "0x00000000000000000000000000000000000000000000000000000000000002000000000000000000000000000000000000000000000000000000000000000000000001000000000000000000000010000000000000000000000000000000000000000000000000000000000000000000000000000000000000000000000000000000000000000000000000000000000000000000000000000000008000000000000000000000000000000000000010000000000001000000000000000000020000200000000000000000001000000040000000000000000000000000000000000000000000000000000000000000000000000000008000000000800000000000",
      "type": "0x2",
      "transactionHash": "0x96f685bf462d73c1747ab2ce6364d24b9899c7855a26b7c6d22ef094eac7b90d",
      "transactionIndex": "0x15",
      "blockHash": "0x8e317b49e9de00d7e805ad23d550d88354dcd9583df7ad9308dea3d8353e1bb4",
      "blockNumber": "0x1f48e3d",
      "gasUsed": "0xbd36",
      "effectiveGasPrice": "0xf427a",
      "from": "0xdafe44ce6933ba24459453fe20f40d55a454a07f",
      "to": "0x2a942237037394852f34cba4fcec3df00ff0aa6a",
      "contractAddress": null,
      "l1BaseFeeScalar": "0x44d",
      "l1BlobBaseFee": "0x1",
      "l1BlobBaseFeeScalar": "0xa118b",
      "l1Fee": "0x58",
      "l1GasPrice": "0xa",
      "l1GasUsed": "0x6a4"
    },
    {
      "status": "0x1",
      "cumulativeGasUsed": "0xf205bf",
      "logs": [
        {
          "address": "0x2a942237037394852f34cba4fcec3df00ff0aa6a",
          "topics": [
            "0x75a24a37f901a299cd9c661617ab1893a57e34c17b82c0898ddd5114a221b405",
            "0x00000000000000000000000058c445b391c553a216defed1631997eddf604b49",
            "0x7eab5e260e42d81013207e623be60c66c9c55bfe0ace4797ad00d1c5a1335eae"
          ],
          "data": "0x000000000000000000000000dafe44ce6933ba24459453fe20f40d55a454a07f",
          "blockHash": "0x8e317b49e9de00d7e805ad23d550d88354dcd9583df7ad9308dea3d8353e1bb4",
          "blockNumber": "0x1f48e3d",
          "blockTimestamp": "0x68fc7b5a",
          "transactionHash": "0x9cbdbd3506d9d6b25abb8cf221bfff5f9adea156b4f18cc6f42d9c89e0bd0ff2",
          "transactionIndex": "0x16",
          "logIndex": "0x240",
          "removed": false
        }
      ],
      "logsBloom": "0x00000000000000000000000000000000000000000000000000000000010002000000000000000000000000000000000000000000000000200000000000000000000000000000000000000000000000000000000000000000000000000000000000000000000000000000000000000000000000000010000800000000000000000000020000000000000000000000000000000000000000000000000000000000000000000000000000000000000000000000000001000000000000000000020000200000000000000000001000000000000000000000000000000000000000000000000000000000000000000001000000000000000000000000800000000000",
      "type": "0x2",
      "transactionHash": "0x9cbdbd3506d9d6b25abb8cf221bfff5f9adea156b4f18cc6f42d9c89e0bd0ff2",
      "transactionIndex": "0x16",
      "blockHash": "0x8e317b49e9de00d7e805ad23d550d88354dcd9583df7ad9308dea3d8353e1bb4",
      "blockNumber": "0x1f48e3d",
      "gasUsed": "0xbd2a",
      "effectiveGasPrice": "0xf427a",
      "from": "0xdafe44ce6933ba24459453fe20f40d55a454a07f",
      "to": "0x2a942237037394852f34cba4fcec3df00ff0aa6a",
      "contractAddress": null,
      "l1BaseFeeScalar": "0x44d",
      "l1BlobBaseFee": "0x1",
      "l1BlobBaseFeeScalar": "0xa118b",
      "l1Fee": "0x58",
      "l1GasPrice": "0xa",
      "l1GasUsed": "0x697"
    },
    {
      "status": "0x1",
      "cumulativeGasUsed": "0xf2c2f5",
      "logs": [
        {
          "address": "0x2a942237037394852f34cba4fcec3df00ff0aa6a",
          "topics": [
            "0x75a24a37f901a299cd9c661617ab1893a57e34c17b82c0898ddd5114a221b405",
            "0x000000000000000000000000a4d20763eb35092bdd5b2545079aacf048fa96b7",
            "0x2817d7bfe5c64b8ea956e9a26f573ef64e72e4d7891f2d6af9bcc93f7aff9a97"
          ],
          "data": "0x000000000000000000000000dafe44ce6933ba24459453fe20f40d55a454a07f",
          "blockHash": "0x8e317b49e9de00d7e805ad23d550d88354dcd9583df7ad9308dea3d8353e1bb4",
          "blockNumber": "0x1f48e3d",
          "blockTimestamp": "0x68fc7b5a",
          "transactionHash": "0x7fa36f1d82cf418b4e04b4b9f9f17857b9ee5060e17a316e606e74957f26c9d4",
          "transactionIndex": "0x17",
          "logIndex": "0x241",
          "removed": false
        }
      ],
      "logsBloom": "0x00000000000000000000000000000000000200000000000000000000000002000000000000000000000000000000000000000000000000000000000000000000004000000000000000000000000000000000000000000000000000000000000000000000000000000000000000000000000000000000000000000000000000000000000000000000000000000000000000000000000000000000000000000000000000040000000000000000000000000000000001000000000000000000020000200000000000000000001000004000000000000000000000000000000000000000000000000000000000000000000002000000000000000000800000000000",
      "type": "0x2",
      "transactionHash": "0x7fa36f1d82cf418b4e04b4b9f9f17857b9ee5060e17a316e606e74957f26c9d4",
      "transactionIndex": "0x17",
      "blockHash": "0x8e317b49e9de00d7e805ad23d550d88354dcd9583df7ad9308dea3d8353e1bb4",
      "blockNumber": "0x1f48e3d",
      "gasUsed": "0xbd36",
      "effectiveGasPrice": "0xf427a",
      "from": "0xdafe44ce6933ba24459453fe20f40d55a454a07f",
      "to": "0x2a942237037394852f34cba4fcec3df00ff0aa6a",
      "contractAddress": null,
      "l1BaseFeeScalar": "0x44d",
      "l1BlobBaseFee": "0x1",
      "l1BlobBaseFeeScalar": "0xa118b",
      "l1Fee": "0x58",
      "l1GasPrice": "0xa",
      "l1GasUsed": "0x6a4"
    },
    {
      "status": "0x1",
      "cumulativeGasUsed": "0xf3802b",
      "logs": [
        {
          "address": "0x2a942237037394852f34cba4fcec3df00ff0aa6a",
          "topics": [
            "0x75a24a37f901a299cd9c661617ab1893a57e34c17b82c0898ddd5114a221b405",
            "0x0000000000000000000000007f24751c3aecdcc72981cbf9bbdefad11094ab2d",
            "0xf0d57deca57b3da2fe63a493f4c25925fdfd8edf834b20f93e1f84dbd1504d4a"
          ],
          "data": "0x000000000000000000000000dafe44ce6933ba24459453fe20f40d55a454a07f",
          "blockHash": "0x8e317b49e9de00d7e805ad23d550d88354dcd9583df7ad9308dea3d8353e1bb4",
          "blockNumber": "0x1f48e3d",
          "blockTimestamp": "0x68fc7b5a",
          "transactionHash": "0x168dc39832dacf95107029875e9c156bbce8b1947dbd9a2003d67b23be9b7e75",
          "transactionIndex": "0x18",
          "logIndex": "0x242",
          "removed": false
        }
      ],
      "logsBloom": "0x00000000008000000000000000000000000000000000000000000000000002000000000000000000000000000000000000000000000000000000000000000000000000000004000000000000000000000000000000000000000000000000000000000000000000000000000000000000000000000000000000000000000000000000000000000000000000000000000000000000000000000000000000000000000000200000000000000000000000000000000001000000000000000000020000200040000000000000001000000000000000000000004000000000000080000000000000000000000000000000000000000000000000000000800000000000",
      "type": "0x2",
      "transactionHash": "0x168dc39832dacf95107029875e9c156bbce8b1947dbd9a2003d67b23be9b7e75",
      "transactionIndex": "0x18",
      "blockHash": "0x8e317b49e9de00d7e805ad23d550d88354dcd9583df7ad9308dea3d8353e1bb4",
      "blockNumber": "0x1f48e3d",
      "gasUsed": "0xbd36",
      "effectiveGasPrice": "0xf427a",
      "from": "0xdafe44ce6933ba24459453fe20f40d55a454a07f",
      "to": "0x2a942237037394852f34cba4fcec3df00ff0aa6a",
      "contractAddress": null,
      "l1BaseFeeScalar": "0x44d",
      "l1BlobBaseFee": "0x1",
      "l1BlobBaseFeeScalar": "0xa118b",
      "l1Fee": "0x58",
      "l1GasPrice": "0xa",
      "l1GasUsed": "0x6a4"
    },
    {
      "status": "0x1",
      "cumulativeGasUsed": "0xf43d61",
      "logs": [
        {
          "address": "0x2a942237037394852f34cba4fcec3df00ff0aa6a",
          "topics": [
            "0x75a24a37f901a299cd9c661617ab1893a57e34c17b82c0898ddd5114a221b405",
            "0x00000000000000000000000067abb24dac2b03550f6594909917a5bbdfdbedb2",
            "0x9db37f4d5654aad3e37e2e14ffd8d53265fb3026d1d8f91146539eebaa2ef45f"
          ],
          "data": "0x000000000000000000000000dafe44ce6933ba24459453fe20f40d55a454a07f",
          "blockHash": "0x8e317b49e9de00d7e805ad23d550d88354dcd9583df7ad9308dea3d8353e1bb4",
          "blockNumber": "0x1f48e3d",
          "blockTimestamp": "0x68fc7b5a",
          "transactionHash": "0xc472b58f97da2d0c92380b7d5439ad7a799959452e09f940437b307527f28eb2",
          "transactionIndex": "0x19",
          "logIndex": "0x243",
          "removed": false
        }
      ],
      "logsBloom": "0x00000000000000000000000000000000000000800000000000000000000002000000000000000000000000000000000000000000000000000000000000000000000000000800000000000000000000000000000000000000000000000000004000000000000000000000000000000000000000000000000000000000000000000000000000000000000000000000000000000000000400000000000000000000000000000000000000000000000000000000000005000000000000000000020000200000000000000000001000000000000000000000000000000000000000000000000000000000000000000000000080000000000000000000800000000000",
      "type": "0x2",
      "transactionHash": "0xc472b58f97da2d0c92380b7d5439ad7a799959452e09f940437b307527f28eb2",
      "transactionIndex": "0x19",
      "blockHash": "0x8e317b49e9de00d7e805ad23d550d88354dcd9583df7ad9308dea3d8353e1bb4",
      "blockNumber": "0x1f48e3d",
      "gasUsed": "0xbd36",
      "effectiveGasPrice": "0xf427a",
      "from": "0xdafe44ce6933ba24459453fe20f40d55a454a07f",
      "to": "0x2a942237037394852f34cba4fcec3df00ff0aa6a",
      "contractAddress": null,
      "l1BaseFeeScalar": "0x44d",
      "l1BlobBaseFee": "0x1",
      "l1BlobBaseFeeScalar": "0xa118b",
      "l1Fee": "0x58",
      "l1GasPrice": "0xa",
      "l1GasUsed": "0x6a4"
    },
    {
      "status": "0x1",
      "cumulativeGasUsed": "0xf4fa97",
      "logs": [
        {
          "address": "0x2a942237037394852f34cba4fcec3df00ff0aa6a",
          "topics": [
            "0x75a24a37f901a299cd9c661617ab1893a57e34c17b82c0898ddd5114a221b405",
            "0x000000000000000000000000bb792affd9152d17e0772e2b7cce48a17103e59d",
            "0x95fd9e16d4cfc5d1370f32bb0bf2346860ad9c92fec83acf4ca263baf16c961d"
          ],
          "data": "0x000000000000000000000000dafe44ce6933ba24459453fe20f40d55a454a07f",
          "blockHash": "0x8e317b49e9de00d7e805ad23d550d88354dcd9583df7ad9308dea3d8353e1bb4",
          "blockNumber": "0x1f48e3d",
          "blockTimestamp": "0x68fc7b5a",
          "transactionHash": "0x6fba396e07165de5ead7250346097956e3a1d3fc99adcc09df84b61fbb99ec9c",
          "transactionIndex": "0x1a",
          "logIndex": "0x244",
          "removed": false
        }
      ],
      "logsBloom": "0x80000000000000000000000000000000000000000000000000000000000002000000000000000000000002000000000000000000000000000000000000000000000000000000000000000000000000000000000000000000000000000000000000000000000000000000000000000000000000000000000000000000000000000000000000000000100000000000000000000000000000000008000000000000000000000000000000000000000000000000000001000000000200000000020000200000000000000000001000000000000000000000000000000000000000000400000000000000000000000000000000000000000000000000800000000000",
      "type": "0x2",
      "transactionHash": "0x6fba396e07165de5ead7250346097956e3a1d3fc99adcc09df84b61fbb99ec9c",
      "transactionIndex": "0x1a",
      "blockHash": "0x8e317b49e9de00d7e805ad23d550d88354dcd9583df7ad9308dea3d8353e1bb4",
      "blockNumber": "0x1f48e3d",
      "gasUsed": "0xbd36",
      "effectiveGasPrice": "0xf427a",
      "from": "0xdafe44ce6933ba24459453fe20f40d55a454a07f",
      "to": "0x2a942237037394852f34cba4fcec3df00ff0aa6a",
      "contractAddress": null,
      "l1BaseFeeScalar": "0x44d",
      "l1BlobBaseFee": "0x1",
      "l1BlobBaseFeeScalar": "0xa118b",
      "l1Fee": "0x58",
      "l1GasPrice": "0xa",
      "l1GasUsed": "0x6a4"
    },
    {
      "status": "0x1",
      "cumulativeGasUsed": "0xff7377",
      "logs": [
        {
          "address": "0x2a942237037394852f34cba4fcec3df00ff0aa6a",
          "topics": [
            "0x75a24a37f901a299cd9c661617ab1893a57e34c17b82c0898ddd5114a221b405",
            "0x00000000000000000000000069f2ecec8707359204dea8249b64a5a3d3e1ae05",
            "0xd69731a2e74ac1ce884fc3890f7ee324b6deb66147055249568869ed700882e4"
          ],
          "data": "0x000000000000000000000000dafe44ce6933ba24459453fe20f40d55a454a07f",
          "blockHash": "0x8e317b49e9de00d7e805ad23d550d88354dcd9583df7ad9308dea3d8353e1bb4",
          "blockNumber": "0x1f48e3d",
          "blockTimestamp": "0x68fc7b5a",
          "transactionHash": "0xc031b465893016c007fe774bd595e06c7c6d7cf570ffb428d11dced885a21ba2",
          "transactionIndex": "0x1f",
          "logIndex": "0x24e",
          "removed": false
        }
      ],
      "logsBloom": "0x00000000000000000000000000000000000000000000000000000000000002000000000000000000000000000000000000000000000000000000000000800000004000000000000000000000000000010000000000000000000000000000000000000000000000000000000000000000000000000000400000000000000000000000000000000000000000000000000000000000000000000000000000000000000000000000000000000000000000000000000001000000000000000000020000200000000000000000001000000000000000000000000000000008000000004000000000000000000000000000000000000000000000000000800000000000",
      "type": "0x2",
      "transactionHash": "0xc031b465893016c007fe774bd595e06c7c6d7cf570ffb428d11dced885a21ba2",
      "transactionIndex": "0x1f",
      "blockHash": "0x8e317b49e9de00d7e805ad23d550d88354dcd9583df7ad9308dea3d8353e1bb4",
      "blockNumber": "0x1f48e3d",
      "gasUsed": "0xbd36",
      "effectiveGasPrice": "0xf427a",
      "from": "0xdafe44ce6933ba24459453fe20f40d55a454a07f",
      "to": "0x2a942237037394852f34cba4fcec3df00ff0aa6a",
      "contractAddress": null,
      "l1BaseFeeScalar": "0x44d",
      "l1BlobBaseFee": "0x1",
      "l1BlobBaseFeeScalar": "0xa118b",
      "l1Fee": "0x58",
      "l1GasPrice": "0xa",
      "l1GasUsed": "0x6a4"
    }
  ],
  "libraries": [],
  "pending": [],
  "returns": {},
  "timestamp": 1761377115079,
  "chain": 84532,
  "commit": "5065c29"
}