{
  "transactions": [
    {
      "hash": "0xfb44cbbbc7ef42f589857209cc992da9c23cdd47342ada767650f1aa66b60be7",
      "transactionType": "CREATE",
      "contractName": "P2P",
      "contractAddress": "0xa32156451eb56310845af7362239fb5e1f95ca8a",
      "function": null,
      "arguments": [
        "0xA2aa501b19aff244D90cc15a4Cf739D2725B5729"
      ],
      "transaction": {
        "from": "0xdafe44ce6933ba24459453fe20f40d55a454a07f",
        "gas": "0x1b6e8c",
        "value": "0x0",
        "input": "0x608034608657601f6116ff38819003918201601f19168301916001600160401b03831184841017608a57808492602094604052833981010312608657516001600160a01b0381169081900360865760015f819055600555600380546001600160a01b03199081169290921790556004805490911633179055604051611660908161009f8239f35b5f80fd5b634e487b7160e01b5f52604160045260245ffdfe610200806040526004361015610013575f80fd5b5f905f3560e01c908163207fd126146110c7575080634e10ebb414610deb578063518e62db14610b835780637564912b14610b065780638da5cb5b14610ade5780639dcb511a14610aa6578063adcb085a146109ef578063cdb788eb146100d6578063dd231ae2146100b85763f98d06f01461008d575f80fd5b346100b557806003193601126100b5576003546040516001600160a01b039091168152602090f35b80fd5b50346100b557806003193601126100b5576020600554604051908152f35b5060803660031901126109a85760043567ffffffffffffffff81116109a857366023820112156109a857806004013567ffffffffffffffff81116109a8576024820191602436918360051b0101116109a857610130611390565b6101a0526044356101008190526001600160a01b03811690036109a85760405160208101906101788161016a610100516101a051866113a6565b03601f1981018352826113ee565b5190205f9081526001602052604090205461019d906001600160a01b03161515611429565b60025f54146109e05760025f5560405160208101906101c78161016a610100516101a051866113a6565b5190206101605260035460405163d47eed4560e01b815291906001600160a01b0316602083806101fb8588600484016114bf565b0381845afa92831561099d575f936109ac575b50803b156109a857604051631df3cbc560e31b8152935f9385938492839161023991600484016114bf565b03925af1801561099d5761098a575b506101a0516001600160a01b0390811682526002602081815260408085205461010051851686529290915280842054600354915163052571af60e51b815260048101939093526005602484015291921690608083604481855afa92831561097f57849361095d575b5060809060446040518094819363052571af60e51b83526004830152600560248301525afa90811561086957839161092e575b5082825160070b1261092a5782815160070b1261092a5763ffffffff61030f604084015160030b6115c6565b1667ffffffffffffffff63ffffffff61032e604085015160030b6115c6565b1693511690670de0b6b3a7640000820291808304670de0b6b3a764000014901517156109165767ffffffffffffffff929161036b610371926115ed565b906115fb565b6101c052511690670de0b6b3a7640000820291808304670de0b6b3a764000014901517156108ee579061036b6103a6926115ed565b620187046101c05102906101c051156101c0518304620187041481171561090257620186d26101c05102610140526101c0516101405104620186d21417156108ee576101605183526001602052604083209261044860018501549361041e60ff610414818860a01c16611619565b9660a81c16611619565b60c05261036b61043986610434876064356115da565b6115da565b91620186a060c05191046115da565b9283156108ea57600685015484116108ea57816101e052819460048101549583610180525b60326101805110806108de575b806108d5575b1561073e57868452600282016020526040842096808552600383016020526040852080549260028a01548015159081610731575b50801561070e575b610704579061054a61052593926104d66101e0518c61146b565b6101208a905260018d015491908083106106f957610120525b6105188b61036b8b61051260c051610434620186a06101405104610120516115da565b926115da565b958692610120519061146b565b60e0528c600160e051910155610541610120516101e0516114b2565b6101e0526114b2565b99546001600160a01b031660a05260e05115610667575b5060405160808181526323b872dd60e01b909152805160a0513360048301526001600160a01b03908116602483015260448201859052915161010051602093606492918b91165af1801561065c57610629575b6040519160018060a01b036101a05116835260018060a01b0361010051166020840152610120516040840152606083015233917fc6660e365b3b6bede9a0359f8ed99f67bbe20f7e8be55a00d1881b5a3cdb99f560806101605192a4935b61061e610180516114a4565b61018052939561046d565b60203d8111610655575b8061064361064f926080516113ee565b6080510160805161148c565b506105b4565b503d610633565b6040513d88823e3d90fd5b80546001909101549081156106ee57818852600386016020528060408920555b80156106e35787526003850160205260016040882001555b808652600284016020526106c76040872060035f918281558260018201558260028201550155565b808652600384016020528560016040822082815501555f610561565b50600585015561069f565b806004870155610687565b5081610120526104ef565b9850505093610612565b5060038a01548015159081610724575b506104bc565b90506101c051105f61071e565b90506101c051115f6104b4565b91506101e0511561087457600661075b6101e0518284015461146b565b91015560405163a9059cbb60e01b81526101e05133600483015260248201526101a0519091906020908390604490829087906001600160a01b03165af1918215610869576107b19261084c575b5060643561146b565b806107bf575b506001815580f35b600480546040516323b872dd60e01b815233928101929092526001600160a01b031660248201526044810191909152602081806064810103818560018060a01b0361010051165af1801561084157156107b7576108339060203d60201161083a575b61082b81836113ee565b81019061148c565b50816107b7565b503d610821565b6040513d84823e3d90fd5b6108649060203d60201161083a5761082b81836113ee565b6107a8565b6040513d85823e3d90fd5b60405162461bcd60e51b815260206004820152603360248201527f4e6f206f72646572732061742063757272656e74207072696365206c6576656c6044820152721cc8185d985a5b18589b19481d1bc8199a5b1b606a1b6064820152608490fd5b50861515610480565b50856101e0511061047a565b5080fd5b634e487b7160e01b83526011600452602483fd5b634e487b7160e01b84526011600452602484fd5b634e487b7160e01b85526011600452602485fd5b8280fd5b610950915060803d608011610956575b61094881836113ee565b810190611563565b5f6102e3565b503d61093e565b608091935061097890823d84116109565761094881836113ee565b92906102b0565b6040513d86823e3d90fd5b61099691505f906113ee565b5f5f610248565b6040513d5f823e3d90fd5b5f80fd5b9092506020813d6020116109d8575b816109c8602093836113ee565b810103126109a85751915f61020e565b3d91506109bb565b633ee5aeb560e01b5f5260045ffd5b346109a85760403660031901126109a857610a0861137a565b60045460243591906001600160a01b03163303610a615760018060a01b0316805f5260026020528160405f20557f75a24a37f901a299cd9c661617ab1893a57e34c17b82c0898ddd5114a221b4056020604051338152a3005b60405162461bcd60e51b815260206004820152601e60248201527f4f6e6c79206f776e65722063616e2073657420707269636520666565647300006044820152606490fd5b346109a85760203660031901126109a8576001600160a01b03610ac761137a565b165f526002602052602060405f2054604051908152f35b346109a8575f3660031901126109a8576004546040516001600160a01b039091168152602090f35b346109a85760203660031901126109a8576004355f52600160205260e060405f2060018060a01b0381541690600181015490600481015460ff600660058401549301549360405195865260018060a01b0381166020870152818160a01c16604087015260a81c166060850152608084015260a083015260c0820152f35b346109a85760a03660031901126109a857610b9c61137a565b610ba4611390565b60443590606435608435906040516020810190610bc68161016a878a866113a6565b5190205f90815260016020526040902054610beb906001600160a01b03161515611429565b6040516020810190610c028161016a878a866113a6565b51902093845f52600160205260405f209360055494610c20866114a4565b600555604051610c2f816113d2565b3381526003602082018581526040830187815260608401918983528a5f526002860160205260405f209460018060a01b039060018060a01b03905116166001600160601b0360a01b865416178555516001850155516002840155519101556005810180549060405191604083019280841067ffffffffffffffff851117610dd75789936040525f81526020810191825260016003860192855f528360205260405f209251835551910155815480610dc5575b50508160048401805415610dbd575b50505560068101610d028482546114b2565b9055546040516323b872dd60e01b81523360048201523060248201526044810184905290602090829060649082905f906001600160a01b03165af1801561099d57610da0575b50604080516001600160a01b039889168152919097166020820152958601526060850152608084015260a083015233917f7448c7b7b021897f4f19bd7cdda03bed9c26cf75e56ea3bafd3c0d2c7ef24f4b9060c090a3005b610db89060203d60201161083a5761082b81836113ee565b610d48565b55818b610cf0565b5f526020528160405f20558a80610ce1565b634e487b7160e01b5f52604160045260245ffd5b346109a85760803660031901126109a857610e0461137a565b610e0c611390565b90604435606435926040516020810190610e2b8161016a8588866113a6565b5190205f90815260016020526040902054610e50906001600160a01b03161515611429565b6040516020810190610e678161016a8588866113a6565b51902092835f52600160205260405f2060028101865f528060205260405f20906003830191885f528260205260405f209060018060a01b0381541633036109a8576001018054801561106f578089116110145788610ec49161146b565b80915515610f8e575b50505060068101610edf85825461146b565b90555460405163a9059cbb60e01b8152336004820152602481018590529390602090859060449082905f906001600160a01b03165af192831561099d577fd3256e8bbdb24f280dca57cc82df4d5742b897cb9699d4657638aa44eb5aa17c94608094610f71575b50604080513381526001600160a01b03948516602082015291909316928101929092526060820152a3005b610f899060203d60201161083a5761082b81836113ee565b610f46565b805460018201549182156110085754825f528460205260405f20555b8015610ffd575f5282602052600160405f2001555b875f52602052610fe360405f2060035f918281558260018201558260028201550155565b865f526020525f6001604082208281550155868080610ecd565b506005840155610fbf565b50806004860155610faa565b60405162461bcd60e51b815260206004820152602d60248201527f636c6f736520616d6f756e7420626967676572207468616e2072656d61696e6960448201526c6e67206f726465722073697a6560981b6064820152608490fd5b60405162461bcd60e51b815260206004820152602a60248201527f6f7264657220686173206265656e2066696c6c6564206f722063616e63656c6c604482015269656420616c726561647960b01b6064820152608490fd5b346109a85760403660031901126109a8576110e061137a565b906110e9611390565b916001600160a01b0381169182151580611368575b1561132e57506001600160a01b038316928284146112e957825f52600260205260405f2054156109a857835f52600260205260405f2054156109a85761115261016a916040519283916020830195866113a6565b5190205f818152600160205260409020546001600160a01b03166112ac57805f526001602052600160405f20836001600160601b0360a01b8254161781550192806001600160601b0360a01b8554161784556040519263313ce56760e01b8452602084600481845afa93841561099d575f9461128b575b50845460ff60a01b19811660a09590951b60ff60a01b16948517865560405163313ce56760e01b8152949590602086600481875afa96871561099d577fbc2bccc2713ac25dc4bcda6e2a6c18b5c5cd08d9c00fa807a841a510d6c11a79976060975f9161125c575b5060ff60a81b9060a81b169161ffff60a01b19161717905560405192835260208301526040820152a1005b61127e915060203d602011611284575b61127681836113ee565b810190611410565b89611231565b503d61126c565b6112a591945060203d6020116112845761127681836113ee565b92856111c9565b60405162461bcd60e51b81526020600482015260156024820152744d61726b657420616c72656164792065786973747360581b6044820152606490fd5b60405162461bcd60e51b815260206004820152601860248201527f546f6b656e73206d75737420626520646966666572656e7400000000000000006044820152606490fd5b62461bcd60e51b8152602060048201526015602482015274496e76616c696420746f6b656e206164647265737360581b6044820152606490fd5b506001600160a01b03841615156110fe565b600435906001600160a01b03821682036109a857565b602435906001600160a01b03821682036109a857565b90916028926001600160601b03199060601b1682526001600160601b03199060601b1660148201520190565b6080810190811067ffffffffffffffff821117610dd757604052565b90601f8019910116810190811067ffffffffffffffff821117610dd757604052565b908160209103126109a8575160ff811681036109a85790565b1561143057565b60405162461bcd60e51b81526020600482015260136024820152721b585c9ad95d08191bd95cdb9d08195e1a5cdd606a1b6044820152606490fd5b9190820391821161147857565b634e487b7160e01b5f52601160045260245ffd5b908160209103126109a8575180151581036109a85790565b5f1981146114785760010190565b9190820180921161147857565b9180602084016020855252604083019060408160051b85010193835f91601e1982360301905b8484106114f6575050505050505090565b90919293949596603f198282030187528735838112156109a8578401906020823592019167ffffffffffffffff81116109a85780360383136109a8576020828280600196849695859652848401375f828201840152601f01601f19160101990197019594019291906114e5565b908160809103126109a8576040519061157b826113d2565b80518060070b81036109a8578252602081015167ffffffffffffffff811681036109a85760208301526040810151908160030b82036109a85760609160408401520151606082015290565b60030b637fffffff198114611478575f0390565b8181029291811591840414171561147857565b604d811161147857600a0a90565b8115611605570490565b634e487b7160e01b5f52601260045260245ffd5b60ff16604d811161147857600a0a9056fea264697066735822122082ecf81b3cd9fdb83d8ca20e380eec1d386bd0341e441f6ce0dfb0f58ee1939564736f6c634300081e0033000000000000000000000000a2aa501b19aff244d90cc15a4cf739d2725b5729",
        "nonce": "0x4a",
        "chainId": "0x14a34"
      },
      "additionalContracts": [],
      "isFixedGasLimit": false
    },
    {
      "hash": "0x5359addc4465b402b73cbc8dfe56bba2bcc04924c72e2510498f0dc325a4c3de",
      "transactionType": "CALL",
      "contractName": "P2P",
      "contractAddress": "0xa32156451eb56310845af7362239fb5e1f95ca8a",
      "function": "setPriceFeed(address,bytes32)",
      "arguments": [
        "0x4200000000000000000000000000000000000006",
        "0x9d4294bbcd1174d6f2003ec365831e64cc31d9f6f15a2b85399db8d5000960f6"
      ],
      "transaction": {
        "from": "0xdafe44ce6933ba24459453fe20f40d55a454a07f",
        "to": "0xa32156451eb56310845af7362239fb5e1f95ca8a",
        "gas": "0x1040d",
        "value": "0x0",
        "input": "0xadcb085a00000000000000000000000042000000000000000000000000000000000000069d4294bbcd1174d6f2003ec365831e64cc31d9f6f15a2b85399db8d5000960f6",
        "nonce": "0x4b",
        "chainId": "0x14a34"
      },
      "additionalContracts": [],
      "isFixedGasLimit": false
    },
    {
      "hash": "0x3f33103cb6883d2368857a811452816099ab55f6acb9ec9eaf293c3b4ec8bd74",
      "transactionType": "CALL",
      "contractName": "P2P",
      "contractAddress": "0xa32156451eb56310845af7362239fb5e1f95ca8a",
      "function": "setPriceFeed(address,bytes32)",
      "arguments": [
        "0x036CbD53842c5426634e7929541eC2318f3dCF7e",
        "0xeaa020c61cc479712813461ce153894a96a6c00b21ed0cfc2798d1f9a9e9c94a"
      ],
      "transaction": {
        "from": "0xdafe44ce6933ba24459453fe20f40d55a454a07f",
        "to": "0xa32156451eb56310845af7362239fb5e1f95ca8a",
        "gas": "0x10558",
        "value": "0x0",
        "input": "0xadcb085a000000000000000000000000036cbd53842c5426634e7929541ec2318f3dcf7eeaa020c61cc479712813461ce153894a96a6c00b21ed0cfc2798d1f9a9e9c94a",
        "nonce": "0x4c",
        "chainId": "0x14a34"
      },
      "additionalContracts": [],
      "isFixedGasLimit": false
    },
    {
      "hash": "0x47e7afe834689452aeb56fd85a8bd3eafc78a4f90c88a8231a4a4dd557e459c3",
      "transactionType": "CALL",
      "contractName": "P2P",
      "contractAddress": "0xa32156451eb56310845af7362239fb5e1f95ca8a",
      "function": "setPriceFeed(address,bytes32)",
      "arguments": [
        "0xE4aB69C077896252FAFBD49EFD26B5D171A32410",
        "0x8ac0c70fff57e9aefdf5edf44b51d62c2d433653cbb2cf5cc06bb115af04d221"
      ],
      "transaction": {
        "from": "0xdafe44ce6933ba24459453fe20f40d55a454a07f",
        "to": "0xa32156451eb56310845af7362239fb5e1f95ca8a",
        "gas": "0x10558",
        "value": "0x0",
        "input": "0xadcb085a000000000000000000000000e4ab69c077896252fafbd49efd26b5d171a324108ac0c70fff57e9aefdf5edf44b51d62c2d433653cbb2cf5cc06bb115af04d221",
        "nonce": "0x4d",
        "chainId": "0x14a34"
      },
      "additionalContracts": [],
      "isFixedGasLimit": false
    },
    {
      "hash": "0x5e48df145de3376d95d48ccd60597e471df6e3ccfc7e53d1f10fd25476d1eddd",
      "transactionType": "CALL",
      "contractName": "P2P",
      "contractAddress": "0xa32156451eb56310845af7362239fb5e1f95ca8a",
      "function": "setPriceFeed(address,bytes32)",
      "arguments": [
        "0x5Fe161a97511aa3C185cBfFDCf281Fd510411343",
        "0x2b89b9dc8fdf9f34709a5b106b472f0f39bb6ca9ce04b0fd7f2e971688e2e53b"
      ],
      "transaction": {
        "from": "0xdafe44ce6933ba24459453fe20f40d55a454a07f",
        "to": "0xa32156451eb56310845af7362239fb5e1f95ca8a",
        "gas": "0x10558",
        "value": "0x0",
        "input": "0xadcb085a0000000000000000000000005fe161a97511aa3c185cbffdcf281fd5104113432b89b9dc8fdf9f34709a5b106b472f0f39bb6ca9ce04b0fd7f2e971688e2e53b",
        "nonce": "0x4e",
        "chainId": "0x14a34"
      },
      "additionalContracts": [],
      "isFixedGasLimit": false
    },
    {
      "hash": "0x40b513720b5fb511f924832ae0e91859d38f9424d03e50a612a00f5e24c91ca5",
      "transactionType": "CALL",
      "contractName": "P2P",
      "contractAddress": "0xa32156451eb56310845af7362239fb5e1f95ca8a",
      "function": "setPriceFeed(address,bytes32)",
      "arguments": [
        "0x58c445B391c553A216DEfEd1631997eddF604B49",
        "0x7eab5e260e42d81013207e623be60c66c9c55bfe0ace4797ad00d1c5a1335eae"
      ],
      "transaction": {
        "from": "0xdafe44ce6933ba24459453fe20f40d55a454a07f",
        "to": "0xa32156451eb56310845af7362239fb5e1f95ca8a",
        "gas": "0x114a6",
        "value": "0x0",
        "input": "0xadcb085a00000000000000000000000058c445b391c553a216defed1631997eddf604b497eab5e260e42d81013207e623be60c66c9c55bfe0ace4797ad00d1c5a1335eae",
        "nonce": "0x4f",
        "chainId": "0x14a34"
      },
      "additionalContracts": [],
      "isFixedGasLimit": false
    },
    {
      "hash": "0xb5de74c5f881f9e2b24ce0f0c540f65daecd05b78d3b444da690de65bc6ee266",
      "transactionType": "CALL",
      "contractName": "P2P",
      "contractAddress": "0xa32156451eb56310845af7362239fb5e1f95ca8a",
      "function": "setPriceFeed(address,bytes32)",
      "arguments": [
        "0xA4d20763EB35092bdd5B2545079AACF048fA96B7",
        "0x2817d7bfe5c64b8ea956e9a26f573ef64e72e4d7891f2d6af9bcc93f7aff9a97"
      ],
      "transaction": {
        "from": "0xdafe44ce6933ba24459453fe20f40d55a454a07f",
        "to": "0xa32156451eb56310845af7362239fb5e1f95ca8a",
        "gas": "0x10558",
        "value": "0x0",
        "input": "0xadcb085a000000000000000000000000a4d20763eb35092bdd5b2545079aacf048fa96b72817d7bfe5c64b8ea956e9a26f573ef64e72e4d7891f2d6af9bcc93f7aff9a97",
        "nonce": "0x50",
        "chainId": "0x14a34"
      },
      "additionalContracts": [],
      "isFixedGasLimit": false
    },
    {
      "hash": "0xe48f796b75736257cef41614a3f2d7c16660ecde1f86d83d35f5e8b61fc70d48",
      "transactionType": "CALL",
      "contractName": "P2P",
      "contractAddress": "0xa32156451eb56310845af7362239fb5e1f95ca8a",
      "function": "setPriceFeed(address,bytes32)",
      "arguments": [
        "0x7f24751c3aECdCC72981CBF9bbdefAD11094AB2D",
        "0xf0d57deca57b3da2fe63a493f4c25925fdfd8edf834b20f93e1f84dbd1504d4a"
      ],
      "transaction": {
        "from": "0xdafe44ce6933ba24459453fe20f40d55a454a07f",
        "to": "0xa32156451eb56310845af7362239fb5e1f95ca8a",
        "gas": "0x10558",
        "value": "0x0",
        "input": "0xadcb085a0000000000000000000000007f24751c3aecdcc72981cbf9bbdefad11094ab2df0d57deca57b3da2fe63a493f4c25925fdfd8edf834b20f93e1f84dbd1504d4a",
        "nonce": "0x51",
        "chainId": "0x14a34"
      },
      "additionalContracts": [],
      "isFixedGasLimit": false
    },
    {
      "hash": "0x2c75aa49aebefd61e98af51d88071a836dba042d0cd4ffc4936dbbff8827efea",
      "transactionType": "CALL",
      "contractName": "P2P",
      "contractAddress": "0xa32156451eb56310845af7362239fb5e1f95ca8a",
      "function": "setPriceFeed(address,bytes32)",
      "arguments": [
        "0x67Abb24DAC2b03550F6594909917a5BBDFDbEDb2",
        "0x9db37f4d5654aad3e37e2e14ffd8d53265fb3026d1d8f91146539eebaa2ef45f"
      ],
      "transaction": {
        "from": "0xdafe44ce6933ba24459453fe20f40d55a454a07f",
        "to": "0xa32156451eb56310845af7362239fb5e1f95ca8a",
        "gas": "0x10558",
        "value": "0x0",
        "input": "0xadcb085a00000000000000000000000067abb24dac2b03550f6594909917a5bbdfdbedb29db37f4d5654aad3e37e2e14ffd8d53265fb3026d1d8f91146539eebaa2ef45f",
        "nonce": "0x52",
        "chainId": "0x14a34"
      },
      "additionalContracts": [],
      "isFixedGasLimit": false
    },
    {
      "hash": "0xa3464088a76219994bdc19692ccc96ce9553af3377d27d7bd61cd7414ef0e014",
      "transactionType": "CALL",
      "contractName": "P2P",
      "contractAddress": "0xa32156451eb56310845af7362239fb5e1f95ca8a",
      "function": "setPriceFeed(address,bytes32)",
      "arguments": [
        "0xbB792AfFD9152d17E0772e2B7CcE48A17103E59d",
        "0x95fd9e16d4cfc5d1370f32bb0bf2346860ad9c92fec83acf4ca263baf16c961d"
      ],
      "transaction": {
        "from": "0xdafe44ce6933ba24459453fe20f40d55a454a07f",
        "to": "0xa32156451eb56310845af7362239fb5e1f95ca8a",
        "gas": "0x10558",
        "value": "0x0",
        "input": "0xadcb085a000000000000000000000000bb792affd9152d17e0772e2b7cce48a17103e59d95fd9e16d4cfc5d1370f32bb0bf2346860ad9c92fec83acf4ca263baf16c961d",
        "nonce": "0x53",
        "chainId": "0x14a34"
      },
      "additionalContracts": [],
      "isFixedGasLimit": false
    },
    {
      "hash": "0x58ab6de0a76d28d0fdf5f7c961d1777bd7883577d102e3eb6cc4969b2edea0cf",
      "transactionType": "CALL",
      "contractName": "P2P",
      "contractAddress": "0xa32156451eb56310845af7362239fb5e1f95ca8a",
      "function": "setPriceFeed(address,bytes32)",
      "arguments": [
        "0x69F2ecec8707359204dea8249b64a5a3d3e1aE05",
        "0xd69731a2e74ac1ce884fc3890f7ee324b6deb66147055249568869ed700882e4"
      ],
      "transaction": {
        "from": "0xdafe44ce6933ba24459453fe20f40d55a454a07f",
        "to": "0xa32156451eb56310845af7362239fb5e1f95ca8a",
        "gas": "0x10558",
        "value": "0x0",
        "input": "0xadcb085a00000000000000000000000069f2ecec8707359204dea8249b64a5a3d3e1ae05d69731a2e74ac1ce884fc3890f7ee324b6deb66147055249568869ed700882e4",
        "nonce": "0x54",
        "chainId": "0x14a34"
      },
      "additionalContracts": [],
      "isFixedGasLimit": false
    }
  ],
  "receipts": [
    {
      "status": "0x1",
      "cumulativeGasUsed": "0x689bb8",
      "logs": [],
      "logsBloom": "0x00000000000000000000000000000000000000000000000000000000000000000000000000000000000000000000000000000000000000000000000000000000000000000000000000000000000000000000000000000000000000000000000000000000000000000000000000000000000000000000000000000000000000000000000000000000000000000000000000000000000000000000000000000000000000000000000000000000000000000000000000000000000000000000000000000000000000000000000000000000000000000000000000000000000000000000000000000000000000000000000000000000000000000000000000000000",
      "type": "0x2",
      "transactionHash": "0xfb44cbbbc7ef42f589857209cc992da9c23cdd47342ada767650f1aa66b60be7",
      "transactionIndex": "0x10",
      "blockHash": "0xd0cbf52591780924396c4c53b05b25bb01518ed1d5f89a1db0f1cd7363c94e40",
      "blockNumber": "0x1f4bef0",
      "gasUsed": "0x1519f6",
      "effectiveGasPrice": "0xf428b",
      "from": "0xdafe44ce6933ba24459453fe20f40d55a454a07f",
      "to": null,
      "contractAddress": "0xa32156451eb56310845af7362239fb5e1f95ca8a",
      "l1BaseFeeScalar": "0x44d",
      "l1BlobBaseFee": "0x1",
      "l1BlobBaseFeeScalar": "0xa118b",
      "l1Fee": "0x51",
      "l1GasPrice": "0x9",
      "l1GasUsed": "0xea39"
    },
    {
      "status": "0x1",
      "cumulativeGasUsed": "0x6957fe",
      "logs": [
        {
          "address": "0xa32156451eb56310845af7362239fb5e1f95ca8a",
          "topics": [
            "0x75a24a37f901a299cd9c661617ab1893a57e34c17b82c0898ddd5114a221b405",
            "0x0000000000000000000000004200000000000000000000000000000000000006",
            "0x9d4294bbcd1174d6f2003ec365831e64cc31d9f6f15a2b85399db8d5000960f6"
          ],
          "data": "0x000000000000000000000000dafe44ce6933ba24459453fe20f40d55a454a07f",
          "blockHash": "0x66f5ece5fb734fb418293ba8b14e1169d8787040f58dc6e2fc8e4b4e975fd373",
          "blockNumber": "0x1f4bef0",
          "blockTimestamp": "0x68fcdcc0",
          "transactionHash": "0x5359addc4465b402b73cbc8dfe56bba2bcc04924c72e2510498f0dc325a4c3de",
          "transactionIndex": "0x11",
          "logIndex": "0xc5",
          "removed": false
        }
      ],
      "logsBloom": "0x00000000000000000000000000000000000000000000000000000000000000000000000000000000000000000000000000000200000000000020000000000000000000000000000000000000000000000000000000000000000000000000000000000000000000000000000000020000000010000000000000000000000000000000000000000000000000000000000000000400000000000000000000000000100000000000000000000000000000000040000001000000000000000000000000200000000004000000000000000000000000000000000000000002000000000000000000000000000000000000000000000000000000000000800000000000",
      "type": "0x2",
      "transactionHash": "0x5359addc4465b402b73cbc8dfe56bba2bcc04924c72e2510498f0dc325a4c3de",
      "transactionIndex": "0x11",
      "blockHash": "0x66f5ece5fb734fb418293ba8b14e1169d8787040f58dc6e2fc8e4b4e975fd373",
      "blockNumber": "0x1f4bef0",
      "gasUsed": "0xbc46",
      "effectiveGasPrice": "0xf428b",
      "from": "0xdafe44ce6933ba24459453fe20f40d55a454a07f",
      "to": "0xa32156451eb56310845af7362239fb5e1f95ca8a",
      "contractAddress": null,
      "l1BaseFeeScalar": "0x44d",
      "l1BlobBaseFee": "0x1",
      "l1BlobBaseFeeScalar": "0xa118b",
      "l1Fee": "0x51",
      "l1GasPrice": "0x9",
      "l1GasUsed": "0x640"
    },
    {
      "status": "0x1",
      "cumulativeGasUsed": "0x6a1534",
      "logs": [
        {
          "address": "0xa32156451eb56310845af7362239fb5e1f95ca8a",
          "topics": [
            "0x75a24a37f901a299cd9c661617ab1893a57e34c17b82c0898ddd5114a221b405",
            "0x000000000000000000000000036cbd53842c5426634e7929541ec2318f3dcf7e",
            "0xeaa020c61cc479712813461ce153894a96a6c00b21ed0cfc2798d1f9a9e9c94a"
          ],
          "data": "0x000000000000000000000000dafe44ce6933ba24459453fe20f40d55a454a07f",
          "blockHash": "0x66f5ece5fb734fb418293ba8b14e1169d8787040f58dc6e2fc8e4b4e975fd373",
          "blockNumber": "0x1f4bef0",
          "blockTimestamp": "0x68fcdcc0",
          "transactionHash": "0x3f33103cb6883d2368857a811452816099ab55f6acb9ec9eaf293c3b4ec8bd74",
          "transactionIndex": "0x12",
          "logIndex": "0xc6",
          "removed": false
        }
      ],
      "logsBloom": "0x00000000000000000000000000000000000000000000000000000000000000000000000000000000000000000008000000000000000000000000000000000000000000000000000000400000000000000000000000000000000000000000000000000000000000000000000000020000000000000000000000000000000000000000000040000000000000000000000000000400000000000000000000000000100000000000000000000000000000000000000001000000100000000000000000200000000000000000000000000000000000000000000000000000000000000000000000000000000000000040000000000100000000000000800000000000",
      "type": "0x2",
      "transactionHash": "0x3f33103cb6883d2368857a811452816099ab55f6acb9ec9eaf293c3b4ec8bd74",
      "transactionIndex": "0x12",
      "blockHash": "0x66f5ece5fb734fb418293ba8b14e1169d8787040f58dc6e2fc8e4b4e975fd373",
      "blockNumber": "0x1f4bef0",
      "gasUsed": "0xbd36",
      "effectiveGasPrice": "0xf428b",
      "from": "0xdafe44ce6933ba24459453fe20f40d55a454a07f",
      "to": "0xa32156451eb56310845af7362239fb5e1f95ca8a",
      "contractAddress": null,
      "l1BaseFeeScalar": "0x44d",
      "l1BlobBaseFee": "0x1",
      "l1BlobBaseFeeScalar": "0xa118b",
      "l1Fee": "0x57",
      "l1GasPrice": "0x9",
      "l1GasUsed": "0x6a4"
    },
    {
      "status": "0x1",
      "cumulativeGasUsed": "0x6ad26a",
      "logs": [
        {
          "address": "0xa32156451eb56310845af7362239fb5e1f95ca8a",
          "topics": [
            "0x75a24a37f901a299cd9c661617ab1893a57e34c17b82c0898ddd5114a221b405",
            "0x000000000000000000000000e4ab69c077896252fafbd49efd26b5d171a32410",
            "0x8ac0c70fff57e9aefdf5edf44b51d62c2d433653cbb2cf5cc06bb115af04d221"
          ],
          "data": "0x000000000000000000000000dafe44ce6933ba24459453fe20f40d55a454a07f",
          "blockHash": "0x66f5ece5fb734fb418293ba8b14e1169d8787040f58dc6e2fc8e4b4e975fd373",
          "blockNumber": "0x1f4bef0",
          "blockTimestamp": "0x68fcdcc0",
          "transactionHash": "0x47e7afe834689452aeb56fd85a8bd3eafc78a4f90c88a8231a4a4dd557e459c3",
          "transactionIndex": "0x13",
          "logIndex": "0xc7",
          "removed": false
        }
      ],
      "logsBloom": "0x02000000000000000000000000000000000000000000000000004000000000000000000000000000000000000000000000000000000000000000000000000000000000000000000000000000010000000000000000000000000000000000000000000000000000000000000000020000000000000000000000000000000000000000000000002000000000000000000000000400000000000000000000000000100000000000000000000000000000000000000001000000000000000000200000200000000000000000000000010000000000000000000000000000000000000000000000000000000000000000000000000000000000000000800000000000",
      "type": "0x2",
      "transactionHash": "0x47e7afe834689452aeb56fd85a8bd3eafc78a4f90c88a8231a4a4dd557e459c3",
      "transactionIndex": "0x13",
      "blockHash": "0x66f5ece5fb734fb418293ba8b14e1169d8787040f58dc6e2fc8e4b4e975fd373",
      "blockNumber": "0x1f4bef0",
      "gasUsed": "0xbd36",
      "effectiveGasPrice": "0xf428b",
      "from": "0xdafe44ce6933ba24459453fe20f40d55a454a07f",
      "to": "0xa32156451eb56310845af7362239fb5e1f95ca8a",
      "contractAddress": null,
      "l1BaseFeeScalar": "0x44d",
      "l1BlobBaseFee": "0x1",
      "l1BlobBaseFeeScalar": "0xa118b",
      "l1Fee": "0x57",
      "l1GasPrice": "0x9",
      "l1GasUsed": "0x6a4"
    },
    {
      "status": "0x1",
      "cumulativeGasUsed": "0x6b8fa0",
      "logs": [
        {
          "address": "0xa32156451eb56310845af7362239fb5e1f95ca8a",
          "topics": [
            "0x75a24a37f901a299cd9c661617ab1893a57e34c17b82c0898ddd5114a221b405",
            "0x0000000000000000000000005fe161a97511aa3c185cbffdcf281fd510411343",
            "0x2b89b9dc8fdf9f34709a5b106b472f0f39bb6ca9ce04b0fd7f2e971688e2e53b"
          ],
          "data": "0x000000000000000000000000dafe44ce6933ba24459453fe20f40d55a454a07f",
          "blockHash": "0xd0cbf52591780924396c4c53b05b25bb01518ed1d5f89a1db0f1cd7363c94e40",
          "blockNumber": "0x1f4bef0",
          "blockTimestamp": "0x68fcdcc0",
          "transactionHash": "0x5e48df145de3376d95d48ccd60597e471df6e3ccfc7e53d1f10fd25476d1eddd",
          "transactionIndex": "0x14",
          "logIndex": "0xc8",
          "removed": false
        }
      ],
      "logsBloom": "0x00000000000000000000000000000000000000000000000000000000000000000000000000000000000000000000000000000000000000000000000000000000000001000000000000000000000010000000000000000000000000000000000000000000000000000000000000020000000000000000000000000000000000000000000000000000000000000000000000000400000000000000008000000000100000000000000000000000000010000000000001000000000000000000000000200000000000000000000000000040000000000000000000000000000000000000000000000000000000000000000000000000008000000000800000000000",
      "type": "0x2",
      "transactionHash": "0x5e48df145de3376d95d48ccd60597e471df6e3ccfc7e53d1f10fd25476d1eddd",
      "transactionIndex": "0x14",
      "blockHash": "0xd0cbf52591780924396c4c53b05b25bb01518ed1d5f89a1db0f1cd7363c94e40",
      "blockNumber": "0x1f4bef0",
      "gasUsed": "0xbd36",
      "effectiveGasPrice": "0xf428b",
      "from": "0xdafe44ce6933ba24459453fe20f40d55a454a07f",
      "to": "0xa32156451eb56310845af7362239fb5e1f95ca8a",
      "contractAddress": null,
      "l1BaseFeeScalar": "0x44d",
      "l1BlobBaseFee": "0x1",
      "l1BlobBaseFeeScalar": "0xa118b",
      "l1Fee": "0x51",
      "l1GasPrice": "0x9",
      "l1GasUsed": "0x6a4"
    },
    {
      "status": "0x1",
      "cumulativeGasUsed": "0x6c4cca",
      "logs": [
        {
          "address": "0xa32156451eb56310845af7362239fb5e1f95ca8a",
          "topics": [
            "0x75a24a37f901a299cd9c661617ab1893a57e34c17b82c0898ddd5114a221b405",
            "0x00000000000000000000000058c445b391c553a216defed1631997eddf604b49",
            "0x7eab5e260e42d81013207e623be60c66c9c55bfe0ace4797ad00d1c5a1335eae"
          ],
          "data": "0x000000000000000000000000dafe44ce6933ba24459453fe20f40d55a454a07f",
          "blockHash": "0x66f5ece5fb734fb418293ba8b14e1169d8787040f58dc6e2fc8e4b4e975fd373",
          "blockNumber": "0x1f4bef0",
          "blockTimestamp": "0x68fcdcc0",
          "transactionHash": "0x40b513720b5fb511f924832ae0e91859d38f9424d03e50a612a00f5e24c91ca5",
          "transactionIndex": "0x15",
          "logIndex": "0xc9",
          "removed": false
        }
      ],
      "logsBloom": "0x00000000000000000000000000000000000000000000000000000000010000000000000000000000000000000000000000000000000000200000000000000000000000000000000000000000000000000000000000000000000000000000000000000000000000000000000000020000000000000010000800000000000000000000020000000000000000000000000000000400000000000000000000000000100000000000000000000000000000000000000001000000000000000000000000200000000000000000000000000000000000000000000000000000000000000000000000000000000000000001000000000000000000000000800000000000",
      "type": "0x2",
      "transactionHash": "0x40b513720b5fb511f924832ae0e91859d38f9424d03e50a612a00f5e24c91ca5",
      "transactionIndex": "0x15",
      "blockHash": "0x66f5ece5fb734fb418293ba8b14e1169d8787040f58dc6e2fc8e4b4e975fd373",
      "blockNumber": "0x1f4bef0",
      "gasUsed": "0xbd2a",
      "effectiveGasPrice": "0xf428b",
      "from": "0xdafe44ce6933ba24459453fe20f40d55a454a07f",
      "to": "0xa32156451eb56310845af7362239fb5e1f95ca8a",
      "contractAddress": null,
      "l1BaseFeeScalar": "0x44d",
      "l1BlobBaseFee": "0x1",
      "l1BlobBaseFeeScalar": "0xa118b",
      "l1Fee": "0x57",
      "l1GasPrice": "0x9",
      "l1GasUsed": "0x6a4"
    },
    {
      "status": "0x1",
      "cumulativeGasUsed": "0x6d0a00",
      "logs": [
        {
          "address": "0xa32156451eb56310845af7362239fb5e1f95ca8a",
          "topics": [
            "0x75a24a37f901a299cd9c661617ab1893a57e34c17b82c0898ddd5114a221b405",
            "0x000000000000000000000000a4d20763eb35092bdd5b2545079aacf048fa96b7",
            "0x2817d7bfe5c64b8ea956e9a26f573ef64e72e4d7891f2d6af9bcc93f7aff9a97"
          ],
          "data": "0x000000000000000000000000dafe44ce6933ba24459453fe20f40d55a454a07f",
          "blockHash": "0xd0cbf52591780924396c4c53b05b25bb01518ed1d5f89a1db0f1cd7363c94e40",
          "blockNumber": "0x1f4bef0",
          "blockTimestamp": "0x68fcdcc0",
          "transactionHash": "0xb5de74c5f881f9e2b24ce0f0c540f65daecd05b78d3b444da690de65bc6ee266",
          "transactionIndex": "0x16",
          "logIndex": "0xca",
          "removed": false
        }
      ],
      "logsBloom": "0x00000000000000000000000000000000000200000000000000000000000000000000000000000000000000000000000000000000000000000000000000000000004000000000000000000000000000000000000000000000000000000000000000000000000000000000000000020000000000000000000000000000000000000000000000000000000000000000000000000400000000000000000000000000100000040000000000000000000000000000000001000000000000000000000000200000000000000000000000004000000000000000000000000000000000000000000000000000000000000000000002000000000000000000800000000000",
      "type": "0x2",
      "transactionHash": "0xb5de74c5f881f9e2b24ce0f0c540f65daecd05b78d3b444da690de65bc6ee266",
      "transactionIndex": "0x16",
      "blockHash": "0xd0cbf52591780924396c4c53b05b25bb01518ed1d5f89a1db0f1cd7363c94e40",
      "blockNumber": "0x1f4bef0",
      "gasUsed": "0xbd36",
      "effectiveGasPrice": "0xf428b",
      "from": "0xdafe44ce6933ba24459453fe20f40d55a454a07f",
      "to": "0xa32156451eb56310845af7362239fb5e1f95ca8a",
      "contractAddress": null,
      "l1BaseFeeScalar": "0x44d",
      "l1BlobBaseFee": "0x1",
      "l1BlobBaseFeeScalar": "0xa118b",
      "l1Fee": "0x51",
      "l1GasPrice": "0x9",
      "l1GasUsed": "0x6a4"
    },
    {
      "status": "0x1",
      "cumulativeGasUsed": "0x6edcac",
      "logs": [
        {
          "address": "0xa32156451eb56310845af7362239fb5e1f95ca8a",
          "topics": [
            "0x75a24a37f901a299cd9c661617ab1893a57e34c17b82c0898ddd5114a221b405",
            "0x0000000000000000000000007f24751c3aecdcc72981cbf9bbdefad11094ab2d",
            "0xf0d57deca57b3da2fe63a493f4c25925fdfd8edf834b20f93e1f84dbd1504d4a"
          ],
          "data": "0x000000000000000000000000dafe44ce6933ba24459453fe20f40d55a454a07f",
          "blockHash": "0xd0cbf52591780924396c4c53b05b25bb01518ed1d5f89a1db0f1cd7363c94e40",
          "blockNumber": "0x1f4bef0",
          "blockTimestamp": "0x68fcdcc0",
          "transactionHash": "0xe48f796b75736257cef41614a3f2d7c16660ecde1f86d83d35f5e8b61fc70d48",
          "transactionIndex": "0x19",
          "logIndex": "0xcd",
          "removed": false
        }
      ],
      "logsBloom": "0x00000000008000000000000000000000000000000000000000000000000000000000000000000000000000000000000000000000000000000000000000000000000000000004000000000000000000000000000000000000000000000000000000000000000000000000000000020000000000000000000000000000000000000000000000000000000000000000000000000400000000000000000000000000100000200000000000000000000000000000000001000000000000000000000000200040000000000000000000000000000000000000004000000000000080000000000000000000000000000000000000000000000000000000800000000000",
      "type": "0x2",
      "transactionHash": "0xe48f796b75736257cef41614a3f2d7c16660ecde1f86d83d35f5e8b61fc70d48",
      "transactionIndex": "0x19",
      "blockHash": "0xd0cbf52591780924396c4c53b05b25bb01518ed1d5f89a1db0f1cd7363c94e40",
      "blockNumber": "0x1f4bef0",
      "gasUsed": "0xbd36",
      "effectiveGasPrice": "0xf428b",
      "from": "0xdafe44ce6933ba24459453fe20f40d55a454a07f",
      "to": "0xa32156451eb56310845af7362239fb5e1f95ca8a",
      "contractAddress": null,
      "l1BaseFeeScalar": "0x44d",
      "l1BlobBaseFee": "0x1",
      "l1BlobBaseFeeScalar": "0xa118b",
      "l1Fee": "0x51",
      "l1GasPrice": "0x9",
      "l1GasUsed": "0x6a4"
    },
    {
      "status": "0x1",
      "cumulativeGasUsed": "0x6f99e2",
      "logs": [
        {
          "address": "0xa32156451eb56310845af7362239fb5e1f95ca8a",
          "topics": [
            "0x75a24a37f901a299cd9c661617ab1893a57e34c17b82c0898ddd5114a221b405",
            "0x00000000000000000000000067abb24dac2b03550f6594909917a5bbdfdbedb2",
            "0x9db37f4d5654aad3e37e2e14ffd8d53265fb3026d1d8f91146539eebaa2ef45f"
          ],
          "data": "0x000000000000000000000000dafe44ce6933ba24459453fe20f40d55a454a07f",
          "blockHash": "0xd0cbf52591780924396c4c53b05b25bb01518ed1d5f89a1db0f1cd7363c94e40",
          "blockNumber": "0x1f4bef0",
          "blockTimestamp": "0x68fcdcc0",
          "transactionHash": "0x2c75aa49aebefd61e98af51d88071a836dba042d0cd4ffc4936dbbff8827efea",
          "transactionIndex": "0x1a",
          "logIndex": "0xce",
          "removed": false
        }
      ],
      "logsBloom": "0x00000000000000000000000000000000000000800000000000000000000000000000000000000000000000000000000000000000000000000000000000000000000000000800000000000000000000000000000000000000000000000000004000000000000000000000000000020000000000000000000000000000000000000000000000000000000000000000000000000400000400000000000000000000100000000000000000000000000000000000000005000000000000000000000000200000000000000000000000000000000000000000000000000000000000000000000000000000000000000000000080000000000000000000800000000000",
      "type": "0x2",
      "transactionHash": "0x2c75aa49aebefd61e98af51d88071a836dba042d0cd4ffc4936dbbff8827efea",
      "transactionIndex": "0x1a",
      "blockHash": "0xd0cbf52591780924396c4c53b05b25bb01518ed1d5f89a1db0f1cd7363c94e40",
      "blockNumber": "0x1f4bef0",
      "gasUsed": "0xbd36",
      "effectiveGasPrice": "0xf428b",
      "from": "0xdafe44ce6933ba24459453fe20f40d55a454a07f",
      "to": "0xa32156451eb56310845af7362239fb5e1f95ca8a",
      "contractAddress": null,
      "l1BaseFeeScalar": "0x44d",
      "l1BlobBaseFee": "0x1",
      "l1BlobBaseFeeScalar": "0xa118b",
      "l1Fee": "0x51",
      "l1GasPrice": "0x9",
      "l1GasUsed": "0x6a4"
    },
    {
      "status": "0x1",
      "cumulativeGasUsed": "0x705718",
      "logs": [
        {
          "address": "0xa32156451eb56310845af7362239fb5e1f95ca8a",
          "topics": [
            "0x75a24a37f901a299cd9c661617ab1893a57e34c17b82c0898ddd5114a221b405",
            "0x000000000000000000000000bb792affd9152d17e0772e2b7cce48a17103e59d",
            "0x95fd9e16d4cfc5d1370f32bb0bf2346860ad9c92fec83acf4ca263baf16c961d"
          ],
          "data": "0x000000000000000000000000dafe44ce6933ba24459453fe20f40d55a454a07f",
          "blockHash": "0xd0cbf52591780924396c4c53b05b25bb01518ed1d5f89a1db0f1cd7363c94e40",
          "blockNumber": "0x1f4bef0",
          "blockTimestamp": "0x68fcdcc0",
          "transactionHash": "0xa3464088a76219994bdc19692ccc96ce9553af3377d27d7bd61cd7414ef0e014",
          "transactionIndex": "0x1b",
          "logIndex": "0xcf",
          "removed": false
        }
      ],
      "logsBloom": "0x80000000000000000000000000000000000000000000000000000000000000000000000000000000000002000000000000000000000000000000000000000000000000000000000000000000000000000000000000000000000000000000000000000000000000000000000000020000000000000000000000000000000000000000000000000000100000000000000000000400000000000008000000000000100000000000000000000000000000000000000001000000000200000000000000200000000000000000000000000000000000000000000000000000000000000400000000000000000000000000000000000000000000000000800000000000",
      "type": "0x2",
      "transactionHash": "0xa3464088a76219994bdc19692ccc96ce9553af3377d27d7bd61cd7414ef0e014",
      "transactionIndex": "0x1b",
      "blockHash": "0xd0cbf52591780924396c4c53b05b25bb01518ed1d5f89a1db0f1cd7363c94e40",
      "blockNumber": "0x1f4bef0",
      "gasUsed": "0xbd36",
      "effectiveGasPrice": "0xf428b",
      "from": "0xdafe44ce6933ba24459453fe20f40d55a454a07f",
      "to": "0xa32156451eb56310845af7362239fb5e1f95ca8a",
      "contractAddress": null,
      "l1BaseFeeScalar": "0x44d",
      "l1BlobBaseFee": "0x1",
      "l1BlobBaseFeeScalar": "0xa118b",
      "l1Fee": "0x51",
      "l1GasPrice": "0x9",
      "l1GasUsed": "0x6a4"
    },
    {
      "status": "0x1",
      "cumulativeGasUsed": "0x71144e",
      "logs": [
        {
          "address": "0xa32156451eb56310845af7362239fb5e1f95ca8a",
          "topics": [
            "0x75a24a37f901a299cd9c661617ab1893a57e34c17b82c0898ddd5114a221b405",
            "0x00000000000000000000000069f2ecec8707359204dea8249b64a5a3d3e1ae05",
            "0xd69731a2e74ac1ce884fc3890f7ee324b6deb66147055249568869ed700882e4"
          ],
          "data": "0x000000000000000000000000dafe44ce6933ba24459453fe20f40d55a454a07f",
          "blockHash": "0x66f5ece5fb734fb418293ba8b14e1169d8787040f58dc6e2fc8e4b4e975fd373",
          "blockNumber": "0x1f4bef0",
          "blockTimestamp": "0x68fcdcc0",
          "transactionHash": "0x58ab6de0a76d28d0fdf5f7c961d1777bd7883577d102e3eb6cc4969b2edea0cf",
          "transactionIndex": "0x1c",
          "logIndex": "0xd0",
          "removed": false
        }
      ],
      "logsBloom": "0x00000000000000000000000000000000000000000000000000000000000000000000000000000000000000000000000000000000000000000000000000800000004000000000000000000000000000010000000000000000000000000000000000000000000000000000000000020000000000000000400000000000000000000000000000000000000000000000000000000400000000000000000000000000100000000000000000000000000000000000000001000000000000000000000000200000000000000000000000000000000000000000000000000008000000004000000000000000000000000000000000000000000000000000800000000000",
      "type": "0x2",
      "transactionHash": "0x58ab6de0a76d28d0fdf5f7c961d1777bd7883577d102e3eb6cc4969b2edea0cf",
      "transactionIndex": "0x1c",
      "blockHash": "0x66f5ece5fb734fb418293ba8b14e1169d8787040f58dc6e2fc8e4b4e975fd373",
      "blockNumber": "0x1f4bef0",
      "gasUsed": "0xbd36",
      "effectiveGasPrice": "0xf428b",
      "from": "0xdafe44ce6933ba24459453fe20f40d55a454a07f",
      "to": "0xa32156451eb56310845af7362239fb5e1f95ca8a",
      "contractAddress": null,
      "l1BaseFeeScalar": "0x44d",
      "l1BlobBaseFee": "0x1",
      "l1BlobBaseFeeScalar": "0xa118b",
      "l1Fee": "0x57",
      "l1GasPrice": "0x9",
      "l1GasUsed": "0x6a4"
    }
  ],
  "libraries": [],
  "pending": [],
  "returns": {},
  "timestamp": 1761402060020,
  "chain": 84532,
  "commit": "af3e1aa"
}