{
  "transactions": [
    {
      "hash": "0xc3860df7b212caf53f02b95841e011c9b528deeb3d50518e295e6289e99c7be9",
      "transactionType": "CREATE",
      "contractName": "P2P",
      "contractAddress": "0x1d28d863a41d8634d443e5b365aea18882e00113",
      "function": null,
      "arguments": [
        "0xA2aa501b19aff244D90cc15a4Cf739D2725B5729"
      ],
      "transaction": {
        "from": "0xdafe44ce6933ba24459453fe20f40d55a454a07f",
        "gas": "0x1de78c",
        "value": "0x0",
        "input": "0x608034608657601f61194038819003918201601f19168301916001600160401b03831184841017608a57808492602094604052833981010312608657516001600160a01b0381169081900360865760015f819055600555600380546001600160a01b031990811692909217905560048054909116331790556040516118a1908161009f8239f35b5f80fd5b634e487b7160e01b5f52604160045260245ffdfe610280806040526004361015610013575f80fd5b5f6101c0525f3560e01c908163207fd1261461131c575080634e10ebb414611040578063518e62db14610c635780637564912b14610be65780638da5cb5b14610bbe5780639dcb511a14610b86578063adcb085a14610acf578063cdb788eb146100e2578063dd231ae2146100c25763f98d06f014610090575f80fd5b346100bb576101c0513660031901126100bb576003546040516001600160a01b039091168152602090f35b6101c05180fd5b346100bb576101c0513660031901126100bb576020600554604051908152f35b6080366003190112610a885760043567ffffffffffffffff8111610a885736602382011215610a8857806004013567ffffffffffffffff8111610a88576024820191602436918360051b010111610a885761013b6115e5565b6101605260443560c08190526001600160a01b0381169003610a885760405160208101906101818161017360c05161016051866115fb565b03601f198101835282611643565b5190205f908152600160205260409020546101a6906001600160a01b0316151561167e565b60025f5414610ac05760025f5560405160208101906101cf8161017360c05161016051866115fb565b5190206101205260035460405163d47eed4560e01b815291906001600160a01b0316602083806102038588600484016117a9565b0381845afa928315610a7d575f93610a8c575b50803b15610a8857604051631df3cbc560e31b8152935f9385938492839161024191600484016117a9565b03925af18015610a7d57610a68575b50610160516101c080516001600160a01b03928316905260026020818152825160408082205460c051871690925292909152915181902054600354915163052571af60e51b81526004810193909352600f602484015291921690608083604481855afa9283156106b4576101c05193610a46575b5060809060446040518094819363052571af60e51b83526004830152600f60248301525afa9081156106b4576101c05191610a17575b506101c051825160070b126100bb576101c051815160070b126100bb5763ffffffff61032c604084015160030b611748565b169067ffffffffffffffff63ffffffff61034c604084015160030b611748565b1693511691670de0b6b3a7640000830292808404670de0b6b3a7640000149015171561081b5767ffffffffffffffff9261038861038e92611780565b9061184d565b610180525116670de0b6b3a7640000810290808204670de0b6b3a7640000149015171561081b576103886103c192611780565b610260526201870461018051026101a052610180516101a0510462018704146101805115171561081b57620186d2610180510260e0526101805160e05104620186d2146101805115171561081b57610120516101c05152600160205260406101c051206102405261045060ff6001610240510154610443828260a01c1661175c565b6102205260a81c1661175c565b6080526104856104716102205161046c6102605160643561176d565b61176d565b610388608051620186a06101a0510461176d565b6101005261010051156109df576101c051610240516004015461014082905290805b60326101405110806109d3575b806109ca575b1561084557826101c051526002610240510160205260406101c0512061020052826101c051526003610240510160205260406101c0512092835491600261020051015480159081158092610835575b610784575b50506020816105a161059761058361052c6105f196610100516116c0565b6101c0516101e052610200516001015490808210610779576101e0525b61057661056660805161046c620186a060e051046101e05161176d565b610388610220516102605161176d565b60a0526101e051906116c0565b928360016102005101556101e0519061179c565b9660a0519061179c565b9660018060a01b0361020051541691156106c2575b506040516323b872dd60e01b815260a0513360048301526001600160a01b039092166024820152604481019190915291829081906064820190565b03816101c05160018060a01b0360c051165af180156106b457610688575b5060408051610160516001600160a01b03908116825260c0511660208201526101e0519181019190915260a0516060820152610120513392917fc6660e365b3b6bede9a0359f8ed99f67bbe20f7e8be55a00d1881b5a3cdb99f590608090a4905b61067c6101405161178e565b610140529190916104a7565b6106a89060203d81116106ad575b6106a08183611643565b8101906116cd565b61060f565b503d610696565b6040513d6101c051823e3d90fd5b805460019091015490811561076b57816101c051526003610240510184528060406101c05120555b801561075d576101c05152600361024051018352600160406101c0512001555b836101c0515260026102405101825261073a60406101c0512060035f918281558260018201558260028201550155565b6101c08051859052610240516003018352516040812081815560010155876105b6565b50600561024051015561070a565b8060046102405101556106ea565b50806101e052610549565b61018051670de0b6b3a7640000610180510204670de0b6b3a7640000146101805115171561081b576107c661026051670de0b6b3a7640000610180510261184d565b9082610811575b5081156107eb575b506107e157858061050e565b9293505090610670565b905060036102005101548015159182610807575b5050866107d5565b10905086806107ff565b81119150876107cd565b634e487b7160e01b6101c05152601160045260246101c051fd5b5060036102005101541515610509565b908115610969576006610240510161085e8382546116c0565b905560405163a9059cbb60e01b8152336004820152602481018390526101c05161016051602091839160449183916001600160a01b03165af180156106b4576108ca936108c5926105669261094c575b5061046c60805191620186a06101a051049061176d565b6116c0565b806108db575b6101c0516001815580f35b600480546040516323b872dd60e01b815233928101929092526001600160a01b03908116602483015260448201929092526101c05160c051919260209284926064928492165af180156106b457156108d0576109459060203d6020116106ad576106a08183611643565b50806108d0565b6109649060203d6020116106ad576106a08183611643565b6108ae565b60405162461bcd60e51b815260206004820152603360248201527f4e6f206f72646572732061742063757272656e74207072696365206c6576656c6044820152721cc8185d985a5b18589b19481d1bc8199a5b1b606a1b6064820152608490fd5b508215156104ba565b506101005181106104b4565b60405162461bcd60e51b815260206004820152601060248201526f105b5bdd5b9d081d1bdbc81cdb585b1b60821b6044820152606490fd5b610a39915060803d608011610a3f575b610a318183611643565b8101906116e5565b826102fa565b503d610a27565b6080919350610a6190823d8411610a3f57610a318183611643565b92906102c4565b5f610a7291611643565b5f6101c05280610250565b6040513d5f823e3d90fd5b5f80fd5b9092506020813d602011610ab8575b81610aa860209383611643565b81010312610a8857519184610216565b3d9150610a9b565b633ee5aeb560e01b5f5260045ffd5b34610a88576040366003190112610a8857610ae86115cf565b60045460243591906001600160a01b03163303610b415760018060a01b0316805f5260026020528160405f20557f75a24a37f901a299cd9c661617ab1893a57e34c17b82c0898ddd5114a221b4056020604051338152a3005b60405162461bcd60e51b815260206004820152601e60248201527f4f6e6c79206f776e65722063616e2073657420707269636520666565647300006044820152606490fd5b34610a88576020366003190112610a88576001600160a01b03610ba76115cf565b165f526002602052602060405f2054604051908152f35b34610a88575f366003190112610a88576004546040516001600160a01b039091168152602090f35b34610a88576020366003190112610a88576004355f52600160205260e060405f2060018060a01b0381541690600181015490600481015460ff600660058401549301549360405195865260018060a01b0381166020870152818160a01c16604087015260a81c166060850152608084015260a083015260c0820152f35b34610a885760a0366003190112610a8857610c7c6115cf565b610c846115e5565b9060443590606435608435906040516020810190610ca7816101738988866115fb565b5190205f90815260016020526040902054610ccc906001600160a01b0316151561167e565b6040516020810190610ce3816101738988866115fb565b51902093845f52600160205260405f209360018060a01b031695865f52600260205260405f2054608060018060a01b03600354169160446040518094819363052571af60e51b83526004830152603c60248301525afa908115610a7d575f91611021575b505f815160070b12610fec5763ffffffff610d68604083015160030b611748565b16610d7c60ff600189015460a01c1661175c565b80600a0290600a820403610fd857610da967ffffffffffffffff91610da3610db294611780565b9061176d565b9251168461176d565b10610f875760055494610dc48661178e565b600555604051610dd381611627565b3381526003602082018581526040830187815260608401918983528a5f526002860160205260405f209460018060a01b039060018060a01b03905116166001600160601b0360a01b865416178555516001850155516002840155519101556005810180549060405191604083019280841067ffffffffffffffff851117610f735789936040525f81526020810191825260016003860192855f528360205260405f209251835551910155815480610f61575b50508160048401805415610f59575b50505560068101610ea684825461179c565b9055546040516323b872dd60e01b81523360048201523060248201526044810184905290602090829060649082905f906001600160a01b03165af18015610a7d57610f3c575b5060405196875260018060a01b0316602087015260408601526060850152608084015260a08301527f7448c7b7b021897f4f19bd7cdda03bed9c26cf75e56ea3bafd3c0d2c7ef24f4b60c03393a3005b610f549060203d6020116106ad576106a08183611643565b610eec565b55818b610e94565b5f526020528160405f20558a80610e85565b634e487b7160e01b5f52604160045260245ffd5b60405162461bcd60e51b8152602060048201526024808201527f4f726465722076616c7565206d757374206265206174206c6561737420243130604482015263081554d160e21b6064820152608490fd5b634e487b7160e01b5f52601160045260245ffd5b60405162461bcd60e51b815260206004820152600d60248201526c496e76616c696420707269636560981b6044820152606490fd5b61103a915060803d608011610a3f57610a318183611643565b88610d47565b34610a88576080366003190112610a88576110596115cf565b6110616115e5565b90604435606435926040516020810190611080816101738588866115fb565b5190205f908152600160205260409020546110a5906001600160a01b0316151561167e565b60405160208101906110bc816101738588866115fb565b51902092835f52600160205260405f2060028101865f528060205260405f20906003830191885f528260205260405f209060018060a01b038154163303610a8857600101805480156112c4578089116112695788611119916116c0565b809155156111e3575b505050600681016111348582546116c0565b90555460405163a9059cbb60e01b8152336004820152602481018590529390602090859060449082905f906001600160a01b03165af1928315610a7d577fd3256e8bbdb24f280dca57cc82df4d5742b897cb9699d4657638aa44eb5aa17c946080946111c6575b50604080513381526001600160a01b03948516602082015291909316928101929092526060820152a3005b6111de9060203d6020116106ad576106a08183611643565b61119b565b8054600182015491821561125d5754825f528460205260405f20555b8015611252575f5282602052600160405f2001555b875f5260205261123860405f2060035f918281558260018201558260028201550155565b865f526020525f6001604082208281550155868080611122565b506005840155611214565b508060048601556111ff565b60405162461bcd60e51b815260206004820152602d60248201527f636c6f736520616d6f756e7420626967676572207468616e2072656d61696e6960448201526c6e67206f726465722073697a6560981b6064820152608490fd5b60405162461bcd60e51b815260206004820152602a60248201527f6f7264657220686173206265656e2066696c6c6564206f722063616e63656c6c604482015269656420616c726561647960b01b6064820152608490fd5b34610a88576040366003190112610a88576113356115cf565b9061133e6115e5565b916001600160a01b03811691821515806115bd575b1561158357506001600160a01b0383169282841461153e57825f52600260205260405f205415610a8857835f52600260205260405f205415610a88576113a7610173916040519283916020830195866115fb565b5190205f818152600160205260409020546001600160a01b031661150157805f526001602052600160405f20836001600160601b0360a01b8254161781550192806001600160601b0360a01b8554161784556040519263313ce56760e01b8452602084600481845afa938415610a7d575f946114e0575b50845460ff60a01b19811660a09590951b60ff60a01b16948517865560405163313ce56760e01b8152949590602086600481875afa968715610a7d577fbc2bccc2713ac25dc4bcda6e2a6c18b5c5cd08d9c00fa807a841a510d6c11a79976060975f916114b1575b5060ff60a81b9060a81b169161ffff60a01b19161717905560405192835260208301526040820152a1005b6114d3915060203d6020116114d9575b6114cb8183611643565b810190611665565b89611486565b503d6114c1565b6114fa91945060203d6020116114d9576114cb8183611643565b928561141e565b60405162461bcd60e51b81526020600482015260156024820152744d61726b657420616c72656164792065786973747360581b6044820152606490fd5b60405162461bcd60e51b815260206004820152601860248201527f546f6b656e73206d75737420626520646966666572656e7400000000000000006044820152606490fd5b62461bcd60e51b8152602060048201526015602482015274496e76616c696420746f6b656e206164647265737360581b6044820152606490fd5b506001600160a01b0384161515611353565b600435906001600160a01b0382168203610a8857565b602435906001600160a01b0382168203610a8857565b90916028926001600160601b03199060601b1682526001600160601b03199060601b1660148201520190565b6080810190811067ffffffffffffffff821117610f7357604052565b90601f8019910116810190811067ffffffffffffffff821117610f7357604052565b90816020910312610a88575160ff81168103610a885790565b1561168557565b60405162461bcd60e51b81526020600482015260136024820152721b585c9ad95d08191bd95cdb9d08195e1a5cdd606a1b6044820152606490fd5b91908203918211610fd857565b90816020910312610a8857518015158103610a885790565b90816080910312610a8857604051906116fd82611627565b80518060070b8103610a88578252602081015167ffffffffffffffff81168103610a885760208301526040810151908160030b8203610a885760609160408401520151606082015290565b60030b637fffffff198114610fd8575f0390565b60ff16604d8111610fd857600a0a90565b81810292918115918404141715610fd857565b604d8111610fd857600a0a90565b5f198114610fd85760010190565b91908201809211610fd857565b9180602084016020855252604083019060408160051b85010193835f91601e1982360301905b8484106117e0575050505050505090565b90919293949596603f19828203018752873583811215610a88578401906020823592019167ffffffffffffffff8111610a88578036038313610a88576020828280600196849695859652848401375f828201840152601f01601f19160101990197019594019291906117cf565b8115611857570490565b634e487b7160e01b5f52601260045260245ffdfea2646970667358221220cd620a263fdf00a9a17349a52607d93788de67621d0531ab0d62f86b58866f2764736f6c634300081e0033000000000000000000000000a2aa501b19aff244d90cc15a4cf739d2725b5729",
        "nonce": "0x5f",
        "chainId": "0x14a34"
      },
      "additionalContracts": [],
      "isFixedGasLimit": false
    },
    {
      "hash": "0x82841c50563172de6fd76ab5c71f53844fe10d3e505e31f67e6f5a8441a0e790",
      "transactionType": "CALL",
      "contractName": "P2P",
      "contractAddress": "0x1d28d863a41d8634d443e5b365aea18882e00113",
      "function": "setPriceFeed(address,bytes32)",
      "arguments": [
        "0x4200000000000000000000000000000000000006",
        "0x9d4294bbcd1174d6f2003ec365831e64cc31d9f6f15a2b85399db8d5000960f6"
      ],
      "transaction": {
        "from": "0xdafe44ce6933ba24459453fe20f40d55a454a07f",
        "to": "0x1d28d863a41d8634d443e5b365aea18882e00113",
        "gas": "0x10421",
        "value": "0x0",
        "input": "0xadcb085a00000000000000000000000042000000000000000000000000000000000000069d4294bbcd1174d6f2003ec365831e64cc31d9f6f15a2b85399db8d5000960f6",
        "nonce": "0x60",
        "chainId": "0x14a34"
      },
      "additionalContracts": [],
      "isFixedGasLimit": false
    },
    {
      "hash": "0x6f1e22556449d8acaa65a3657af027413a7acbc964b83649504392a17d7f621d",
      "transactionType": "CALL",
      "contractName": "P2P",
      "contractAddress": "0x1d28d863a41d8634d443e5b365aea18882e00113",
      "function": "setPriceFeed(address,bytes32)",
      "arguments": [
        "0x036CbD53842c5426634e7929541eC2318f3dCF7e",
        "0xeaa020c61cc479712813461ce153894a96a6c00b21ed0cfc2798d1f9a9e9c94a"
      ],
      "transaction": {
        "from": "0xdafe44ce6933ba24459453fe20f40d55a454a07f",
        "to": "0x1d28d863a41d8634d443e5b365aea18882e00113",
        "gas": "0x1056d",
        "value": "0x0",
        "input": "0xadcb085a000000000000000000000000036cbd53842c5426634e7929541ec2318f3dcf7eeaa020c61cc479712813461ce153894a96a6c00b21ed0cfc2798d1f9a9e9c94a",
        "nonce": "0x61",
        "chainId": "0x14a34"
      },
      "additionalContracts": [],
      "isFixedGasLimit": false
    },
    {
      "hash": "0x4017b3822c98a95695fc2733553f5039be67f80bc882b02f59a1590f30761186",
      "transactionType": "CALL",
      "contractName": "P2P",
      "contractAddress": "0x1d28d863a41d8634d443e5b365aea18882e00113",
      "function": "setPriceFeed(address,bytes32)",
      "arguments": [
        "0xE4aB69C077896252FAFBD49EFD26B5D171A32410",
        "0x8ac0c70fff57e9aefdf5edf44b51d62c2d433653cbb2cf5cc06bb115af04d221"
      ],
      "transaction": {
        "from": "0xdafe44ce6933ba24459453fe20f40d55a454a07f",
        "to": "0x1d28d863a41d8634d443e5b365aea18882e00113",
        "gas": "0x1056d",
        "value": "0x0",
        "input": "0xadcb085a000000000000000000000000e4ab69c077896252fafbd49efd26b5d171a324108ac0c70fff57e9aefdf5edf44b51d62c2d433653cbb2cf5cc06bb115af04d221",
        "nonce": "0x62",
        "chainId": "0x14a34"
      },
      "additionalContracts": [],
      "isFixedGasLimit": false
    },
    {
      "hash": "0x6636451cc61206fa5eb91637307653a478a9324e637754cbcd73bbc85735ff78",
      "transactionType": "CALL",
      "contractName": "P2P",
      "contractAddress": "0x1d28d863a41d8634d443e5b365aea18882e00113",
      "function": "setPriceFeed(address,bytes32)",
      "arguments": [
        "0x5Fe161a97511aa3C185cBfFDCf281Fd510411343",
        "0x2b89b9dc8fdf9f34709a5b106b472f0f39bb6ca9ce04b0fd7f2e971688e2e53b"
      ],
      "transaction": {
        "from": "0xdafe44ce6933ba24459453fe20f40d55a454a07f",
        "to": "0x1d28d863a41d8634d443e5b365aea18882e00113",
        "gas": "0x1056d",
        "value": "0x0",
        "input": "0xadcb085a0000000000000000000000005fe161a97511aa3c185cbffdcf281fd5104113432b89b9dc8fdf9f34709a5b106b472f0f39bb6ca9ce04b0fd7f2e971688e2e53b",
        "nonce": "0x63",
        "chainId": "0x14a34"
      },
      "additionalContracts": [],
      "isFixedGasLimit": false
    },
    {
      "hash": "0xe334985bd2550451f12f3e8db951ac6852b56d1cbfba7f95cf61c9e648fa240c",
      "transactionType": "CALL",
      "contractName": "P2P",
      "contractAddress": "0x1d28d863a41d8634d443e5b365aea18882e00113",
      "function": "setPriceFeed(address,bytes32)",
      "arguments": [
        "0x58c445B391c553A216DEfEd1631997eddF604B49",
        "0x7eab5e260e42d81013207e623be60c66c9c55bfe0ace4797ad00d1c5a1335eae"
      ],
      "transaction": {
        "from": "0xdafe44ce6933ba24459453fe20f40d55a454a07f",
        "to": "0x1d28d863a41d8634d443e5b365aea18882e00113",
        "gas": "0x114bc",
        "value": "0x0",
        "input": "0xadcb085a00000000000000000000000058c445b391c553a216defed1631997eddf604b497eab5e260e42d81013207e623be60c66c9c55bfe0ace4797ad00d1c5a1335eae",
        "nonce": "0x64",
        "chainId": "0x14a34"
      },
      "additionalContracts": [],
      "isFixedGasLimit": false
    },
    {
      "hash": "0xd839c7977de09d2a8c68805a3938428c0cd70ea1436b07398acfa2949dc19e6a",
      "transactionType": "CALL",
      "contractName": "P2P",
      "contractAddress": "0x1d28d863a41d8634d443e5b365aea18882e00113",
      "function": "setPriceFeed(address,bytes32)",
      "arguments": [
        "0xA4d20763EB35092bdd5B2545079AACF048fA96B7",
        "0x2817d7bfe5c64b8ea956e9a26f573ef64e72e4d7891f2d6af9bcc93f7aff9a97"
      ],
      "transaction": {
        "from": "0xdafe44ce6933ba24459453fe20f40d55a454a07f",
        "to": "0x1d28d863a41d8634d443e5b365aea18882e00113",
        "gas": "0x1056d",
        "value": "0x0",
        "input": "0xadcb085a000000000000000000000000a4d20763eb35092bdd5b2545079aacf048fa96b72817d7bfe5c64b8ea956e9a26f573ef64e72e4d7891f2d6af9bcc93f7aff9a97",
        "nonce": "0x65",
        "chainId": "0x14a34"
      },
      "additionalContracts": [],
      "isFixedGasLimit": false
    },
    {
      "hash": "0x6ca430150ec74d192730516c131eac994833aca601270c3952d2f9342a4e849b",
      "transactionType": "CALL",
      "contractName": "P2P",
      "contractAddress": "0x1d28d863a41d8634d443e5b365aea18882e00113",
      "function": "setPriceFeed(address,bytes32)",
      "arguments": [
        "0x7f24751c3aECdCC72981CBF9bbdefAD11094AB2D",
        "0xf0d57deca57b3da2fe63a493f4c25925fdfd8edf834b20f93e1f84dbd1504d4a"
      ],
      "transaction": {
        "from": "0xdafe44ce6933ba24459453fe20f40d55a454a07f",
        "to": "0x1d28d863a41d8634d443e5b365aea18882e00113",
        "gas": "0x1056d",
        "value": "0x0",
        "input": "0xadcb085a0000000000000000000000007f24751c3aecdcc72981cbf9bbdefad11094ab2df0d57deca57b3da2fe63a493f4c25925fdfd8edf834b20f93e1f84dbd1504d4a",
        "nonce": "0x66",
        "chainId": "0x14a34"
      },
      "additionalContracts": [],
      "isFixedGasLimit": false
    },
    {
      "hash": "0x4f1c119b5242b89ed0445d8029e4651ff4680d888b1ef94fb0084f4b715efd4b",
      "transactionType": "CALL",
      "contractName": "P2P",
      "contractAddress": "0x1d28d863a41d8634d443e5b365aea18882e00113",
      "function": "setPriceFeed(address,bytes32)",
      "arguments": [
        "0x67Abb24DAC2b03550F6594909917a5BBDFDbEDb2",
        "0x9db37f4d5654aad3e37e2e14ffd8d53265fb3026d1d8f91146539eebaa2ef45f"
      ],
      "transaction": {
        "from": "0xdafe44ce6933ba24459453fe20f40d55a454a07f",
        "to": "0x1d28d863a41d8634d443e5b365aea18882e00113",
        "gas": "0x1056d",
        "value": "0x0",
        "input": "0xadcb085a00000000000000000000000067abb24dac2b03550f6594909917a5bbdfdbedb29db37f4d5654aad3e37e2e14ffd8d53265fb3026d1d8f91146539eebaa2ef45f",
        "nonce": "0x67",
        "chainId": "0x14a34"
      },
      "additionalContracts": [],
      "isFixedGasLimit": false
    },
    {
      "hash": "0x746afaa1adb8b5530867c47d909cde08884742f953175a6ceb2a8556f0a82680",
      "transactionType": "CALL",
      "contractName": "P2P",
      "contractAddress": "0x1d28d863a41d8634d443e5b365aea18882e00113",
      "function": "setPriceFeed(address,bytes32)",
      "arguments": [
        "0xbB792AfFD9152d17E0772e2B7CcE48A17103E59d",
        "0x95fd9e16d4cfc5d1370f32bb0bf2346860ad9c92fec83acf4ca263baf16c961d"
      ],
      "transaction": {
        "from": "0xdafe44ce6933ba24459453fe20f40d55a454a07f",
        "to": "0x1d28d863a41d8634d443e5b365aea18882e00113",
        "gas": "0x1056d",
        "value": "0x0",
        "input": "0xadcb085a000000000000000000000000bb792affd9152d17e0772e2b7cce48a17103e59d95fd9e16d4cfc5d1370f32bb0bf2346860ad9c92fec83acf4ca263baf16c961d",
        "nonce": "0x68",
        "chainId": "0x14a34"
      },
      "additionalContracts": [],
      "isFixedGasLimit": false
    },
    {
      "hash": "0xfcedb9166db3c58515fbbef41338797d507b7c576f58880c21a9bc88ef77423a",
      "transactionType": "CALL",
      "contractName": "P2P",
      "contractAddress": "0x1d28d863a41d8634d443e5b365aea18882e00113",
      "function": "setPriceFeed(address,bytes32)",
      "arguments": [
        "0x69F2ecec8707359204dea8249b64a5a3d3e1aE05",
        "0xd69731a2e74ac1ce884fc3890f7ee324b6deb66147055249568869ed700882e4"
      ],
      "transaction": {
        "from": "0xdafe44ce6933ba24459453fe20f40d55a454a07f",
        "to": "0x1d28d863a41d8634d443e5b365aea18882e00113",
        "gas": "0x1056d",
        "value": "0x0",
        "input": "0xadcb085a00000000000000000000000069f2ecec8707359204dea8249b64a5a3d3e1ae05d69731a2e74ac1ce884fc3890f7ee324b6deb66147055249568869ed700882e4",
        "nonce": "0x69",
        "chainId": "0x14a34"
      },
      "additionalContracts": [],
      "isFixedGasLimit": false
    }
  ],
  "receipts": [
    {
      "status": "0x1",
      "cumulativeGasUsed": "0x29672e",
      "logs": [],
      "logsBloom": "0x00000000000000000000000000000000000000000000000000000000000000000000000000000000000000000000000000000000000000000000000000000000000000000000000000000000000000000000000000000000000000000000000000000000000000000000000000000000000000000000000000000000000000000000000000000000000000000000000000000000000000000000000000000000000000000000000000000000000000000000000000000000000000000000000000000000000000000000000000000000000000000000000000000000000000000000000000000000000000000000000000000000000000000000000000000000",
      "type": "0x2",
      "transactionHash": "0xc3860df7b212caf53f02b95841e011c9b528deeb3d50518e295e6289e99c7be9",
      "transactionIndex": "0x12",
      "blockHash": "0xe2d35c00b2f6b573fc8dc095bd76abfe2a21825e76131fac94e7bf250c7fc8e2",
      "blockNumber": "0x1f4c670",
      "gasUsed": "0x1700e2",
      "effectiveGasPrice": "0xf4276",
      "from": "0xdafe44ce6933ba24459453fe20f40d55a454a07f",
      "to": null,
      "contractAddress": "0x1d28d863a41d8634d443e5b365aea18882e00113",
      "l1BaseFeeScalar": "0x44d",
      "l1BlobBaseFee": "0x1",
      "l1BlobBaseFeeScalar": "0xa118b",
      "l1Fee": "0x50",
      "l1GasPrice": "0x8",
      "l1GasUsed": "0xf78e"
    },
    {
      "status": "0x1",
      "cumulativeGasUsed": "0x2a2383",
      "logs": [
        {
          "address": "0x1d28d863a41d8634d443e5b365aea18882e00113",
          "topics": [
            "0x75a24a37f901a299cd9c661617ab1893a57e34c17b82c0898ddd5114a221b405",
            "0x0000000000000000000000004200000000000000000000000000000000000006",
            "0x9d4294bbcd1174d6f2003ec365831e64cc31d9f6f15a2b85399db8d5000960f6"
          ],
          "data": "0x000000000000000000000000dafe44ce6933ba24459453fe20f40d55a454a07f",
          "blockHash": "0xe2d35c00b2f6b573fc8dc095bd76abfe2a21825e76131fac94e7bf250c7fc8e2",
          "blockNumber": "0x1f4c670",
          "blockTimestamp": "0x68fcebc0",
          "transactionHash": "0x82841c50563172de6fd76ab5c71f53844fe10d3e505e31f67e6f5a8441a0e790",
          "transactionIndex": "0x13",
          "logIndex": "0x15",
          "removed": false
        }
      ],
      "logsBloom": "0x00040000000000000000000000000000000000000000000000000000000000000000000000000000000000000000000000000200000000000020000000000000000000000000000000000000000000000000000000000000000000000000000000000000000000000000000000000000000010000000000000000000000000000000000000000004000000000000000000000000000000000000000000000000000000000000000000000000000000000040000001000040000000000000000000200000000004000000000000000000000000000000000000000002000000000000000000000000000000000000000000000000000000000000800000000000",
      "type": "0x2",
      "transactionHash": "0x82841c50563172de6fd76ab5c71f53844fe10d3e505e31f67e6f5a8441a0e790",
      "transactionIndex": "0x13",
      "blockHash": "0xe2d35c00b2f6b573fc8dc095bd76abfe2a21825e76131fac94e7bf250c7fc8e2",
      "blockNumber": "0x1f4c670",
      "gasUsed": "0xbc55",
      "effectiveGasPrice": "0xf4276",
      "from": "0xdafe44ce6933ba24459453fe20f40d55a454a07f",
      "to": "0x1d28d863a41d8634d443e5b365aea18882e00113",
      "contractAddress": null,
      "l1BaseFeeScalar": "0x44d",
      "l1BlobBaseFee": "0x1",
      "l1BlobBaseFeeScalar": "0xa118b",
      "l1Fee": "0x50",
      "l1GasPrice": "0x8",
      "l1GasUsed": "0x640"
    },
    {
      "status": "0x1",
      "cumulativeGasUsed": "0x2ae0c8",
      "logs": [
        {
          "address": "0x1d28d863a41d8634d443e5b365aea18882e00113",
          "topics": [
            "0x75a24a37f901a299cd9c661617ab1893a57e34c17b82c0898ddd5114a221b405",
            "0x000000000000000000000000036cbd53842c5426634e7929541ec2318f3dcf7e",
            "0xeaa020c61cc479712813461ce153894a96a6c00b21ed0cfc2798d1f9a9e9c94a"
          ],
          "data": "0x000000000000000000000000dafe44ce6933ba24459453fe20f40d55a454a07f",
          "blockHash": "0xe2d35c00b2f6b573fc8dc095bd76abfe2a21825e76131fac94e7bf250c7fc8e2",
          "blockNumber": "0x1f4c670",
          "blockTimestamp": "0x68fcebc0",
          "transactionHash": "0x6f1e22556449d8acaa65a3657af027413a7acbc964b83649504392a17d7f621d",
          "transactionIndex": "0x14",
          "logIndex": "0x16",
          "removed": false
        }
      ],
      "logsBloom": "0x00040000000000000000000000000000000000000000000000000000000000000000000000000000000000000008000000000000000000000000000000000000000000000000000000400000000000000000000000000000000000000000000000000000000000000000000000000000000000000000000000000000000000000000000040000004000000000000000000000000000000000000000000000000000000000000000000000000000000000000000001000040100000000000000000200000000000000000000000000000000000000000000000000000000000000000000000000000000000000040000000000100000000000000800000000000",
      "type": "0x2",
      "transactionHash": "0x6f1e22556449d8acaa65a3657af027413a7acbc964b83649504392a17d7f621d",
      "transactionIndex": "0x14",
      "blockHash": "0xe2d35c00b2f6b573fc8dc095bd76abfe2a21825e76131fac94e7bf250c7fc8e2",
      "blockNumber": "0x1f4c670",
      "gasUsed": "0xbd45",
      "effectiveGasPrice": "0xf4276",
      "from": "0xdafe44ce6933ba24459453fe20f40d55a454a07f",
      "to": "0x1d28d863a41d8634d443e5b365aea18882e00113",
      "contractAddress": null,
      "l1BaseFeeScalar": "0x44d",
      "l1BlobBaseFee": "0x1",
      "l1BlobBaseFeeScalar": "0xa118b",
      "l1Fee": "0x50",
      "l1GasPrice": "0x8",
      "l1GasUsed": "0x6a4"
    },
    {
      "status": "0x1",
      "cumulativeGasUsed": "0x2b9e0d",
      "logs": [
        {
          "address": "0x1d28d863a41d8634d443e5b365aea18882e00113",
          "topics": [
            "0x75a24a37f901a299cd9c661617ab1893a57e34c17b82c0898ddd5114a221b405",
            "0x000000000000000000000000e4ab69c077896252fafbd49efd26b5d171a32410",
            "0x8ac0c70fff57e9aefdf5edf44b51d62c2d433653cbb2cf5cc06bb115af04d221"
          ],
          "data": "0x000000000000000000000000dafe44ce6933ba24459453fe20f40d55a454a07f",
          "blockHash": "0x4bed734ebcacd9462fe629fd6475163564b6b19de7dc5068c5e78173c35af3a0",
          "blockNumber": "0x1f4c670",
          "blockTimestamp": "0x68fcebc0",
          "transactionHash": "0x4017b3822c98a95695fc2733553f5039be67f80bc882b02f59a1590f30761186",
          "transactionIndex": "0x15",
          "logIndex": "0x17",
          "removed": false
        }
      ],
      "logsBloom": "0x02040000000000000000000000000000000000000000000000004000000000000000000000000000000000000000000000000000000000000000000000000000000000000000000000000000010000000000000000000000000000000000000000000000000000000000000000000000000000000000000000000000000000000000000000002004000000000000000000000000000000000000000000000000000000000000000000000000000000000000000001000040000000000000200000200000000000000000000000010000000000000000000000000000000000000000000000000000000000000000000000000000000000000000800000000000",
      "type": "0x2",
      "transactionHash": "0x4017b3822c98a95695fc2733553f5039be67f80bc882b02f59a1590f30761186",
      "transactionIndex": "0x15",
      "blockHash": "0x4bed734ebcacd9462fe629fd6475163564b6b19de7dc5068c5e78173c35af3a0",
      "blockNumber": "0x1f4c670",
      "gasUsed": "0xbd45",
      "effectiveGasPrice": "0xf4276",
      "from": "0xdafe44ce6933ba24459453fe20f40d55a454a07f",
      "to": "0x1d28d863a41d8634d443e5b365aea18882e00113",
      "contractAddress": null,
      "l1BaseFeeScalar": "0x44d",
      "l1BlobBaseFee": "0x1",
      "l1BlobBaseFeeScalar": "0xa118b",
      "l1Fee": "0x50",
      "l1GasPrice": "0x8",
      "l1GasUsed": "0x6a4"
    },
    {
      "status": "0x1",
      "cumulativeGasUsed": "0x2c5b52",
      "logs": [
        {
          "address": "0x1d28d863a41d8634d443e5b365aea18882e00113",
          "topics": [
            "0x75a24a37f901a299cd9c661617ab1893a57e34c17b82c0898ddd5114a221b405",
            "0x0000000000000000000000005fe161a97511aa3c185cbffdcf281fd510411343",
            "0x2b89b9dc8fdf9f34709a5b106b472f0f39bb6ca9ce04b0fd7f2e971688e2e53b"
          ],
          "data": "0x000000000000000000000000dafe44ce6933ba24459453fe20f40d55a454a07f",
          "blockHash": "0xe2d35c00b2f6b573fc8dc095bd76abfe2a21825e76131fac94e7bf250c7fc8e2",
          "blockNumber": "0x1f4c670",
          "blockTimestamp": "0x68fcebc0",
          "transactionHash": "0x6636451cc61206fa5eb91637307653a478a9324e637754cbcd73bbc85735ff78",
          "transactionIndex": "0x16",
          "logIndex": "0x18",
          "removed": false
        }
      ],
      "logsBloom": "0x00040000000000000000000000000000000000000000000000000000000000000000000000000000000000000000000000000000000000000000000000000000000001000000000000000000000010000000000000000000000000000000000000000000000000000000000000000000000000000000000000000000000000000000000000000004000000000000000000000000000000000000008000000000000000000000000000000000000010000000000001000040000000000000000000200000000000000000000000000040000000000000000000000000000000000000000000000000000000000000000000000000008000000000800000000000",
      "type": "0x2",
      "transactionHash": "0x6636451cc61206fa5eb91637307653a478a9324e637754cbcd73bbc85735ff78",
      "transactionIndex": "0x16",
      "blockHash": "0xe2d35c00b2f6b573fc8dc095bd76abfe2a21825e76131fac94e7bf250c7fc8e2",
      "blockNumber": "0x1f4c670",
      "gasUsed": "0xbd45",
      "effectiveGasPrice": "0xf4276",
      "from": "0xdafe44ce6933ba24459453fe20f40d55a454a07f",
      "to": "0x1d28d863a41d8634d443e5b365aea18882e00113",
      "contractAddress": null,
      "l1BaseFeeScalar": "0x44d",
      "l1BlobBaseFee": "0x1",
      "l1BlobBaseFeeScalar": "0xa118b",
      "l1Fee": "0x50",
      "l1GasPrice": "0x8",
      "l1GasUsed": "0x6a4"
    },
    {
      "status": "0x1",
      "cumulativeGasUsed": "0x2d188b",
      "logs": [
        {
          "address": "0x1d28d863a41d8634d443e5b365aea18882e00113",
          "topics": [
            "0x75a24a37f901a299cd9c661617ab1893a57e34c17b82c0898ddd5114a221b405",
            "0x00000000000000000000000058c445b391c553a216defed1631997eddf604b49",
            "0x7eab5e260e42d81013207e623be60c66c9c55bfe0ace4797ad00d1c5a1335eae"
          ],
          "data": "0x000000000000000000000000dafe44ce6933ba24459453fe20f40d55a454a07f",
          "blockHash": "0xe2d35c00b2f6b573fc8dc095bd76abfe2a21825e76131fac94e7bf250c7fc8e2",
          "blockNumber": "0x1f4c670",
          "blockTimestamp": "0x68fcebc0",
          "transactionHash": "0xe334985bd2550451f12f3e8db951ac6852b56d1cbfba7f95cf61c9e648fa240c",
          "transactionIndex": "0x17",
          "logIndex": "0x19",
          "removed": false
        }
      ],
      "logsBloom": "0x00040000000000000000000000000000000000000000000000000000010000000000000000000000000000000000000000000000000000200000000000000000000000000000000000000000000000000000000000000000000000000000000000000000000000000000000000000000000000000010000800000000000000000000020000000004000000000000000000000000000000000000000000000000000000000000000000000000000000000000000001000040000000000000000000200000000000000000000000000000000000000000000000000000000000000000000000000000000000000001000000000000000000000000800000000000",
      "type": "0x2",
      "transactionHash": "0xe334985bd2550451f12f3e8db951ac6852b56d1cbfba7f95cf61c9e648fa240c",
      "transactionIndex": "0x17",
      "blockHash": "0xe2d35c00b2f6b573fc8dc095bd76abfe2a21825e76131fac94e7bf250c7fc8e2",
      "blockNumber": "0x1f4c670",
      "gasUsed": "0xbd39",
      "effectiveGasPrice": "0xf4276",
      "from": "0xdafe44ce6933ba24459453fe20f40d55a454a07f",
      "to": "0x1d28d863a41d8634d443e5b365aea18882e00113",
      "contractAddress": null,
      "l1BaseFeeScalar": "0x44d",
      "l1BlobBaseFee": "0x1",
      "l1BlobBaseFeeScalar": "0xa118b",
      "l1Fee": "0x50",
      "l1GasPrice": "0x8",
      "l1GasUsed": "0x6a4"
    },
    {
      "status": "0x1",
      "cumulativeGasUsed": "0x2dd5d0",
      "logs": [
        {
          "address": "0x1d28d863a41d8634d443e5b365aea18882e00113",
          "topics": [
            "0x75a24a37f901a299cd9c661617ab1893a57e34c17b82c0898ddd5114a221b405",
            "0x000000000000000000000000a4d20763eb35092bdd5b2545079aacf048fa96b7",
            "0x2817d7bfe5c64b8ea956e9a26f573ef64e72e4d7891f2d6af9bcc93f7aff9a97"
          ],
          "data": "0x000000000000000000000000dafe44ce6933ba24459453fe20f40d55a454a07f",
          "blockHash": "0xe2d35c00b2f6b573fc8dc095bd76abfe2a21825e76131fac94e7bf250c7fc8e2",
          "blockNumber": "0x1f4c670",
          "blockTimestamp": "0x68fcebc0",
          "transactionHash": "0xd839c7977de09d2a8c68805a3938428c0cd70ea1436b07398acfa2949dc19e6a",
          "transactionIndex": "0x18",
          "logIndex": "0x1a",
          "removed": false
        }
      ],
      "logsBloom": "0x00040000000000000000000000000000000200000000000000000000000000000000000000000000000000000000000000000000000000000000000000000000004000000000000000000000000000000000000000000000000000000000000000000000000000000000000000000000000000000000000000000000000000000000000000000004000000000000000000000000000000000000000000000000000000040000000000000000000000000000000001000040000000000000000000200000000000000000000000004000000000000000000000000000000000000000000000000000000000000000000002000000000000000000800000000000",
      "type": "0x2",
      "transactionHash": "0xd839c7977de09d2a8c68805a3938428c0cd70ea1436b07398acfa2949dc19e6a",
      "transactionIndex": "0x18",
      "blockHash": "0xe2d35c00b2f6b573fc8dc095bd76abfe2a21825e76131fac94e7bf250c7fc8e2",
      "blockNumber": "0x1f4c670",
      "gasUsed": "0xbd45",
      "effectiveGasPrice": "0xf4276",
      "from": "0xdafe44ce6933ba24459453fe20f40d55a454a07f",
      "to": "0x1d28d863a41d8634d443e5b365aea18882e00113",
      "contractAddress": null,
      "l1BaseFeeScalar": "0x44d",
      "l1BlobBaseFee": "0x1",
      "l1BlobBaseFeeScalar": "0xa118b",
      "l1Fee": "0x50",
      "l1GasPrice": "0x8",
      "l1GasUsed": "0x6a4"
    },
    {
      "status": "0x1",
      "cumulativeGasUsed": "0x30bac8",
      "logs": [
        {
          "address": "0x1d28d863a41d8634d443e5b365aea18882e00113",
          "topics": [
            "0x75a24a37f901a299cd9c661617ab1893a57e34c17b82c0898ddd5114a221b405",
            "0x0000000000000000000000007f24751c3aecdcc72981cbf9bbdefad11094ab2d",
            "0xf0d57deca57b3da2fe63a493f4c25925fdfd8edf834b20f93e1f84dbd1504d4a"
          ],
          "data": "0x000000000000000000000000dafe44ce6933ba24459453fe20f40d55a454a07f",
          "blockHash": "0xe2d35c00b2f6b573fc8dc095bd76abfe2a21825e76131fac94e7bf250c7fc8e2",
          "blockNumber": "0x1f4c670",
          "blockTimestamp": "0x68fcebc0",
          "transactionHash": "0x6ca430150ec74d192730516c131eac994833aca601270c3952d2f9342a4e849b",
          "transactionIndex": "0x1a",
          "logIndex": "0x1e",
          "removed": false
        }
      ],
      "logsBloom": "0x00040000008000000000000000000000000000000000000000000000000000000000000000000000000000000000000000000000000000000000000000000000000000000004000000000000000000000000000000000000000000000000000000000000000000000000000000000000000000000000000000000000000000000000000000000004000000000000000000000000000000000000000000000000000000200000000000000000000000000000000001000040000000000000000000200040000000000000000000000000000000000000004000000000000080000000000000000000000000000000000000000000000000000000800000000000",
      "type": "0x2",
      "transactionHash": "0x6ca430150ec74d192730516c131eac994833aca601270c3952d2f9342a4e849b",
      "transactionIndex": "0x1a",
      "blockHash": "0xe2d35c00b2f6b573fc8dc095bd76abfe2a21825e76131fac94e7bf250c7fc8e2",
      "blockNumber": "0x1f4c670",
      "gasUsed": "0xbd45",
      "effectiveGasPrice": "0xf4276",
      "from": "0xdafe44ce6933ba24459453fe20f40d55a454a07f",
      "to": "0x1d28d863a41d8634d443e5b365aea18882e00113",
      "contractAddress": null,
      "l1BaseFeeScalar": "0x44d",
      "l1BlobBaseFee": "0x1",
      "l1BlobBaseFeeScalar": "0xa118b",
      "l1Fee": "0x50",
      "l1GasPrice": "0x8",
      "l1GasUsed": "0x6a4"
    },
    {
      "status": "0x1",
      "cumulativeGasUsed": "0x31780d",
      "logs": [
        {
          "address": "0x1d28d863a41d8634d443e5b365aea18882e00113",
          "topics": [
            "0x75a24a37f901a299cd9c661617ab1893a57e34c17b82c0898ddd5114a221b405",
            "0x00000000000000000000000067abb24dac2b03550f6594909917a5bbdfdbedb2",
            "0x9db37f4d5654aad3e37e2e14ffd8d53265fb3026d1d8f91146539eebaa2ef45f"
          ],
          "data": "0x000000000000000000000000dafe44ce6933ba24459453fe20f40d55a454a07f",
          "blockHash": "0xe2d35c00b2f6b573fc8dc095bd76abfe2a21825e76131fac94e7bf250c7fc8e2",
          "blockNumber": "0x1f4c670",
          "blockTimestamp": "0x68fcebc0",
          "transactionHash": "0x4f1c119b5242b89ed0445d8029e4651ff4680d888b1ef94fb0084f4b715efd4b",
          "transactionIndex": "0x1b",
          "logIndex": "0x1f",
          "removed": false
        }
      ],
      "logsBloom": "0x00040000000000000000000000000000000000800000000000000000000000000000000000000000000000000000000000000000000000000000000000000000000000000800000000000000000000000000000000000000000000000000004000000000000000000000000000000000000000000000000000000000000000000000000000000004000000000000000000000000000400000000000000000000000000000000000000000000000000000000000005000040000000000000000000200000000000000000000000000000000000000000000000000000000000000000000000000000000000000000000080000000000000000000800000000000",
      "type": "0x2",
      "transactionHash": "0x4f1c119b5242b89ed0445d8029e4651ff4680d888b1ef94fb0084f4b715efd4b",
      "transactionIndex": "0x1b",
      "blockHash": "0xe2d35c00b2f6b573fc8dc095bd76abfe2a21825e76131fac94e7bf250c7fc8e2",
      "blockNumber": "0x1f4c670",
      "gasUsed": "0xbd45",
      "effectiveGasPrice": "0xf4276",
      "from": "0xdafe44ce6933ba24459453fe20f40d55a454a07f",
      "to": "0x1d28d863a41d8634d443e5b365aea18882e00113",
      "contractAddress": null,
      "l1BaseFeeScalar": "0x44d",
      "l1BlobBaseFee": "0x1",
      "l1BlobBaseFeeScalar": "0xa118b",
      "l1Fee": "0x50",
      "l1GasPrice": "0x8",
      "l1GasUsed": "0x6a4"
    },
    {
      "status": "0x1",
      "cumulativeGasUsed": "0x323552",
      "logs": [
        {
          "address": "0x1d28d863a41d8634d443e5b365aea18882e00113",
          "topics": [
            "0x75a24a37f901a299cd9c661617ab1893a57e34c17b82c0898ddd5114a221b405",
            "0x000000000000000000000000bb792affd9152d17e0772e2b7cce48a17103e59d",
            "0x95fd9e16d4cfc5d1370f32bb0bf2346860ad9c92fec83acf4ca263baf16c961d"
          ],
          "data": "0x000000000000000000000000dafe44ce6933ba24459453fe20f40d55a454a07f",
          "blockHash": "0xe2d35c00b2f6b573fc8dc095bd76abfe2a21825e76131fac94e7bf250c7fc8e2",
          "blockNumber": "0x1f4c670",
          "blockTimestamp": "0x68fcebc0",
          "transactionHash": "0x746afaa1adb8b5530867c47d909cde08884742f953175a6ceb2a8556f0a82680",
          "transactionIndex": "0x1c",
          "logIndex": "0x20",
          "removed": false
        }
      ],
      "logsBloom": "0x80040000000000000000000000000000000000000000000000000000000000000000000000000000000002000000000000000000000000000000000000000000000000000000000000000000000000000000000000000000000000000000000000000000000000000000000000000000000000000000000000000000000000000000000000000004100000000000000000000000000000000008000000000000000000000000000000000000000000000000000001000040000200000000000000200000000000000000000000000000000000000000000000000000000000000400000000000000000000000000000000000000000000000000800000000000",
      "type": "0x2",
      "transactionHash": "0x746afaa1adb8b5530867c47d909cde08884742f953175a6ceb2a8556f0a82680",
      "transactionIndex": "0x1c",
      "blockHash": "0xe2d35c00b2f6b573fc8dc095bd76abfe2a21825e76131fac94e7bf250c7fc8e2",
      "blockNumber": "0x1f4c670",
      "gasUsed": "0xbd45",
      "effectiveGasPrice": "0xf4276",
      "from": "0xdafe44ce6933ba24459453fe20f40d55a454a07f",
      "to": "0x1d28d863a41d8634d443e5b365aea18882e00113",
      "contractAddress": null,
      "l1BaseFeeScalar": "0x44d",
      "l1BlobBaseFee": "0x1",
      "l1BlobBaseFeeScalar": "0xa118b",
      "l1Fee": "0x50",
      "l1GasPrice": "0x8",
      "l1GasUsed": "0x6a4"
    },
    {
      "status": "0x1",
      "cumulativeGasUsed": "0x32f297",
      "logs": [
        {
          "address": "0x1d28d863a41d8634d443e5b365aea18882e00113",
          "topics": [
            "0x75a24a37f901a299cd9c661617ab1893a57e34c17b82c0898ddd5114a221b405",
            "0x00000000000000000000000069f2ecec8707359204dea8249b64a5a3d3e1ae05",
            "0xd69731a2e74ac1ce884fc3890f7ee324b6deb66147055249568869ed700882e4"
          ],
          "data": "0x000000000000000000000000dafe44ce6933ba24459453fe20f40d55a454a07f",
          "blockHash": "0x1acd830685fc49de1baa85f5833e000c3e40559349cb73555b35e54823f0da78",
          "blockNumber": "0x1f4c670",
          "blockTimestamp": "0x68fcebc0",
          "transactionHash": "0xfcedb9166db3c58515fbbef41338797d507b7c576f58880c21a9bc88ef77423a",
          "transactionIndex": "0x1d",
          "logIndex": "0x21",
          "removed": false
        }
      ],
      "logsBloom": "0x00040000000000000000000000000000000000000000000000000000000000000000000000000000000000000000000000000000000000000000000000800000004000000000000000000000000000010000000000000000000000000000000000000000000000000000000000000000000000000000400000000000000000000000000000000004000000000000000000000000000000000000000000000000000000000000000000000000000000000000000001000040000000000000000000200000000000000000000000000000000000000000000000000008000000004000000000000000000000000000000000000000000000000000800000000000",
      "type": "0x2",
      "transactionHash": "0xfcedb9166db3c58515fbbef41338797d507b7c576f58880c21a9bc88ef77423a",
      "transactionIndex": "0x1d",
      "blockHash": "0x1acd830685fc49de1baa85f5833e000c3e40559349cb73555b35e54823f0da78",
      "blockNumber": "0x1f4c670",
      "gasUsed": "0xbd45",
      "effectiveGasPrice": "0xf4276",
      "from": "0xdafe44ce6933ba24459453fe20f40d55a454a07f",
      "to": "0x1d28d863a41d8634d443e5b365aea18882e00113",
      "contractAddress": null,
      "l1BaseFeeScalar": "0x44d",
      "l1BlobBaseFee": "0x1",
      "l1BlobBaseFeeScalar": "0xa118b",
      "l1Fee": "0x50",
      "l1GasPrice": "0x8",
      "l1GasUsed": "0x6a4"
    }
  ],
  "libraries": [],
  "pending": [],
  "returns": {},
  "timestamp": 1761405887920,
  "chain": 84532,
  "commit": "5a552f8"
}