{
  "transactions": [
    {
      "hash": "0x8af6ec7e264c6815e735e5a6e4946c20a841c815969d7b0a0066aabe8cc4edf6",
      "transactionType": "CREATE",
      "contractName": "P2P",
      "contractAddress": "0x4f7e5b32e1c1ea49c597e840804ce898f53cc149",
      "function": null,
      "arguments": [
        "0xA2aa501b19aff244D90cc15a4Cf739D2725B5729"
      ],
      "transaction": {
        "from": "0xdafe44ce6933ba24459453fe20f40d55a454a07f",
        "gas": "0x22bf19",
        "value": "0x0",
        "input": "0x60803460a457601f611d7738819003918201601f19168301916001600160401b0383118484101760a85780849260209460405283398101031260a457516001600160a01b0381169081900360a45760015f819055600655600380546001600160a01b0319908116929092179055600480548216331790556005805490911673c28b89b400230e8f7b6419bc44f2545f8864f0f7179055604051611cba90816100bd8239f35b5f80fd5b634e487b7160e01b5f52604160045260245ffdfe610280806040526004361015610013575f80fd5b5f6101c0525f3560e01c908163207fd126146115dd575080634e10ebb4146112875780635236017214610d605780637564912b14610cdb5780638da5cb5b14610cb25780639dcb511a14610c74578063adcb085a14610bb3578063c415b95c14610b8a578063cdb788eb146100eb578063dd231ae2146100cb5763f98d06f01461009b575f80fd5b346100c4576101c0516003193601126100c45760206001600160a01b0360035416604051908152f35b6101c05180fd5b346100c4576101c0516003193601126100c4576020600654604051908152f35b60806003193601126100c45760043567ffffffffffffffff81116100c457610117903690600401611986565b90610120611970565b6101605260443560c08190526001600160a01b03811690036100c45760405160208101906101888161017a60c0516101605186906028926bffffffffffffffffffffffff19809260601b16835260601b1660148201520190565b03601f1981018352826119e7565b5190206101c0515260016020526101b06001600160a01b0360406101c0512054161515611a23565b60026101c0515414610b5c5760026101c0515560405160208101906102018161017a60c0516101605186906028926bffffffffffffffffffffffff19809260601b16835260601b1660148201520190565b519020610120526001600160a01b036003541691604051927fd47eed450000000000000000000000000000000000000000000000000000000084526020848061024e858760048401611aa7565b0381845afa93841561072c576101c05194610b24575b50803b156100c4576102aa916040519485809481937fef9e5e280000000000000000000000000000000000000000000000000000000083526101c0519760048401611aa7565b03925af1801561072c57610b09575b506001600160a01b0361016051166101c05152600260205260406101c05120546001600160a01b0360c051166101c05152600260205260406101c05120546001600160a01b0360035416906040519263052571af60e51b84526004840152600f6024840152608083604481855afa92831561072c576101c05193610ae7575b5060809060446040518094819363052571af60e51b83526004830152600f60248301525afa90811561072c576101c05191610ab8575b506101c051825160070b126100c4576101c051815160070b126100c45763ffffffff6103a0604084015160030b611bea565b169067ffffffffffffffff63ffffffff6103c0604084015160030b611bea565b1693511691670de0b6b3a7640000830292808404670de0b6b3a764000014901517156108935767ffffffffffffffff926103fc61040292611c3d565b90611c4b565b610180525116670de0b6b3a7640000810290808204670de0b6b3a76400001490151715610893576103fc61043592611c3d565b610260526201876861018051026101a052610180516101a051046201876814610180511517156108935762018736610180510260e0526101805160e0510462018736146101805115171561089357610120516101c05152600160205260406101c05120610240526104c460ff60016102405101546104b7828260a01c16611c19565b6102205260a81c16611c19565b6080526104f96104e5610220516104e061026051606435611c2a565b611c2a565b6103fc608051620186a06101a05104611c2a565b610100526101005115610a74576101c051610240516004015461014082905290805b6032610140511080610a68575b80610a5f575b156108bd57826101c051526002610240510160205260406101c0512061020052826101c051526003610240510160205260406101c05120928354916002610200510154801590811580926108ad575b6107fc575b505060208161061561060b6105f76105a06106669661010051611a6e565b6101c0516101e0526102005160010154908082106107f1576101e0525b6105ea6105da6080516104e0620186a060e051046101e051611c2a565b6103fc6102205161026051611c2a565b60a0526101e05190611a6e565b928360016102005101556101e05190611c77565b9660a05190611c77565b966001600160a01b03610200515416911561073a575b506040516323b872dd60e01b815260a0513360048301526001600160a01b039092166024820152604481019190915291829081906064820190565b03816101c0516001600160a01b0360c051165af1801561072c57610700575b50604051906001600160a01b03610160511682526001600160a01b0360c0511660208301526101e051604083015260a051606083015233917fc6660e365b3b6bede9a0359f8ed99f67bbe20f7e8be55a00d1881b5a3cdb99f560806101205192a4905b6106f461014051611c69565b6101405291909161051b565b6107209060203d8111610725575b61071881836119e7565b810190611a8f565b610685565b503d61070e565b6040513d6101c051823e3d90fd5b80546001909101549081156107e357816101c051526003610240510184528060406101c05120555b80156107d5576101c05152600361024051018352600160406101c0512001555b836101c051526002610240510182526107b260406101c0512060035f918281558260018201558260028201550155565b6101c080518590526102405160030183525160408120818155600101558761062b565b506005610240510155610782565b806004610240510155610762565b50806101e0526105bd565b61018051670de0b6b3a7640000610180510204670de0b6b3a764000014610180511517156108935761083e61026051670de0b6b3a76400006101805102611c4b565b9082610889575b508115610863575b50610859578580610582565b92935050906106e8565b90506003610200510154801515918261087f575b50508661084d565b1090508680610877565b8111915087610845565b634e487b7160e01b6101c05152601160045260246101c051fd5b506003610200510154151561057d565b9081156109f557600661024051016108d6838254611a6e565b90556040517fa9059cbb00000000000000000000000000000000000000000000000000000000815233600482015260248101839052602081806044810103816101c0516001600160a01b0361016051165af1801561072c5761095b93610956926105da926109d8575b506104e060805191620186a06101a0510490611c2a565b611a6e565b8061096c575b6101c0516001815580f35b6005546040516323b872dd60e01b81523360048201526001600160a01b03918216602482015260448101929092526101c05160c05160209284926064928492165af1801561072c5715610961576109d19060203d6020116107255761071881836119e7565b5080610961565b6109f09060203d6020116107255761071881836119e7565b61093f565b608460405162461bcd60e51b815260206004820152603360248201527f4e6f206f72646572732061742063757272656e74207072696365206c6576656c60448201527f7320617661696c61626c6520746f2066696c6c000000000000000000000000006064820152fd5b5082151561052e565b50610100518110610528565b606460405162461bcd60e51b815260206004820152601060248201527f416d6f756e7420746f6f20736d616c6c000000000000000000000000000000006044820152fd5b610ada915060803d608011610ae0575b610ad281836119e7565b810190611b87565b8261036e565b503d610ac8565b6080919350610b0290823d8411610ae057610ad281836119e7565b9290610338565b6101c051610b16916119e7565b6101c0516100c457806102b9565b9093506020813d602011610b54575b81610b40602093836119e7565b81010312610b5057519284610264565b5f80fd5b3d9150610b33565b7f3ee5aeb5000000000000000000000000000000000000000000000000000000006101c0515260046101c051fd5b346100c4576101c0516003193601126100c45760206001600160a01b0360055416604051908152f35b346100c45760406003193601126100c457610bcc61195a565b602435906001600160a01b03600454163303610c30576001600160a01b0316806101c0515260026020528160406101c05120557f75a24a37f901a299cd9c661617ab1893a57e34c17b82c0898ddd5114a221b4056020604051338152a36101c05180f35b606460405162461bcd60e51b815260206004820152601e60248201527f4f6e6c79206f776e65722063616e2073657420707269636520666565647300006044820152fd5b346100c45760206003193601126100c4576001600160a01b03610c9561195a565b166101c051526002602052602060406101c0512054604051908152f35b346100c4576101c0516003193601126100c45760206001600160a01b0360045416604051908152f35b346100c45760206003193601126100c4576004356101c05152600160205260e060406101c051206001600160a01b0381541690600181015490600481015460ff60066005840154930154936040519586526001600160a01b0381166020870152818160a01c16604087015260a81c166060850152608084015260a083015260c0820152f35b60c0600319360112610b5057610d7461195a565b610d7c611970565b906044359060843560643560a43567ffffffffffffffff8111610b5057610da7903690600401611986565b94906040516020810190610de28161017a8b8a86906028926bffffffffffffffffffffffff19809260601b16835260601b1660148201520190565b5190205f526001602052610e046001600160a01b0360405f2054161515611a23565b6040516020810190610e3d8161017a8b8a86906028926bffffffffffffffffffffffff19809260601b16835260601b1660148201520190565b519020956001600160a01b036003541690604051917fd47eed4500000000000000000000000000000000000000000000000000000000835260208380610e87858860048401611aa7565b0381845afa928315611248575f93611253575b50803b15610b5057610edd935f936040518096819582947fef9e5e2800000000000000000000000000000000000000000000000000000000845260048401611aa7565b03925af1801561124857611233575b50846101c0515260016020526001600160a01b0360406101c05120941695866101c05152600260205260406101c051205460806001600160a01b03600354169160446040518094819363052571af60e51b83526004830152603c60248301525afa90811561072c576101c05191611214575b506101c051815160070b126100c45763ffffffff610f82604083015160030b611bea565b16610f9660ff600189015460a01c16611c19565b80600a0290600a8204036108935767ffffffffffffffff610fc3610fcc92610fbd85611c3d565b90611c2a565b93511685611c2a565b9182106111d157505060065494610fe286611c69565b600655604051610ff1816119b7565b3381526003602082018581526040830187815260608401918983528a6101c05152600286016020526001600160a01b038060406101c051209651161673ffffffffffffffffffffffffffffffffffffffff19865416178555516001850155516002840155519101556005810190815460405192604084019184831067ffffffffffffffff8411176111b7576001600160a01b03948a936040526101c05181526020810191825260016003860192856101c051528360205260406101c05120925183555191015581548061119f575b50508160048401805415611197575b505055600681016110e0858254611c77565b9055546040516323b872dd60e01b8152336004820152306024820152604481018590526101c05190939260209285926064928492165af191821561072c576001600160a01b039261117a575b5060405197885216602087015260408601526060850152608084015260a08301527f7448c7b7b021897f4f19bd7cdda03bed9c26cf75e56ea3bafd3c0d2c7ef24f4b60c03393a36101c05180f35b6111929060203d6020116107255761071881836119e7565b61112c565b55818c6110ce565b6101c051526020528160406101c05120558b806110bf565b634e487b7160e01b6101c05152604160045260246101c051fd5b906103fc6111de92611c3d565b7f64a6d4a3000000000000000000000000000000000000000000000000000000006101c05152600452600a60245260446101c051fd5b61122d915060803d608011610ae057610ad281836119e7565b88610f5e565b5f61123d916119e7565b5f6101c05286610eec565b6040513d5f823e3d90fd5b9092506020813d60201161127f575b8161126f602093836119e7565b81010312610b505751918a610e9a565b3d9150611262565b34610b50576080600319360112610b50576112a061195a565b6112a8611970565b90604435916064359260405160208101906112ea8161017a868886906028926bffffffffffffffffffffffff19809260601b16835260601b1660148201520190565b5190205f52600160205261130c6001600160a01b0360405f2054161515611a23565b60405160208101906113458161017a868886906028926bffffffffffffffffffffffff19809260601b16835260601b1660148201520190565b51902092835f52600160205260405f206002810190865f528160205260405f20916003820190885f528160205260405f20936001600160a01b038154163303610b505760010193845494851561157357858811611509576113ae886001600160a01b0397611a6e565b80915515611483575b505050600681016113c9858254611a6e565b9055546040517fa9059cbb000000000000000000000000000000000000000000000000000000008152336004820152602481018590529391602091859160449183915f91165af18015611248577fd3256e8bbdb24f280dca57cc82df4d5742b897cb9699d4657638aa44eb5aa17c946080946001600160a01b0392611466575b5081604051943386521660208501521660408301526060820152a3005b61147e9060203d6020116107255761071881836119e7565b611449565b805460018201549182156114fd5754825f528460205260405f20555b80156114f2575f5282602052600160405f2001555b885f526020526114d860405f2060035f918281558260018201558260028201550155565b875f526020525f60016040822082815501558780806113b7565b5060058401556114b4565b5080600486015561149f565b608460405162461bcd60e51b815260206004820152602d60248201527f636c6f736520616d6f756e7420626967676572207468616e2072656d61696e6960448201527f6e67206f726465722073697a65000000000000000000000000000000000000006064820152fd5b608460405162461bcd60e51b815260206004820152602a60248201527f6f7264657220686173206265656e2066696c6c6564206f722063616e63656c6c60448201527f656420616c7265616479000000000000000000000000000000000000000000006064820152fd5b34610b50576040600319360112610b50576115f661195a565b906115ff611970565b916001600160a01b0381169182151580611948575b1561190657506001600160a01b038316928383146118c257825f52600260205260405f205415610b5057835f52600260205260405f205415610b505761168a61017a91604051928391602083019586906028926bffffffffffffffffffffffff19809260601b16835260601b1660148201520190565b519020805f5260016020526001600160a01b0360405f20541661187e57805f526001602052600160405f208373ffffffffffffffffffffffffffffffffffffffff1982541617815501928073ffffffffffffffffffffffffffffffffffffffff19855416178455604051927f313ce567000000000000000000000000000000000000000000000000000000008452602084600481845afa938415611248575f9461185d575b5074ff000000000000000000000000000000000000000085549460a01b1694857fffffffffffffffffffffff00ffffffffffffffffffffffffffffffffffffffff8616178155604051947f313ce567000000000000000000000000000000000000000000000000000000008652602086600481875afa968715611248577fffffffffffffffffffff0000ffffffffffffffffffffffffffffffffffffffff75ff0000000000000000000000000000000000000000007fbc2bccc2713ac25dc4bcda6e2a6c18b5c5cd08d9c00fa807a841a510d6c11a79996060995f9161182e575b5060a81b1692161717905560405192835260208301526040820152a1005b611850915060203d602011611856575b61184881836119e7565b810190611a0a565b8b611810565b503d61183e565b61187791945060203d6020116118565761184881836119e7565b928561172f565b606460405162461bcd60e51b815260206004820152601560248201527f4d61726b657420616c72656164792065786973747300000000000000000000006044820152fd5b606460405162461bcd60e51b815260206004820152601860248201527f546f6b656e73206d75737420626520646966666572656e7400000000000000006044820152fd5b8062461bcd60e51b6064925260206004820152601560248201527f496e76616c696420746f6b656e206164647265737300000000000000000000006044820152fd5b506001600160a01b0384161515611614565b600435906001600160a01b0382168203610b5057565b602435906001600160a01b0382168203610b5057565b9181601f84011215610b505782359167ffffffffffffffff8311610b50576020808501948460051b010111610b5057565b6080810190811067ffffffffffffffff8211176119d357604052565b634e487b7160e01b5f52604160045260245ffd5b90601f601f19910116810190811067ffffffffffffffff8211176119d357604052565b90816020910312610b50575160ff81168103610b505790565b15611a2a57565b606460405162461bcd60e51b815260206004820152601360248201527f6d61726b657420646f65736e74206578697374000000000000000000000000006044820152fd5b91908203918211611a7b57565b634e487b7160e01b5f52601160045260245ffd5b90816020910312610b5057518015158103610b505790565b9180602084016020855252604083019060408160051b85010193835f917fffffffffffffffffffffffffffffffffffffffffffffffffffffffffffffffe182360301905b848410611afc575050505050505090565b909192939495967fffffffffffffffffffffffffffffffffffffffffffffffffffffffffffffffc0828203018752873583811215610b50578401906020823592019167ffffffffffffffff8111610b50578036038313610b5057602082601f19601f8480600198869897879852868601375f8482018601520116010199019701959401929190611aeb565b90816080910312610b505760405190611b9f826119b7565b80518060070b8103610b50578252602081015167ffffffffffffffff81168103610b505760208301526040810151908160030b8203610b505760609160408401520151606082015290565b60030b7fffffffffffffffffffffffffffffffffffffffffffffffffffffffff800000008114611a7b575f0390565b60ff16604d8111611a7b57600a0a90565b81810292918115918404141715611a7b57565b604d8111611a7b57600a0a90565b8115611c55570490565b634e487b7160e01b5f52601260045260245ffd5b5f198114611a7b5760010190565b91908201809211611a7b5756fea2646970667358221220738bf3eb40001f3d7ea8bf21464c69f2a2413aa1e849b57109060cfb2823f92164736f6c634300081e0033000000000000000000000000a2aa501b19aff244d90cc15a4cf739d2725b5729",
        "nonce": "0xb1",
        "chainId": "0x14a34"
      },
      "additionalContracts": [],
      "isFixedGasLimit": false
    },
    {
      "hash": "0x1749310327185ceca3ac7253decd6a3b84b0d9e4b5c50a61f97cc6e4c7708329",
      "transactionType": "CALL",
      "contractName": "P2P",
      "contractAddress": "0x4f7e5b32e1c1ea49c597e840804ce898f53cc149",
      "function": "setPriceFeed(address,bytes32)",
      "arguments": [
        "0x4200000000000000000000000000000000000006",
        "0x9d4294bbcd1174d6f2003ec365831e64cc31d9f6f15a2b85399db8d5000960f6"
      ],
      "transaction": {
        "from": "0xdafe44ce6933ba24459453fe20f40d55a454a07f",
        "to": "0x4f7e5b32e1c1ea49c597e840804ce898f53cc149",
        "gas": "0x11383",
        "value": "0x0",
        "input": "0xadcb085a00000000000000000000000042000000000000000000000000000000000000069d4294bbcd1174d6f2003ec365831e64cc31d9f6f15a2b85399db8d5000960f6",
        "nonce": "0xb2",
        "chainId": "0x14a34"
      },
      "additionalContracts": [],
      "isFixedGasLimit": false
    },
    {
      "hash": "0xc40a54ef5b02f114fe98300821713f135c21ee9e7a6f593fa785257abfb5a01e",
      "transactionType": "CALL",
      "contractName": "P2P",
      "contractAddress": "0x4f7e5b32e1c1ea49c597e840804ce898f53cc149",
      "function": "setPriceFeed(address,bytes32)",
      "arguments": [
        "0x036CbD53842c5426634e7929541eC2318f3dCF7e",
        "0xeaa020c61cc479712813461ce153894a96a6c00b21ed0cfc2798d1f9a9e9c94a"
      ],
      "transaction": {
        "from": "0xdafe44ce6933ba24459453fe20f40d55a454a07f",
        "to": "0x4f7e5b32e1c1ea49c597e840804ce898f53cc149",
        "gas": "0x114e2",
        "value": "0x0",
        "input": "0xadcb085a000000000000000000000000036cbd53842c5426634e7929541ec2318f3dcf7eeaa020c61cc479712813461ce153894a96a6c00b21ed0cfc2798d1f9a9e9c94a",
        "nonce": "0xb3",
        "chainId": "0x14a34"
      },
      "additionalContracts": [],
      "isFixedGasLimit": false
    },
    {
      "hash": "0xb26aca31306d232409fb71a598a141fa358156d6e0010a04b197a8b1545c804f",
      "transactionType": "CALL",
      "contractName": "P2P",
      "contractAddress": "0x4f7e5b32e1c1ea49c597e840804ce898f53cc149",
      "function": "setPriceFeed(address,bytes32)",
      "arguments": [
        "0xE4aB69C077896252FAFBD49EFD26B5D171A32410",
        "0x8ac0c70fff57e9aefdf5edf44b51d62c2d433653cbb2cf5cc06bb115af04d221"
      ],
      "transaction": {
        "from": "0xdafe44ce6933ba24459453fe20f40d55a454a07f",
        "to": "0x4f7e5b32e1c1ea49c597e840804ce898f53cc149",
        "gas": "0x114e2",
        "value": "0x0",
        "input": "0xadcb085a000000000000000000000000e4ab69c077896252fafbd49efd26b5d171a324108ac0c70fff57e9aefdf5edf44b51d62c2d433653cbb2cf5cc06bb115af04d221",
        "nonce": "0xb4",
        "chainId": "0x14a34"
      },
      "additionalContracts": [],
      "isFixedGasLimit": false
    },
    {
      "hash": "0xa9a636dc42cc4655893bc4deda68c6f2d1f1649f23314afb11e69a002e9f6364",
      "transactionType": "CALL",
      "contractName": "P2P",
      "contractAddress": "0x4f7e5b32e1c1ea49c597e840804ce898f53cc149",
      "function": "setPriceFeed(address,bytes32)",
      "arguments": [
        "0x5Fe161a97511aa3C185cBfFDCf281Fd510411343",
        "0x2b89b9dc8fdf9f34709a5b106b472f0f39bb6ca9ce04b0fd7f2e971688e2e53b"
      ],
      "transaction": {
        "from": "0xdafe44ce6933ba24459453fe20f40d55a454a07f",
        "to": "0x4f7e5b32e1c1ea49c597e840804ce898f53cc149",
        "gas": "0x114e2",
        "value": "0x0",
        "input": "0xadcb085a0000000000000000000000005fe161a97511aa3c185cbffdcf281fd5104113432b89b9dc8fdf9f34709a5b106b472f0f39bb6ca9ce04b0fd7f2e971688e2e53b",
        "nonce": "0xb5",
        "chainId": "0x14a34"
      },
      "additionalContracts": [],
      "isFixedGasLimit": false
    },
    {
      "hash": "0x652d1d59ab9c48bf2fd2c02e6d5bbe0400424de474a6114d8677990fa497ef4c",
      "transactionType": "CALL",
      "contractName": "P2P",
      "contractAddress": "0x4f7e5b32e1c1ea49c597e840804ce898f53cc149",
      "function": "setPriceFeed(address,bytes32)",
      "arguments": [
        "0x58c445B391c553A216DEfEd1631997eddF604B49",
        "0x7eab5e260e42d81013207e623be60c66c9c55bfe0ace4797ad00d1c5a1335eae"
      ],
      "transaction": {
        "from": "0xdafe44ce6933ba24459453fe20f40d55a454a07f",
        "to": "0x4f7e5b32e1c1ea49c597e840804ce898f53cc149",
        "gas": "0x1056f",
        "value": "0x0",
        "input": "0xadcb085a00000000000000000000000058c445b391c553a216defed1631997eddf604b497eab5e260e42d81013207e623be60c66c9c55bfe0ace4797ad00d1c5a1335eae",
        "nonce": "0xb6",
        "chainId": "0x14a34"
      },
      "additionalContracts": [],
      "isFixedGasLimit": false
    },
    {
      "hash": "0xfee1a8297d9e7f4cdbcd5a7b528c93a5cf04c5e96274880f785548b8abc8a0b4",
      "transactionType": "CALL",
      "contractName": "P2P",
      "contractAddress": "0x4f7e5b32e1c1ea49c597e840804ce898f53cc149",
      "function": "setPriceFeed(address,bytes32)",
      "arguments": [
        "0xA4d20763EB35092bdd5B2545079AACF048fA96B7",
        "0x2817d7bfe5c64b8ea956e9a26f573ef64e72e4d7891f2d6af9bcc93f7aff9a97"
      ],
      "transaction": {
        "from": "0xdafe44ce6933ba24459453fe20f40d55a454a07f",
        "to": "0x4f7e5b32e1c1ea49c597e840804ce898f53cc149",
        "gas": "0x114e2",
        "value": "0x0",
        "input": "0xadcb085a000000000000000000000000a4d20763eb35092bdd5b2545079aacf048fa96b72817d7bfe5c64b8ea956e9a26f573ef64e72e4d7891f2d6af9bcc93f7aff9a97",
        "nonce": "0xb7",
        "chainId": "0x14a34"
      },
      "additionalContracts": [],
      "isFixedGasLimit": false
    },
    {
      "hash": "0x08655bed95f84b7f4e0eeade4953bbd6070a8f9ea99b00529359c2ceba1ca6d1",
      "transactionType": "CALL",
      "contractName": "P2P",
      "contractAddress": "0x4f7e5b32e1c1ea49c597e840804ce898f53cc149",
      "function": "setPriceFeed(address,bytes32)",
      "arguments": [
        "0x7f24751c3aECdCC72981CBF9bbdefAD11094AB2D",
        "0xf0d57deca57b3da2fe63a493f4c25925fdfd8edf834b20f93e1f84dbd1504d4a"
      ],
      "transaction": {
        "from": "0xdafe44ce6933ba24459453fe20f40d55a454a07f",
        "to": "0x4f7e5b32e1c1ea49c597e840804ce898f53cc149",
        "gas": "0x114e2",
        "value": "0x0",
        "input": "0xadcb085a0000000000000000000000007f24751c3aecdcc72981cbf9bbdefad11094ab2df0d57deca57b3da2fe63a493f4c25925fdfd8edf834b20f93e1f84dbd1504d4a",
        "nonce": "0xb8",
        "chainId": "0x14a34"
      },
      "additionalContracts": [],
      "isFixedGasLimit": false
    },
    {
      "hash": "0xda65bc1f24bd5a847cb83b853b3477513c8b0dd1025c1ee537ea74572a821376",
      "transactionType": "CALL",
      "contractName": "P2P",
      "contractAddress": "0x4f7e5b32e1c1ea49c597e840804ce898f53cc149",
      "function": "setPriceFeed(address,bytes32)",
      "arguments": [
        "0x67Abb24DAC2b03550F6594909917a5BBDFDbEDb2",
        "0x9db37f4d5654aad3e37e2e14ffd8d53265fb3026d1d8f91146539eebaa2ef45f"
      ],
      "transaction": {
        "from": "0xdafe44ce6933ba24459453fe20f40d55a454a07f",
        "to": "0x4f7e5b32e1c1ea49c597e840804ce898f53cc149",
        "gas": "0x114e2",
        "value": "0x0",
        "input": "0xadcb085a00000000000000000000000067abb24dac2b03550f6594909917a5bbdfdbedb29db37f4d5654aad3e37e2e14ffd8d53265fb3026d1d8f91146539eebaa2ef45f",
        "nonce": "0xb9",
        "chainId": "0x14a34"
      },
      "additionalContracts": [],
      "isFixedGasLimit": false
    },
    {
      "hash": "0xcab720d02c85306bb014101bdb2e741069177ec260b022fa526aa10809207a12",
      "transactionType": "CALL",
      "contractName": "P2P",
      "contractAddress": "0x4f7e5b32e1c1ea49c597e840804ce898f53cc149",
      "function": "setPriceFeed(address,bytes32)",
      "arguments": [
        "0xbB792AfFD9152d17E0772e2B7CcE48A17103E59d",
        "0x95fd9e16d4cfc5d1370f32bb0bf2346860ad9c92fec83acf4ca263baf16c961d"
      ],
      "transaction": {
        "from": "0xdafe44ce6933ba24459453fe20f40d55a454a07f",
        "to": "0x4f7e5b32e1c1ea49c597e840804ce898f53cc149",
        "gas": "0x114e2",
        "value": "0x0",
        "input": "0xadcb085a000000000000000000000000bb792affd9152d17e0772e2b7cce48a17103e59d95fd9e16d4cfc5d1370f32bb0bf2346860ad9c92fec83acf4ca263baf16c961d",
        "nonce": "0xba",
        "chainId": "0x14a34"
      },
      "additionalContracts": [],
      "isFixedGasLimit": false
    },
    {
      "hash": "0x3b34ef02ae2a316132f8bc52af3aa178c48f4bfbcbf5016202382ab197b5f2f3",
      "transactionType": "CALL",
      "contractName": "P2P",
      "contractAddress": "0x4f7e5b32e1c1ea49c597e840804ce898f53cc149",
      "function": "setPriceFeed(address,bytes32)",
      "arguments": [
        "0x69F2ecec8707359204dea8249b64a5a3d3e1aE05",
        "0xd69731a2e74ac1ce884fc3890f7ee324b6deb66147055249568869ed700882e4"
      ],
      "transaction": {
        "from": "0xdafe44ce6933ba24459453fe20f40d55a454a07f",
        "to": "0x4f7e5b32e1c1ea49c597e840804ce898f53cc149",
        "gas": "0x114e2",
        "value": "0x0",
        "input": "0xadcb085a00000000000000000000000069f2ecec8707359204dea8249b64a5a3d3e1ae05d69731a2e74ac1ce884fc3890f7ee324b6deb66147055249568869ed700882e4",
        "nonce": "0xbb",
        "chainId": "0x14a34"
      },
      "additionalContracts": [],
      "isFixedGasLimit": false
    }
  ],
  "receipts": [
    {
      "status": "0x1",
      "cumulativeGasUsed": "0x1bc086",
      "logs": [],
      "logsBloom": "0x00000000000000000000000000000000000000000000000000000000000000000000000000000000000000000000000000000000000000000000000000000000000000000000000000000000000000000000000000000000000000000000000000000000000000000000000000000000000000000000000000000000000000000000000000000000000000000000000000000000000000000000000000000000000000000000000000000000000000000000000000000000000000000000000000000000000000000000000000000000000000000000000000000000000000000000000000000000000000000000000000000000000000000000000000000000",
      "type": "0x2",
      "transactionHash": "0x8af6ec7e264c6815e735e5a6e4946c20a841c815969d7b0a0066aabe8cc4edf6",
      "transactionIndex": "0x2",
      "blockHash": "0xb3b1210163f37a5b4a457fa8aef5e36ec40e52418bc4967c8cb197e9ba66d3e2",
      "blockNumber": "0x1f552f9",
      "gasUsed": "0x1aba62",
      "effectiveGasPrice": "0xf429f",
      "from": "0xdafe44ce6933ba24459453fe20f40d55a454a07f",
      "to": null,
      "contractAddress": "0x4f7e5b32e1c1ea49c597e840804ce898f53cc149",
      "l1BaseFeeScalar": "0x44d",
      "l1BlobBaseFee": "0x1",
      "l1BlobBaseFeeScalar": "0xa118b",
      "l1Fee": "0x51",
      "l1GasPrice": "0x9",
      "l1GasUsed": "0xfeaa"
    },
    {
      "status": "0x1",
      "cumulativeGasUsed": "0x1c7ce9",
      "logs": [
        {
          "address": "0x4f7e5b32e1c1ea49c597e840804ce898f53cc149",
          "topics": [
            "0x75a24a37f901a299cd9c661617ab1893a57e34c17b82c0898ddd5114a221b405",
            "0x0000000000000000000000004200000000000000000000000000000000000006",
            "0x9d4294bbcd1174d6f2003ec365831e64cc31d9f6f15a2b85399db8d5000960f6"
          ],
          "data": "0x000000000000000000000000dafe44ce6933ba24459453fe20f40d55a454a07f",
          "blockHash": "0x9ed60fcdcafb1ed8c94b74a13dabffeff171a59b280360f3f1caeaf98efe2f87",
          "blockNumber": "0x1f552f9",
          "blockTimestamp": "0x68fe04d2",
          "transactionHash": "0x1749310327185ceca3ac7253decd6a3b84b0d9e4b5c50a61f97cc6e4c7708329",
          "transactionIndex": "0x3",
          "logIndex": "0x0",
          "removed": false
        }
      ],
      "logsBloom": "0x00000000000000000000000000000000000000000000000000000000000000000000000000000000000000000000000000000200000000000020000000000000000000000000000000000000000000000000000000000000000000000000000000000000000000000000000000000000008410000000000000000000000000000000000000000000000000000000000000000000000000000000000000000400000000000000000000000000000000000040000001000000000000000000000000200000000004000000000000000000000000000000000000000002000000000000000000000000000000000000000000000000000000000000800000000000",
      "type": "0x2",
      "transactionHash": "0x1749310327185ceca3ac7253decd6a3b84b0d9e4b5c50a61f97cc6e4c7708329",
      "transactionIndex": "0x3",
      "blockHash": "0x9ed60fcdcafb1ed8c94b74a13dabffeff171a59b280360f3f1caeaf98efe2f87",
      "blockNumber": "0x1f552f9",
      "gasUsed": "0xbc63",
      "effectiveGasPrice": "0xf429f",
      "from": "0xdafe44ce6933ba24459453fe20f40d55a454a07f",
      "to": "0x4f7e5b32e1c1ea49c597e840804ce898f53cc149",
      "contractAddress": null,
      "l1BaseFeeScalar": "0x44d",
      "l1BlobBaseFee": "0x1",
      "l1BlobBaseFeeScalar": "0xa118b",
      "l1Fee": "0x51",
      "l1GasPrice": "0x9",
      "l1GasUsed": "0x640"
    },
    {
      "status": "0x1",
      "cumulativeGasUsed": "0x1d3a3c",
      "logs": [
        {
          "address": "0x4f7e5b32e1c1ea49c597e840804ce898f53cc149",
          "topics": [
            "0x75a24a37f901a299cd9c661617ab1893a57e34c17b82c0898ddd5114a221b405",
            "0x000000000000000000000000036cbd53842c5426634e7929541ec2318f3dcf7e",
            "0xeaa020c61cc479712813461ce153894a96a6c00b21ed0cfc2798d1f9a9e9c94a"
          ],
          "data": "0x000000000000000000000000dafe44ce6933ba24459453fe20f40d55a454a07f",
          "blockHash": "0x9ed60fcdcafb1ed8c94b74a13dabffeff171a59b280360f3f1caeaf98efe2f87",
          "blockNumber": "0x1f552f9",
          "blockTimestamp": "0x68fe04d2",
          "transactionHash": "0xc40a54ef5b02f114fe98300821713f135c21ee9e7a6f593fa785257abfb5a01e",
          "transactionIndex": "0x4",
          "logIndex": "0x1",
          "removed": false
        }
      ],
      "logsBloom": "0x00000000000000000000000000000000000000000000000000000000000000000000000000000000000000000008000000000000000000000000000000000000000000000000000000400000000000000000000000000000000000000000000000000000000000000000000000000000008400000000000000000000000000000000000040000000000000000000000000000000000000000000000000000400000000000000000000000000000000000000000001000000100000000000000000200000000000000000000000000000000000000000000000000000000000000000000000000000000000000040000000000100000000000000800000000000",
      "type": "0x2",
      "transactionHash": "0xc40a54ef5b02f114fe98300821713f135c21ee9e7a6f593fa785257abfb5a01e",
      "transactionIndex": "0x4",
      "blockHash": "0x9ed60fcdcafb1ed8c94b74a13dabffeff171a59b280360f3f1caeaf98efe2f87",
      "blockNumber": "0x1f552f9",
      "gasUsed": "0xbd53",
      "effectiveGasPrice": "0xf429f",
      "from": "0xdafe44ce6933ba24459453fe20f40d55a454a07f",
      "to": "0x4f7e5b32e1c1ea49c597e840804ce898f53cc149",
      "contractAddress": null,
      "l1BaseFeeScalar": "0x44d",
      "l1BlobBaseFee": "0x1",
      "l1BlobBaseFeeScalar": "0xa118b",
      "l1Fee": "0x51",
      "l1GasPrice": "0x9",
      "l1GasUsed": "0x6b2"
    },
    {
      "status": "0x1",
      "cumulativeGasUsed": "0x2715ac",
      "logs": [
        {
          "address": "0x4f7e5b32e1c1ea49c597e840804ce898f53cc149",
          "topics": [
            "0x75a24a37f901a299cd9c661617ab1893a57e34c17b82c0898ddd5114a221b405",
            "0x000000000000000000000000e4ab69c077896252fafbd49efd26b5d171a32410",
            "0x8ac0c70fff57e9aefdf5edf44b51d62c2d433653cbb2cf5cc06bb115af04d221"
          ],
          "data": "0x000000000000000000000000dafe44ce6933ba24459453fe20f40d55a454a07f",
          "blockHash": "0x9ed60fcdcafb1ed8c94b74a13dabffeff171a59b280360f3f1caeaf98efe2f87",
          "blockNumber": "0x1f552f9",
          "blockTimestamp": "0x68fe04d2",
          "transactionHash": "0xb26aca31306d232409fb71a598a141fa358156d6e0010a04b197a8b1545c804f",
          "transactionIndex": "0xa",
          "logIndex": "0xa",
          "removed": false
        }
      ],
      "logsBloom": "0x02000000000000000000000000000000000000000000000000004000000000000000000000000000000000000000000000000000000000000000000000000000000000000000000000000000010000000000000000000000000000000000000000000000000000000000000000000000008400000000000000000000000000000000000000002000000000000000000000000000000000000000000000000400000000000000000000000000000000000000000001000000000000000000200000200000000000000000000000010000000000000000000000000000000000000000000000000000000000000000000000000000000000000000800000000000",
      "type": "0x2",
      "transactionHash": "0xb26aca31306d232409fb71a598a141fa358156d6e0010a04b197a8b1545c804f",
      "transactionIndex": "0xa",
      "blockHash": "0x9ed60fcdcafb1ed8c94b74a13dabffeff171a59b280360f3f1caeaf98efe2f87",
      "blockNumber": "0x1f552f9",
      "gasUsed": "0xbd53",
      "effectiveGasPrice": "0xf429f",
      "from": "0xdafe44ce6933ba24459453fe20f40d55a454a07f",
      "to": "0x4f7e5b32e1c1ea49c597e840804ce898f53cc149",
      "contractAddress": null,
      "l1BaseFeeScalar": "0x44d",
      "l1BlobBaseFee": "0x1",
      "l1BlobBaseFeeScalar": "0xa118b",
      "l1Fee": "0x51",
      "l1GasPrice": "0x9",
      "l1GasUsed": "0x6b2"
    },
    {
      "status": "0x1",
      "cumulativeGasUsed": "0x27d2ff",
      "logs": [
        {
          "address": "0x4f7e5b32e1c1ea49c597e840804ce898f53cc149",
          "topics": [
            "0x75a24a37f901a299cd9c661617ab1893a57e34c17b82c0898ddd5114a221b405",
            "0x0000000000000000000000005fe161a97511aa3c185cbffdcf281fd510411343",
            "0x2b89b9dc8fdf9f34709a5b106b472f0f39bb6ca9ce04b0fd7f2e971688e2e53b"
          ],
          "data": "0x000000000000000000000000dafe44ce6933ba24459453fe20f40d55a454a07f",
          "blockHash": "0x9ed60fcdcafb1ed8c94b74a13dabffeff171a59b280360f3f1caeaf98efe2f87",
          "blockNumber": "0x1f552f9",
          "blockTimestamp": "0x68fe04d2",
          "transactionHash": "0xa9a636dc42cc4655893bc4deda68c6f2d1f1649f23314afb11e69a002e9f6364",
          "transactionIndex": "0xb",
          "logIndex": "0xb",
          "removed": false
        }
      ],
      "logsBloom": "0x00000000000000000000000000000000000000000000000000000000000000000000000000000000000000000000000000000000000000000000000000000000000001000000000000000000000010000000000000000000000000000000000000000000000000000000000000000000008400000000000000000000000000000000000000000000000000000000000000000000000000000000008000000400000000000000000000000000000010000000000001000000000000000000000000200000000000000000000000000040000000000000000000000000000000000000000000000000000000000000000000000000008000000000800000000000",
      "type": "0x2",
      "transactionHash": "0xa9a636dc42cc4655893bc4deda68c6f2d1f1649f23314afb11e69a002e9f6364",
      "transactionIndex": "0xb",
      "blockHash": "0x9ed60fcdcafb1ed8c94b74a13dabffeff171a59b280360f3f1caeaf98efe2f87",
      "blockNumber": "0x1f552f9",
      "gasUsed": "0xbd53",
      "effectiveGasPrice": "0xf429f",
      "from": "0xdafe44ce6933ba24459453fe20f40d55a454a07f",
      "to": "0x4f7e5b32e1c1ea49c597e840804ce898f53cc149",
      "contractAddress": null,
      "l1BaseFeeScalar": "0x44d",
      "l1BlobBaseFee": "0x1",
      "l1BlobBaseFeeScalar": "0xa118b",
      "l1Fee": "0x51",
      "l1GasPrice": "0x9",
      "l1GasUsed": "0x6b2"
    },
    {
      "status": "0x1",
      "cumulativeGasUsed": "0x289046",
      "logs": [
        {
          "address": "0x4f7e5b32e1c1ea49c597e840804ce898f53cc149",
          "topics": [
            "0x75a24a37f901a299cd9c661617ab1893a57e34c17b82c0898ddd5114a221b405",
            "0x00000000000000000000000058c445b391c553a216defed1631997eddf604b49",
            "0x7eab5e260e42d81013207e623be60c66c9c55bfe0ace4797ad00d1c5a1335eae"
          ],
          "data": "0x000000000000000000000000dafe44ce6933ba24459453fe20f40d55a454a07f",
          "blockHash": "0x9ed60fcdcafb1ed8c94b74a13dabffeff171a59b280360f3f1caeaf98efe2f87",
          "blockNumber": "0x1f552f9",
          "blockTimestamp": "0x68fe04d2",
          "transactionHash": "0x652d1d59ab9c48bf2fd2c02e6d5bbe0400424de474a6114d8677990fa497ef4c",
          "transactionIndex": "0xc",
          "logIndex": "0xc",
          "removed": false
        }
      ],
      "logsBloom": "0x00000000000000000000000000000000000000000000000000000000010000000000000000000000000000000000000000000000000000200000000000000000000000000000000000000000000000000000000000000000000000000000000000000000000000000000000000000000008400000010000800000000000000000000020000000000000000000000000000000000000000000000000000000400000000000000000000000000000000000000000001000000000000000000000000200000000000000000000000000000000000000000000000000000000000000000000000000000000000000001000000000000000000000000800000000000",
      "type": "0x2",
      "transactionHash": "0x652d1d59ab9c48bf2fd2c02e6d5bbe0400424de474a6114d8677990fa497ef4c",
      "transactionIndex": "0xc",
      "blockHash": "0x9ed60fcdcafb1ed8c94b74a13dabffeff171a59b280360f3f1caeaf98efe2f87",
      "blockNumber": "0x1f552f9",
      "gasUsed": "0xbd47",
      "effectiveGasPrice": "0xf429f",
      "from": "0xdafe44ce6933ba24459453fe20f40d55a454a07f",
      "to": "0x4f7e5b32e1c1ea49c597e840804ce898f53cc149",
      "contractAddress": null,
      "l1BaseFeeScalar": "0x44d",
      "l1BlobBaseFee": "0x1",
      "l1BlobBaseFeeScalar": "0xa118b",
      "l1Fee": "0x51",
      "l1GasPrice": "0x9",
      "l1GasUsed": "0x6b2"
    },
    {
      "status": "0x1",
      "cumulativeGasUsed": "0x294d99",
      "logs": [
        {
          "address": "0x4f7e5b32e1c1ea49c597e840804ce898f53cc149",
          "topics": [
            "0x75a24a37f901a299cd9c661617ab1893a57e34c17b82c0898ddd5114a221b405",
            "0x000000000000000000000000a4d20763eb35092bdd5b2545079aacf048fa96b7",
            "0x2817d7bfe5c64b8ea956e9a26f573ef64e72e4d7891f2d6af9bcc93f7aff9a97"
          ],
          "data": "0x000000000000000000000000dafe44ce6933ba24459453fe20f40d55a454a07f",
          "blockHash": "0x9ed60fcdcafb1ed8c94b74a13dabffeff171a59b280360f3f1caeaf98efe2f87",
          "blockNumber": "0x1f552f9",
          "blockTimestamp": "0x68fe04d2",
          "transactionHash": "0xfee1a8297d9e7f4cdbcd5a7b528c93a5cf04c5e96274880f785548b8abc8a0b4",
          "transactionIndex": "0xd",
          "logIndex": "0xd",
          "removed": false
        }
      ],
      "logsBloom": "0x00000000000000000000000000000000000200000000000000000000000000000000000000000000000000000000000000000000000000000000000000000000004000000000000000000000000000000000000000000000000000000000000000000000000000000000000000000000008400000000000000000000000000000000000000000000000000000000000000000000000000000000000000000400000000040000000000000000000000000000000001000000000000000000000000200000000000000000000000004000000000000000000000000000000000000000000000000000000000000000000002000000000000000000800000000000",
      "type": "0x2",
      "transactionHash": "0xfee1a8297d9e7f4cdbcd5a7b528c93a5cf04c5e96274880f785548b8abc8a0b4",
      "transactionIndex": "0xd",
      "blockHash": "0x9ed60fcdcafb1ed8c94b74a13dabffeff171a59b280360f3f1caeaf98efe2f87",
      "blockNumber": "0x1f552f9",
      "gasUsed": "0xbd53",
      "effectiveGasPrice": "0xf429f",
      "from": "0xdafe44ce6933ba24459453fe20f40d55a454a07f",
      "to": "0x4f7e5b32e1c1ea49c597e840804ce898f53cc149",
      "contractAddress": null,
      "l1BaseFeeScalar": "0x44d",
      "l1BlobBaseFee": "0x1",
      "l1BlobBaseFeeScalar": "0xa118b",
      "l1Fee": "0x51",
      "l1GasPrice": "0x9",
      "l1GasUsed": "0x6b2"
    },
    {
      "status": "0x1",
      "cumulativeGasUsed": "0x2a0aec",
      "logs": [
        {
          "address": "0x4f7e5b32e1c1ea49c597e840804ce898f53cc149",
          "topics": [
            "0x75a24a37f901a299cd9c661617ab1893a57e34c17b82c0898ddd5114a221b405",
            "0x0000000000000000000000007f24751c3aecdcc72981cbf9bbdefad11094ab2d",
            "0xf0d57deca57b3da2fe63a493f4c25925fdfd8edf834b20f93e1f84dbd1504d4a"
          ],
          "data": "0x000000000000000000000000dafe44ce6933ba24459453fe20f40d55a454a07f",
          "blockHash": "0x9ed60fcdcafb1ed8c94b74a13dabffeff171a59b280360f3f1caeaf98efe2f87",
          "blockNumber": "0x1f552f9",
          "blockTimestamp": "0x68fe04d2",
          "transactionHash": "0x08655bed95f84b7f4e0eeade4953bbd6070a8f9ea99b00529359c2ceba1ca6d1",
          "transactionIndex": "0xe",
          "logIndex": "0xe",
          "removed": false
        }
      ],
      "logsBloom": "0x00000000008000000000000000000000000000000000000000000000000000000000000000000000000000000000000000000000000000000000000000000000000000000004000000000000000000000000000000000000000000000000000000000000000000000000000000000000008400000000000000000000000000000000000000000000000000000000000000000000000000000000000000000400000000200000000000000000000000000000000001000000000000000000000000200040000000000000000000000000000000000000004000000000000080000000000000000000000000000000000000000000000000000000800000000000",
      "type": "0x2",
      "transactionHash": "0x08655bed95f84b7f4e0eeade4953bbd6070a8f9ea99b00529359c2ceba1ca6d1",
      "transactionIndex": "0xe",
      "blockHash": "0x9ed60fcdcafb1ed8c94b74a13dabffeff171a59b280360f3f1caeaf98efe2f87",
      "blockNumber": "0x1f552f9",
      "gasUsed": "0xbd53",
      "effectiveGasPrice": "0xf429f",
      "from": "0xdafe44ce6933ba24459453fe20f40d55a454a07f",
      "to": "0x4f7e5b32e1c1ea49c597e840804ce898f53cc149",
      "contractAddress": null,
      "l1BaseFeeScalar": "0x44d",
      "l1BlobBaseFee": "0x1",
      "l1BlobBaseFeeScalar": "0xa118b",
      "l1Fee": "0x51",
      "l1GasPrice": "0x9",
      "l1GasUsed": "0x6b2"
    },
    {
      "status": "0x1",
      "cumulativeGasUsed": "0x2f4e23",
      "logs": [
        {
          "address": "0x4f7e5b32e1c1ea49c597e840804ce898f53cc149",
          "topics": [
            "0x75a24a37f901a299cd9c661617ab1893a57e34c17b82c0898ddd5114a221b405",
            "0x00000000000000000000000067abb24dac2b03550f6594909917a5bbdfdbedb2",
            "0x9db37f4d5654aad3e37e2e14ffd8d53265fb3026d1d8f91146539eebaa2ef45f"
          ],
          "data": "0x000000000000000000000000dafe44ce6933ba24459453fe20f40d55a454a07f",
          "blockHash": "0x9ed60fcdcafb1ed8c94b74a13dabffeff171a59b280360f3f1caeaf98efe2f87",
          "blockNumber": "0x1f552f9",
          "blockTimestamp": "0x68fe04d2",
          "transactionHash": "0xda65bc1f24bd5a847cb83b853b3477513c8b0dd1025c1ee537ea74572a821376",
          "transactionIndex": "0x12",
          "logIndex": "0x1d",
          "removed": false
        }
      ],
      "logsBloom": "0x00000000000000000000000000000000000000800000000000000000000000000000000000000000000000000000000000000000000000000000000000000000000000000800000000000000000000000000000000000000000000000000004000000000000000000000000000000000008400000000000000000000000000000000000000000000000000000000000000000000000400000000000000000400000000000000000000000000000000000000000005000000000000000000000000200000000000000000000000000000000000000000000000000000000000000000000000000000000000000000000080000000000000000000800000000000",
      "type": "0x2",
      "transactionHash": "0xda65bc1f24bd5a847cb83b853b3477513c8b0dd1025c1ee537ea74572a821376",
      "transactionIndex": "0x12",
      "blockHash": "0x9ed60fcdcafb1ed8c94b74a13dabffeff171a59b280360f3f1caeaf98efe2f87",
      "blockNumber": "0x1f552f9",
      "gasUsed": "0xbd53",
      "effectiveGasPrice": "0xf429f",
      "from": "0xdafe44ce6933ba24459453fe20f40d55a454a07f",
      "to": "0x4f7e5b32e1c1ea49c597e840804ce898f53cc149",
      "contractAddress": null,
      "l1BaseFeeScalar": "0x44d",
      "l1BlobBaseFee": "0x1",
      "l1BlobBaseFeeScalar": "0xa118b",
      "l1Fee": "0x51",
      "l1GasPrice": "0x9",
      "l1GasUsed": "0x6b2"
    },
    {
      "status": "0x1",
      "cumulativeGasUsed": "0x300b76",
      "logs": [
        {
          "address": "0x4f7e5b32e1c1ea49c597e840804ce898f53cc149",
          "topics": [
            "0x75a24a37f901a299cd9c661617ab1893a57e34c17b82c0898ddd5114a221b405",
            "0x000000000000000000000000bb792affd9152d17e0772e2b7cce48a17103e59d",
            "0x95fd9e16d4cfc5d1370f32bb0bf2346860ad9c92fec83acf4ca263baf16c961d"
          ],
          "data": "0x000000000000000000000000dafe44ce6933ba24459453fe20f40d55a454a07f",
          "blockHash": "0xb3b1210163f37a5b4a457fa8aef5e36ec40e52418bc4967c8cb197e9ba66d3e2",
          "blockNumber": "0x1f552f9",
          "blockTimestamp": "0x68fe04d2",
          "transactionHash": "0xcab720d02c85306bb014101bdb2e741069177ec260b022fa526aa10809207a12",
          "transactionIndex": "0x13",
          "logIndex": "0x1e",
          "removed": false
        }
      ],
      "logsBloom": "0x80000000000000000000000000000000000000000000000000000000000000000000000000000000000002000000000000000000000000000000000000000000000000000000000000000000000000000000000000000000000000000000000000000000000000000000000000000000008400000000000000000000000000000000000000000000100000000000000000000000000000000008000000000400000000000000000000000000000000000000000001000000000200000000000000200000000000000000000000000000000000000000000000000000000000000400000000000000000000000000000000000000000000000000800000000000",
      "type": "0x2",
      "transactionHash": "0xcab720d02c85306bb014101bdb2e741069177ec260b022fa526aa10809207a12",
      "transactionIndex": "0x13",
      "blockHash": "0xb3b1210163f37a5b4a457fa8aef5e36ec40e52418bc4967c8cb197e9ba66d3e2",
      "blockNumber": "0x1f552f9",
      "gasUsed": "0xbd53",
      "effectiveGasPrice": "0xf429f",
      "from": "0xdafe44ce6933ba24459453fe20f40d55a454a07f",
      "to": "0x4f7e5b32e1c1ea49c597e840804ce898f53cc149",
      "contractAddress": null,
      "l1BaseFeeScalar": "0x44d",
      "l1BlobBaseFee": "0x1",
      "l1BlobBaseFeeScalar": "0xa118b",
      "l1Fee": "0x51",
      "l1GasPrice": "0x9",
      "l1GasUsed": "0x6b2"
    },
    {
      "status": "0x1",
      "cumulativeGasUsed": "0x30c8c9",
      "logs": [
        {
          "address": "0x4f7e5b32e1c1ea49c597e840804ce898f53cc149",
          "topics": [
            "0x75a24a37f901a299cd9c661617ab1893a57e34c17b82c0898ddd5114a221b405",
            "0x00000000000000000000000069f2ecec8707359204dea8249b64a5a3d3e1ae05",
            "0xd69731a2e74ac1ce884fc3890f7ee324b6deb66147055249568869ed700882e4"
          ],
          "data": "0x000000000000000000000000dafe44ce6933ba24459453fe20f40d55a454a07f",
          "blockHash": "0xfeba66cb4973432402838dbc2e8707697c41ae87eabfdf0993d6858652b610ef",
          "blockNumber": "0x1f552f9",
          "blockTimestamp": "0x68fe04d2",
          "transactionHash": "0x3b34ef02ae2a316132f8bc52af3aa178c48f4bfbcbf5016202382ab197b5f2f3",
          "transactionIndex": "0x14",
          "logIndex": "0x1f",
          "removed": false
        }
      ],
      "logsBloom": "0x00000000000000000000000000000000000000000000000000000000000000000000000000000000000000000000000000000000000000000000000000800000004000000000000000000000000000010000000000000000000000000000000000000000000000000000000000000000008400000000400000000000000000000000000000000000000000000000000000000000000000000000000000000400000000000000000000000000000000000000000001000000000000000000000000200000000000000000000000000000000000000000000000000008000000004000000000000000000000000000000000000000000000000000800000000000",
      "type": "0x2",
      "transactionHash": "0x3b34ef02ae2a316132f8bc52af3aa178c48f4bfbcbf5016202382ab197b5f2f3",
      "transactionIndex": "0x14",
      "blockHash": "0xfeba66cb4973432402838dbc2e8707697c41ae87eabfdf0993d6858652b610ef",
      "blockNumber": "0x1f552f9",
      "gasUsed": "0xbd53",
      "effectiveGasPrice": "0xf429f",
      "from": "0xdafe44ce6933ba24459453fe20f40d55a454a07f",
      "to": "0x4f7e5b32e1c1ea49c597e840804ce898f53cc149",
      "contractAddress": null,
      "l1BaseFeeScalar": "0x44d",
      "l1BlobBaseFee": "0x1",
      "l1BlobBaseFeeScalar": "0xa118b",
      "l1Fee": "0x51",
      "l1GasPrice": "0x9",
      "l1GasUsed": "0x6b2"
    }
  ],
  "libraries": [],
  "pending": [],
  "returns": {},
  "timestamp": 1761477860524,
  "chain": 84532,
  "commit": "0213ce5"
}