{
  "transactions": [
    {
      "hash": "0x183c0cffd4f339b224aa226a8bfb4cb0ed01be2abd7aff2a34e8942e1a4f1707",
      "transactionType": "CALL",
      "contractName": null,
      "contractAddress": "0x41d897084fd42d0509f752954fecf48c62307b3f",
      "function": "createOrder(address,address,uint256,uint256,uint256,bytes[])",
      "arguments": [
        "0x4200000000000000000000000000000000000006",
        "0x5Fe161a97511aa3C185cBfFDCf281Fd510411343",
        "10000000000000000",
        "0",
        "0",
        "[0x504e41550100000003b801000000040d008c5caa5f602cb41592f6c83466d38e688f8788179587d19b7e89db870a50b571745be8b6bb11085ad4886ee923029ecd4698db3815fb146769ab844223f30db10103d5de44d9edb5db34066067a072b3f769dc898f07abba136561dab8ca0746def1560f5ecefa751e0199d64220f9c235a1de16572e2cc04d38b5d84196969f21f40004c16ac6f329b3b75d05f3c76ab337e8aaf571b678432919daf3dc605624f02a127d60b166c30259dd54dd03a2ce50bf396390ddf07a6c0b606bf846f8193a758a01065c87070a43db5ee9d13c3f8efd5a38f50d8c8a3863383dc3cd891d3cdb628c634483812d6b340100b9cb76aeacf868276d3ad437ef42e4ab89d0708df5d3fed40008489b083a7a79e75cb91d48f8841df23be0fd45236c0146bf9fc7feef90050b0e4946f85439afdcf970c1184717a3d375b45c513c4d3cbcd4165a6c5a7166f519000a849be3fb435b8f3b77f4a682d29748cdea7ade9764527a3fa9a6df4e729edf1d280901afb4195e61e05fd110dd4456565b7a8a859786831b6478758b1bdddc61000b3c75bc1449b920f2b02032e6eee019ade26b094cf704f076b40e7eedde4741046f10e0780637c43be060eee7903842981ee440dfa3e3f963403cbc4cfb943ca3000d65fd44fa8fb5f1de45f4075737b5db324eee50f4f73ef7bf45c3ae6c0522174e0fa41233be90c03c7e0401c31e556c2bc789597e7453998bead022ced884f962010e7738c61605ab6a5aebeff44ac3cf5b04787fe13d753aec144a5aaee918accf53185b189e82c4864c7cffc989c064d33f7d82c19953352299a2c746dee4b0765b000fbf938952939f5459e80409296e6b94b230056d53dbb59b0e8abcc3416bd34c021c32510b6179ccad19cea663afaea0ecae95bcf652f23e6b9ede502778596f490010def2b9388a591b9eed42668907ba7bd468c9e18ad23c848416b6277a329f48e239432ee0d625d4172b6a68d4d2348527be4694fe883266e8f26a10134107dcfc011176faa8011f207545c52890933b23d133397228d78aeb8205d164ebe64c8475803a58348c48c8e1e51b30ba7049f8fed9064b0add531e5d687190f1def59adda200123c7d1810f01406a623d6bbe384146a615b6fae5bbe262841f9e13d22cdf623870f9b12b5aa662815871ac818b307f05cf08b002e8ec31f7d6db29a68a7a2aec90168fd1d2600000000001ae101faedac5851e32b9b23b5f9411a8c2bac4aae3ed4dd7b811dd1a72ea4aa710000000009e7f27a014155575600000000000ef5937800002710d94b98bad72611128c950327d26d8addf873b65e01005500ff61491a931112ddf1bd8147cd1b641375f79f5825126d665480874634fd0ace0000005c22fdf3490000000008efe937fffffff80000000068fd1d260000000068fd1d250000005bcd08cd100000000007b5c8d00daee5815bea917169399300f75d79706cbf8fa64cd84eb199eeec931bf47b42d3873f3470fc6bc12a2a22c1c2217f0e8ce6585a687a77cc478e5a388902d7b9aaabcb1d6d758367f6d24b47a9ac4d06389344954b7744c82edcbbf4e3b87053866fe5cedc09ef88fac483e0feecfb0b66b198646ab68bab04a087f3e5f87d23192aced4132368f301434f5c51542ef5bdc7a266326d7a906fcd892721491ee5a791a3af79d200f61e8e8c5897e8e3b485e715cbaeb435254bd462cf44d0477b0289b7241d8404e0fa106b8bcf2fc4bf05cd6f71e1c9313350373e71346227631d32149242fcecc334f106698f167ea648d3a69a3725a179532a627e89dc0157d869241eb1]"
      ],
      "transaction": {
        "from": "0xdafe44ce6933ba24459453fe20f40d55a454a07f",
        "to": "0x41d897084fd42d0509f752954fecf48c62307b3f",
        "gas": "0x78d51",
        "value": "0xa",
        "input": "0x5236017200000000000000000000000042000000000000000000000000000000000000060000000000000000000000005fe161a97511aa3c185cbffdcf281fd510411343000000000000000000000000000000000000000000000000002386f26fc100000000000000000000000000000000000000000000000000000000000000000000000000000000000000000000000000000000000000000000000000000000000000000000000000000000000000000000000000000000000000000000000000c000000000000000000000000000000000000000000000000000000000000000010000000000000000000000000000000000000000000000000000000000000020000000000000000000000000000000000000000000000000000000000000051f504e41550100000003b801000000040d008c5caa5f602cb41592f6c83466d38e688f8788179587d19b7e89db870a50b571745be8b6bb11085ad4886ee923029ecd4698db3815fb146769ab844223f30db10103d5de44d9edb5db34066067a072b3f769dc898f07abba136561dab8ca0746def1560f5ecefa751e0199d64220f9c235a1de16572e2cc04d38b5d84196969f21f40004c16ac6f329b3b75d05f3c76ab337e8aaf571b678432919daf3dc605624f02a127d60b166c30259dd54dd03a2ce50bf396390ddf07a6c0b606bf846f8193a758a01065c87070a43db5ee9d13c3f8efd5a38f50d8c8a3863383dc3cd891d3cdb628c634483812d6b340100b9cb76aeacf868276d3ad437ef42e4ab89d0708df5d3fed40008489b083a7a79e75cb91d48f8841df23be0fd45236c0146bf9fc7feef90050b0e4946f85439afdcf970c1184717a3d375b45c513c4d3cbcd4165a6c5a7166f519000a849be3fb435b8f3b77f4a682d29748cdea7ade9764527a3fa9a6df4e729edf1d280901afb4195e61e05fd110dd4456565b7a8a859786831b6478758b1bdddc61000b3c75bc1449b920f2b02032e6eee019ade26b094cf704f076b40e7eedde4741046f10e0780637c43be060eee7903842981ee440dfa3e3f963403cbc4cfb943ca3000d65fd44fa8fb5f1de45f4075737b5db324eee50f4f73ef7bf45c3ae6c0522174e0fa41233be90c03c7e0401c31e556c2bc789597e7453998bead022ced884f962010e7738c61605ab6a5aebeff44ac3cf5b04787fe13d753aec144a5aaee918accf53185b189e82c4864c7cffc989c064d33f7d82c19953352299a2c746dee4b0765b000fbf938952939f5459e80409296e6b94b230056d53dbb59b0e8abcc3416bd34c021c32510b6179ccad19cea663afaea0ecae95bcf652f23e6b9ede502778596f490010def2b9388a591b9eed42668907ba7bd468c9e18ad23c848416b6277a329f48e239432ee0d625d4172b6a68d4d2348527be4694fe883266e8f26a10134107dcfc011176faa8011f207545c52890933b23d133397228d78aeb8205d164ebe64c8475803a58348c48c8e1e51b30ba7049f8fed9064b0add531e5d687190f1def59adda200123c7d1810f01406a623d6bbe384146a615b6fae5bbe262841f9e13d22cdf623870f9b12b5aa662815871ac818b307f05cf08b002e8ec31f7d6db29a68a7a2aec90168fd1d2600000000001ae101faedac5851e32b9b23b5f9411a8c2bac4aae3ed4dd7b811dd1a72ea4aa710000000009e7f27a014155575600000000000ef5937800002710d94b98bad72611128c950327d26d8addf873b65e01005500ff61491a931112ddf1bd8147cd1b641375f79f5825126d665480874634fd0ace0000005c22fdf3490000000008efe937fffffff80000000068fd1d260000000068fd1d250000005bcd08cd100000000007b5c8d00daee5815bea917169399300f75d79706cbf8fa64cd84eb199eeec931bf47b42d3873f3470fc6bc12a2a22c1c2217f0e8ce6585a687a77cc478e5a388902d7b9aaabcb1d6d758367f6d24b47a9ac4d06389344954b7744c82edcbbf4e3b87053866fe5cedc09ef88fac483e0feecfb0b66b198646ab68bab04a087f3e5f87d23192aced4132368f301434f5c51542ef5bdc7a266326d7a906fcd892721491ee5a791a3af79d200f61e8e8c5897e8e3b485e715cbaeb435254bd462cf44d0477b0289b7241d8404e0fa106b8bcf2fc4bf05cd6f71e1c9313350373e71346227631d32149242fcecc334f106698f167ea648d3a69a3725a179532a627e89dc0157d869241eb100",
        "nonce": "0x92",
        "chainId": "0x14a34"
      },
      "additionalContracts": [],
      "isFixedGasLimit": false
    },
    {
      "hash": "0x47d7a5ee6109e68c7788d09d70374ad604971939e15a4c8327d260a482af46f8",
      "transactionType": "CALL",
      "contractName": null,
      "contractAddress": "0x41d897084fd42d0509f752954fecf48c62307b3f",
      "function": "createOrder(address,address,uint256,uint256,uint256,bytes[])",
      "arguments": [
        "0x4200000000000000000000000000000000000006",
        "0x5Fe161a97511aa3C185cBfFDCf281Fd510411343",
        "10000000000000000",
        "0",
        "0",
        "[0x504e41550100000003b801000000040d009b577ff1b55eafc73f0387887d1382f27d33bfb5cdcb6de95865612e0ed4a07614c1f44f3465123ef652b26d3377732c42c3b7465db360f95884eeae716d4a0e0002c3dfa9f33ff581bcbfcc04db9f8d113262ae5f578afcbf6404f8e679d842e9205d713558e228ce54c344741a2ff893acfd4aba71de164f364ebaf0232436a4d3000390a5a0390f3aac3ddf37463fe137975dacac831f3fdb00bc5eec01d09392ee30079e5864602a1877fe73e6e7817f718c2f31f20f9a3a92581b820f955b0ef76d0104358cdae6ae523fb4462c49e7e74d58118f869440d7f38979a7c2454cfde02ac3621334ee3b055dd7ddc8318ae3180de1b969fa6045f3bdc122165ff9743fb0a40106a2550a3e75c54cb2cbf978aedd1f33f6d79c03beec549186e69d25f531f9ca2721eebe920bce6cff1855f432fdfd27eebd527e134dea27a89b368e392f6a3e4a0008d256e269793ad6d6bd833a7f444e8a261f0e7f3a5d080379cd7e4d7e3b3632df68a584c77d425886fbb20956055960287e87870a6fdfa8c203f6e2e38e09b59b000b62aabb82b89cfa1af1610b8c8c5279ab82f40bd9331ed24d689ed0b5c70c3a38440e2ca0c9e8df09834f5c084bf0842e959ab16cc8e0dbf29e6d94e9dedc7376010cae3a892a522ce9b7c397adf39d687b74e829717641e381b6f4cb209bab4623124fda47f4c44d078c3a5dcee5fdfbefcae18960dd7663b047ff69606c6a1d70a9010d349404826df3df171005f36aedf05b4d79aca44e993271d4ef4dc618d8b915dc1a7af923ec3cf15badceceaeaf36d5a254dab619122a447400db390cf1baeaa6010e00172ea276b9650500aae90348bcc1c74198d51c694d79173d9ad5910b0a45326c7c18a2667aac84e143761b6bb5a372bac0720749bbdb7db4d6ed8c8e9cbb6d0110de3def8fc5cdc785457aabc0e17ba17e1423db4f00d2f60951844b7691720e8b00a7a8d2ae466d5d77628185f57b2fa8396793c9c32a91fa359b26db28adc767001153393e9d27e0a78f1643066f542d5ebaccdefdf079387bff4822b2aabd39c62679702865ec220b349d26df95092e9c79d390ce10060c366e7237ca7fc2dd66ad0012e0aa961fb8bcd173b44a11c2dbf5870cece38bd30d885ab8b7b269f35964a80e7817a52540af09752033d38f834fce1f240d81d96cf8ef6d9e3d6514de5dadfc0068fd1d3200000000001ae101faedac5851e32b9b23b5f9411a8c2bac4aae3ed4dd7b811dd1a72ea4aa710000000009e7f298014155575600000000000ef5939600002710a6fbe81d919c86610d6b77659ae1d1fb3c5dd3a801005500ff61491a931112ddf1bd8147cd1b641375f79f5825126d665480874634fd0ace0000005c21cd48a300000000073504e6fffffff80000000068fd1d320000000068fd1d320000005bcd5f03600000000007b514290daee5815bea917169399300f75d79706cbf8fa64cd84eb199eeec931bf47b42d3873f3470fc6bc12a15ebd4fbac9e475143d9edb449a36cca757eca47847d25265d42aa761698ee600d167741988b6b7b6e0a5c4776a45f9405e210a05bf642abe4e69f54840ffbb01c0f91059662a5ae6f35940c2deefdd9624a860a807bfa314630b14e48b2a25d3bd429ae790a3839a6daf5315b40260196a245a664b5831d12ce164bca2b9887b2cc607a011000de8e1ca7b4fd8bbba1b2a9fa92b8c453efc44cb29bcb023deba8f77fc6c96750081ed550450f08338f4711c39a40d8f7c9ae9557be38742d8ca64aa37e1fceb504c69ae73c17663cbb69c29b96b20f277431e694f8]"
      ],
      "transaction": {
        "from": "0xdafe44ce6933ba24459453fe20f40d55a454a07f",
        "to": "0x41d897084fd42d0509f752954fecf48c62307b3f",
        "gas": "0x78d1e",
        "value": "0xa",
        "input": "0x5236017200000000000000000000000042000000000000000000000000000000000000060000000000000000000000005fe161a97511aa3c185cbffdcf281fd510411343000000000000000000000000000000000000000000000000002386f26fc100000000000000000000000000000000000000000000000000000000000000000000000000000000000000000000000000000000000000000000000000000000000000000000000000000000000000000000000000000000000000000000000000c000000000000000000000000000000000000000000000000000000000000000010000000000000000000000000000000000000000000000000000000000000020000000000000000000000000000000000000000000000000000000000000051f504e41550100000003b801000000040d009b577ff1b55eafc73f0387887d1382f27d33bfb5cdcb6de95865612e0ed4a07614c1f44f3465123ef652b26d3377732c42c3b7465db360f95884eeae716d4a0e0002c3dfa9f33ff581bcbfcc04db9f8d113262ae5f578afcbf6404f8e679d842e9205d713558e228ce54c344741a2ff893acfd4aba71de164f364ebaf0232436a4d3000390a5a0390f3aac3ddf37463fe137975dacac831f3fdb00bc5eec01d09392ee30079e5864602a1877fe73e6e7817f718c2f31f20f9a3a92581b820f955b0ef76d0104358cdae6ae523fb4462c49e7e74d58118f869440d7f38979a7c2454cfde02ac3621334ee3b055dd7ddc8318ae3180de1b969fa6045f3bdc122165ff9743fb0a40106a2550a3e75c54cb2cbf978aedd1f33f6d79c03beec549186e69d25f531f9ca2721eebe920bce6cff1855f432fdfd27eebd527e134dea27a89b368e392f6a3e4a0008d256e269793ad6d6bd833a7f444e8a261f0e7f3a5d080379cd7e4d7e3b3632df68a584c77d425886fbb20956055960287e87870a6fdfa8c203f6e2e38e09b59b000b62aabb82b89cfa1af1610b8c8c5279ab82f40bd9331ed24d689ed0b5c70c3a38440e2ca0c9e8df09834f5c084bf0842e959ab16cc8e0dbf29e6d94e9dedc7376010cae3a892a522ce9b7c397adf39d687b74e829717641e381b6f4cb209bab4623124fda47f4c44d078c3a5dcee5fdfbefcae18960dd7663b047ff69606c6a1d70a9010d349404826df3df171005f36aedf05b4d79aca44e993271d4ef4dc618d8b915dc1a7af923ec3cf15badceceaeaf36d5a254dab619122a447400db390cf1baeaa6010e00172ea276b9650500aae90348bcc1c74198d51c694d79173d9ad5910b0a45326c7c18a2667aac84e143761b6bb5a372bac0720749bbdb7db4d6ed8c8e9cbb6d0110de3def8fc5cdc785457aabc0e17ba17e1423db4f00d2f60951844b7691720e8b00a7a8d2ae466d5d77628185f57b2fa8396793c9c32a91fa359b26db28adc767001153393e9d27e0a78f1643066f542d5ebaccdefdf079387bff4822b2aabd39c62679702865ec220b349d26df95092e9c79d390ce10060c366e7237ca7fc2dd66ad0012e0aa961fb8bcd173b44a11c2dbf5870cece38bd30d885ab8b7b269f35964a80e7817a52540af09752033d38f834fce1f240d81d96cf8ef6d9e3d6514de5dadfc0068fd1d3200000000001ae101faedac5851e32b9b23b5f9411a8c2bac4aae3ed4dd7b811dd1a72ea4aa710000000009e7f298014155575600000000000ef5939600002710a6fbe81d919c86610d6b77659ae1d1fb3c5dd3a801005500ff61491a931112ddf1bd8147cd1b641375f79f5825126d665480874634fd0ace0000005c21cd48a300000000073504e6fffffff80000000068fd1d320000000068fd1d320000005bcd5f03600000000007b514290daee5815bea917169399300f75d79706cbf8fa64cd84eb199eeec931bf47b42d3873f3470fc6bc12a15ebd4fbac9e475143d9edb449a36cca757eca47847d25265d42aa761698ee600d167741988b6b7b6e0a5c4776a45f9405e210a05bf642abe4e69f54840ffbb01c0f91059662a5ae6f35940c2deefdd9624a860a807bfa314630b14e48b2a25d3bd429ae790a3839a6daf5315b40260196a245a664b5831d12ce164bca2b9887b2cc607a011000de8e1ca7b4fd8bbba1b2a9fa92b8c453efc44cb29bcb023deba8f77fc6c96750081ed550450f08338f4711c39a40d8f7c9ae9557be38742d8ca64aa37e1fceb504c69ae73c17663cbb69c29b96b20f277431e694f800",
        "nonce": "0x93",
        "chainId": "0x14a34"
      },
      "additionalContracts": [],
      "isFixedGasLimit": false
    },
    {
      "hash": "0x48b20683fd6bd1361cebdfb9f1b7e2038f41d4cfb67b55921065bde18a76c517",
      "transactionType": "CALL",
      "contractName": null,
      "contractAddress": "0x41d897084fd42d0509f752954fecf48c62307b3f",
      "function": "createOrder(address,address,uint256,uint256,uint256,bytes[])",
      "arguments": [
        "0x4200000000000000000000000000000000000006",
        "0x5Fe161a97511aa3C185cBfFDCf281Fd510411343",
        "10000000000000000",
        "0",
        "0",
        "[0x504e41550100000003b801000000040d004302c7a70257817f02d4051a980997a34b3f2ae01bae6f174718d84a9fb79540744982fb011af66d955ef3646d40215aa3cabf9458599c6aab3298ab3f522d540102365e65669e45629acfa45d8f0afcf17372d1d65c04828b41d068e6500a06110e03977f00ffdd53d100a8e052644d68b68f67d42f63fa58c02c945a22d5aad14a01033661f1091077e216595b9934e649455b63030bd1d539e2bd3a7a0d0b2ee616b0287a2c7575f4318e6188edfb581c1ae88b61d43d1cf14bce288116a45f3ef9b10004c58ffa6e866e720dd6c9728b1f9a49764c67bf87d5f6f771fe7064266ba5ee755224c9144f10987abba1b2f815710f4ce1733c2ff1ee4d253ea9976f161b921a0108b3c44281742d6af15e139ecfcdb761e3767b835f207ff9c4599331395ef3c1d8597331ee2c2615a3884ed9ece4419aa709836e93fddb8cfc0f00b0d12dd828a3010ade7cc0e90bdeb83100dc4747882eaa505d12aa8cd8ded9bc915ae40e30d85fd558117a59696ef4a7845368130dd923d71d9bdb8a19e3431c3bebe95a0ef670d6010b2a635125069ccaaa0374a1ac863a77b426650623b9138371b560cb8fafbda8553637c89e75bf8b08a82cc78ddf8fdd6aa5586e28837ca7e53a0f16842535fb7e010c7ce2bbadf7ba81598b6bf308dce71d588533920e352024f452c3ffb0bfd5be873b072c122e3b673fa1e1f9d370e190c6ae641c16025b1a8e9ecaf76b1bf779cf000d605c69b53cb7a98b645c9ddf3e984047afebc3bb5a799ea46a87f5a55cc6ccd77aa01fd08251c07f8e0543646047c35b0f78146772366f1b398191ae9414e515000e2d97a472dd99ca45d66175657ab2e21a10b0ad250681cc16331b2d4d037050e20e0ebeac7d1a03d358b85151c88b2809431079de65ea5211188ba8723164189f010f2effb68fce9b866ec7f77dc6f058a33f3ad85c4dc30403a9ee9c441913b0b75b3fb293f32d49263677b147733908120065858d9a3766d90dfe9dcbb11c89577e0010c32602cb7e8278fda9d7456d8f417e01ec2a872570bb974804f0dde22f4f2abc617b57f819a0cbd4d5c2ba14ff1d4615d006d157fc92956cd4430e4028eea6bf0111020d320740cd31564582a0238a2f72bbf00367fa341a7f7958505c94f477b66a4218588e398c98f2907d518e75894d7402e03c0182f96fcb3abf5dafd4d480af0068fd1d3400000000001ae101faedac5851e32b9b23b5f9411a8c2bac4aae3ed4dd7b811dd1a72ea4aa710000000009e7f29c014155575600000000000ef5939a00002710ad083bab299392e05b129c1a7a35a548b10ea9f401005500ff61491a931112ddf1bd8147cd1b641375f79f5825126d665480874634fd0ace0000005c217050800000000008b06084fffffff80000000068fd1d340000000068fd1d330000005bcd68c7600000000007b520ca0daee5815bea917169399300f75d79706cbf8fa64cd84eb199eeec931bf47b42d3873f3470fc6bc12a88cb8dd47648f7771c6fd4bd9ffd43ad50e532719c359eddf119a725f93ee7d783c5c8077c8e81cd7163d717fff6e26a0d3fb4d4670fb4a60ff465ded23820d1fd60896ebd3101095883114c96ba231c2e19e6bad063b745fb85d1d884a087d3a4ec25db22d63962c9601d1da323cdb895a6235ce7732d21a89febbc0e8227aadfd419ca1407976a3f1b9baa275690a733c1dbcb0806c09524e92f542176ca0c47f826334cef8b431999c323a856274a6e7df0ab0b77861538c639bb5207fc6921f8f6b1ff8fb979761df677777808af21e49bc2aba5d6af7e485709]"
      ],
      "transaction": {
        "from": "0xdafe44ce6933ba24459453fe20f40d55a454a07f",
        "to": "0x41d897084fd42d0509f752954fecf48c62307b3f",
        "gas": "0x78d6e",
        "value": "0xa",
        "input": "0x5236017200000000000000000000000042000000000000000000000000000000000000060000000000000000000000005fe161a97511aa3c185cbffdcf281fd510411343000000000000000000000000000000000000000000000000002386f26fc100000000000000000000000000000000000000000000000000000000000000000000000000000000000000000000000000000000000000000000000000000000000000000000000000000000000000000000000000000000000000000000000000c000000000000000000000000000000000000000000000000000000000000000010000000000000000000000000000000000000000000000000000000000000020000000000000000000000000000000000000000000000000000000000000051f504e41550100000003b801000000040d004302c7a70257817f02d4051a980997a34b3f2ae01bae6f174718d84a9fb79540744982fb011af66d955ef3646d40215aa3cabf9458599c6aab3298ab3f522d540102365e65669e45629acfa45d8f0afcf17372d1d65c04828b41d068e6500a06110e03977f00ffdd53d100a8e052644d68b68f67d42f63fa58c02c945a22d5aad14a01033661f1091077e216595b9934e649455b63030bd1d539e2bd3a7a0d0b2ee616b0287a2c7575f4318e6188edfb581c1ae88b61d43d1cf14bce288116a45f3ef9b10004c58ffa6e866e720dd6c9728b1f9a49764c67bf87d5f6f771fe7064266ba5ee755224c9144f10987abba1b2f815710f4ce1733c2ff1ee4d253ea9976f161b921a0108b3c44281742d6af15e139ecfcdb761e3767b835f207ff9c4599331395ef3c1d8597331ee2c2615a3884ed9ece4419aa709836e93fddb8cfc0f00b0d12dd828a3010ade7cc0e90bdeb83100dc4747882eaa505d12aa8cd8ded9bc915ae40e30d85fd558117a59696ef4a7845368130dd923d71d9bdb8a19e3431c3bebe95a0ef670d6010b2a635125069ccaaa0374a1ac863a77b426650623b9138371b560cb8fafbda8553637c89e75bf8b08a82cc78ddf8fdd6aa5586e28837ca7e53a0f16842535fb7e010c7ce2bbadf7ba81598b6bf308dce71d588533920e352024f452c3ffb0bfd5be873b072c122e3b673fa1e1f9d370e190c6ae641c16025b1a8e9ecaf76b1bf779cf000d605c69b53cb7a98b645c9ddf3e984047afebc3bb5a799ea46a87f5a55cc6ccd77aa01fd08251c07f8e0543646047c35b0f78146772366f1b398191ae9414e515000e2d97a472dd99ca45d66175657ab2e21a10b0ad250681cc16331b2d4d037050e20e0ebeac7d1a03d358b85151c88b2809431079de65ea5211188ba8723164189f010f2effb68fce9b866ec7f77dc6f058a33f3ad85c4dc30403a9ee9c441913b0b75b3fb293f32d49263677b147733908120065858d9a3766d90dfe9dcbb11c89577e0010c32602cb7e8278fda9d7456d8f417e01ec2a872570bb974804f0dde22f4f2abc617b57f819a0cbd4d5c2ba14ff1d4615d006d157fc92956cd4430e4028eea6bf0111020d320740cd31564582a0238a2f72bbf00367fa341a7f7958505c94f477b66a4218588e398c98f2907d518e75894d7402e03c0182f96fcb3abf5dafd4d480af0068fd1d3400000000001ae101faedac5851e32b9b23b5f9411a8c2bac4aae3ed4dd7b811dd1a72ea4aa710000000009e7f29c014155575600000000000ef5939a00002710ad083bab299392e05b129c1a7a35a548b10ea9f401005500ff61491a931112ddf1bd8147cd1b641375f79f5825126d665480874634fd0ace0000005c217050800000000008b06084fffffff80000000068fd1d340000000068fd1d330000005bcd68c7600000000007b520ca0daee5815bea917169399300f75d79706cbf8fa64cd84eb199eeec931bf47b42d3873f3470fc6bc12a88cb8dd47648f7771c6fd4bd9ffd43ad50e532719c359eddf119a725f93ee7d783c5c8077c8e81cd7163d717fff6e26a0d3fb4d4670fb4a60ff465ded23820d1fd60896ebd3101095883114c96ba231c2e19e6bad063b745fb85d1d884a087d3a4ec25db22d63962c9601d1da323cdb895a6235ce7732d21a89febbc0e8227aadfd419ca1407976a3f1b9baa275690a733c1dbcb0806c09524e92f542176ca0c47f826334cef8b431999c323a856274a6e7df0ab0b77861538c639bb5207fc6921f8f6b1ff8fb979761df677777808af21e49bc2aba5d6af7e48570900",
        "nonce": "0x94",
        "chainId": "0x14a34"
      },
      "additionalContracts": [],
      "isFixedGasLimit": false
    },
    {
      "hash": "0xbbdf202ffa4a059632e48b739d04e6a9985c0d731603fc8a5e240ea3cf2041b5",
      "transactionType": "CALL",
      "contractName": null,
      "contractAddress": "0x41d897084fd42d0509f752954fecf48c62307b3f",
      "function": "createOrder(address,address,uint256,uint256,uint256,bytes[])",
      "arguments": [
        "0x4200000000000000000000000000000000000006",
        "0x5Fe161a97511aa3C185cBfFDCf281Fd510411343",
        "10000000000000000",
        "0",
        "0",
        "[0x504e41550100000003b801000000040d00384734667423cbd6353910e6dd1ac54fd83c105be0da90a42119948b85ed788756072df23f0f985fd917cef262238c9d0a556e5bef440b78aba2a61926b109b00003c5121696c56be6dc88272a22488afee76205379f73f62cdc20f0e6a4f839217e5ab08fad14b13007ae6f151b3c8794ff825d67fee6dceddc6fce8e612ff86ba9010459f8ab1ce0a95c74e325935dfaa096bb93df8a4275c197843acb35c3b3f6232531fd59d18b6d882998d306f894bcf6c59d85f12df366da86a521587987a1f06e00061b244dc5f21161fd09ec833a938fc87ac1586284e14dce0333c4f69de50ceca2534d2025b55bb9a6fe7ae73bca5d1f2dd6aeb8b25f517e83ff6aff3e302c631e0008bcf0d517ca06d9e20cc2f7c87de718571d5633b59fc955aa4249fbd5591c95c321c3274296b72dc2d6a851c2e2169d09a85de9e7ae03ea6ef823ca9cad8a91ef000afd76411f409359ed91887abb5bd563074d2c69faf959f4a61e60e5595e6a8be650cfbaca551ccb65177cb3f6433e0b679f14c2eb36361748ee458a8fc54688d0000b6b5838205d31e4c6ca6454a66da329275e9db2b18e346504613e0cc9dc01052e5bb51e247545d36371b17a3cc13ea1fdb0240b758d3fae08b482dbfaea2025f0000cf522ba550b692d078877cf3e9edc67ca0ac24492602b40b733e35466d83f26e944754464c3108ff21e92e0c354ba33c86109accb69c75e8c52af17ee765083d0010ddefe0051dfaccdc459bd2fcaa0b5adde40adb66b66a76acbe20139630732125840cf301d46d0f44133c58c0b0682e8d5562b26c9ea89369317cc1ae872d2a4d8000e2141b39ad5115c41e1b2c8dac0df3e512f704c46c3af8a5f05d5a99e070cfdfb089439a24ade18c88834c03e3cff51c16a4a9f53567f60af36e881df01af80d4010f340458ceabce636febe515789d81922a889915a72242d8eacbaa6509990f888033fd0fb8242dc203efea8aaee3d6a63cb1a78f10cc1c4e62edd82a5fc6a2ccea00100ff43610a976d553910dca4dcd9bfada2617045161e4f13a130160cd902e68795e726d791898e7646496666153d7832f74b4a8c54e8f7f2b3b4f22251e73c3ca011126233b4a7a94c9febcfb89e71ed74ae26106bf11aa2a5fa3cf0c9b82e10c7aa33087f213dc37efa1c2102f94b20e4c04e4ea2bc856fe4452ff5fc832eca582350168fd1d3600000000001ae101faedac5851e32b9b23b5f9411a8c2bac4aae3ed4dd7b811dd1a72ea4aa710000000009e7f2a1014155575600000000000ef5939f000027108e1dada41ff92ed9c4c4a8c0b8b2060f42b6f33d01005500ff61491a931112ddf1bd8147cd1b641375f79f5825126d665480874634fd0ace0000005c2145ab840000000009b35d23fffffff80000000068fd1d360000000068fd1d360000005bcd7439100000000007b540350daee5815bea917169399300f75d79706cbf8fa64cd84eb199eeec931bf47b42d3873f3470fc6bc12ad61ea18cd0748b373d66b9e35a6ca249c62bf6306cf4022e6fd8614dbcf28a20f0c6e66d7ff6ce59b8f7ccdbc4ca7cd830b4ef4927c23564c95ce39b8951cb44db0de07ae72c4e1242dcbe6406a8bd45ecc9266da8875f5a852a650731b21df6489be9135f45e790ecbfd329ada7a6513348254e79bd661ffa580f6d1251c5e0d1b5c15196dc1ba7d09e1310fb498d7af616a0fdaf1b3cc0927cae57483f64c5c8ea952fbc95c2f7b36a15d5ec7519f3fa72de6a7faa75109aff0569d6cf6575072ba805a275a537833572edaadd941cc7c6c5cb8965808fbef0536e]"
      ],
      "transaction": {
        "from": "0xdafe44ce6933ba24459453fe20f40d55a454a07f",
        "to": "0x41d897084fd42d0509f752954fecf48c62307b3f",
        "gas": "0x78d59",
        "value": "0xa",
        "input": "0x5236017200000000000000000000000042000000000000000000000000000000000000060000000000000000000000005fe161a97511aa3c185cbffdcf281fd510411343000000000000000000000000000000000000000000000000002386f26fc100000000000000000000000000000000000000000000000000000000000000000000000000000000000000000000000000000000000000000000000000000000000000000000000000000000000000000000000000000000000000000000000000c000000000000000000000000000000000000000000000000000000000000000010000000000000000000000000000000000000000000000000000000000000020000000000000000000000000000000000000000000000000000000000000051f504e41550100000003b801000000040d00384734667423cbd6353910e6dd1ac54fd83c105be0da90a42119948b85ed788756072df23f0f985fd917cef262238c9d0a556e5bef440b78aba2a61926b109b00003c5121696c56be6dc88272a22488afee76205379f73f62cdc20f0e6a4f839217e5ab08fad14b13007ae6f151b3c8794ff825d67fee6dceddc6fce8e612ff86ba9010459f8ab1ce0a95c74e325935dfaa096bb93df8a4275c197843acb35c3b3f6232531fd59d18b6d882998d306f894bcf6c59d85f12df366da86a521587987a1f06e00061b244dc5f21161fd09ec833a938fc87ac1586284e14dce0333c4f69de50ceca2534d2025b55bb9a6fe7ae73bca5d1f2dd6aeb8b25f517e83ff6aff3e302c631e0008bcf0d517ca06d9e20cc2f7c87de718571d5633b59fc955aa4249fbd5591c95c321c3274296b72dc2d6a851c2e2169d09a85de9e7ae03ea6ef823ca9cad8a91ef000afd76411f409359ed91887abb5bd563074d2c69faf959f4a61e60e5595e6a8be650cfbaca551ccb65177cb3f6433e0b679f14c2eb36361748ee458a8fc54688d0000b6b5838205d31e4c6ca6454a66da329275e9db2b18e346504613e0cc9dc01052e5bb51e247545d36371b17a3cc13ea1fdb0240b758d3fae08b482dbfaea2025f0000cf522ba550b692d078877cf3e9edc67ca0ac24492602b40b733e35466d83f26e944754464c3108ff21e92e0c354ba33c86109accb69c75e8c52af17ee765083d0010ddefe0051dfaccdc459bd2fcaa0b5adde40adb66b66a76acbe20139630732125840cf301d46d0f44133c58c0b0682e8d5562b26c9ea89369317cc1ae872d2a4d8000e2141b39ad5115c41e1b2c8dac0df3e512f704c46c3af8a5f05d5a99e070cfdfb089439a24ade18c88834c03e3cff51c16a4a9f53567f60af36e881df01af80d4010f340458ceabce636febe515789d81922a889915a72242d8eacbaa6509990f888033fd0fb8242dc203efea8aaee3d6a63cb1a78f10cc1c4e62edd82a5fc6a2ccea00100ff43610a976d553910dca4dcd9bfada2617045161e4f13a130160cd902e68795e726d791898e7646496666153d7832f74b4a8c54e8f7f2b3b4f22251e73c3ca011126233b4a7a94c9febcfb89e71ed74ae26106bf11aa2a5fa3cf0c9b82e10c7aa33087f213dc37efa1c2102f94b20e4c04e4ea2bc856fe4452ff5fc832eca582350168fd1d3600000000001ae101faedac5851e32b9b23b5f9411a8c2bac4aae3ed4dd7b811dd1a72ea4aa710000000009e7f2a1014155575600000000000ef5939f000027108e1dada41ff92ed9c4c4a8c0b8b2060f42b6f33d01005500ff61491a931112ddf1bd8147cd1b641375f79f5825126d665480874634fd0ace0000005c2145ab840000000009b35d23fffffff80000000068fd1d360000000068fd1d360000005bcd7439100000000007b540350daee5815bea917169399300f75d79706cbf8fa64cd84eb199eeec931bf47b42d3873f3470fc6bc12ad61ea18cd0748b373d66b9e35a6ca249c62bf6306cf4022e6fd8614dbcf28a20f0c6e66d7ff6ce59b8f7ccdbc4ca7cd830b4ef4927c23564c95ce39b8951cb44db0de07ae72c4e1242dcbe6406a8bd45ecc9266da8875f5a852a650731b21df6489be9135f45e790ecbfd329ada7a6513348254e79bd661ffa580f6d1251c5e0d1b5c15196dc1ba7d09e1310fb498d7af616a0fdaf1b3cc0927cae57483f64c5c8ea952fbc95c2f7b36a15d5ec7519f3fa72de6a7faa75109aff0569d6cf6575072ba805a275a537833572edaadd941cc7c6c5cb8965808fbef0536e00",
        "nonce": "0x95",
        "chainId": "0x14a34"
      },
      "additionalContracts": [],
      "isFixedGasLimit": false
    },
    {
      "hash": "0xd1819d5b417770b159e97530723d5443ffd1381e37a4d15e5a56b1e2a7c05cc3",
      "transactionType": "CALL",
      "contractName": null,
      "contractAddress": "0x41d897084fd42d0509f752954fecf48c62307b3f",
      "function": "createOrder(address,address,uint256,uint256,uint256,bytes[])",
      "arguments": [
        "0x4200000000000000000000000000000000000006",
        "0x5Fe161a97511aa3C185cBfFDCf281Fd510411343",
        "10000000000000000",
        "0",
        "0",
        "[0x504e41550100000003b801000000040d00326da023bb315fb6b099494056aede59d2fbd46e9e2500a20816b99c2013310f24b13456fef803de7f98f9342a5ae32e76c5d58d9e8014a479b77ac5964cc51b0003706ab8da09318b3eb96a55e7c0b13d8d3b32ed1f5a4dc9a5ec53241f668160fc37b4436195d33c926dd4c24bb3aa9fdfb65ab7e4f1549abbdd617341e7dd34510104a61c1768216e91395d48f192e46495b4f43f9ec4e34733f8c38c7b8738e631d02d58ce9b25c434f740572c3e4a9fa3f9068817e88fc6c66e69e216bf57ddc13001062b277f7b1b0434d5e3558cfd138a58b9c9d44bb460b83e84b4efe502fd58efa82f67613a3c6904b281bb43ec1ff50a81d05284ea6599b1c0b4a67ae19c39e58601080b54c8cfe16a0440d666d6673e971f494f6e55c814d019009bdd836524bb9c5a249073ee27542ead424f2dfac3a3b57a6b7ccdc65ff5e920197dc58a52780760000a325928fc35909cb4788d3e6be20114faf3db0087c238fa9676c88b7a7cdedf14737374a9a49e44c969b7a3bb7bcee9d298b11e62fe61e6d4bdaecb9c8a420188010b257dbefe095800681ae6dce228cdada7ea2ef598209cdf4049664a5edfa323991a265ac7574086bf7157147e53ac0355b0266b843f2a7e1930d87ac281acadc8000c8d21353dc25ebaf1d1ed5b2ba286694ddc0eff89045448de2c896eec79417e7d139e73910b77bd6ba6f52bf907a7c13f7619c498105c980e6a45db85342b0f8c000df1f9ea397e1692d63c26c61368394e2fc3e3c3c66994d4720dc3d6a33dccbc6908a433d318fd7b301d9599216b87229b9a298d5cf5999494167a1de82d6611fa010e606d9cb4326136ce54575280430d3a73e6ac9e7b636cdbe0fc246b99a66effc7191adba20b21a8832b9ea7e20fc09cd6a80ed41e26122965ce68c10cbee69d2a010f28197bf7a9f2a3015ef29e1fe7f396f4e2e501d638e6ee365b1dbefc8634dccd48457b3c9626998d01d8ff5a43f4ee9d6cfd36011209a50beb0cf85af77123950110ff7f68d69de6e43c7cf905a29ccc7a2c95c09328914a1893fc270fd49e0d358c09a2dfddf8da15a31a66a4ff288d948c7b48be012773b48772bc95c5da6e63080111317e601f732be16a02f964bdce676654588e8cb5f1f9a84d5bd3c8ad741db7c2731e198c9de9c4b1732b41708f6dcb384495d1f6371dace8beef4466c4af5cd90068fd1d3800000000001ae101faedac5851e32b9b23b5f9411a8c2bac4aae3ed4dd7b811dd1a72ea4aa710000000009e7f2a5014155575600000000000ef593a300002710174a729255ffbaf1acc9d7b9f260690ede92c06701005500ff61491a931112ddf1bd8147cd1b641375f79f5825126d665480874634fd0ace0000005c20b93580000000000a01393bfffffff80000000068fd1d380000000068fd1d370000005bcd7ceba00000000007b5660b0daee5815bea917169399300f75d79706cbf8fa64cd84eb199eeec931bf47b42d3873f3470fc6bc12a2fac5587835f44a368ee62401a8357b2fd66ae4ed0b362221ef128f9e82b36cf519c436ef75ca085d1f30f35e4558fdb5209dd3679d9bff0b20924ea62eb59dbc11dfeb73618353818dd6367492a66940f4022ab52725a5d047a56fb8e643bae3392161202c927c4cd4c1714ef8116404432a85ae49c3b4d973e9842da6985465ba7967234759755b60682df9067cb6bba0ad74942bf0b99b365f1398d416aaa7f494d4b3e6a0c1d62bd476e1044ef6233f765e4bb9ee94dded42d280366a2ffa9b453e6f9d13939d0a87b40e2a4eb724c01d6c2fd180a3fc73f1f77]"
      ],
      "transaction": {
        "from": "0xdafe44ce6933ba24459453fe20f40d55a454a07f",
        "to": "0x41d897084fd42d0509f752954fecf48c62307b3f",
        "gas": "0x78d59",
        "value": "0xa",
        "input": "0x5236017200000000000000000000000042000000000000000000000000000000000000060000000000000000000000005fe161a97511aa3c185cbffdcf281fd510411343000000000000000000000000000000000000000000000000002386f26fc100000000000000000000000000000000000000000000000000000000000000000000000000000000000000000000000000000000000000000000000000000000000000000000000000000000000000000000000000000000000000000000000000c000000000000000000000000000000000000000000000000000000000000000010000000000000000000000000000000000000000000000000000000000000020000000000000000000000000000000000000000000000000000000000000051f504e41550100000003b801000000040d00326da023bb315fb6b099494056aede59d2fbd46e9e2500a20816b99c2013310f24b13456fef803de7f98f9342a5ae32e76c5d58d9e8014a479b77ac5964cc51b0003706ab8da09318b3eb96a55e7c0b13d8d3b32ed1f5a4dc9a5ec53241f668160fc37b4436195d33c926dd4c24bb3aa9fdfb65ab7e4f1549abbdd617341e7dd34510104a61c1768216e91395d48f192e46495b4f43f9ec4e34733f8c38c7b8738e631d02d58ce9b25c434f740572c3e4a9fa3f9068817e88fc6c66e69e216bf57ddc13001062b277f7b1b0434d5e3558cfd138a58b9c9d44bb460b83e84b4efe502fd58efa82f67613a3c6904b281bb43ec1ff50a81d05284ea6599b1c0b4a67ae19c39e58601080b54c8cfe16a0440d666d6673e971f494f6e55c814d019009bdd836524bb9c5a249073ee27542ead424f2dfac3a3b57a6b7ccdc65ff5e920197dc58a52780760000a325928fc35909cb4788d3e6be20114faf3db0087c238fa9676c88b7a7cdedf14737374a9a49e44c969b7a3bb7bcee9d298b11e62fe61e6d4bdaecb9c8a420188010b257dbefe095800681ae6dce228cdada7ea2ef598209cdf4049664a5edfa323991a265ac7574086bf7157147e53ac0355b0266b843f2a7e1930d87ac281acadc8000c8d21353dc25ebaf1d1ed5b2ba286694ddc0eff89045448de2c896eec79417e7d139e73910b77bd6ba6f52bf907a7c13f7619c498105c980e6a45db85342b0f8c000df1f9ea397e1692d63c26c61368394e2fc3e3c3c66994d4720dc3d6a33dccbc6908a433d318fd7b301d9599216b87229b9a298d5cf5999494167a1de82d6611fa010e606d9cb4326136ce54575280430d3a73e6ac9e7b636cdbe0fc246b99a66effc7191adba20b21a8832b9ea7e20fc09cd6a80ed41e26122965ce68c10cbee69d2a010f28197bf7a9f2a3015ef29e1fe7f396f4e2e501d638e6ee365b1dbefc8634dccd48457b3c9626998d01d8ff5a43f4ee9d6cfd36011209a50beb0cf85af77123950110ff7f68d69de6e43c7cf905a29ccc7a2c95c09328914a1893fc270fd49e0d358c09a2dfddf8da15a31a66a4ff288d948c7b48be012773b48772bc95c5da6e63080111317e601f732be16a02f964bdce676654588e8cb5f1f9a84d5bd3c8ad741db7c2731e198c9de9c4b1732b41708f6dcb384495d1f6371dace8beef4466c4af5cd90068fd1d3800000000001ae101faedac5851e32b9b23b5f9411a8c2bac4aae3ed4dd7b811dd1a72ea4aa710000000009e7f2a5014155575600000000000ef593a300002710174a729255ffbaf1acc9d7b9f260690ede92c06701005500ff61491a931112ddf1bd8147cd1b641375f79f5825126d665480874634fd0ace0000005c20b93580000000000a01393bfffffff80000000068fd1d380000000068fd1d370000005bcd7ceba00000000007b5660b0daee5815bea917169399300f75d79706cbf8fa64cd84eb199eeec931bf47b42d3873f3470fc6bc12a2fac5587835f44a368ee62401a8357b2fd66ae4ed0b362221ef128f9e82b36cf519c436ef75ca085d1f30f35e4558fdb5209dd3679d9bff0b20924ea62eb59dbc11dfeb73618353818dd6367492a66940f4022ab52725a5d047a56fb8e643bae3392161202c927c4cd4c1714ef8116404432a85ae49c3b4d973e9842da6985465ba7967234759755b60682df9067cb6bba0ad74942bf0b99b365f1398d416aaa7f494d4b3e6a0c1d62bd476e1044ef6233f765e4bb9ee94dded42d280366a2ffa9b453e6f9d13939d0a87b40e2a4eb724c01d6c2fd180a3fc73f1f7700",
        "nonce": "0x96",
        "chainId": "0x14a34"
      },
      "additionalContracts": [],
      "isFixedGasLimit": false
    },
    {
      "hash": "0x9b31523078432191c5ba760d949112b8edb760793c64660a78c13c058b45bcc0",
      "transactionType": "CALL",
      "contractName": null,
      "contractAddress": "0x41d897084fd42d0509f752954fecf48c62307b3f",
      "function": "createOrder(address,address,uint256,uint256,uint256,bytes[])",
      "arguments": [
        "0x4200000000000000000000000000000000000006",
        "0x5Fe161a97511aa3C185cBfFDCf281Fd510411343",
        "10000000000000000",
        "0",
        "0",
        "[0x504e41550100000003b801000000040d008cd42e74fa27d864076cc5a51ca80b34c07596b49c605f527e5519ef78c24e2a529eeb1e23d14590600f59ca4ee8b1d8f1235e0b681e88f844ba133ebaac04a40003b289db8cbb426fd346e64a4694c5bb9c8700164e505c6cd5c97cb41d3d5009bb5bbbe6f572c72edfe46a5f60fb0b09b82b67542b0af3edeea4b75767a68dbc4e00048a196d1ae202617a77395d4843c7146b028073315f81912516f4693fa686615a778b97906b181af6665b8e932230ef401eb345bd51d353bc373c7915609cd83f0006a4a6f373b30c23832b0fe189f6e587db62242fa9839d199c7bb03c3fb8a40110405f02a99c5286856052384984d44399ffbd6fded3102a094e2c30094911bd0400083753435bd72f37920bf902ab28216d99cce10de3ad3a883f2c115a361e76abfa73c2a7d439cfe226cc428905772bae1edc798805bd76384e3ed7e40bed6786a2000ac1aebde4648aff01ffb8b5093ffdbfc971b0d95e446f54ee09398eaa5577fb4134d138753b4236f73e35a07db0fec5b0315fe261e88070268ac220023052dd42000bc4f6fcaf0fef99ee96da8e5559934ae3c4bbe74d3369fbb6348fcfbca288aa024b21c4a154737861443303df28549cbf2b5f8c9dcc2bab4257c43df7cfffab89010c243436f6414dc817c3a3dc15ff74ea57430f95a943a36d33a992d403ea0251966abce53431076716f2729dcfbb175d5ddd12fce3706b500dcbb355075d3d3941010db581613f38a7505d444c01feb32b14d692e36c186fe89fa4720ab85e2d0580fc2fda2507fbcd707539c61d2617d3a0b9eaca3b9c86c2fac1e1a8f01810ea5c86010e5b2c6b0982c1ff86401c1d9fda3bf7ddeaaf18512bb7d0fc5f88b7642df3ed590ba5406c4c5cfef276630793c426404c75cfdd89b71e5a2d4fd64a2419046551000fa174db55d487afc906de01ca0bf693b4723641e1d4c606cbf4bf2888aedf24412089d54862b91de0ebe7e38ab80addff4df079d0f27a1b60055ea6353f662cbd0110446334f7cab9a21462efc55ff1987c196d8267c316444ec68ec0d9255356237c3eb5ef69144bcb1b63d1a0918686f059c4a39c4a7ab7b6016c4777035bd378a401118e84c2dd4ce7d86562d9f52661b3c5891155484f0d00280c070f0c137ce46ed140a83d5f941aa53015fe348012549db87298e8d676e284251da8a5623c3291970068fd1d3a00000000001ae101faedac5851e32b9b23b5f9411a8c2bac4aae3ed4dd7b811dd1a72ea4aa710000000009e7f2aa014155575600000000000ef593a80000271014e0056380b4544a34ed47e4b7f66abab5e2b0f901005500ff61491a931112ddf1bd8147cd1b641375f79f5825126d665480874634fd0ace0000005c209ab1000000000008a4c38cfffffff80000000068fd1d3a0000000068fd1d390000005bcd8947b00000000007b56fd20daee5815bea917169399300f75d79706cbf8fa64cd84eb199eeec931bf47b42d3873f3470fc6bc12a36265dccb04a8438656701b130bd882c748b37f240daefe68323382ed214790c98a71c579f9f1778e9ed07a4d469f86269431216cc7fd33d824403ef2d0ce34ecd39fa7a428ea43587b44600386b3f4f3f21f08909aff7a7a9c9bd217295fabed98667f07d69749fda5be2256befd4653042c3fada809985618141c42aba7c6040cf2f7a1d55d1ce0db6dd461e45eaa2c260d310d39f914ecc1f3f47611c2c5cd937970090c2c979abdcb4b68d3b4d922b2c33226f68363c3aa37dc4a99696e3d04ea953c6043234e466c6884affcac2b33ceab1b3a3e1fd106709c2]"
      ],
      "transaction": {
        "from": "0xdafe44ce6933ba24459453fe20f40d55a454a07f",
        "to": "0x41d897084fd42d0509f752954fecf48c62307b3f",
        "gas": "0x78d17",
        "value": "0xa",
        "input": "0x5236017200000000000000000000000042000000000000000000000000000000000000060000000000000000000000005fe161a97511aa3c185cbffdcf281fd510411343000000000000000000000000000000000000000000000000002386f26fc100000000000000000000000000000000000000000000000000000000000000000000000000000000000000000000000000000000000000000000000000000000000000000000000000000000000000000000000000000000000000000000000000c000000000000000000000000000000000000000000000000000000000000000010000000000000000000000000000000000000000000000000000000000000020000000000000000000000000000000000000000000000000000000000000051f504e41550100000003b801000000040d008cd42e74fa27d864076cc5a51ca80b34c07596b49c605f527e5519ef78c24e2a529eeb1e23d14590600f59ca4ee8b1d8f1235e0b681e88f844ba133ebaac04a40003b289db8cbb426fd346e64a4694c5bb9c8700164e505c6cd5c97cb41d3d5009bb5bbbe6f572c72edfe46a5f60fb0b09b82b67542b0af3edeea4b75767a68dbc4e00048a196d1ae202617a77395d4843c7146b028073315f81912516f4693fa686615a778b97906b181af6665b8e932230ef401eb345bd51d353bc373c7915609cd83f0006a4a6f373b30c23832b0fe189f6e587db62242fa9839d199c7bb03c3fb8a40110405f02a99c5286856052384984d44399ffbd6fded3102a094e2c30094911bd0400083753435bd72f37920bf902ab28216d99cce10de3ad3a883f2c115a361e76abfa73c2a7d439cfe226cc428905772bae1edc798805bd76384e3ed7e40bed6786a2000ac1aebde4648aff01ffb8b5093ffdbfc971b0d95e446f54ee09398eaa5577fb4134d138753b4236f73e35a07db0fec5b0315fe261e88070268ac220023052dd42000bc4f6fcaf0fef99ee96da8e5559934ae3c4bbe74d3369fbb6348fcfbca288aa024b21c4a154737861443303df28549cbf2b5f8c9dcc2bab4257c43df7cfffab89010c243436f6414dc817c3a3dc15ff74ea57430f95a943a36d33a992d403ea0251966abce53431076716f2729dcfbb175d5ddd12fce3706b500dcbb355075d3d3941010db581613f38a7505d444c01feb32b14d692e36c186fe89fa4720ab85e2d0580fc2fda2507fbcd707539c61d2617d3a0b9eaca3b9c86c2fac1e1a8f01810ea5c86010e5b2c6b0982c1ff86401c1d9fda3bf7ddeaaf18512bb7d0fc5f88b7642df3ed590ba5406c4c5cfef276630793c426404c75cfdd89b71e5a2d4fd64a2419046551000fa174db55d487afc906de01ca0bf693b4723641e1d4c606cbf4bf2888aedf24412089d54862b91de0ebe7e38ab80addff4df079d0f27a1b60055ea6353f662cbd0110446334f7cab9a21462efc55ff1987c196d8267c316444ec68ec0d9255356237c3eb5ef69144bcb1b63d1a0918686f059c4a39c4a7ab7b6016c4777035bd378a401118e84c2dd4ce7d86562d9f52661b3c5891155484f0d00280c070f0c137ce46ed140a83d5f941aa53015fe348012549db87298e8d676e284251da8a5623c3291970068fd1d3a00000000001ae101faedac5851e32b9b23b5f9411a8c2bac4aae3ed4dd7b811dd1a72ea4aa710000000009e7f2aa014155575600000000000ef593a80000271014e0056380b4544a34ed47e4b7f66abab5e2b0f901005500ff61491a931112ddf1bd8147cd1b641375f79f5825126d665480874634fd0ace0000005c209ab1000000000008a4c38cfffffff80000000068fd1d3a0000000068fd1d390000005bcd8947b00000000007b56fd20daee5815bea917169399300f75d79706cbf8fa64cd84eb199eeec931bf47b42d3873f3470fc6bc12a36265dccb04a8438656701b130bd882c748b37f240daefe68323382ed214790c98a71c579f9f1778e9ed07a4d469f86269431216cc7fd33d824403ef2d0ce34ecd39fa7a428ea43587b44600386b3f4f3f21f08909aff7a7a9c9bd217295fabed98667f07d69749fda5be2256befd4653042c3fada809985618141c42aba7c6040cf2f7a1d55d1ce0db6dd461e45eaa2c260d310d39f914ecc1f3f47611c2c5cd937970090c2c979abdcb4b68d3b4d922b2c33226f68363c3aa37dc4a99696e3d04ea953c6043234e466c6884affcac2b33ceab1b3a3e1fd106709c200",
        "nonce": "0x97",
        "chainId": "0x14a34"
      },
      "additionalContracts": [],
      "isFixedGasLimit": false
    },
    {
      "hash": "0x3aaa7b347f59dc1293fc579a2e50ae00fc59695a74526c72a5edd262e3700da5",
      "transactionType": "CALL",
      "contractName": null,
      "contractAddress": "0x41d897084fd42d0509f752954fecf48c62307b3f",
      "function": "createOrder(address,address,uint256,uint256,uint256,bytes[])",
      "arguments": [
        "0x4200000000000000000000000000000000000006",
        "0x5Fe161a97511aa3C185cBfFDCf281Fd510411343",
        "10000000000000000",
        "0",
        "0",
        "[0x504e41550100000003b801000000040d00ee27fc237a248e02efc61daa34900c0db88a3438d661335fc4651d42494dc4fb1170b03c2e3874ac384194c52ddb7e89f29b50b41928cca1931b1bc4f6f8f9f401037b115e3ee575bcc352c1f2be6e94bf654cd86d6935a1de0b034e604c5e0f45ab0c1a4a380ed7675afed0df09de6f7c31555e494d763f890faeffc2d071a2255700046a28ae5ecf104feddf1a5395467d7b490f1619c352cd9d5551261eb0ddc369594403060dd205d2d2622a70f4adab082edb4d1c0e8b73912ce947e59472709d1400061729b4f0c9f8084c3694400bf2a0c5c2b2804e3a4c75a51a52e9e13d69965fae174cac03b20aa528cbece2f0a976aa1443539795b6d73e3eb9c3bb78d967bea8010847d64d2885e3447dc4215aba36a952b14c2c92ac33681ac61dd3e33e800ea84d347ef87c6efc23b266072b38a91eefa6e81a78ce55bf8d426e142b5ad03d7119010b73f326d2285fbc261702fba04352b45f82cd9cc6b0e781735abdec3f26f1b49f254d3d1d50a7666908fcd2d568c873545de96e49f72a76271f411d3d69d9320d000cc36e1fd6afdf9202e4414b57b023e9fe3bbf76830d5d8304c2880486819b6071245d155a31e75bd545df62eef6715670028f1594abb9928756e4861a908c38a1000d49fb67b4ec366f82200e9d98f25a4da914c29fde4fc09c1d32e4676c80ff5ba8469f01c41a8b767eac9d83dc4e48a631427d0fd2143fea1602c7bc41e31988f6010ee732ed5b8b482060963ef072e0e8694dcc302eb099e115830b0e861acdf941af1fb779a8c123d389e6220f1b553945af776b3ec8e941af658d1b5b2e987687e5000fb5f753ca77534b839ceaddd44fca5074b1f75693fb40b28b8673fa0bf2b00d872a264b33544d4b8dc2ea9de501252d00a79b6626d83b9e7dc658a318cb829d260010e76d113a1785720d5dcb22301945ecbbfa292c8832de6f2b2ad0d496d9e83ded360d10849e7b4a1fb0f7c59e907538546849fcc65a4e8b448b497013e6d4df520011a1be2845e7342874af0aeade584da10dc77633be16972ea83cc54556e49550e376d15d2afd25c5a80846946fc105a1075f0e3a009c985c1292a9e740c6999a65001297bbb4250d46326a86c324e207dd7c012aa85526d7fba6c536bde1e7d28eaad016018d58a920b93b8cf5e27293048f88efca06c5126cab48539c06bd2864b4580168fd1d3c00000000001ae101faedac5851e32b9b23b5f9411a8c2bac4aae3ed4dd7b811dd1a72ea4aa710000000009e7f2ae014155575600000000000ef593ac00002710b7f69b8f794b794778504918a6249a0163632d1d01005500ff61491a931112ddf1bd8147cd1b641375f79f5825126d665480874634fd0ace0000005c2082f24f000000000a086c5efffffff80000000068fd1d3c0000000068fd1d3b0000005bcd9136f00000000007b5a97f0daee5815bea917169399300f75d79706cbf8fa64cd84eb199eeec931bf47b42d3873f3470fc6bc12a4589f9ce1eaf43de7919e540f88411c117e8793b96b38b4d7d6f7b0cd662364da43e1e94cb218175aa80929661a42964873308ad93259c0b9a5fef525f148cd94d13278b57f858676e3b9f94d234dfc81c933460a1b1ce65c7c0c36770b8207cd8f955e705d0f1a3b8d9642e911370e1380385fe46ccb65028e48420345ad110136c3fb14c8cac8a4e1428e36ac2673221010c72203c663564f3646f58b6707d7dbba8199801da37c9c9d6f0277c49e7cfc5435b77c91c1af34a52233dc6d78354ed1c0738c7130604c4a856b251d663d573adc5501b3790dbc47792]"
      ],
      "transaction": {
        "from": "0xdafe44ce6933ba24459453fe20f40d55a454a07f",
        "to": "0x41d897084fd42d0509f752954fecf48c62307b3f",
        "gas": "0x7ff0e",
        "value": "0xa",
        "input": "0x5236017200000000000000000000000042000000000000000000000000000000000000060000000000000000000000005fe161a97511aa3c185cbffdcf281fd510411343000000000000000000000000000000000000000000000000002386f26fc100000000000000000000000000000000000000000000000000000000000000000000000000000000000000000000000000000000000000000000000000000000000000000000000000000000000000000000000000000000000000000000000000c000000000000000000000000000000000000000000000000000000000000000010000000000000000000000000000000000000000000000000000000000000020000000000000000000000000000000000000000000000000000000000000051f504e41550100000003b801000000040d00ee27fc237a248e02efc61daa34900c0db88a3438d661335fc4651d42494dc4fb1170b03c2e3874ac384194c52ddb7e89f29b50b41928cca1931b1bc4f6f8f9f401037b115e3ee575bcc352c1f2be6e94bf654cd86d6935a1de0b034e604c5e0f45ab0c1a4a380ed7675afed0df09de6f7c31555e494d763f890faeffc2d071a2255700046a28ae5ecf104feddf1a5395467d7b490f1619c352cd9d5551261eb0ddc369594403060dd205d2d2622a70f4adab082edb4d1c0e8b73912ce947e59472709d1400061729b4f0c9f8084c3694400bf2a0c5c2b2804e3a4c75a51a52e9e13d69965fae174cac03b20aa528cbece2f0a976aa1443539795b6d73e3eb9c3bb78d967bea8010847d64d2885e3447dc4215aba36a952b14c2c92ac33681ac61dd3e33e800ea84d347ef87c6efc23b266072b38a91eefa6e81a78ce55bf8d426e142b5ad03d7119010b73f326d2285fbc261702fba04352b45f82cd9cc6b0e781735abdec3f26f1b49f254d3d1d50a7666908fcd2d568c873545de96e49f72a76271f411d3d69d9320d000cc36e1fd6afdf9202e4414b57b023e9fe3bbf76830d5d8304c2880486819b6071245d155a31e75bd545df62eef6715670028f1594abb9928756e4861a908c38a1000d49fb67b4ec366f82200e9d98f25a4da914c29fde4fc09c1d32e4676c80ff5ba8469f01c41a8b767eac9d83dc4e48a631427d0fd2143fea1602c7bc41e31988f6010ee732ed5b8b482060963ef072e0e8694dcc302eb099e115830b0e861acdf941af1fb779a8c123d389e6220f1b553945af776b3ec8e941af658d1b5b2e987687e5000fb5f753ca77534b839ceaddd44fca5074b1f75693fb40b28b8673fa0bf2b00d872a264b33544d4b8dc2ea9de501252d00a79b6626d83b9e7dc658a318cb829d260010e76d113a1785720d5dcb22301945ecbbfa292c8832de6f2b2ad0d496d9e83ded360d10849e7b4a1fb0f7c59e907538546849fcc65a4e8b448b497013e6d4df520011a1be2845e7342874af0aeade584da10dc77633be16972ea83cc54556e49550e376d15d2afd25c5a80846946fc105a1075f0e3a009c985c1292a9e740c6999a65001297bbb4250d46326a86c324e207dd7c012aa85526d7fba6c536bde1e7d28eaad016018d58a920b93b8cf5e27293048f88efca06c5126cab48539c06bd2864b4580168fd1d3c00000000001ae101faedac5851e32b9b23b5f9411a8c2bac4aae3ed4dd7b811dd1a72ea4aa710000000009e7f2ae014155575600000000000ef593ac00002710b7f69b8f794b794778504918a6249a0163632d1d01005500ff61491a931112ddf1bd8147cd1b641375f79f5825126d665480874634fd0ace0000005c2082f24f000000000a086c5efffffff80000000068fd1d3c0000000068fd1d3b0000005bcd9136f00000000007b5a97f0daee5815bea917169399300f75d79706cbf8fa64cd84eb199eeec931bf47b42d3873f3470fc6bc12a4589f9ce1eaf43de7919e540f88411c117e8793b96b38b4d7d6f7b0cd662364da43e1e94cb218175aa80929661a42964873308ad93259c0b9a5fef525f148cd94d13278b57f858676e3b9f94d234dfc81c933460a1b1ce65c7c0c36770b8207cd8f955e705d0f1a3b8d9642e911370e1380385fe46ccb65028e48420345ad110136c3fb14c8cac8a4e1428e36ac2673221010c72203c663564f3646f58b6707d7dbba8199801da37c9c9d6f0277c49e7cfc5435b77c91c1af34a52233dc6d78354ed1c0738c7130604c4a856b251d663d573adc5501b3790dbc4779200",
        "nonce": "0x98",
        "chainId": "0x14a34"
      },
      "additionalContracts": [],
      "isFixedGasLimit": false
    },
    {
      "hash": "0x3b9c4fe4c28f73853e5d7826cdfd163507b6fe5a52c187e29c13c1468b14a278",
      "transactionType": "CALL",
      "contractName": null,
      "contractAddress": "0x41d897084fd42d0509f752954fecf48c62307b3f",
      "function": "createOrder(address,address,uint256,uint256,uint256,bytes[])",
      "arguments": [
        "0x4200000000000000000000000000000000000006",
        "0x5Fe161a97511aa3C185cBfFDCf281Fd510411343",
        "10000000000000000",
        "0",
        "0",
        "[0x504e41550100000003b801000000040d0014860967255a07c85f3701b392b9f7d7c22afe607fd1ce827554370db0c6f12701e266293f81c580a204cdf0c397041b49d1ee4a2ddfa2ee637da89763f9903e01031c776e86d245b24214cafd6eea50c00f4a68a57dfa24a4e52fc56f55a2d1136b36ab6051107ac63bb439d630b9e289339f41f0bb02ef9be93dc55342ceff9e980004b121f089a28d454e6586358e549c97a8db46d9cda3417517bb394ee8f50c42284ca56ecb44235a97d88407e07646229bd4c57ac17b274c32c916b0812b522e7201064503faf487aa63cf7248e18ccc623cf2fcb262bb9d24c9087fd5c3924450198827e09e50a38f935d1ce2d8f17b5e7aadd11fe67f51dc7dcb467ce2da8bd80e2a01088258b2ee23e275774fb7736b70753f939b69635dd19fa46789e66ee2151cc7ab7803650d0aea1a9a507df6fff0220ea056c689aafd96280573187d69d1a1f40d010ad159f39f2c800ff0f207b23dfa7ae638bbd0633d9ea3fc5ddd5b0a66c1b84305003f749a81022181a43a41821a92d8f1bc930a9856d5ac20eefcff3d3c2e3f15010b8daa1d37c006fe35ebb89f1b7758222ff648313442ee5b39c0befd6cc3852dc83a70e0c24235dd43c00014219157f431626841e2b9201d25e9ba128f51beda3a010c499613a69f96865a260140a5f86f4ca620c9136b84e52bf06b22f2388a089b4f36044125cd77406ef89141bfca44d20b7ead1b29adad9b0da1217d63f1398321010d473c5c39ee6369b2e6312d811d099a8943aa96ccc6f8eb30cb0d9639e07c97f76283c282d8f0d5cf0fe5945c7f8f58791e230fa71ad46605f7af5ef4adecf05c000e437b5f62186ba606cf1763340b3ea53452d5f929479d11d8e836ea70e895cf0330e55fbcba122040cd3c42c12245020e3cf1fddea4457998c9b8868a194c659e000ff989994bc53c412a694d3c5cd7042f9e0d584c0590bb1310abb31c8d5adf280713ccababd3817a07c9034e99dcdbe3a571caa9f8a0597a711c16c7c42446766d0110a3e7c3e40c1da7662657238989686663da3dc334a481592c808d7b7cd8be65e05d0f6338ad557a7670ed1172417b9535175621c9b6c17ea7da993934c24c7a180111963a458aecd27d84b1372b29e20cbaf0287471bba5a58a031804aea1dbe02974631c34f411a5ca3ecafdb85fcaca534d3617678e7c4f875c5843662e4ee2702c0068fd1d3f00000000001ae101faedac5851e32b9b23b5f9411a8c2bac4aae3ed4dd7b811dd1a72ea4aa710000000009e7f2b6014155575600000000000ef593b40000271065015cb966b447628c1aa362db2c7d88a26165cd01005500ff61491a931112ddf1bd8147cd1b641375f79f5825126d665480874634fd0ace0000005c207d81f3000000000a7221d9fffffff80000000068fd1d3f0000000068fd1d3f0000005bcda115700000000007b610090daee5815bea917169399300f75d79706cbf8fa64cd84eb199eeec931bf47b42d3873f3470fc6bc12a27a2acda6980ec300869db50fd7a860d17ba07f8e02e4e25f41aadf126895f948be69601d488765175a8e1e18e3eaa8f30edf2939b6300070d11fba2811fa8f07afe3c4800de2be54ece701723417d1045195b1a1ad225f797ccfbd94a26ec5fa1d5b9b8624301582d1ddc50fef3f3889f14340bac7a628ed6dda68277757446f647e351538bd6e9b34b6995df2378d081e62e5f4a54f82b63fc75fa8113c03f7f3fa7ec3cc7c8a61ac90bf071ec9a61be71226bf292bcab3840e408fb66069d320bdf6a53412b6d6c00069726d094216a27b3e33ca58992b1dd8f91]"
      ],
      "transaction": {
        "from": "0xdafe44ce6933ba24459453fe20f40d55a454a07f",
        "to": "0x41d897084fd42d0509f752954fecf48c62307b3f",
        "gas": "0x78d40",
        "value": "0xa",
        "input": "0x5236017200000000000000000000000042000000000000000000000000000000000000060000000000000000000000005fe161a97511aa3c185cbffdcf281fd510411343000000000000000000000000000000000000000000000000002386f26fc100000000000000000000000000000000000000000000000000000000000000000000000000000000000000000000000000000000000000000000000000000000000000000000000000000000000000000000000000000000000000000000000000c000000000000000000000000000000000000000000000000000000000000000010000000000000000000000000000000000000000000000000000000000000020000000000000000000000000000000000000000000000000000000000000051f504e41550100000003b801000000040d0014860967255a07c85f3701b392b9f7d7c22afe607fd1ce827554370db0c6f12701e266293f81c580a204cdf0c397041b49d1ee4a2ddfa2ee637da89763f9903e01031c776e86d245b24214cafd6eea50c00f4a68a57dfa24a4e52fc56f55a2d1136b36ab6051107ac63bb439d630b9e289339f41f0bb02ef9be93dc55342ceff9e980004b121f089a28d454e6586358e549c97a8db46d9cda3417517bb394ee8f50c42284ca56ecb44235a97d88407e07646229bd4c57ac17b274c32c916b0812b522e7201064503faf487aa63cf7248e18ccc623cf2fcb262bb9d24c9087fd5c3924450198827e09e50a38f935d1ce2d8f17b5e7aadd11fe67f51dc7dcb467ce2da8bd80e2a01088258b2ee23e275774fb7736b70753f939b69635dd19fa46789e66ee2151cc7ab7803650d0aea1a9a507df6fff0220ea056c689aafd96280573187d69d1a1f40d010ad159f39f2c800ff0f207b23dfa7ae638bbd0633d9ea3fc5ddd5b0a66c1b84305003f749a81022181a43a41821a92d8f1bc930a9856d5ac20eefcff3d3c2e3f15010b8daa1d37c006fe35ebb89f1b7758222ff648313442ee5b39c0befd6cc3852dc83a70e0c24235dd43c00014219157f431626841e2b9201d25e9ba128f51beda3a010c499613a69f96865a260140a5f86f4ca620c9136b84e52bf06b22f2388a089b4f36044125cd77406ef89141bfca44d20b7ead1b29adad9b0da1217d63f1398321010d473c5c39ee6369b2e6312d811d099a8943aa96ccc6f8eb30cb0d9639e07c97f76283c282d8f0d5cf0fe5945c7f8f58791e230fa71ad46605f7af5ef4adecf05c000e437b5f62186ba606cf1763340b3ea53452d5f929479d11d8e836ea70e895cf0330e55fbcba122040cd3c42c12245020e3cf1fddea4457998c9b8868a194c659e000ff989994bc53c412a694d3c5cd7042f9e0d584c0590bb1310abb31c8d5adf280713ccababd3817a07c9034e99dcdbe3a571caa9f8a0597a711c16c7c42446766d0110a3e7c3e40c1da7662657238989686663da3dc334a481592c808d7b7cd8be65e05d0f6338ad557a7670ed1172417b9535175621c9b6c17ea7da993934c24c7a180111963a458aecd27d84b1372b29e20cbaf0287471bba5a58a031804aea1dbe02974631c34f411a5ca3ecafdb85fcaca534d3617678e7c4f875c5843662e4ee2702c0068fd1d3f00000000001ae101faedac5851e32b9b23b5f9411a8c2bac4aae3ed4dd7b811dd1a72ea4aa710000000009e7f2b6014155575600000000000ef593b40000271065015cb966b447628c1aa362db2c7d88a26165cd01005500ff61491a931112ddf1bd8147cd1b641375f79f5825126d665480874634fd0ace0000005c207d81f3000000000a7221d9fffffff80000000068fd1d3f0000000068fd1d3f0000005bcda115700000000007b610090daee5815bea917169399300f75d79706cbf8fa64cd84eb199eeec931bf47b42d3873f3470fc6bc12a27a2acda6980ec300869db50fd7a860d17ba07f8e02e4e25f41aadf126895f948be69601d488765175a8e1e18e3eaa8f30edf2939b6300070d11fba2811fa8f07afe3c4800de2be54ece701723417d1045195b1a1ad225f797ccfbd94a26ec5fa1d5b9b8624301582d1ddc50fef3f3889f14340bac7a628ed6dda68277757446f647e351538bd6e9b34b6995df2378d081e62e5f4a54f82b63fc75fa8113c03f7f3fa7ec3cc7c8a61ac90bf071ec9a61be71226bf292bcab3840e408fb66069d320bdf6a53412b6d6c00069726d094216a27b3e33ca58992b1dd8f9100",
        "nonce": "0x99",
        "chainId": "0x14a34"
      },
      "additionalContracts": [],
      "isFixedGasLimit": false
    },
    {
      "hash": "0x233eb6d23c129142fbae8a527ff3febbfd80bdec882355bac75e408a33f54783",
      "transactionType": "CALL",
      "contractName": null,
      "contractAddress": "0x41d897084fd42d0509f752954fecf48c62307b3f",
      "function": "createOrder(address,address,uint256,uint256,uint256,bytes[])",
      "arguments": [
        "0x4200000000000000000000000000000000000006",
        "0x5Fe161a97511aa3C185cBfFDCf281Fd510411343",
        "10000000000000000",
        "0",
        "0",
        "[0x504e41550100000003b801000000040d004f5c85c122de7d51b39d53d860d16347f8d9dddc5ae2fd386bac86a98f173a36080658a49d6b0e45105468a591d763fa6ec11040feef377da0ad2374cdc763d00003fcd84c0e6e2567f434143424e9b1ce461f398d4e574e479666cd6f646dcd45372a72230d0e65d687f83668026e1230c37f3d1380f30c2a5b9ef8b7769d902bdd0004da96423831a734443b39c055353ab72bf6b3fbd4bf66396515b76691f05c0d674ba2484ba4b010fa5fe8e6a3dbdd93605124f51ea16b1c8499e546b30d0307e0000640ff43bb45e885976ba9d00943d995c3d34ebbc9a1ee0b267fc8df6eb9c0eb071c0b749084c2751b8e59832cf41f5128376fac041360eb5997c7ba3c3581230100084d1da7861943d61ce9577c1c1ed8770f7f7f765e975545b6070e7961f554faba5985437827c40f7b43beb216c5e1df6191266524cc332055b2b0342a6996fda60009c5f394450f6853c879e71709109ead4ace44c2b429e6fd6e5cbfc244bde1c8ba18c52583b366c19b4db6b8d30eaf5cb940782c03e5dc3726d3232a951f997b52010ae39e2aef5c1618adc2c56789630d1eb9f5ab35cd5be87f95d111013f75adec347dbd045ec61e1feb05d28744845f55adc2bb11bb01dcb7d49a0f9343789c9e8a000b95b610e1779e0f5e6ef6ce3761fe6c98ddfbba85e279fa7fcce130192bd22edc2083fa9b34f749e179eabc11058ef25a49ea2580ae47b39b347ebc8e74d6a616000cb73f837d1bcbf375a52cb90f195bc9f33a4e192b70bdc7bdca7be6b0607293b86d22e81ef22c9f0c9400882456c4292273d49c20158d4230050139da4bc48be0000db2a673e66adcd685c7e1a0930e127516e3b9202516efc139d7f0cf2f1455b5c03f55ab7c74d275e8bbb3a7754416e9cdfd3ff4b5cde923f026dd56208264bbc2010f3e517b9bb43a578102b907b5ea1e1752b5e338e65482d42dd6b5aedcf1570b20269ce69e1788a1e99a8138c4dce26ccb2336b4309067d544c5a8a58113a5bfa300108034015f1066c82aaa6a0af816507eeaa8525eb08a962ba69a085c6b296afb3a731eef530dfc0335ce095d532aa376cf4789f7207cdae20a7cf2cc9ed3dc0c1a01115ec770bce7f186de34edc447b661bb6fe0bc034b122cbe021113ac42e936351a291d45c3a6f0b5a5a0d91270aba658c52dfee990c20d79a51966e10727f0a7420068fd1d4100000000001ae101faedac5851e32b9b23b5f9411a8c2bac4aae3ed4dd7b811dd1a72ea4aa710000000009e7f2ba014155575600000000000ef593b8000027102332ca646a5e45dc6855df98c08a86cd35db7ff301005500ff61491a931112ddf1bd8147cd1b641375f79f5825126d665480874634fd0ace0000005c20ab48b300000000094b8b04fffffff80000000068fd1d410000000068fd1d400000005bcda979e00000000007b63e820daee5815bea917169399300f75d79706cbf8fa64cd84eb199eeec931bf47b42d3873f3470fc6bc12a01d2af3b95e5c25696b9ad7e6c905496196a455b67659153441963cf7940fd1ed3ba7ed5b9df8beeb4751fca60978df32cbb9693318a564ed0c887ca30f2b29e4e273b7c867f324a436f33d287509edd41ab186f76eec86603d4d77c7e53879ec5ae4c014632083833e06d0de8782867343fb2194b99074f2f22bee00bea665fa1438e6d3a334675c5d5ca44e8a63286898c656e1525a47d2dfb5fada4cc2b4b33815f0171f4d6b54e8060d203c502fbe9247e8364e535449f81e75931f63b521cfccbee19d5115c627e0f1d6a055bfb66212825514b63fd5cea95fb]"
      ],
      "transaction": {
        "from": "0xdafe44ce6933ba24459453fe20f40d55a454a07f",
        "to": "0x41d897084fd42d0509f752954fecf48c62307b3f",
        "gas": "0x78d37",
        "value": "0xa",
        "input": "0x5236017200000000000000000000000042000000000000000000000000000000000000060000000000000000000000005fe161a97511aa3c185cbffdcf281fd510411343000000000000000000000000000000000000000000000000002386f26fc100000000000000000000000000000000000000000000000000000000000000000000000000000000000000000000000000000000000000000000000000000000000000000000000000000000000000000000000000000000000000000000000000c000000000000000000000000000000000000000000000000000000000000000010000000000000000000000000000000000000000000000000000000000000020000000000000000000000000000000000000000000000000000000000000051f504e41550100000003b801000000040d004f5c85c122de7d51b39d53d860d16347f8d9dddc5ae2fd386bac86a98f173a36080658a49d6b0e45105468a591d763fa6ec11040feef377da0ad2374cdc763d00003fcd84c0e6e2567f434143424e9b1ce461f398d4e574e479666cd6f646dcd45372a72230d0e65d687f83668026e1230c37f3d1380f30c2a5b9ef8b7769d902bdd0004da96423831a734443b39c055353ab72bf6b3fbd4bf66396515b76691f05c0d674ba2484ba4b010fa5fe8e6a3dbdd93605124f51ea16b1c8499e546b30d0307e0000640ff43bb45e885976ba9d00943d995c3d34ebbc9a1ee0b267fc8df6eb9c0eb071c0b749084c2751b8e59832cf41f5128376fac041360eb5997c7ba3c3581230100084d1da7861943d61ce9577c1c1ed8770f7f7f765e975545b6070e7961f554faba5985437827c40f7b43beb216c5e1df6191266524cc332055b2b0342a6996fda60009c5f394450f6853c879e71709109ead4ace44c2b429e6fd6e5cbfc244bde1c8ba18c52583b366c19b4db6b8d30eaf5cb940782c03e5dc3726d3232a951f997b52010ae39e2aef5c1618adc2c56789630d1eb9f5ab35cd5be87f95d111013f75adec347dbd045ec61e1feb05d28744845f55adc2bb11bb01dcb7d49a0f9343789c9e8a000b95b610e1779e0f5e6ef6ce3761fe6c98ddfbba85e279fa7fcce130192bd22edc2083fa9b34f749e179eabc11058ef25a49ea2580ae47b39b347ebc8e74d6a616000cb73f837d1bcbf375a52cb90f195bc9f33a4e192b70bdc7bdca7be6b0607293b86d22e81ef22c9f0c9400882456c4292273d49c20158d4230050139da4bc48be0000db2a673e66adcd685c7e1a0930e127516e3b9202516efc139d7f0cf2f1455b5c03f55ab7c74d275e8bbb3a7754416e9cdfd3ff4b5cde923f026dd56208264bbc2010f3e517b9bb43a578102b907b5ea1e1752b5e338e65482d42dd6b5aedcf1570b20269ce69e1788a1e99a8138c4dce26ccb2336b4309067d544c5a8a58113a5bfa300108034015f1066c82aaa6a0af816507eeaa8525eb08a962ba69a085c6b296afb3a731eef530dfc0335ce095d532aa376cf4789f7207cdae20a7cf2cc9ed3dc0c1a01115ec770bce7f186de34edc447b661bb6fe0bc034b122cbe021113ac42e936351a291d45c3a6f0b5a5a0d91270aba658c52dfee990c20d79a51966e10727f0a7420068fd1d4100000000001ae101faedac5851e32b9b23b5f9411a8c2bac4aae3ed4dd7b811dd1a72ea4aa710000000009e7f2ba014155575600000000000ef593b8000027102332ca646a5e45dc6855df98c08a86cd35db7ff301005500ff61491a931112ddf1bd8147cd1b641375f79f5825126d665480874634fd0ace0000005c20ab48b300000000094b8b04fffffff80000000068fd1d410000000068fd1d400000005bcda979e00000000007b63e820daee5815bea917169399300f75d79706cbf8fa64cd84eb199eeec931bf47b42d3873f3470fc6bc12a01d2af3b95e5c25696b9ad7e6c905496196a455b67659153441963cf7940fd1ed3ba7ed5b9df8beeb4751fca60978df32cbb9693318a564ed0c887ca30f2b29e4e273b7c867f324a436f33d287509edd41ab186f76eec86603d4d77c7e53879ec5ae4c014632083833e06d0de8782867343fb2194b99074f2f22bee00bea665fa1438e6d3a334675c5d5ca44e8a63286898c656e1525a47d2dfb5fada4cc2b4b33815f0171f4d6b54e8060d203c502fbe9247e8364e535449f81e75931f63b521cfccbee19d5115c627e0f1d6a055bfb66212825514b63fd5cea95fb00",
        "nonce": "0x9a",
        "chainId": "0x14a34"
      },
      "additionalContracts": [],
      "isFixedGasLimit": false
    },
    {
      "hash": "0x52222bc2ef0973d6f75aab050abd20d24c501bec73c6c36c294a942f54455acb",
      "transactionType": "CALL",
      "contractName": null,
      "contractAddress": "0x41d897084fd42d0509f752954fecf48c62307b3f",
      "function": "createOrder(address,address,uint256,uint256,uint256,bytes[])",
      "arguments": [
        "0x4200000000000000000000000000000000000006",
        "0x5Fe161a97511aa3C185cBfFDCf281Fd510411343",
        "10000000000000000",
        "0",
        "0",
        "[0x504e41550100000003b801000000040d0074de24270dc72a0fc3a6e5b10c47f331a7a41b822a249901b0f00e3a61cc09f41425a2251c2b91cd1e04fffb4336bda715b7512212188f03fbb3e8e3bfcfc46c0102d8d807217f6d5c5993de9f0262d7d82be33d55f7c18eed3990dfabc29fc5d3b340394a66c4a5de7cbd1e35fbbeff20e2092b01eb246a914cb8ad21118f5fccdb00038fa7cdc2779c895f237767045d902275d1354c044431e8d39663e97763150eb6540fc89bd9fa49693a216c5510a5d9cf75e6bdd8c7379f87a8cba371fe6fd6dc010485964ebb44e4cc371397d9e5efb1106b709805b94e260845b949b85771f3f439733e41677bb4a8114bbb6abef827dbba67fb4e1000b6958092697633d3eed95801063da384d9608ef13044177c9f3f66e5bf498392a3075e715637a15a04868204d35f9b52baaaf1bd3329674dfef16a511f5500e5c76fb9136bac2e0a7e419c1fac0008d5d72d4edadd331992d06b8c1819409263984af058e5c4c0bf9cb48c9bcc2adb0376ae3f5b7d0d0b4f266371c595ac06d68f90fb09fc64b24591089c4061805c000aed93916ca27e584417800b8742f8824993b4712e9410582e33a1dce4f684916107389f1f4e4ac53794fd41268eda0b387a4b56e96e8e59cf0866846f98589c02010b90ad68e04487b82e758a10c815af97fc1dcd8449d35e0977e6e8ec324bea52aa1b6cfb8d19b0afd16795396cbfaf29972110f6132d16674bda692090bca219ea010dc9c048add494c7bafe5202401f91441393c618056a6908649c79ecc9cc745d0c694785dc36bba53ed674b2c4f2cf420e31d7873312866f8f5746f038180f2095000e4db0376d4ceb81de0c46d04043422572cbdc12b3925104f112cc7151e77711626e3271e4b901f450859511bf94b5b09594a9cefc74cf1fa079dcdd5d475b6d00000f2a219fa712d376567a8c7e015aadc9e86748b007513005c3c51e242dc9b2f58862fffd194d4678383c6863840a041970f1ec6727962c533ca7a7b64b36eb9fd10110ef23b67d15c83980f9789c9f48dc370fb7ba69edfc625742446ee0cf2c41abb53a08a0a1846828101dcdcf30a02e4cc9624c4920a348a1581a297949c1e6bc370111f28487875c1d5ee3949fed7f28cfa7599ef39b1d326cf92a08991eafdede791562a3cb29026e31869ae955d554415313de39f766bd240dc1c0e77591f179f7970068fd1d4300000000001ae101faedac5851e32b9b23b5f9411a8c2bac4aae3ed4dd7b811dd1a72ea4aa710000000009e7f2be014155575600000000000ef593bc000027100a08f881115f888a9adc27b8dabf126d4b26665101005500ff61491a931112ddf1bd8147cd1b641375f79f5825126d665480874634fd0ace0000005c208cc433000000000a1d4452fffffff80000000068fd1d430000000068fd1d420000005bcdb38c000000000007b63fb00daee5815bea917169399300f75d79706cbf8fa64cd84eb199eeec931bf47b42d3873f3470fc6bc12a6294666f13558ef0623a36c09add5daaa36082e319475b39cba3599e8ea428196a67054ac88bdc11873d5c5dbdb89568bb4ef850eda74dc14402935b7cb4009e267b3c430ad22ae0390c734741dcaee6f58999a4a64bc21d1cbbe2faa284edcbaf00fb363ac8654435f1d74953d877c3755cbd37f7f61ede922b43bccac86c1becc1b600303dd140157db9b168848b12d7cd16eb1e67b3cf518c22df734bc4996978c1463e32eb36d6d3b08e563e7df8b6b4696d1c16b0d41a4cfc968b718dad0ffcbdf3e3745b9bae7d247195079eeb2ef5493a31f962389239bead]"
      ],
      "transaction": {
        "from": "0xdafe44ce6933ba24459453fe20f40d55a454a07f",
        "to": "0x41d897084fd42d0509f752954fecf48c62307b3f",
        "gas": "0x78d17",
        "value": "0xa",
        "input": "0x5236017200000000000000000000000042000000000000000000000000000000000000060000000000000000000000005fe161a97511aa3c185cbffdcf281fd510411343000000000000000000000000000000000000000000000000002386f26fc100000000000000000000000000000000000000000000000000000000000000000000000000000000000000000000000000000000000000000000000000000000000000000000000000000000000000000000000000000000000000000000000000c000000000000000000000000000000000000000000000000000000000000000010000000000000000000000000000000000000000000000000000000000000020000000000000000000000000000000000000000000000000000000000000051f504e41550100000003b801000000040d0074de24270dc72a0fc3a6e5b10c47f331a7a41b822a249901b0f00e3a61cc09f41425a2251c2b91cd1e04fffb4336bda715b7512212188f03fbb3e8e3bfcfc46c0102d8d807217f6d5c5993de9f0262d7d82be33d55f7c18eed3990dfabc29fc5d3b340394a66c4a5de7cbd1e35fbbeff20e2092b01eb246a914cb8ad21118f5fccdb00038fa7cdc2779c895f237767045d902275d1354c044431e8d39663e97763150eb6540fc89bd9fa49693a216c5510a5d9cf75e6bdd8c7379f87a8cba371fe6fd6dc010485964ebb44e4cc371397d9e5efb1106b709805b94e260845b949b85771f3f439733e41677bb4a8114bbb6abef827dbba67fb4e1000b6958092697633d3eed95801063da384d9608ef13044177c9f3f66e5bf498392a3075e715637a15a04868204d35f9b52baaaf1bd3329674dfef16a511f5500e5c76fb9136bac2e0a7e419c1fac0008d5d72d4edadd331992d06b8c1819409263984af058e5c4c0bf9cb48c9bcc2adb0376ae3f5b7d0d0b4f266371c595ac06d68f90fb09fc64b24591089c4061805c000aed93916ca27e584417800b8742f8824993b4712e9410582e33a1dce4f684916107389f1f4e4ac53794fd41268eda0b387a4b56e96e8e59cf0866846f98589c02010b90ad68e04487b82e758a10c815af97fc1dcd8449d35e0977e6e8ec324bea52aa1b6cfb8d19b0afd16795396cbfaf29972110f6132d16674bda692090bca219ea010dc9c048add494c7bafe5202401f91441393c618056a6908649c79ecc9cc745d0c694785dc36bba53ed674b2c4f2cf420e31d7873312866f8f5746f038180f2095000e4db0376d4ceb81de0c46d04043422572cbdc12b3925104f112cc7151e77711626e3271e4b901f450859511bf94b5b09594a9cefc74cf1fa079dcdd5d475b6d00000f2a219fa712d376567a8c7e015aadc9e86748b007513005c3c51e242dc9b2f58862fffd194d4678383c6863840a041970f1ec6727962c533ca7a7b64b36eb9fd10110ef23b67d15c83980f9789c9f48dc370fb7ba69edfc625742446ee0cf2c41abb53a08a0a1846828101dcdcf30a02e4cc9624c4920a348a1581a297949c1e6bc370111f28487875c1d5ee3949fed7f28cfa7599ef39b1d326cf92a08991eafdede791562a3cb29026e31869ae955d554415313de39f766bd240dc1c0e77591f179f7970068fd1d4300000000001ae101faedac5851e32b9b23b5f9411a8c2bac4aae3ed4dd7b811dd1a72ea4aa710000000009e7f2be014155575600000000000ef593bc000027100a08f881115f888a9adc27b8dabf126d4b26665101005500ff61491a931112ddf1bd8147cd1b641375f79f5825126d665480874634fd0ace0000005c208cc433000000000a1d4452fffffff80000000068fd1d430000000068fd1d420000005bcdb38c000000000007b63fb00daee5815bea917169399300f75d79706cbf8fa64cd84eb199eeec931bf47b42d3873f3470fc6bc12a6294666f13558ef0623a36c09add5daaa36082e319475b39cba3599e8ea428196a67054ac88bdc11873d5c5dbdb89568bb4ef850eda74dc14402935b7cb4009e267b3c430ad22ae0390c734741dcaee6f58999a4a64bc21d1cbbe2faa284edcbaf00fb363ac8654435f1d74953d877c3755cbd37f7f61ede922b43bccac86c1becc1b600303dd140157db9b168848b12d7cd16eb1e67b3cf518c22df734bc4996978c1463e32eb36d6d3b08e563e7df8b6b4696d1c16b0d41a4cfc968b718dad0ffcbdf3e3745b9bae7d247195079eeb2ef5493a31f962389239bead00",
        "nonce": "0x9b",
        "chainId": "0x14a34"
      },
      "additionalContracts": [],
      "isFixedGasLimit": false
    }
  ],
  "receipts": [
    {
      "status": "0x1",
      "cumulativeGasUsed": "0x3cfdd4",
      "logs": [
        {
          "address": "0xa2aa501b19aff244d90cc15a4cf739d2725b5729",
          "topics": [
            "0xd06a6b7f4918494b3719217d1802786c1f5112a6c1d88fe2cfec00b4584f6aec",
            "0xff61491a931112ddf1bd8147cd1b641375f79f5825126d665480874634fd0ace"
          ],
          "data": "0x0000000000000000000000000000000000000000000000000000000068fd1d260000000000000000000000000000000000000000000000000000005c22fdf3490000000000000000000000000000000000000000000000000000000008efe937",
          "blockHash": "0xb0905d62562bfbefbc1c086531805b99bf7fdb93591b2fc3ddb6469f797911fe",
          "blockNumber": "0x1f4df35",
          "blockTimestamp": "0x68fd1d4a",
          "transactionHash": "0x183c0cffd4f339b224aa226a8bfb4cb0ed01be2abd7aff2a34e8942e1a4f1707",
          "transactionIndex": "0x16",
          "logIndex": "0x4e",
          "removed": false
        },
        {
          "address": "0x4200000000000000000000000000000000000006",
          "topics": [
            "0xddf252ad1be2c89b69c2b068fc378daa952ba7f163c4a11628f55a4df523b3ef",
            "0x000000000000000000000000dafe44ce6933ba24459453fe20f40d55a454a07f",
            "0x00000000000000000000000041d897084fd42d0509f752954fecf48c62307b3f"
          ],
          "data": "0x000000000000000000000000000000000000000000000000002386f26fc10000",
          "blockHash": "0xb0905d62562bfbefbc1c086531805b99bf7fdb93591b2fc3ddb6469f797911fe",
          "blockNumber": "0x1f4df35",
          "blockTimestamp": "0x68fd1d4a",
          "transactionHash": "0x183c0cffd4f339b224aa226a8bfb4cb0ed01be2abd7aff2a34e8942e1a4f1707",
          "transactionIndex": "0x16",
          "logIndex": "0x4f",
          "removed": false
        },
        {
          "address": "0x41d897084fd42d0509f752954fecf48c62307b3f",
          "topics": [
            "0x7448c7b7b021897f4f19bd7cdda03bed9c26cf75e56ea3bafd3c0d2c7ef24f4b",
            "0x8a5bf15be47f94a3e1523b6a0ac4eda370bd417ef5d9f8a72bd446c9c72ebab5",
            "0x000000000000000000000000dafe44ce6933ba24459453fe20f40d55a454a07f"
          ],
          "data": "0x00000000000000000000000042000000000000000000000000000000000000060000000000000000000000005fe161a97511aa3c185cbffdcf281fd510411343000000000000000000000000000000000000000000000000002386f26fc10000000000000000000000000000000000000000000000000000000000000000000000000000000000000000000000000000000000000000000000000000000000000000000000000000000000000000000000000000000000000000000000000016",
          "blockHash": "0xb0905d62562bfbefbc1c086531805b99bf7fdb93591b2fc3ddb6469f797911fe",
          "blockNumber": "0x1f4df35",
          "blockTimestamp": "0x68fd1d4a",
          "transactionHash": "0x183c0cffd4f339b224aa226a8bfb4cb0ed01be2abd7aff2a34e8942e1a4f1707",
          "transactionIndex": "0x16",
          "logIndex": "0x50",
          "removed": false
        }
      ],
      "logsBloom": "0x00000000000000000000002000000000000000000000000000040000002000000040000000000000000000100000000000010200400000000020000000000000000000010180800000000008000000000000000000000000000002000002000000000000000000080800000000000000000000000000000000000010000040000000000000000000000000000000000400000000002000000000000000000000000000000000000000000000000000000000000000000001000000000000000000000002000000000000000000000028000000000000000000008000000000000000000000000000000000000000004000000010000000000000000100000000",
      "type": "0x2",
      "transactionHash": "0x183c0cffd4f339b224aa226a8bfb4cb0ed01be2abd7aff2a34e8942e1a4f1707",
      "transactionIndex": "0x16",
      "blockHash": "0xb0905d62562bfbefbc1c086531805b99bf7fdb93591b2fc3ddb6469f797911fe",
      "blockNumber": "0x1f4df35",
      "gasUsed": "0x577b0",
      "effectiveGasPrice": "0xf427f",
      "from": "0xdafe44ce6933ba24459453fe20f40d55a454a07f",
      "to": "0x41d897084fd42d0509f752954fecf48c62307b3f",
      "contractAddress": null,
      "l1BaseFeeScalar": "0x44d",
      "l1BlobBaseFee": "0x1",
      "l1BlobBaseFeeScalar": "0xa118b",
      "l1Fee": "0x3f6",
      "l1GasPrice": "0x9",
      "l1GasUsed": "0x4d7c"
    },
    {
      "status": "0x1",
      "cumulativeGasUsed": "0x427560",
      "logs": [
        {
          "address": "0xa2aa501b19aff244d90cc15a4cf739d2725b5729",
          "topics": [
            "0xd06a6b7f4918494b3719217d1802786c1f5112a6c1d88fe2cfec00b4584f6aec",
            "0xff61491a931112ddf1bd8147cd1b641375f79f5825126d665480874634fd0ace"
          ],
          "data": "0x0000000000000000000000000000000000000000000000000000000068fd1d320000000000000000000000000000000000000000000000000000005c21cd48a300000000000000000000000000000000000000000000000000000000073504e6",
          "blockHash": "0xb0905d62562bfbefbc1c086531805b99bf7fdb93591b2fc3ddb6469f797911fe",
          "blockNumber": "0x1f4df35",
          "blockTimestamp": "0x68fd1d4a",
          "transactionHash": "0x47d7a5ee6109e68c7788d09d70374ad604971939e15a4c8327d260a482af46f8",
          "transactionIndex": "0x17",
          "logIndex": "0x51",
          "removed": false
        },
        {
          "address": "0x4200000000000000000000000000000000000006",
          "topics": [
            "0xddf252ad1be2c89b69c2b068fc378daa952ba7f163c4a11628f55a4df523b3ef",
            "0x000000000000000000000000dafe44ce6933ba24459453fe20f40d55a454a07f",
            "0x00000000000000000000000041d897084fd42d0509f752954fecf48c62307b3f"
          ],
          "data": "0x000000000000000000000000000000000000000000000000002386f26fc10000",
          "blockHash": "0xb0905d62562bfbefbc1c086531805b99bf7fdb93591b2fc3ddb6469f797911fe",
          "blockNumber": "0x1f4df35",
          "blockTimestamp": "0x68fd1d4a",
          "transactionHash": "0x47d7a5ee6109e68c7788d09d70374ad604971939e15a4c8327d260a482af46f8",
          "transactionIndex": "0x17",
          "logIndex": "0x52",
          "removed": false
        },
        {
          "address": "0x41d897084fd42d0509f752954fecf48c62307b3f",
          "topics": [
            "0x7448c7b7b021897f4f19bd7cdda03bed9c26cf75e56ea3bafd3c0d2c7ef24f4b",
            "0x8a5bf15be47f94a3e1523b6a0ac4eda370bd417ef5d9f8a72bd446c9c72ebab5",
            "0x000000000000000000000000dafe44ce6933ba24459453fe20f40d55a454a07f"
          ],
          "data": "0x00000000000000000000000042000000000000000000000000000000000000060000000000000000000000005fe161a97511aa3c185cbffdcf281fd510411343000000000000000000000000000000000000000000000000002386f26fc10000000000000000000000000000000000000000000000000000000000000000000000000000000000000000000000000000000000000000000000000000000000000000000000000000000000000000000000000000000000000000000000000017",
          "blockHash": "0xb0905d62562bfbefbc1c086531805b99bf7fdb93591b2fc3ddb6469f797911fe",
          "blockNumber": "0x1f4df35",
          "blockTimestamp": "0x68fd1d4a",
          "transactionHash": "0x47d7a5ee6109e68c7788d09d70374ad604971939e15a4c8327d260a482af46f8",
          "transactionIndex": "0x17",
          "logIndex": "0x53",
          "removed": false
        }
      ],
      "logsBloom": "0x00000000000000000000002000000000000000000000000000040000002000000040000000000000000000100000000000010200400000000020000000000000000000010180800000000008000000000000000000000000000002000002000000000000000000080800000000000000000000000000000000000010000040000000000000000000000000000000000400000000002000000000000000000000000000000000000000000000000000000000000000000001000000000000000000000002000000000000000000000028000000000000000000008000000000000000000000000000000000000000004000000010000000000000000100000000",
      "type": "0x2",
      "transactionHash": "0x47d7a5ee6109e68c7788d09d70374ad604971939e15a4c8327d260a482af46f8",
      "transactionIndex": "0x17",
      "blockHash": "0xb0905d62562bfbefbc1c086531805b99bf7fdb93591b2fc3ddb6469f797911fe",
      "blockNumber": "0x1f4df35",
      "gasUsed": "0x5778c",
      "effectiveGasPrice": "0xf427f",
      "from": "0xdafe44ce6933ba24459453fe20f40d55a454a07f",
      "to": "0x41d897084fd42d0509f752954fecf48c62307b3f",
      "contractAddress": null,
      "l1BaseFeeScalar": "0x44d",
      "l1BlobBaseFee": "0x1",
      "l1BlobBaseFeeScalar": "0xa118b",
      "l1Fee": "0x3f3",
      "l1GasPrice": "0x9",
      "l1GasUsed": "0x4d39"
    },
    {
      "status": "0x1",
      "cumulativeGasUsed": "0x47ed25",
      "logs": [
        {
          "address": "0xa2aa501b19aff244d90cc15a4cf739d2725b5729",
          "topics": [
            "0xd06a6b7f4918494b3719217d1802786c1f5112a6c1d88fe2cfec00b4584f6aec",
            "0xff61491a931112ddf1bd8147cd1b641375f79f5825126d665480874634fd0ace"
          ],
          "data": "0x0000000000000000000000000000000000000000000000000000000068fd1d340000000000000000000000000000000000000000000000000000005c217050800000000000000000000000000000000000000000000000000000000008b06084",
          "blockHash": "0xb0905d62562bfbefbc1c086531805b99bf7fdb93591b2fc3ddb6469f797911fe",
          "blockNumber": "0x1f4df35",
          "blockTimestamp": "0x68fd1d4a",
          "transactionHash": "0x48b20683fd6bd1361cebdfb9f1b7e2038f41d4cfb67b55921065bde18a76c517",
          "transactionIndex": "0x18",
          "logIndex": "0x54",
          "removed": false
        },
        {
          "address": "0x4200000000000000000000000000000000000006",
          "topics": [
            "0xddf252ad1be2c89b69c2b068fc378daa952ba7f163c4a11628f55a4df523b3ef",
            "0x000000000000000000000000dafe44ce6933ba24459453fe20f40d55a454a07f",
            "0x00000000000000000000000041d897084fd42d0509f752954fecf48c62307b3f"
          ],
          "data": "0x000000000000000000000000000000000000000000000000002386f26fc10000",
          "blockHash": "0xb0905d62562bfbefbc1c086531805b99bf7fdb93591b2fc3ddb6469f797911fe",
          "blockNumber": "0x1f4df35",
          "blockTimestamp": "0x68fd1d4a",
          "transactionHash": "0x48b20683fd6bd1361cebdfb9f1b7e2038f41d4cfb67b55921065bde18a76c517",
          "transactionIndex": "0x18",
          "logIndex": "0x55",
          "removed": false
        },
        {
          "address": "0x41d897084fd42d0509f752954fecf48c62307b3f",
          "topics": [
            "0x7448c7b7b021897f4f19bd7cdda03bed9c26cf75e56ea3bafd3c0d2c7ef24f4b",
            "0x8a5bf15be47f94a3e1523b6a0ac4eda370bd417ef5d9f8a72bd446c9c72ebab5",
            "0x000000000000000000000000dafe44ce6933ba24459453fe20f40d55a454a07f"
          ],
          "data": "0x00000000000000000000000042000000000000000000000000000000000000060000000000000000000000005fe161a97511aa3c185cbffdcf281fd510411343000000000000000000000000000000000000000000000000002386f26fc10000000000000000000000000000000000000000000000000000000000000000000000000000000000000000000000000000000000000000000000000000000000000000000000000000000000000000000000000000000000000000000000000018",
          "blockHash": "0xb0905d62562bfbefbc1c086531805b99bf7fdb93591b2fc3ddb6469f797911fe",
          "blockNumber": "0x1f4df35",
          "blockTimestamp": "0x68fd1d4a",
          "transactionHash": "0x48b20683fd6bd1361cebdfb9f1b7e2038f41d4cfb67b55921065bde18a76c517",
          "transactionIndex": "0x18",
          "logIndex": "0x56",
          "removed": false
        }
      ],
      "logsBloom": "0x00000000000000000000002000000000000000000000000000040000002000000040000000000000000000100000000000010200400000000020000000000000000000010180800000000008000000000000000000000000000002000002000000000000000000080800000000000000000000000000000000000010000040000000000000000000000000000000000400000000002000000000000000000000000000000000000000000000000000000000000000000001000000000000000000000002000000000000000000000028000000000000000000008000000000000000000000000000000000000000004000000010000000000000000100000000",
      "type": "0x2",
      "transactionHash": "0x48b20683fd6bd1361cebdfb9f1b7e2038f41d4cfb67b55921065bde18a76c517",
      "transactionIndex": "0x18",
      "blockHash": "0xb0905d62562bfbefbc1c086531805b99bf7fdb93591b2fc3ddb6469f797911fe",
      "blockNumber": "0x1f4df35",
      "gasUsed": "0x577c5",
      "effectiveGasPrice": "0xf427f",
      "from": "0xdafe44ce6933ba24459453fe20f40d55a454a07f",
      "to": "0x41d897084fd42d0509f752954fecf48c62307b3f",
      "contractAddress": null,
      "l1BaseFeeScalar": "0x44d",
      "l1BlobBaseFee": "0x1",
      "l1BlobBaseFeeScalar": "0xa118b",
      "l1Fee": "0x3f5",
      "l1GasPrice": "0x9",
      "l1GasUsed": "0x4d6e"
    },
    {
      "status": "0x1",
      "cumulativeGasUsed": "0x4d64db",
      "logs": [
        {
          "address": "0xa2aa501b19aff244d90cc15a4cf739d2725b5729",
          "topics": [
            "0xd06a6b7f4918494b3719217d1802786c1f5112a6c1d88fe2cfec00b4584f6aec",
            "0xff61491a931112ddf1bd8147cd1b641375f79f5825126d665480874634fd0ace"
          ],
          "data": "0x0000000000000000000000000000000000000000000000000000000068fd1d360000000000000000000000000000000000000000000000000000005c2145ab840000000000000000000000000000000000000000000000000000000009b35d23",
          "blockHash": "0xb0905d62562bfbefbc1c086531805b99bf7fdb93591b2fc3ddb6469f797911fe",
          "blockNumber": "0x1f4df35",
          "blockTimestamp": "0x68fd1d4a",
          "transactionHash": "0xbbdf202ffa4a059632e48b739d04e6a9985c0d731603fc8a5e240ea3cf2041b5",
          "transactionIndex": "0x19",
          "logIndex": "0x57",
          "removed": false
        },
        {
          "address": "0x4200000000000000000000000000000000000006",
          "topics": [
            "0xddf252ad1be2c89b69c2b068fc378daa952ba7f163c4a11628f55a4df523b3ef",
            "0x000000000000000000000000dafe44ce6933ba24459453fe20f40d55a454a07f",
            "0x00000000000000000000000041d897084fd42d0509f752954fecf48c62307b3f"
          ],
          "data": "0x000000000000000000000000000000000000000000000000002386f26fc10000",
          "blockHash": "0xb0905d62562bfbefbc1c086531805b99bf7fdb93591b2fc3ddb6469f797911fe",
          "blockNumber": "0x1f4df35",
          "blockTimestamp": "0x68fd1d4a",
          "transactionHash": "0xbbdf202ffa4a059632e48b739d04e6a9985c0d731603fc8a5e240ea3cf2041b5",
          "transactionIndex": "0x19",
          "logIndex": "0x58",
          "removed": false
        },
        {
          "address": "0x41d897084fd42d0509f752954fecf48c62307b3f",
          "topics": [
            "0x7448c7b7b021897f4f19bd7cdda03bed9c26cf75e56ea3bafd3c0d2c7ef24f4b",
            "0x8a5bf15be47f94a3e1523b6a0ac4eda370bd417ef5d9f8a72bd446c9c72ebab5",
            "0x000000000000000000000000dafe44ce6933ba24459453fe20f40d55a454a07f"
          ],
          "data": "0x00000000000000000000000042000000000000000000000000000000000000060000000000000000000000005fe161a97511aa3c185cbffdcf281fd510411343000000000000000000000000000000000000000000000000002386f26fc10000000000000000000000000000000000000000000000000000000000000000000000000000000000000000000000000000000000000000000000000000000000000000000000000000000000000000000000000000000000000000000000000019",
          "blockHash": "0xb0905d62562bfbefbc1c086531805b99bf7fdb93591b2fc3ddb6469f797911fe",
          "blockNumber": "0x1f4df35",
          "blockTimestamp": "0x68fd1d4a",
          "transactionHash": "0xbbdf202ffa4a059632e48b739d04e6a9985c0d731603fc8a5e240ea3cf2041b5",
          "transactionIndex": "0x19",
          "logIndex": "0x59",
          "removed": false
        }
      ],
      "logsBloom": "0x00000000000000000000002000000000000000000000000000040000002000000040000000000000000000100000000000010200400000000020000000000000000000010180800000000008000000000000000000000000000002000002000000000000000000080800000000000000000000000000000000000010000040000000000000000000000000000000000400000000002000000000000000000000000000000000000000000000000000000000000000000001000000000000000000000002000000000000000000000028000000000000000000008000000000000000000000000000000000000000004000000010000000000000000100000000",
      "type": "0x2",
      "transactionHash": "0xbbdf202ffa4a059632e48b739d04e6a9985c0d731603fc8a5e240ea3cf2041b5",
      "transactionIndex": "0x19",
      "blockHash": "0xb0905d62562bfbefbc1c086531805b99bf7fdb93591b2fc3ddb6469f797911fe",
      "blockNumber": "0x1f4df35",
      "gasUsed": "0x577b6",
      "effectiveGasPrice": "0xf427f",
      "from": "0xdafe44ce6933ba24459453fe20f40d55a454a07f",
      "to": "0x41d897084fd42d0509f752954fecf48c62307b3f",
      "contractAddress": null,
      "l1BaseFeeScalar": "0x44d",
      "l1BlobBaseFee": "0x1",
      "l1BlobBaseFeeScalar": "0xa118b",
      "l1Fee": "0x3f3",
      "l1GasPrice": "0x9",
      "l1GasUsed": "0x4d46"
    },
    {
      "status": "0x1",
      "cumulativeGasUsed": "0x52dc91",
      "logs": [
        {
          "address": "0xa2aa501b19aff244d90cc15a4cf739d2725b5729",
          "topics": [
            "0xd06a6b7f4918494b3719217d1802786c1f5112a6c1d88fe2cfec00b4584f6aec",
            "0xff61491a931112ddf1bd8147cd1b641375f79f5825126d665480874634fd0ace"
          ],
          "data": "0x0000000000000000000000000000000000000000000000000000000068fd1d380000000000000000000000000000000000000000000000000000005c20b93580000000000000000000000000000000000000000000000000000000000a01393b",
          "blockHash": "0xb0905d62562bfbefbc1c086531805b99bf7fdb93591b2fc3ddb6469f797911fe",
          "blockNumber": "0x1f4df35",
          "blockTimestamp": "0x68fd1d4a",
          "transactionHash": "0xd1819d5b417770b159e97530723d5443ffd1381e37a4d15e5a56b1e2a7c05cc3",
          "transactionIndex": "0x1a",
          "logIndex": "0x5a",
          "removed": false
        },
        {
          "address": "0x4200000000000000000000000000000000000006",
          "topics": [
            "0xddf252ad1be2c89b69c2b068fc378daa952ba7f163c4a11628f55a4df523b3ef",
            "0x000000000000000000000000dafe44ce6933ba24459453fe20f40d55a454a07f",
            "0x00000000000000000000000041d897084fd42d0509f752954fecf48c62307b3f"
          ],
          "data": "0x000000000000000000000000000000000000000000000000002386f26fc10000",
          "blockHash": "0xb0905d62562bfbefbc1c086531805b99bf7fdb93591b2fc3ddb6469f797911fe",
          "blockNumber": "0x1f4df35",
          "blockTimestamp": "0x68fd1d4a",
          "transactionHash": "0xd1819d5b417770b159e97530723d5443ffd1381e37a4d15e5a56b1e2a7c05cc3",
          "transactionIndex": "0x1a",
          "logIndex": "0x5b",
          "removed": false
        },
        {
          "address": "0x41d897084fd42d0509f752954fecf48c62307b3f",
          "topics": [
            "0x7448c7b7b021897f4f19bd7cdda03bed9c26cf75e56ea3bafd3c0d2c7ef24f4b",
            "0x8a5bf15be47f94a3e1523b6a0ac4eda370bd417ef5d9f8a72bd446c9c72ebab5",
            "0x000000000000000000000000dafe44ce6933ba24459453fe20f40d55a454a07f"
          ],
          "data": "0x00000000000000000000000042000000000000000000000000000000000000060000000000000000000000005fe161a97511aa3c185cbffdcf281fd510411343000000000000000000000000000000000000000000000000002386f26fc1000000000000000000000000000000000000000000000000000000000000000000000000000000000000000000000000000000000000000000000000000000000000000000000000000000000000000000000000000000000000000000000000001a",
          "blockHash": "0xb0905d62562bfbefbc1c086531805b99bf7fdb93591b2fc3ddb6469f797911fe",
          "blockNumber": "0x1f4df35",
          "blockTimestamp": "0x68fd1d4a",
          "transactionHash": "0xd1819d5b417770b159e97530723d5443ffd1381e37a4d15e5a56b1e2a7c05cc3",
          "transactionIndex": "0x1a",
          "logIndex": "0x5c",
          "removed": false
        }
      ],
      "logsBloom": "0x00000000000000000000002000000000000000000000000000040000002000000040000000000000000000100000000000010200400000000020000000000000000000010180800000000008000000000000000000000000000002000002000000000000000000080800000000000000000000000000000000000010000040000000000000000000000000000000000400000000002000000000000000000000000000000000000000000000000000000000000000000001000000000000000000000002000000000000000000000028000000000000000000008000000000000000000000000000000000000000004000000010000000000000000100000000",
      "type": "0x2",
      "transactionHash": "0xd1819d5b417770b159e97530723d5443ffd1381e37a4d15e5a56b1e2a7c05cc3",
      "transactionIndex": "0x1a",
      "blockHash": "0xb0905d62562bfbefbc1c086531805b99bf7fdb93591b2fc3ddb6469f797911fe",
      "blockNumber": "0x1f4df35",
      "gasUsed": "0x577b6",
      "effectiveGasPrice": "0xf427f",
      "from": "0xdafe44ce6933ba24459453fe20f40d55a454a07f",
      "to": "0x41d897084fd42d0509f752954fecf48c62307b3f",
      "contractAddress": null,
      "l1BaseFeeScalar": "0x44d",
      "l1BlobBaseFee": "0x1",
      "l1BlobBaseFeeScalar": "0xa118b",
      "l1Fee": "0x3f5",
      "l1GasPrice": "0x9",
      "l1GasUsed": "0x4d6e"
    },
    {
      "status": "0x1",
      "cumulativeGasUsed": "0x585417",
      "logs": [
        {
          "address": "0xa2aa501b19aff244d90cc15a4cf739d2725b5729",
          "topics": [
            "0xd06a6b7f4918494b3719217d1802786c1f5112a6c1d88fe2cfec00b4584f6aec",
            "0xff61491a931112ddf1bd8147cd1b641375f79f5825126d665480874634fd0ace"
          ],
          "data": "0x0000000000000000000000000000000000000000000000000000000068fd1d3a0000000000000000000000000000000000000000000000000000005c209ab1000000000000000000000000000000000000000000000000000000000008a4c38c",
          "blockHash": "0xb0905d62562bfbefbc1c086531805b99bf7fdb93591b2fc3ddb6469f797911fe",
          "blockNumber": "0x1f4df35",
          "blockTimestamp": "0x68fd1d4a",
          "transactionHash": "0x9b31523078432191c5ba760d949112b8edb760793c64660a78c13c058b45bcc0",
          "transactionIndex": "0x1b",
          "logIndex": "0x5d",
          "removed": false
        },
        {
          "address": "0x4200000000000000000000000000000000000006",
          "topics": [
            "0xddf252ad1be2c89b69c2b068fc378daa952ba7f163c4a11628f55a4df523b3ef",
            "0x000000000000000000000000dafe44ce6933ba24459453fe20f40d55a454a07f",
            "0x00000000000000000000000041d897084fd42d0509f752954fecf48c62307b3f"
          ],
          "data": "0x000000000000000000000000000000000000000000000000002386f26fc10000",
          "blockHash": "0xb0905d62562bfbefbc1c086531805b99bf7fdb93591b2fc3ddb6469f797911fe",
          "blockNumber": "0x1f4df35",
          "blockTimestamp": "0x68fd1d4a",
          "transactionHash": "0x9b31523078432191c5ba760d949112b8edb760793c64660a78c13c058b45bcc0",
          "transactionIndex": "0x1b",
          "logIndex": "0x5e",
          "removed": false
        },
        {
          "address": "0x41d897084fd42d0509f752954fecf48c62307b3f",
          "topics": [
            "0x7448c7b7b021897f4f19bd7cdda03bed9c26cf75e56ea3bafd3c0d2c7ef24f4b",
            "0x8a5bf15be47f94a3e1523b6a0ac4eda370bd417ef5d9f8a72bd446c9c72ebab5",
            "0x000000000000000000000000dafe44ce6933ba24459453fe20f40d55a454a07f"
          ],
          "data": "0x00000000000000000000000042000000000000000000000000000000000000060000000000000000000000005fe161a97511aa3c185cbffdcf281fd510411343000000000000000000000000000000000000000000000000002386f26fc1000000000000000000000000000000000000000000000000000000000000000000000000000000000000000000000000000000000000000000000000000000000000000000000000000000000000000000000000000000000000000000000000001b",
          "blockHash": "0xb0905d62562bfbefbc1c086531805b99bf7fdb93591b2fc3ddb6469f797911fe",
          "blockNumber": "0x1f4df35",
          "blockTimestamp": "0x68fd1d4a",
          "transactionHash": "0x9b31523078432191c5ba760d949112b8edb760793c64660a78c13c058b45bcc0",
          "transactionIndex": "0x1b",
          "logIndex": "0x5f",
          "removed": false
        }
      ],
      "logsBloom": "0x00000000000000000000002000000000000000000000000000040000002000000040000000000000000000100000000000010200400000000020000000000000000000010180800000000008000000000000000000000000000002000002000000000000000000080800000000000000000000000000000000000010000040000000000000000000000000000000000400000000002000000000000000000000000000000000000000000000000000000000000000000001000000000000000000000002000000000000000000000028000000000000000000008000000000000000000000000000000000000000004000000010000000000000000100000000",
      "type": "0x2",
      "transactionHash": "0x9b31523078432191c5ba760d949112b8edb760793c64660a78c13c058b45bcc0",
      "transactionIndex": "0x1b",
      "blockHash": "0xb0905d62562bfbefbc1c086531805b99bf7fdb93591b2fc3ddb6469f797911fe",
      "blockNumber": "0x1f4df35",
      "gasUsed": "0x57786",
      "effectiveGasPrice": "0xf427f",
      "from": "0xdafe44ce6933ba24459453fe20f40d55a454a07f",
      "to": "0x41d897084fd42d0509f752954fecf48c62307b3f",
      "contractAddress": null,
      "l1BaseFeeScalar": "0x44d",
      "l1BlobBaseFee": "0x1",
      "l1BlobBaseFeeScalar": "0xa118b",
      "l1Fee": "0x3f5",
      "l1GasPrice": "0x9",
      "l1GasUsed": "0x4d6e"
    },
    {
      "status": "0x1",
      "cumulativeGasUsed": "0x5dcbca",
      "logs": [
        {
          "address": "0xa2aa501b19aff244d90cc15a4cf739d2725b5729",
          "topics": [
            "0xd06a6b7f4918494b3719217d1802786c1f5112a6c1d88fe2cfec00b4584f6aec",
            "0xff61491a931112ddf1bd8147cd1b641375f79f5825126d665480874634fd0ace"
          ],
          "data": "0x0000000000000000000000000000000000000000000000000000000068fd1d3c0000000000000000000000000000000000000000000000000000005c2082f24f000000000000000000000000000000000000000000000000000000000a086c5e",
          "blockHash": "0xb0905d62562bfbefbc1c086531805b99bf7fdb93591b2fc3ddb6469f797911fe",
          "blockNumber": "0x1f4df35",
          "blockTimestamp": "0x68fd1d4a",
          "transactionHash": "0x3aaa7b347f59dc1293fc579a2e50ae00fc59695a74526c72a5edd262e3700da5",
          "transactionIndex": "0x1c",
          "logIndex": "0x60",
          "removed": false
        },
        {
          "address": "0x4200000000000000000000000000000000000006",
          "topics": [
            "0xddf252ad1be2c89b69c2b068fc378daa952ba7f163c4a11628f55a4df523b3ef",
            "0x000000000000000000000000dafe44ce6933ba24459453fe20f40d55a454a07f",
            "0x00000000000000000000000041d897084fd42d0509f752954fecf48c62307b3f"
          ],
          "data": "0x000000000000000000000000000000000000000000000000002386f26fc10000",
          "blockHash": "0xb0905d62562bfbefbc1c086531805b99bf7fdb93591b2fc3ddb6469f797911fe",
          "blockNumber": "0x1f4df35",
          "blockTimestamp": "0x68fd1d4a",
          "transactionHash": "0x3aaa7b347f59dc1293fc579a2e50ae00fc59695a74526c72a5edd262e3700da5",
          "transactionIndex": "0x1c",
          "logIndex": "0x61",
          "removed": false
        },
        {
          "address": "0x41d897084fd42d0509f752954fecf48c62307b3f",
          "topics": [
            "0x7448c7b7b021897f4f19bd7cdda03bed9c26cf75e56ea3bafd3c0d2c7ef24f4b",
            "0x8a5bf15be47f94a3e1523b6a0ac4eda370bd417ef5d9f8a72bd446c9c72ebab5",
            "0x000000000000000000000000dafe44ce6933ba24459453fe20f40d55a454a07f"
          ],
          "data": "0x00000000000000000000000042000000000000000000000000000000000000060000000000000000000000005fe161a97511aa3c185cbffdcf281fd510411343000000000000000000000000000000000000000000000000002386f26fc1000000000000000000000000000000000000000000000000000000000000000000000000000000000000000000000000000000000000000000000000000000000000000000000000000000000000000000000000000000000000000000000000001c",
          "blockHash": "0xb0905d62562bfbefbc1c086531805b99bf7fdb93591b2fc3ddb6469f797911fe",
          "blockNumber": "0x1f4df35",
          "blockTimestamp": "0x68fd1d4a",
          "transactionHash": "0x3aaa7b347f59dc1293fc579a2e50ae00fc59695a74526c72a5edd262e3700da5",
          "transactionIndex": "0x1c",
          "logIndex": "0x62",
          "removed": false
        }
      ],
      "logsBloom": "0x00000000000000000000002000000000000000000000000000040000002000000040000000000000000000100000000000010200400000000020000000000000000000010180800000000008000000000000000000000000000002000002000000000000000000080800000000000000000000000000000000000010000040000000000000000000000000000000000400000000002000000000000000000000000000000000000000000000000000000000000000000001000000000000000000000002000000000000000000000028000000000000000000008000000000000000000000000000000000000000004000000010000000000000000100000000",
      "type": "0x2",
      "transactionHash": "0x3aaa7b347f59dc1293fc579a2e50ae00fc59695a74526c72a5edd262e3700da5",
      "transactionIndex": "0x1c",
      "blockHash": "0xb0905d62562bfbefbc1c086531805b99bf7fdb93591b2fc3ddb6469f797911fe",
      "blockNumber": "0x1f4df35",
      "gasUsed": "0x577b3",
      "effectiveGasPrice": "0xf427f",
      "from": "0xdafe44ce6933ba24459453fe20f40d55a454a07f",
      "to": "0x41d897084fd42d0509f752954fecf48c62307b3f",
      "contractAddress": null,
      "l1BaseFeeScalar": "0x44d",
      "l1BlobBaseFee": "0x1",
      "l1BlobBaseFeeScalar": "0xa118b",
      "l1Fee": "0x3f6",
      "l1GasPrice": "0x9",
      "l1GasUsed": "0x4d7c"
    },
    {
      "status": "0x1",
      "cumulativeGasUsed": "0xa6543b",
      "logs": [
        {
          "address": "0xa2aa501b19aff244d90cc15a4cf739d2725b5729",
          "topics": [
            "0xd06a6b7f4918494b3719217d1802786c1f5112a6c1d88fe2cfec00b4584f6aec",
            "0xff61491a931112ddf1bd8147cd1b641375f79f5825126d665480874634fd0ace"
          ],
          "data": "0x0000000000000000000000000000000000000000000000000000000068fd1d3f0000000000000000000000000000000000000000000000000000005c207d81f3000000000000000000000000000000000000000000000000000000000a7221d9",
          "blockHash": "0xf76110c90c1ffa5176a0871257aae18c8dcc044c751abe246f57a0e6d1a5bc71",
          "blockNumber": "0x1f4df36",
          "blockTimestamp": "0x68fd1d4c",
          "transactionHash": "0x3b9c4fe4c28f73853e5d7826cdfd163507b6fe5a52c187e29c13c1468b14a278",
          "transactionIndex": "0x15",
          "logIndex": "0xaf",
          "removed": false
        },
        {
          "address": "0x4200000000000000000000000000000000000006",
          "topics": [
            "0xddf252ad1be2c89b69c2b068fc378daa952ba7f163c4a11628f55a4df523b3ef",
            "0x000000000000000000000000dafe44ce6933ba24459453fe20f40d55a454a07f",
            "0x00000000000000000000000041d897084fd42d0509f752954fecf48c62307b3f"
          ],
          "data": "0x000000000000000000000000000000000000000000000000002386f26fc10000",
          "blockHash": "0xf76110c90c1ffa5176a0871257aae18c8dcc044c751abe246f57a0e6d1a5bc71",
          "blockNumber": "0x1f4df36",
          "blockTimestamp": "0x68fd1d4c",
          "transactionHash": "0x3b9c4fe4c28f73853e5d7826cdfd163507b6fe5a52c187e29c13c1468b14a278",
          "transactionIndex": "0x15",
          "logIndex": "0xb0",
          "removed": false
        },
        {
          "address": "0x41d897084fd42d0509f752954fecf48c62307b3f",
          "topics": [
            "0x7448c7b7b021897f4f19bd7cdda03bed9c26cf75e56ea3bafd3c0d2c7ef24f4b",
            "0x8a5bf15be47f94a3e1523b6a0ac4eda370bd417ef5d9f8a72bd446c9c72ebab5",
            "0x000000000000000000000000dafe44ce6933ba24459453fe20f40d55a454a07f"
          ],
          "data": "0x00000000000000000000000042000000000000000000000000000000000000060000000000000000000000005fe161a97511aa3c185cbffdcf281fd510411343000000000000000000000000000000000000000000000000002386f26fc1000000000000000000000000000000000000000000000000000000000000000000000000000000000000000000000000000000000000000000000000000000000000000000000000000000000000000000000000000000000000000000000000001d",
          "blockHash": "0xf76110c90c1ffa5176a0871257aae18c8dcc044c751abe246f57a0e6d1a5bc71",
          "blockNumber": "0x1f4df36",
          "blockTimestamp": "0x68fd1d4c",
          "transactionHash": "0x3b9c4fe4c28f73853e5d7826cdfd163507b6fe5a52c187e29c13c1468b14a278",
          "transactionIndex": "0x15",
          "logIndex": "0xb1",
          "removed": false
        }
      ],
      "logsBloom": "0x00000000000000000000002000000000000000000000000000040000002000000040000000000000000000100000000000010200400000000020000000000000000000010180800000000008000000000000000000000000000002000002000000000000000000080800000000000000000000000000000000000010000040000000000000000000000000000000000400000000002000000000000000000000000000000000000000000000000000000000000000000001000000000000000000000002000000000000000000000028000000000000000000008000000000000000000000000000000000000000004000000010000000000000000100000000",
      "type": "0x2",
      "transactionHash": "0x3b9c4fe4c28f73853e5d7826cdfd163507b6fe5a52c187e29c13c1468b14a278",
      "transactionIndex": "0x15",
      "blockHash": "0xf76110c90c1ffa5176a0871257aae18c8dcc044c751abe246f57a0e6d1a5bc71",
      "blockNumber": "0x1f4df36",
      "gasUsed": "0x577a4",
      "effectiveGasPrice": "0xf427f",
      "from": "0xdafe44ce6933ba24459453fe20f40d55a454a07f",
      "to": "0x41d897084fd42d0509f752954fecf48c62307b3f",
      "contractAddress": null,
      "l1BaseFeeScalar": "0x44d",
      "l1BlobBaseFee": "0x1",
      "l1BlobBaseFeeScalar": "0xa118b",
      "l1Fee": "0x51",
      "l1GasPrice": "0x9",
      "l1GasUsed": "0x4d39"
    },
    {
      "status": "0x1",
      "cumulativeGasUsed": "0xabcbd9",
      "logs": [
        {
          "address": "0xa2aa501b19aff244d90cc15a4cf739d2725b5729",
          "topics": [
            "0xd06a6b7f4918494b3719217d1802786c1f5112a6c1d88fe2cfec00b4584f6aec",
            "0xff61491a931112ddf1bd8147cd1b641375f79f5825126d665480874634fd0ace"
          ],
          "data": "0x0000000000000000000000000000000000000000000000000000000068fd1d410000000000000000000000000000000000000000000000000000005c20ab48b300000000000000000000000000000000000000000000000000000000094b8b04",
          "blockHash": "0xf76110c90c1ffa5176a0871257aae18c8dcc044c751abe246f57a0e6d1a5bc71",
          "blockNumber": "0x1f4df36",
          "blockTimestamp": "0x68fd1d4c",
          "transactionHash": "0x233eb6d23c129142fbae8a527ff3febbfd80bdec882355bac75e408a33f54783",
          "transactionIndex": "0x16",
          "logIndex": "0xb2",
          "removed": false
        },
        {
          "address": "0x4200000000000000000000000000000000000006",
          "topics": [
            "0xddf252ad1be2c89b69c2b068fc378daa952ba7f163c4a11628f55a4df523b3ef",
            "0x000000000000000000000000dafe44ce6933ba24459453fe20f40d55a454a07f",
            "0x00000000000000000000000041d897084fd42d0509f752954fecf48c62307b3f"
          ],
          "data": "0x000000000000000000000000000000000000000000000000002386f26fc10000",
          "blockHash": "0xf76110c90c1ffa5176a0871257aae18c8dcc044c751abe246f57a0e6d1a5bc71",
          "blockNumber": "0x1f4df36",
          "blockTimestamp": "0x68fd1d4c",
          "transactionHash": "0x233eb6d23c129142fbae8a527ff3febbfd80bdec882355bac75e408a33f54783",
          "transactionIndex": "0x16",
          "logIndex": "0xb3",
          "removed": false
        },
        {
          "address": "0x41d897084fd42d0509f752954fecf48c62307b3f",
          "topics": [
            "0x7448c7b7b021897f4f19bd7cdda03bed9c26cf75e56ea3bafd3c0d2c7ef24f4b",
            "0x8a5bf15be47f94a3e1523b6a0ac4eda370bd417ef5d9f8a72bd446c9c72ebab5",
            "0x000000000000000000000000dafe44ce6933ba24459453fe20f40d55a454a07f"
          ],
          "data": "0x00000000000000000000000042000000000000000000000000000000000000060000000000000000000000005fe161a97511aa3c185cbffdcf281fd510411343000000000000000000000000000000000000000000000000002386f26fc1000000000000000000000000000000000000000000000000000000000000000000000000000000000000000000000000000000000000000000000000000000000000000000000000000000000000000000000000000000000000000000000000001e",
          "blockHash": "0xf76110c90c1ffa5176a0871257aae18c8dcc044c751abe246f57a0e6d1a5bc71",
          "blockNumber": "0x1f4df36",
          "blockTimestamp": "0x68fd1d4c",
          "transactionHash": "0x233eb6d23c129142fbae8a527ff3febbfd80bdec882355bac75e408a33f54783",
          "transactionIndex": "0x16",
          "logIndex": "0xb4",
          "removed": false
        }
      ],
      "logsBloom": "0x00000000000000000000002000000000000000000000000000040000002000000040000000000000000000100000000000010200400000000020000000000000000000010180800000000008000000000000000000000000000002000002000000000000000000080800000000000000000000000000000000000010000040000000000000000000000000000000000400000000002000000000000000000000000000000000000000000000000000000000000000000001000000000000000000000002000000000000000000000028000000000000000000008000000000000000000000000000000000000000004000000010000000000000000100000000",
      "type": "0x2",
      "transactionHash": "0x233eb6d23c129142fbae8a527ff3febbfd80bdec882355bac75e408a33f54783",
      "transactionIndex": "0x16",
      "blockHash": "0xf76110c90c1ffa5176a0871257aae18c8dcc044c751abe246f57a0e6d1a5bc71",
      "blockNumber": "0x1f4df36",
      "gasUsed": "0x5779e",
      "effectiveGasPrice": "0xf427f",
      "from": "0xdafe44ce6933ba24459453fe20f40d55a454a07f",
      "to": "0x41d897084fd42d0509f752954fecf48c62307b3f",
      "contractAddress": null,
      "l1BaseFeeScalar": "0x44d",
      "l1BlobBaseFee": "0x1",
      "l1BlobBaseFeeScalar": "0xa118b",
      "l1Fee": "0x51",
      "l1GasPrice": "0x9",
      "l1GasUsed": "0x4d6e"
    },
    {
      "status": "0x1",
      "cumulativeGasUsed": "0xb1435f",
      "logs": [
        {
          "address": "0xa2aa501b19aff244d90cc15a4cf739d2725b5729",
          "topics": [
            "0xd06a6b7f4918494b3719217d1802786c1f5112a6c1d88fe2cfec00b4584f6aec",
            "0xff61491a931112ddf1bd8147cd1b641375f79f5825126d665480874634fd0ace"
          ],
          "data": "0x0000000000000000000000000000000000000000000000000000000068fd1d430000000000000000000000000000000000000000000000000000005c208cc433000000000000000000000000000000000000000000000000000000000a1d4452",
          "blockHash": "0xf76110c90c1ffa5176a0871257aae18c8dcc044c751abe246f57a0e6d1a5bc71",
          "blockNumber": "0x1f4df36",
          "blockTimestamp": "0x68fd1d4c",
          "transactionHash": "0x52222bc2ef0973d6f75aab050abd20d24c501bec73c6c36c294a942f54455acb",
          "transactionIndex": "0x17",
          "logIndex": "0xb5",
          "removed": false
        },
        {
          "address": "0x4200000000000000000000000000000000000006",
          "topics": [
            "0xddf252ad1be2c89b69c2b068fc378daa952ba7f163c4a11628f55a4df523b3ef",
            "0x000000000000000000000000dafe44ce6933ba24459453fe20f40d55a454a07f",
            "0x00000000000000000000000041d897084fd42d0509f752954fecf48c62307b3f"
          ],
          "data": "0x000000000000000000000000000000000000000000000000002386f26fc10000",
          "blockHash": "0xf76110c90c1ffa5176a0871257aae18c8dcc044c751abe246f57a0e6d1a5bc71",
          "blockNumber": "0x1f4df36",
          "blockTimestamp": "0x68fd1d4c",
          "transactionHash": "0x52222bc2ef0973d6f75aab050abd20d24c501bec73c6c36c294a942f54455acb",
          "transactionIndex": "0x17",
          "logIndex": "0xb6",
          "removed": false
        },
        {
          "address": "0x41d897084fd42d0509f752954fecf48c62307b3f",
          "topics": [
            "0x7448c7b7b021897f4f19bd7cdda03bed9c26cf75e56ea3bafd3c0d2c7ef24f4b",
            "0x8a5bf15be47f94a3e1523b6a0ac4eda370bd417ef5d9f8a72bd446c9c72ebab5",
            "0x000000000000000000000000dafe44ce6933ba24459453fe20f40d55a454a07f"
          ],
          "data": "0x00000000000000000000000042000000000000000000000000000000000000060000000000000000000000005fe161a97511aa3c185cbffdcf281fd510411343000000000000000000000000000000000000000000000000002386f26fc1000000000000000000000000000000000000000000000000000000000000000000000000000000000000000000000000000000000000000000000000000000000000000000000000000000000000000000000000000000000000000000000000001f",
          "blockHash": "0xf76110c90c1ffa5176a0871257aae18c8dcc044c751abe246f57a0e6d1a5bc71",
          "blockNumber": "0x1f4df36",
          "blockTimestamp": "0x68fd1d4c",
          "transactionHash": "0x52222bc2ef0973d6f75aab050abd20d24c501bec73c6c36c294a942f54455acb",
          "transactionIndex": "0x17",
          "logIndex": "0xb7",
          "removed": false
        }
      ],
      "logsBloom": "0x00000000000000000000002000000000000000000000000000040000002000000040000000000000000000100000000000010200400000000020000000000000000000010180800000000008000000000000000000000000000002000002000000000000000000080800000000000000000000000000000000000010000040000000000000000000000000000000000400000000002000000000000000000000000000000000000000000000000000000000000000000001000000000000000000000002000000000000000000000028000000000000000000008000000000000000000000000000000000000000004000000010000000000000000100000000",
      "type": "0x2",
      "transactionHash": "0x52222bc2ef0973d6f75aab050abd20d24c501bec73c6c36c294a942f54455acb",
      "transactionIndex": "0x17",
      "blockHash": "0xf76110c90c1ffa5176a0871257aae18c8dcc044c751abe246f57a0e6d1a5bc71",
      "blockNumber": "0x1f4df36",
      "gasUsed": "0x57786",
      "effectiveGasPrice": "0xf427f",
      "from": "0xdafe44ce6933ba24459453fe20f40d55a454a07f",
      "to": "0x41d897084fd42d0509f752954fecf48c62307b3f",
      "contractAddress": null,
      "l1BaseFeeScalar": "0x44d",
      "l1BlobBaseFee": "0x1",
      "l1BlobBaseFeeScalar": "0xa118b",
      "l1Fee": "0x51",
      "l1GasPrice": "0x9",
      "l1GasUsed": "0x4d46"
    }
  ],
  "libraries": [],
  "pending": [],
  "returns": {},
  "timestamp": 1761418572430,
  "chain": 84532,
  "commit": "d96505c"
}