{
  "transactions": [
    {
      "hash": null,
      "transactionType": "CALL",
      "contractName": null,
      "contractAddress": "0x41d897084fd42d0509f752954fecf48c62307b3f",
      "function": "createOrder(address,address,uint256,uint256,uint256,bytes[])",
      "arguments": [
        "0x4200000000000000000000000000000000000006",
        "0x5Fe161a97511aa3C185cBfFDCf281Fd510411343",
        "10000000000000000",
        "0",
        "0",
        "[0x504e41550100000003b801000000040d00097e6e1602ca9a917424685e00fe3d4942faa77a1bd8eed520e0aa25e7ad82d47861dd6381ea72dcbdcd417cb261b289ba62ea436afdc532488d560edc05908d010381d4b4d0a4e103403a3c946c032da11f10308a1885344115fcb4507242a475d035f03bb4b5ad22286602ea5e37c9930a8929dc2e230384a59f7eb71adb3108680104d85df6f6691dcea6ed4fb03a8575f5c6aa2c2472656f4beeabf39b7309168ae6732f821ed0607a9d47bebf77e94304f2bc3d7cf7df64ba2c03ab1c50b2b4c39e0106908ce81b9d761cefb8d6297d4194a027522e292449199caff3b0f945f036e29447dc4e16e796fdf5a21a56346eba2154ecc9e3f1b93e73f8f7b1b6636786022401083038c393daeb4207a2789dbda1a6e5fe8111bb2f9ef04e4e89e56e9e70b6450a78fc511e9566980c603ad8bee264e0fa9fefac5fb26fcef5783c5129f5165a4a000bcb7804ed351f828d85096c402ebc4ef37942a568eb0140d1e4641f05cba935c6796f2484e2be3dcfef251d34def46f8121cbdddeeeddd8f6a2b5d96a8d0b0ca8010c675704edaf73c3e06582672d28c838557bb41b339c94430c9594564346fb41c466effe72272e4cbd9816111cba6e3ceb003b0279f948a1e0a5b8f38c522fac9f000df0d8b183cf2a32b5b51cff0c83f1be67431b12c17473c09a12d02887cd0b16e3344f2c66c7f24ca9d0aa1512fe04b99426419fcec91222db8536c6ed4198dea8010e0fb74ff5e0d4b158b05efda26cba3d124846a61ff3b67b641b2a358faea5f24c4ace6cfb7477cf3fe2255d256e4dcfd72d99dc326d1f2d7838cf1628dd9b442b000f20793e8c4576eae7d789d77a5c95fc211bd89a0e8253f4afa305d3708ad0bb6818549047ecc5c3c3f49983624e54b9bc6734116e0920dc13715e124f931b0055001075e45af782d6b634f1825c0321cba6b396b5e86e32bed4dc242216b747be2d204556aa82842b6709eb229ddf34ca8a525a41cf15e5a1f66de4aa736c056b17fc01118e6b298eecd58a4faa6a5a7e2a452534a47c4efa9d18dddf3637ac21b7d4735d5f78ca90e9c8bb65d46ba7325c5e15d0e7e538edb1d29c59425af155fbfae42801128c826260f1783e79846cd37051aa3f7c100322be94ec27514f8e54a818226a3a6970bd51a9bbfc7cae8980b3a968b09c6b2d75eb42f897fe48d91569073c7ff50168fd1ca000000000001ae101faedac5851e32b9b23b5f9411a8c2bac4aae3ed4dd7b811dd1a72ea4aa710000000009e7f144014155575600000000000ef592420000271045ff55b239d23cc42ea3b6946cdae276681eae8201005500ff61491a931112ddf1bd8147cd1b641375f79f5825126d665480874634fd0ace0000005c2230678000000000074f8956fffffff80000000068fd1ca00000000068fd1c9f0000005bc9ab71400000000007b811640daee5815bea917169399300f75d79706cbf8fa64cd84eb199eeec931bf47b42d3873f3470fc6bc12af174009e6af6b4c3fda9295465a2e8bb9f02b8af42df0b5e519764a063e4c9998ea0d594d9e671d989652d9ff6ba5ee15c727705812309922b1af707832b89d226cdb4b44e0ec1143b892144170faaa5eb1823af2d506f70d12437bca3aa013e518e0e8673e9f75df6773c34d181e3d1ec33454d092f6fb60b821bc67672cac7376090fa8390c49cb738b094616bcef89992ee797b4f51c9c5cd56981ec74add2799682a78cdf4b6e7f173b63a360539e0b6da06fb41b7a9992cc5fe207c3c43d9131ba4d5d3c713e873236fc0f4a95b32d5b0e729054b04e079d450]"
      ],
      "transaction": {
        "from": "0xdafe44ce6933ba24459453fe20f40d55a454a07f",
        "to": "0x41d897084fd42d0509f752954fecf48c62307b3f",
        "gas": "0x7ff32",
        "value": "0xa",
        "input": "0x5236017200000000000000000000000042000000000000000000000000000000000000060000000000000000000000005fe161a97511aa3c185cbffdcf281fd510411343000000000000000000000000000000000000000000000000002386f26fc100000000000000000000000000000000000000000000000000000000000000000000000000000000000000000000000000000000000000000000000000000000000000000000000000000000000000000000000000000000000000000000000000c000000000000000000000000000000000000000000000000000000000000000010000000000000000000000000000000000000000000000000000000000000020000000000000000000000000000000000000000000000000000000000000051f504e41550100000003b801000000040d00097e6e1602ca9a917424685e00fe3d4942faa77a1bd8eed520e0aa25e7ad82d47861dd6381ea72dcbdcd417cb261b289ba62ea436afdc532488d560edc05908d010381d4b4d0a4e103403a3c946c032da11f10308a1885344115fcb4507242a475d035f03bb4b5ad22286602ea5e37c9930a8929dc2e230384a59f7eb71adb3108680104d85df6f6691dcea6ed4fb03a8575f5c6aa2c2472656f4beeabf39b7309168ae6732f821ed0607a9d47bebf77e94304f2bc3d7cf7df64ba2c03ab1c50b2b4c39e0106908ce81b9d761cefb8d6297d4194a027522e292449199caff3b0f945f036e29447dc4e16e796fdf5a21a56346eba2154ecc9e3f1b93e73f8f7b1b6636786022401083038c393daeb4207a2789dbda1a6e5fe8111bb2f9ef04e4e89e56e9e70b6450a78fc511e9566980c603ad8bee264e0fa9fefac5fb26fcef5783c5129f5165a4a000bcb7804ed351f828d85096c402ebc4ef37942a568eb0140d1e4641f05cba935c6796f2484e2be3dcfef251d34def46f8121cbdddeeeddd8f6a2b5d96a8d0b0ca8010c675704edaf73c3e06582672d28c838557bb41b339c94430c9594564346fb41c466effe72272e4cbd9816111cba6e3ceb003b0279f948a1e0a5b8f38c522fac9f000df0d8b183cf2a32b5b51cff0c83f1be67431b12c17473c09a12d02887cd0b16e3344f2c66c7f24ca9d0aa1512fe04b99426419fcec91222db8536c6ed4198dea8010e0fb74ff5e0d4b158b05efda26cba3d124846a61ff3b67b641b2a358faea5f24c4ace6cfb7477cf3fe2255d256e4dcfd72d99dc326d1f2d7838cf1628dd9b442b000f20793e8c4576eae7d789d77a5c95fc211bd89a0e8253f4afa305d3708ad0bb6818549047ecc5c3c3f49983624e54b9bc6734116e0920dc13715e124f931b0055001075e45af782d6b634f1825c0321cba6b396b5e86e32bed4dc242216b747be2d204556aa82842b6709eb229ddf34ca8a525a41cf15e5a1f66de4aa736c056b17fc01118e6b298eecd58a4faa6a5a7e2a452534a47c4efa9d18dddf3637ac21b7d4735d5f78ca90e9c8bb65d46ba7325c5e15d0e7e538edb1d29c59425af155fbfae42801128c826260f1783e79846cd37051aa3f7c100322be94ec27514f8e54a818226a3a6970bd51a9bbfc7cae8980b3a968b09c6b2d75eb42f897fe48d91569073c7ff50168fd1ca000000000001ae101faedac5851e32b9b23b5f9411a8c2bac4aae3ed4dd7b811dd1a72ea4aa710000000009e7f144014155575600000000000ef592420000271045ff55b239d23cc42ea3b6946cdae276681eae8201005500ff61491a931112ddf1bd8147cd1b641375f79f5825126d665480874634fd0ace0000005c2230678000000000074f8956fffffff80000000068fd1ca00000000068fd1c9f0000005bc9ab71400000000007b811640daee5815bea917169399300f75d79706cbf8fa64cd84eb199eeec931bf47b42d3873f3470fc6bc12af174009e6af6b4c3fda9295465a2e8bb9f02b8af42df0b5e519764a063e4c9998ea0d594d9e671d989652d9ff6ba5ee15c727705812309922b1af707832b89d226cdb4b44e0ec1143b892144170faaa5eb1823af2d506f70d12437bca3aa013e518e0e8673e9f75df6773c34d181e3d1ec33454d092f6fb60b821bc67672cac7376090fa8390c49cb738b094616bcef89992ee797b4f51c9c5cd56981ec74add2799682a78cdf4b6e7f173b63a360539e0b6da06fb41b7a9992cc5fe207c3c43d9131ba4d5d3c713e873236fc0f4a95b32d5b0e729054b04e079d45000",
        "nonce": "0x8b",
        "chainId": "0x14a34"
      },
      "additionalContracts": [],
      "isFixedGasLimit": false
    },
    {
      "hash": null,
      "transactionType": "CALL",
      "contractName": null,
      "contractAddress": "0x41d897084fd42d0509f752954fecf48c62307b3f",
      "function": "createOrder(address,address,uint256,uint256,uint256,bytes[])",
      "arguments": [
        "0x4200000000000000000000000000000000000006",
        "0x5Fe161a97511aa3C185cBfFDCf281Fd510411343",
        "10000000000000000",
        "0",
        "0",
        "[0x504e41550100000003b801000000040d00785295ebef33a3d4591ee826e24ee0ac95455260c0ba60c88ec3ac9b91971e6a2f8009ed27e653adf499ac44ca47214787c353eb4a69b782c776d3fa4740650e010315a8952a15927245015b1953fa31acdf6ca9a133eee6ee54efe0d2142513b0807873ddbb8ef0dab68e7302e19e82420f4d4d7ff1d0b0745a1771652ec7e2d63a0004141c0f988eb73799451e9d872ea32e9ceaec55713dac380ae9d8da80ecef342a6ded06d0708b2ef41d4ea5ed8457764ef2fb2c0c03873f150c55f646d9bd18ea010627181f9bb32685e105dfc350a9d563ded5089e4bdcdc95541a4b1371b28e8d035562c2b481df6c6b4ad723c1754f5c5a5740111d706a1b6904c7c470bf3c59850008ef964b23bf929786d3fcae0c279ba4921f50b20043848f54996872282c17166d4c1a57ae76816ee02128e66a48ba504c6b1a3f71f3fa29da343c6fe3bdf6515f000b2330ce270be60d421a7f4c5587987fca49dc2053907d1bd470a2b5a2470a967807bbae0acaea7edb1498e3ecd9bd242c504e2af11c27321e431736b75e50b0a4010c4cd1a9c3e362afdab38e746d5e68883b7bb955770169c3dbc5738be25df36dec605050cc2185b210ace98c37d365321118f0e13080cd9aa4d7d402b6f6943299010dae4876f2c9dae8bf60ff89f1df10d5dfa92d0e97a5758bc2f03971652d497e7e278ca87a4618d6d083cc329e0a48d5449252089f048ff1c6af78f05d952667c6010eb61a4c41fb85e555b354f294bf61724b0d548bc053dd8bfb74c4476d2a5d0ba12a00a78b090ec00fbe69133b9e46341365eed988f6f94915da306b47b04409ec000f0e45d63c74356243c262215ab7d665b945f33832f19adacf1aea15ccad886a6410a0d28d2eff1389d92566e71be472072184158fb3e5508946683ebce00b14f201104f98de3e823b47c440cb9a1701d7c773195c4205ce65e578946bc0931c9ed836664263f0119ff5a82f919b00dd400c58f85966ea065b44fc8769abd910e521330011f46228291c9341f787f0de5a3e215cf7b6e9267c7785013e1de7066f60437a5f5a819001cffb6ce45a62a69bc48b7973466c069e433c08b895282a6fef0041f60112638fda9c4f5658abc7abbe769ad144601eeab499660afbd09b3857b1b7bb1bc269fc4907e33fdd51547dc29c475c896e59810b3d96f4f0809330dd24bcc8800b0068fd1cad00000000001ae101faedac5851e32b9b23b5f9411a8c2bac4aae3ed4dd7b811dd1a72ea4aa710000000009e7f162014155575600000000000ef59260000027107ed7c46add371f4e1d5a859e03080802ae13be7501005500ff61491a931112ddf1bd8147cd1b641375f79f5825126d665480874634fd0ace0000005c2246011b0000000007363f24fffffff80000000068fd1cad0000000068fd1cad0000005bc9fe4c300000000007b7ebd30daee5815bea917169399300f75d79706cbf8fa64cd84eb199eeec931bf47b42d3873f3470fc6bc12a5f0ddce1717c6240c9db33fa617b9cf43be70126c2d7a3d49beb63d0ab541ed9c6b245325d3e07e32007595bb8e83d9bf7f6ad30ed93d804ba72c92281327afd09ef5a1df47f961dc37457efae941fcc2638200bdb1ac68508f21670a21f996f3600145fff5a641995fcc3721ecd24b830bccc82c6502f32ff4fdfbb38a4676df7327082d19165aadf02a86f41de19b21a57e750950ff8b9560640c334a9cde7b1cef66e32a6e27ce98c5cbf2222e2de70bbf88100ed5c65d1edc6a25ba81a844aaf614402d71baf5081a2e912521f2d3e46ddcdb9ea451016d4698a]"
      ],
      "transaction": {
        "from": "0xdafe44ce6933ba24459453fe20f40d55a454a07f",
        "to": "0x41d897084fd42d0509f752954fecf48c62307b3f",
        "gas": "0x7fede",
        "value": "0xa",
        "input": "0x5236017200000000000000000000000042000000000000000000000000000000000000060000000000000000000000005fe161a97511aa3c185cbffdcf281fd510411343000000000000000000000000000000000000000000000000002386f26fc100000000000000000000000000000000000000000000000000000000000000000000000000000000000000000000000000000000000000000000000000000000000000000000000000000000000000000000000000000000000000000000000000c000000000000000000000000000000000000000000000000000000000000000010000000000000000000000000000000000000000000000000000000000000020000000000000000000000000000000000000000000000000000000000000051f504e41550100000003b801000000040d00785295ebef33a3d4591ee826e24ee0ac95455260c0ba60c88ec3ac9b91971e6a2f8009ed27e653adf499ac44ca47214787c353eb4a69b782c776d3fa4740650e010315a8952a15927245015b1953fa31acdf6ca9a133eee6ee54efe0d2142513b0807873ddbb8ef0dab68e7302e19e82420f4d4d7ff1d0b0745a1771652ec7e2d63a0004141c0f988eb73799451e9d872ea32e9ceaec55713dac380ae9d8da80ecef342a6ded06d0708b2ef41d4ea5ed8457764ef2fb2c0c03873f150c55f646d9bd18ea010627181f9bb32685e105dfc350a9d563ded5089e4bdcdc95541a4b1371b28e8d035562c2b481df6c6b4ad723c1754f5c5a5740111d706a1b6904c7c470bf3c59850008ef964b23bf929786d3fcae0c279ba4921f50b20043848f54996872282c17166d4c1a57ae76816ee02128e66a48ba504c6b1a3f71f3fa29da343c6fe3bdf6515f000b2330ce270be60d421a7f4c5587987fca49dc2053907d1bd470a2b5a2470a967807bbae0acaea7edb1498e3ecd9bd242c504e2af11c27321e431736b75e50b0a4010c4cd1a9c3e362afdab38e746d5e68883b7bb955770169c3dbc5738be25df36dec605050cc2185b210ace98c37d365321118f0e13080cd9aa4d7d402b6f6943299010dae4876f2c9dae8bf60ff89f1df10d5dfa92d0e97a5758bc2f03971652d497e7e278ca87a4618d6d083cc329e0a48d5449252089f048ff1c6af78f05d952667c6010eb61a4c41fb85e555b354f294bf61724b0d548bc053dd8bfb74c4476d2a5d0ba12a00a78b090ec00fbe69133b9e46341365eed988f6f94915da306b47b04409ec000f0e45d63c74356243c262215ab7d665b945f33832f19adacf1aea15ccad886a6410a0d28d2eff1389d92566e71be472072184158fb3e5508946683ebce00b14f201104f98de3e823b47c440cb9a1701d7c773195c4205ce65e578946bc0931c9ed836664263f0119ff5a82f919b00dd400c58f85966ea065b44fc8769abd910e521330011f46228291c9341f787f0de5a3e215cf7b6e9267c7785013e1de7066f60437a5f5a819001cffb6ce45a62a69bc48b7973466c069e433c08b895282a6fef0041f60112638fda9c4f5658abc7abbe769ad144601eeab499660afbd09b3857b1b7bb1bc269fc4907e33fdd51547dc29c475c896e59810b3d96f4f0809330dd24bcc8800b0068fd1cad00000000001ae101faedac5851e32b9b23b5f9411a8c2bac4aae3ed4dd7b811dd1a72ea4aa710000000009e7f162014155575600000000000ef59260000027107ed7c46add371f4e1d5a859e03080802ae13be7501005500ff61491a931112ddf1bd8147cd1b641375f79f5825126d665480874634fd0ace0000005c2246011b0000000007363f24fffffff80000000068fd1cad0000000068fd1cad0000005bc9fe4c300000000007b7ebd30daee5815bea917169399300f75d79706cbf8fa64cd84eb199eeec931bf47b42d3873f3470fc6bc12a5f0ddce1717c6240c9db33fa617b9cf43be70126c2d7a3d49beb63d0ab541ed9c6b245325d3e07e32007595bb8e83d9bf7f6ad30ed93d804ba72c92281327afd09ef5a1df47f961dc37457efae941fcc2638200bdb1ac68508f21670a21f996f3600145fff5a641995fcc3721ecd24b830bccc82c6502f32ff4fdfbb38a4676df7327082d19165aadf02a86f41de19b21a57e750950ff8b9560640c334a9cde7b1cef66e32a6e27ce98c5cbf2222e2de70bbf88100ed5c65d1edc6a25ba81a844aaf614402d71baf5081a2e912521f2d3e46ddcdb9ea451016d4698a00",
        "nonce": "0x8c",
        "chainId": "0x14a34"
      },
      "additionalContracts": [],
      "isFixedGasLimit": false
    },
    {
      "hash": null,
      "transactionType": "CALL",
      "contractName": null,
      "contractAddress": "0x41d897084fd42d0509f752954fecf48c62307b3f",
      "function": "createOrder(address,address,uint256,uint256,uint256,bytes[])",
      "arguments": [
        "0x4200000000000000000000000000000000000006",
        "0x5Fe161a97511aa3C185cBfFDCf281Fd510411343",
        "10000000000000000",
        "0",
        "0",
        "[0x504e41550100000003b801000000040d000a9662b149264c119df27028a3fb23c30b46f3fb5a22636fcea3a6d509ef754054aaf769b87c9554a4ac0ced6c2e03130c4a69c516de0966bdf0e0a854e3a8c60004738e513ab3bfe5f61808d1ae47d99ff9ebf936d15a18395e2dd5f1c23843f2171ebff79c37663141b1b8612ea8900d5efdba6e682d91916b8590a911dac68a52000684a8bc783c413172df55e31f0d0c42a1a6c678f6d06d6948277eda116e1fac25585b1f87df7e8477f99ace803ad0254f6d437b8dfacb06317ab99749a15feadb00082c4457eab8bf77d5e83494075d0ae5b8cada6b3835ee7d470ecbfde10c5e6eca1baf13508c616768fcc7f6560d92a8f44fc3b57ce61d1fe159486e611d61dbcc000a2758bbf3d31c3a382006d48281aadd1f1fd0f2bb7074f9da5baa4ecd8e9080d907cd03a897c2e015b85d8c094e86f600aa9f129e2893dc83df880d4d5a9337b9010baee9bc4b907644821b0b225a230fa003dc1779b883a410327053f60e4fb9bc3954e0325ac8146fc312673c34d91b1d5e4c8ce990f4d3161edb1fbd85e9a356f1010cccff8913c95fac9f0659d2de3ed4b379182a15f788d6d446e725363ed46e0fbb3883c3193459cd4a06d661ea2ccc35ce756316ada28a553305baca4214a366c6010d2340e368fd8ec19a9bc6c8f09ffb182e3632e358efce8f917ce1a33b70271a1a741e87b68afc5671d3f9792f6a23ac6f8ebaf8de394456a368f585bd822c3ec1000e8e2363ce01003e1af4890449f2034c76d61e98989b9939f6282cfced09a53a7007c692a2e36f91a6cd7676fa734b7237bab976430c1a4c253271319a27a18a12000ffe207b2905cafa0a930656cc2bc0ad6d2e2d506f7831cc2236c8afbcf83f3b034c151f98d088a1cbee778c65b0690e89b2484e32d91a20dd8da25aad23792b5700105e3e32d1cb8ef4c9e8641643a63f53c975a8a1e2154eeae932a8efb04e14667f18ae16815450cca586c7b1a0f57bb5c7775b3d7e70c2f8f8c5586d134500f09d00116f28e10b0a20d43dcb6bd4caf255cd804c26ec2166790d992b48a15951ff14ed5be95d190aae3b24f41bcaec6740ad339460d6780cd226a776cf6ac1059e86cd0112e66467d697e196d83b9795267c67536ba05d878c11631cfd053db4d5ed16c0931a7b9cb1a82a9c53b1027ea6c37fd76ae5bf1fbecc8a8e9dbc9f8113052dd0800068fd1caf00000000001ae101faedac5851e32b9b23b5f9411a8c2bac4aae3ed4dd7b811dd1a72ea4aa710000000009e7f166014155575600000000000ef5926400002710e0636921e4f480eb3ceb3813427c13b913663c8d01005500ff61491a931112ddf1bd8147cd1b641375f79f5825126d665480874634fd0ace0000005c225532400000000007829b7ffffffff80000000068fd1caf0000000068fd1cae0000005bca0996d00000000007b7e3820daee5815bea917169399300f75d79706cbf8fa64cd84eb199eeec931bf47b42d3873f3470fc6bc12ad52d4b15887f476f2c2ce0bb6ee5466b634a5c6aef99389459001de36469315c14846eb8c925da1b6c0bb713c9df90fbc08d4c9b314cb7995ef08405df8d2a6f57e746b5b3fc8218020e9adb5f6e6161df633eb5fc9b73b638c18db3c1d0d622c371304e85db50c0d606d83933d876f1a4b62094966f747706b21ea74c7ae3b396d2b1aa3a14cf23c56fd55a5354fafbb14a04fef4228a05d7ec028bba575b095c92690493040c7796d1eb9884bd004ac5202d1cb706524814a18791b4cc726cc2669c88c94f8c2d0d32936ee57d77779a219e3a7345cc076887a80e]"
      ],
      "transaction": {
        "from": "0xdafe44ce6933ba24459453fe20f40d55a454a07f",
        "to": "0x41d897084fd42d0509f752954fecf48c62307b3f",
        "gas": "0x7febb",
        "value": "0xa",
        "input": "0x5236017200000000000000000000000042000000000000000000000000000000000000060000000000000000000000005fe161a97511aa3c185cbffdcf281fd510411343000000000000000000000000000000000000000000000000002386f26fc100000000000000000000000000000000000000000000000000000000000000000000000000000000000000000000000000000000000000000000000000000000000000000000000000000000000000000000000000000000000000000000000000c000000000000000000000000000000000000000000000000000000000000000010000000000000000000000000000000000000000000000000000000000000020000000000000000000000000000000000000000000000000000000000000051f504e41550100000003b801000000040d000a9662b149264c119df27028a3fb23c30b46f3fb5a22636fcea3a6d509ef754054aaf769b87c9554a4ac0ced6c2e03130c4a69c516de0966bdf0e0a854e3a8c60004738e513ab3bfe5f61808d1ae47d99ff9ebf936d15a18395e2dd5f1c23843f2171ebff79c37663141b1b8612ea8900d5efdba6e682d91916b8590a911dac68a52000684a8bc783c413172df55e31f0d0c42a1a6c678f6d06d6948277eda116e1fac25585b1f87df7e8477f99ace803ad0254f6d437b8dfacb06317ab99749a15feadb00082c4457eab8bf77d5e83494075d0ae5b8cada6b3835ee7d470ecbfde10c5e6eca1baf13508c616768fcc7f6560d92a8f44fc3b57ce61d1fe159486e611d61dbcc000a2758bbf3d31c3a382006d48281aadd1f1fd0f2bb7074f9da5baa4ecd8e9080d907cd03a897c2e015b85d8c094e86f600aa9f129e2893dc83df880d4d5a9337b9010baee9bc4b907644821b0b225a230fa003dc1779b883a410327053f60e4fb9bc3954e0325ac8146fc312673c34d91b1d5e4c8ce990f4d3161edb1fbd85e9a356f1010cccff8913c95fac9f0659d2de3ed4b379182a15f788d6d446e725363ed46e0fbb3883c3193459cd4a06d661ea2ccc35ce756316ada28a553305baca4214a366c6010d2340e368fd8ec19a9bc6c8f09ffb182e3632e358efce8f917ce1a33b70271a1a741e87b68afc5671d3f9792f6a23ac6f8ebaf8de394456a368f585bd822c3ec1000e8e2363ce01003e1af4890449f2034c76d61e98989b9939f6282cfced09a53a7007c692a2e36f91a6cd7676fa734b7237bab976430c1a4c253271319a27a18a12000ffe207b2905cafa0a930656cc2bc0ad6d2e2d506f7831cc2236c8afbcf83f3b034c151f98d088a1cbee778c65b0690e89b2484e32d91a20dd8da25aad23792b5700105e3e32d1cb8ef4c9e8641643a63f53c975a8a1e2154eeae932a8efb04e14667f18ae16815450cca586c7b1a0f57bb5c7775b3d7e70c2f8f8c5586d134500f09d00116f28e10b0a20d43dcb6bd4caf255cd804c26ec2166790d992b48a15951ff14ed5be95d190aae3b24f41bcaec6740ad339460d6780cd226a776cf6ac1059e86cd0112e66467d697e196d83b9795267c67536ba05d878c11631cfd053db4d5ed16c0931a7b9cb1a82a9c53b1027ea6c37fd76ae5bf1fbecc8a8e9dbc9f8113052dd0800068fd1caf00000000001ae101faedac5851e32b9b23b5f9411a8c2bac4aae3ed4dd7b811dd1a72ea4aa710000000009e7f166014155575600000000000ef5926400002710e0636921e4f480eb3ceb3813427c13b913663c8d01005500ff61491a931112ddf1bd8147cd1b641375f79f5825126d665480874634fd0ace0000005c225532400000000007829b7ffffffff80000000068fd1caf0000000068fd1cae0000005bca0996d00000000007b7e3820daee5815bea917169399300f75d79706cbf8fa64cd84eb199eeec931bf47b42d3873f3470fc6bc12ad52d4b15887f476f2c2ce0bb6ee5466b634a5c6aef99389459001de36469315c14846eb8c925da1b6c0bb713c9df90fbc08d4c9b314cb7995ef08405df8d2a6f57e746b5b3fc8218020e9adb5f6e6161df633eb5fc9b73b638c18db3c1d0d622c371304e85db50c0d606d83933d876f1a4b62094966f747706b21ea74c7ae3b396d2b1aa3a14cf23c56fd55a5354fafbb14a04fef4228a05d7ec028bba575b095c92690493040c7796d1eb9884bd004ac5202d1cb706524814a18791b4cc726cc2669c88c94f8c2d0d32936ee57d77779a219e3a7345cc076887a80e00",
        "nonce": "0x8d",
        "chainId": "0x14a34"
      },
      "additionalContracts": [],
      "isFixedGasLimit": false
    },
    {
      "hash": null,
      "transactionType": "CALL",
      "contractName": null,
      "contractAddress": "0x41d897084fd42d0509f752954fecf48c62307b3f",
      "function": "createOrder(address,address,uint256,uint256,uint256,bytes[])",
      "arguments": [
        "0x4200000000000000000000000000000000000006",
        "0x5Fe161a97511aa3C185cBfFDCf281Fd510411343",
        "10000000000000000",
        "0",
        "0",
        "[0x504e41550100000003b801000000040d00863f67df27c7d5ea707266d8d129e9bc294f82d4ee9d9af1479bb999261c707b0e64deed353306b81afc9314b34aa28e2ba948ff23bf060b646946efef35a2e30103bc4aa3ffd223456ab78ea62e345363c0f085ac2f0955e0ec8c26e330f96391f910eebd85e90b63bf0f3c65428a74d58bd72ee4deae5e9d1a3a3b6c565155c8f701041202021c02b1334449f3038ffe71b12a1d028f9bf0c4cf7cbf54924f957c6d072b4b398e117fb8f292a1e168f4626f0841cbf806f53ba52059bdd3b28ce9a8a4010648d12c05f507a2e015e93f4a8fdeff01d07417ce2fd317e5f2f26ce830c049754af6d698b87fbb2ec2e2d301e2ca35f70348e651abfd8a50831f48b4ef4d20df00085b15ad1c3d2f1641d85a4a46aee7e7e6eb4ec9a3d85d13198247b8df822ed61b51bc424b44dbc5e3dfa3ce445e88df155b390084749e6fac204bca9f910ad92f0109a9d657858f11c0bd01b7d944264a2ee539a0d9be87418e7de90a8dd89efe92e26d1fd4dcffd2d890483dd83807544c959532ed69051009d666e2e2470599375d000b2bd9598f1795a008e9fd8941c7a0cd7c4341fecd0d8cc2f59fe21e4f95bd4c246559bbb347c3a7715e657508bc2d8f6375d375eefe711f0f2c100aa39f4443a9000c710d2f534cf738c4ec5fd92ea6688c1c29a787e2d14b71e7a66ae9075a82c52312c18e59673391ed2fa35820892d1145e74ec17aee73efbcd774a6e7ef15423a000d99682cfaf160b77f0df40220911c4266fce60db93ffbc829599abc674207de211f95907db08eda5d1637ed69b13f2e6e97d09d5e4d30efbc21e61c33de62c4c3000e3c724acb9084b66a26b1484a5c6d8d8333b414bbf2ddb39b1ced84c01dd839cf6741c858fe0d24e46742a5c1211cafe344e9e8740dafa858f07e1ff6cecb1588010f7b5d9e1f9ea6e69dcd444b605f0422661e158eac42badeae7d56d196bcbccea05832bca425a27458c5e61ea059f517c93e84d2625f8720b0216a15706ced1a9600101239ab3dfd8346d1367b6389fddb6fe7d78dadc3270ff811f23c96fa1caa37d57ed1e893ef975d9f4b28b489ef974a19b0fb80c0ccbecda01aaeb5253ea17f5100114d0a0301891154d453fbdc793714ca6b18c253fdc0a58c6ae331cc8e0c2deeae6597f1cbff610481e97334f4d73f401d5046eda4e29d1a484c3c9ff2e3ca65630068fd1cb100000000001ae101faedac5851e32b9b23b5f9411a8c2bac4aae3ed4dd7b811dd1a72ea4aa710000000009e7f16b014155575600000000000ef5926900002710994c804d05b40d2507505b01dbdd4a75c1cf55d501005500ff61491a931112ddf1bd8147cd1b641375f79f5825126d665480874634fd0ace0000005c2282f9000000000006a5e0e9fffffff80000000068fd1cb10000000068fd1cb10000005bca19c3700000000007b7ab110daee5815bea917169399300f75d79706cbf8fa64cd84eb199eeec931bf47b42d3873f3470fc6bc12a3711c0e04afc995655bc4fa30800661978e39881139b9114f16021b73b8966252cdf150a9636a0d00d27aac3078c17c6ea09ca507fd8160e20e5e5369dc6ffe5803ace5e410e7f529f93e68f84d192b74c9e44fc6e12a556ec4fe996fc961a76caa1bd3463e5fe57ab3c6df8c8f454d79ee656be69e6f023316d251774eac2b1663c7a3052284a3586e76f5e7708799a63fd1fe080e937d25062263c896d3063cdc47902f82114e2fee27c3155b2d3db30728994b488fae574808c4dc35589cc1ae7c9df16a972ea8ccb4e33a8ce28f0bb32c08054e135cf488c29d7]"
      ],
      "transaction": {
        "from": "0xdafe44ce6933ba24459453fe20f40d55a454a07f",
        "to": "0x41d897084fd42d0509f752954fecf48c62307b3f",
        "gas": "0x7ff25",
        "value": "0xa",
        "input": "0x5236017200000000000000000000000042000000000000000000000000000000000000060000000000000000000000005fe161a97511aa3c185cbffdcf281fd510411343000000000000000000000000000000000000000000000000002386f26fc100000000000000000000000000000000000000000000000000000000000000000000000000000000000000000000000000000000000000000000000000000000000000000000000000000000000000000000000000000000000000000000000000c000000000000000000000000000000000000000000000000000000000000000010000000000000000000000000000000000000000000000000000000000000020000000000000000000000000000000000000000000000000000000000000051f504e41550100000003b801000000040d00863f67df27c7d5ea707266d8d129e9bc294f82d4ee9d9af1479bb999261c707b0e64deed353306b81afc9314b34aa28e2ba948ff23bf060b646946efef35a2e30103bc4aa3ffd223456ab78ea62e345363c0f085ac2f0955e0ec8c26e330f96391f910eebd85e90b63bf0f3c65428a74d58bd72ee4deae5e9d1a3a3b6c565155c8f701041202021c02b1334449f3038ffe71b12a1d028f9bf0c4cf7cbf54924f957c6d072b4b398e117fb8f292a1e168f4626f0841cbf806f53ba52059bdd3b28ce9a8a4010648d12c05f507a2e015e93f4a8fdeff01d07417ce2fd317e5f2f26ce830c049754af6d698b87fbb2ec2e2d301e2ca35f70348e651abfd8a50831f48b4ef4d20df00085b15ad1c3d2f1641d85a4a46aee7e7e6eb4ec9a3d85d13198247b8df822ed61b51bc424b44dbc5e3dfa3ce445e88df155b390084749e6fac204bca9f910ad92f0109a9d657858f11c0bd01b7d944264a2ee539a0d9be87418e7de90a8dd89efe92e26d1fd4dcffd2d890483dd83807544c959532ed69051009d666e2e2470599375d000b2bd9598f1795a008e9fd8941c7a0cd7c4341fecd0d8cc2f59fe21e4f95bd4c246559bbb347c3a7715e657508bc2d8f6375d375eefe711f0f2c100aa39f4443a9000c710d2f534cf738c4ec5fd92ea6688c1c29a787e2d14b71e7a66ae9075a82c52312c18e59673391ed2fa35820892d1145e74ec17aee73efbcd774a6e7ef15423a000d99682cfaf160b77f0df40220911c4266fce60db93ffbc829599abc674207de211f95907db08eda5d1637ed69b13f2e6e97d09d5e4d30efbc21e61c33de62c4c3000e3c724acb9084b66a26b1484a5c6d8d8333b414bbf2ddb39b1ced84c01dd839cf6741c858fe0d24e46742a5c1211cafe344e9e8740dafa858f07e1ff6cecb1588010f7b5d9e1f9ea6e69dcd444b605f0422661e158eac42badeae7d56d196bcbccea05832bca425a27458c5e61ea059f517c93e84d2625f8720b0216a15706ced1a9600101239ab3dfd8346d1367b6389fddb6fe7d78dadc3270ff811f23c96fa1caa37d57ed1e893ef975d9f4b28b489ef974a19b0fb80c0ccbecda01aaeb5253ea17f5100114d0a0301891154d453fbdc793714ca6b18c253fdc0a58c6ae331cc8e0c2deeae6597f1cbff610481e97334f4d73f401d5046eda4e29d1a484c3c9ff2e3ca65630068fd1cb100000000001ae101faedac5851e32b9b23b5f9411a8c2bac4aae3ed4dd7b811dd1a72ea4aa710000000009e7f16b014155575600000000000ef5926900002710994c804d05b40d2507505b01dbdd4a75c1cf55d501005500ff61491a931112ddf1bd8147cd1b641375f79f5825126d665480874634fd0ace0000005c2282f9000000000006a5e0e9fffffff80000000068fd1cb10000000068fd1cb10000005bca19c3700000000007b7ab110daee5815bea917169399300f75d79706cbf8fa64cd84eb199eeec931bf47b42d3873f3470fc6bc12a3711c0e04afc995655bc4fa30800661978e39881139b9114f16021b73b8966252cdf150a9636a0d00d27aac3078c17c6ea09ca507fd8160e20e5e5369dc6ffe5803ace5e410e7f529f93e68f84d192b74c9e44fc6e12a556ec4fe996fc961a76caa1bd3463e5fe57ab3c6df8c8f454d79ee656be69e6f023316d251774eac2b1663c7a3052284a3586e76f5e7708799a63fd1fe080e937d25062263c896d3063cdc47902f82114e2fee27c3155b2d3db30728994b488fae574808c4dc35589cc1ae7c9df16a972ea8ccb4e33a8ce28f0bb32c08054e135cf488c29d700",
        "nonce": "0x8e",
        "chainId": "0x14a34"
      },
      "additionalContracts": [],
      "isFixedGasLimit": false
    },
    {
      "hash": null,
      "transactionType": "CALL",
      "contractName": null,
      "contractAddress": "0x41d897084fd42d0509f752954fecf48c62307b3f",
      "function": "createOrder(address,address,uint256,uint256,uint256,bytes[])",
      "arguments": [
        "0x4200000000000000000000000000000000000006",
        "0x5Fe161a97511aa3C185cBfFDCf281Fd510411343",
        "10000000000000000",
        "0",
        "0",
        "[0x504e41550100000003b801000000040d0007ae2ebd23884eea285e8e959e4185f867faf6b2bcbfc6e65338d036e9b101a61d63a6f333bc8aef3af4ff9ab525e3c0010ccca7f1f0b4d1a8403caaee7d635d0002bb95fc35dc66e8159ea4d71e4bf8691b84e250792e6ed0de747e2df7adaf24ce5588ca7dcb07545bfa74c63a845410e149ea95c430a66b47290ec2e8333b779901035dffcbd73389d6b55ec77a73f15c12301cbeba2be4c88a7c9262a6af1706e4301f446063983f7a98d304ef44afbccd2d4881c72d70471d0b7eb2da9c79ffebd201047ce700809cdb3df0490b78a58e433c062c341962248eebd47d6e50244ce2fdf753a307a9b57f1b752c2e1b91cf55f6e96ea7b220e2007c876072b9f36bf727570006e567e30e7f316db66b6ce5a0681f9cb5923f20d5000b47614660459459a46ea62d80f883b24a6b37e106ab7098d93d9b3b57a64973a49217aa90e7a9c82ea4ab010899715ebbfe09255f9bf3a4a8d63217f10ec231e1397f614139464f4713009a076b7d55d431310b0de345d44230b4c95530006064689eb27aa2b0562a5ce8f8f8000b408a083113179ed56f242c267791f8ce6e6cb527c6adea8bf81c443804a04d2456ee6dc2838ac3339635491bc8b872405d68c346d4db112687ff445445bb000e010cefc0636ec87b735fef0d76937f1a869b040caddc4269aff15a35bd2adee732ee29ad7c0280c6ab2eca4c5d89bcfa5df0608ff7e603019d80983082ebafaf68d0000dc62e9918c6ebb4a15705c3cb137f98a77f7c7e5d8d8a523d9fb35a779d9dfe0227b11e7c1f267e08c77fd700fc6d2c1b482f4309e89c4061d7c5ed216ec03c7c010ec748d426fc78131e8ef1b0a2da3ddae14204f7cd8c78886fb323f8d0b137f05d792a67968db0382deae1a265f296045095897c8237996cb457aaefb965ab98d3010f0cc8376109ce8f8f833b6eaa193bc739c4c4a0a8907fcccd89e61c07e1e48ea014174b322120e4a27e3cd8def603a56cb0fa309cfb8a8b12161c4da9c39bd0430110602eaf31c6be163f78f96cf212301ab84b729605d48ed0356030375e68a32cf96cad2a2a6826bc8c24ec8bb83a2ef24380de401d8db52a4333e58e10b1bd707d0011c50a747d7b09734324cc9c5959fc1974bb9f56ae771440c9229a3c8e2a31a7517776f161977092fc249b5a49d8394a76324eae183c05b753ca5bf0f1b1e9c9e70168fd1cb300000000001ae101faedac5851e32b9b23b5f9411a8c2bac4aae3ed4dd7b811dd1a72ea4aa710000000009e7f170014155575600000000000ef5926e000027100c4792711732ad6a201c76fe11696137156b76dc01005500ff61491a931112ddf1bd8147cd1b641375f79f5825126d665480874634fd0ace0000005c2271bc410000000006270df6fffffff80000000068fd1cb30000000068fd1cb20000005bca2953d00000000007b783190daee5815bea917169399300f75d79706cbf8fa64cd84eb199eeec931bf47b42d3873f3470fc6bc12a483a085770fd033b25db7271ee6748efcfb3ebd2d0490644085b4c9fc89198fbeeab75eb3f8c0596f6907b4ac144dcd4111ba16686cc0f11b916371e4bd513d1657d043f362691fa80fab418d7167bf816e6c4d508b270d6ea9491e2157c7baaf30d37133056133d07fdc5c63c37faf9a840515b1724ec05e8ea53b207d01e1071c49921068a2a467add44ff8722c55af67dcc2bfeb7785298fd58b3a3942200d7af67c709d3ed141717b0559e925c8b229417951fce07294f72145b9db6b24de82ea82d7f87317ab17360e4683b5c28db7a31feb4dde09409be9c69]"
      ],
      "transaction": {
        "from": "0xdafe44ce6933ba24459453fe20f40d55a454a07f",
        "to": "0x41d897084fd42d0509f752954fecf48c62307b3f",
        "gas": "0x78cfe",
        "value": "0xa",
        "input": "0x5236017200000000000000000000000042000000000000000000000000000000000000060000000000000000000000005fe161a97511aa3c185cbffdcf281fd510411343000000000000000000000000000000000000000000000000002386f26fc100000000000000000000000000000000000000000000000000000000000000000000000000000000000000000000000000000000000000000000000000000000000000000000000000000000000000000000000000000000000000000000000000c000000000000000000000000000000000000000000000000000000000000000010000000000000000000000000000000000000000000000000000000000000020000000000000000000000000000000000000000000000000000000000000051f504e41550100000003b801000000040d0007ae2ebd23884eea285e8e959e4185f867faf6b2bcbfc6e65338d036e9b101a61d63a6f333bc8aef3af4ff9ab525e3c0010ccca7f1f0b4d1a8403caaee7d635d0002bb95fc35dc66e8159ea4d71e4bf8691b84e250792e6ed0de747e2df7adaf24ce5588ca7dcb07545bfa74c63a845410e149ea95c430a66b47290ec2e8333b779901035dffcbd73389d6b55ec77a73f15c12301cbeba2be4c88a7c9262a6af1706e4301f446063983f7a98d304ef44afbccd2d4881c72d70471d0b7eb2da9c79ffebd201047ce700809cdb3df0490b78a58e433c062c341962248eebd47d6e50244ce2fdf753a307a9b57f1b752c2e1b91cf55f6e96ea7b220e2007c876072b9f36bf727570006e567e30e7f316db66b6ce5a0681f9cb5923f20d5000b47614660459459a46ea62d80f883b24a6b37e106ab7098d93d9b3b57a64973a49217aa90e7a9c82ea4ab010899715ebbfe09255f9bf3a4a8d63217f10ec231e1397f614139464f4713009a076b7d55d431310b0de345d44230b4c95530006064689eb27aa2b0562a5ce8f8f8000b408a083113179ed56f242c267791f8ce6e6cb527c6adea8bf81c443804a04d2456ee6dc2838ac3339635491bc8b872405d68c346d4db112687ff445445bb000e010cefc0636ec87b735fef0d76937f1a869b040caddc4269aff15a35bd2adee732ee29ad7c0280c6ab2eca4c5d89bcfa5df0608ff7e603019d80983082ebafaf68d0000dc62e9918c6ebb4a15705c3cb137f98a77f7c7e5d8d8a523d9fb35a779d9dfe0227b11e7c1f267e08c77fd700fc6d2c1b482f4309e89c4061d7c5ed216ec03c7c010ec748d426fc78131e8ef1b0a2da3ddae14204f7cd8c78886fb323f8d0b137f05d792a67968db0382deae1a265f296045095897c8237996cb457aaefb965ab98d3010f0cc8376109ce8f8f833b6eaa193bc739c4c4a0a8907fcccd89e61c07e1e48ea014174b322120e4a27e3cd8def603a56cb0fa309cfb8a8b12161c4da9c39bd0430110602eaf31c6be163f78f96cf212301ab84b729605d48ed0356030375e68a32cf96cad2a2a6826bc8c24ec8bb83a2ef24380de401d8db52a4333e58e10b1bd707d0011c50a747d7b09734324cc9c5959fc1974bb9f56ae771440c9229a3c8e2a31a7517776f161977092fc249b5a49d8394a76324eae183c05b753ca5bf0f1b1e9c9e70168fd1cb300000000001ae101faedac5851e32b9b23b5f9411a8c2bac4aae3ed4dd7b811dd1a72ea4aa710000000009e7f170014155575600000000000ef5926e000027100c4792711732ad6a201c76fe11696137156b76dc01005500ff61491a931112ddf1bd8147cd1b641375f79f5825126d665480874634fd0ace0000005c2271bc410000000006270df6fffffff80000000068fd1cb30000000068fd1cb20000005bca2953d00000000007b783190daee5815bea917169399300f75d79706cbf8fa64cd84eb199eeec931bf47b42d3873f3470fc6bc12a483a085770fd033b25db7271ee6748efcfb3ebd2d0490644085b4c9fc89198fbeeab75eb3f8c0596f6907b4ac144dcd4111ba16686cc0f11b916371e4bd513d1657d043f362691fa80fab418d7167bf816e6c4d508b270d6ea9491e2157c7baaf30d37133056133d07fdc5c63c37faf9a840515b1724ec05e8ea53b207d01e1071c49921068a2a467add44ff8722c55af67dcc2bfeb7785298fd58b3a3942200d7af67c709d3ed141717b0559e925c8b229417951fce07294f72145b9db6b24de82ea82d7f87317ab17360e4683b5c28db7a31feb4dde09409be9c6900",
        "nonce": "0x8f",
        "chainId": "0x14a34"
      },
      "additionalContracts": [],
      "isFixedGasLimit": false
    },
    {
      "hash": null,
      "transactionType": "CALL",
      "contractName": null,
      "contractAddress": "0x41d897084fd42d0509f752954fecf48c62307b3f",
      "function": "createOrder(address,address,uint256,uint256,uint256,bytes[])",
      "arguments": [
        "0x4200000000000000000000000000000000000006",
        "0x5Fe161a97511aa3C185cBfFDCf281Fd510411343",
        "10000000000000000",
        "0",
        "0",
        "[0x504e41550100000003b801000000040d007738fdfb03388988b4a99ad770e7910e051ed02c857fb7c16e2107b389daf0277b5b73a12ee11d2287cddf7b360fe6954e0b66bfbf7593cc98d8ffed5988d43f00029ee992ccc29de4c1988ab0e8ab4828c334c790d4a2e7dd6974d9a52edddb2be1613da9ab0726c6bec8f53415c31584de3cf95dbe76638fb060301caa200886780003bed8d4801643586e9074f0b073f42220392c84a8ec9b924cbd16579779b448fb6e0746dbd00cf4b9de6a8d8139c2b67dc01c3eb38466d021969b44db593e56a90104365f7d47d6968c3cd7cbb5f2b99fcc73945023f7da07f9f52fc3c7e24eb120c64c42e2494dcc8e0be0996a95eea725700c031371723d65b89b87dffdeffed13e0106fbd1cd3c52c51fed79b3fe538b4115e0c03ef479fcede4946d3f905ba1cc777d58552f345d736b1a592a7171390205abf5190936ee6173e64dbb283d03ea59380108b45a26c2ecfbdd282a041c953ebab226c130ff29a81f77a09d20b1fd03c936af7d7a088a773f5f615cd2da696ec6ecfcb51b63f836aeaf7b68939ad7b1a74fa9000ae0e3a67f7f19757f5b61643862f89f07c27334c4932de27855a75a859cea9e5c575741c51724994bdc82a5102182bd729356f7de7f1f9b5a46bf34f9140602ca010b512f847d6a8a804d76ce83cf75564ea45755fee00dde2af929e220793f50f50612ded6f7760c6965eceb19e102b665017f0301de0f01d25b15be78b726365ce5000c17283b484302aeb3b1943d77b7db1b595563071a8983654b2dcb1735c6f77ded660c60b123b644b78bfbeb0f7c39dd60eac3d704338e72d66a7c132c458f858b000d7d5f37fd9c0aec8e609799e3762f6bd22175c411950fad7afa1891c8b586ef7d07ae395c3b6d1e174b6b95b714c90b33dbb08a5e66601513aeaca6da22472da5000f5b516ae5e52d265e2fc70edf102a0bad23171dafca32d627452a082265846c435d9893208195787bb8cd2a36a2b8a68a3534cbd537cfb89e2ac639df72bc7811001072822ac70aebaccb8d9da5d1355bbd7960df0d05092192fa68bd165f0fc904b611c33e9a59996e78c3987120ef0ee0ac74fdb72ccd811e09a2deffa2b3757d5a01112c2e0ee1df849d6e71e99075c24c82fe9f31643371c9cf70eedf80dced61d9dd65cfbacc53fdad98622e61c3a6a8f80ff37be5adc5c1d531e68a396647e103790068fd1cb600000000001ae101faedac5851e32b9b23b5f9411a8c2bac4aae3ed4dd7b811dd1a72ea4aa710000000009e7f177014155575600000000000ef59275000027102af12eac48399c13f04246f7b7c14e1974db387f01005500ff61491a931112ddf1bd8147cd1b641375f79f5825126d665480874634fd0ace0000005c2231150a00000000063a3938fffffff80000000068fd1cb60000000068fd1cb60000005bca4010200000000007b730cb0daee5815bea917169399300f75d79706cbf8fa64cd84eb199eeec931bf47b42d3873f3470fc6bc12a50ca4709c40dad5046693064cd9582a94fb21e72bec73926cdfb831e8bbee0401a51b69000da7e30e32a3785fe9c99666d7b70be1157a7d2930d6bfeff2a03e7893188e918b4b6a063dc7fa7752f7ba1a691c752cdcba6418d352813cac9b2141f0257d440a12692495b54a93364e443d2787614352236d8904fde9d3035c88b1abdd5ea6439d620ff3ee4e8ad9816ffb7231f71e7dd9389009b2dad4e7809381bceaf3d328f93857b77d8751424654fdd065f6eac3f3bbe3d592d4f571a126e70cddde0b8e8a93c54ac7cee8c3d6a57969a14dabc0140d64f6a7659]"
      ],
      "transaction": {
        "from": "0xdafe44ce6933ba24459453fe20f40d55a454a07f",
        "to": "0x41d897084fd42d0509f752954fecf48c62307b3f",
        "gas": "0x7ff01",
        "value": "0xa",
        "input": "0x5236017200000000000000000000000042000000000000000000000000000000000000060000000000000000000000005fe161a97511aa3c185cbffdcf281fd510411343000000000000000000000000000000000000000000000000002386f26fc100000000000000000000000000000000000000000000000000000000000000000000000000000000000000000000000000000000000000000000000000000000000000000000000000000000000000000000000000000000000000000000000000c000000000000000000000000000000000000000000000000000000000000000010000000000000000000000000000000000000000000000000000000000000020000000000000000000000000000000000000000000000000000000000000051f504e41550100000003b801000000040d007738fdfb03388988b4a99ad770e7910e051ed02c857fb7c16e2107b389daf0277b5b73a12ee11d2287cddf7b360fe6954e0b66bfbf7593cc98d8ffed5988d43f00029ee992ccc29de4c1988ab0e8ab4828c334c790d4a2e7dd6974d9a52edddb2be1613da9ab0726c6bec8f53415c31584de3cf95dbe76638fb060301caa200886780003bed8d4801643586e9074f0b073f42220392c84a8ec9b924cbd16579779b448fb6e0746dbd00cf4b9de6a8d8139c2b67dc01c3eb38466d021969b44db593e56a90104365f7d47d6968c3cd7cbb5f2b99fcc73945023f7da07f9f52fc3c7e24eb120c64c42e2494dcc8e0be0996a95eea725700c031371723d65b89b87dffdeffed13e0106fbd1cd3c52c51fed79b3fe538b4115e0c03ef479fcede4946d3f905ba1cc777d58552f345d736b1a592a7171390205abf5190936ee6173e64dbb283d03ea59380108b45a26c2ecfbdd282a041c953ebab226c130ff29a81f77a09d20b1fd03c936af7d7a088a773f5f615cd2da696ec6ecfcb51b63f836aeaf7b68939ad7b1a74fa9000ae0e3a67f7f19757f5b61643862f89f07c27334c4932de27855a75a859cea9e5c575741c51724994bdc82a5102182bd729356f7de7f1f9b5a46bf34f9140602ca010b512f847d6a8a804d76ce83cf75564ea45755fee00dde2af929e220793f50f50612ded6f7760c6965eceb19e102b665017f0301de0f01d25b15be78b726365ce5000c17283b484302aeb3b1943d77b7db1b595563071a8983654b2dcb1735c6f77ded660c60b123b644b78bfbeb0f7c39dd60eac3d704338e72d66a7c132c458f858b000d7d5f37fd9c0aec8e609799e3762f6bd22175c411950fad7afa1891c8b586ef7d07ae395c3b6d1e174b6b95b714c90b33dbb08a5e66601513aeaca6da22472da5000f5b516ae5e52d265e2fc70edf102a0bad23171dafca32d627452a082265846c435d9893208195787bb8cd2a36a2b8a68a3534cbd537cfb89e2ac639df72bc7811001072822ac70aebaccb8d9da5d1355bbd7960df0d05092192fa68bd165f0fc904b611c33e9a59996e78c3987120ef0ee0ac74fdb72ccd811e09a2deffa2b3757d5a01112c2e0ee1df849d6e71e99075c24c82fe9f31643371c9cf70eedf80dced61d9dd65cfbacc53fdad98622e61c3a6a8f80ff37be5adc5c1d531e68a396647e103790068fd1cb600000000001ae101faedac5851e32b9b23b5f9411a8c2bac4aae3ed4dd7b811dd1a72ea4aa710000000009e7f177014155575600000000000ef59275000027102af12eac48399c13f04246f7b7c14e1974db387f01005500ff61491a931112ddf1bd8147cd1b641375f79f5825126d665480874634fd0ace0000005c2231150a00000000063a3938fffffff80000000068fd1cb60000000068fd1cb60000005bca4010200000000007b730cb0daee5815bea917169399300f75d79706cbf8fa64cd84eb199eeec931bf47b42d3873f3470fc6bc12a50ca4709c40dad5046693064cd9582a94fb21e72bec73926cdfb831e8bbee0401a51b69000da7e30e32a3785fe9c99666d7b70be1157a7d2930d6bfeff2a03e7893188e918b4b6a063dc7fa7752f7ba1a691c752cdcba6418d352813cac9b2141f0257d440a12692495b54a93364e443d2787614352236d8904fde9d3035c88b1abdd5ea6439d620ff3ee4e8ad9816ffb7231f71e7dd9389009b2dad4e7809381bceaf3d328f93857b77d8751424654fdd065f6eac3f3bbe3d592d4f571a126e70cddde0b8e8a93c54ac7cee8c3d6a57969a14dabc0140d64f6a765900",
        "nonce": "0x90",
        "chainId": "0x14a34"
      },
      "additionalContracts": [],
      "isFixedGasLimit": false
    },
    {
      "hash": null,
      "transactionType": "CALL",
      "contractName": null,
      "contractAddress": "0x41d897084fd42d0509f752954fecf48c62307b3f",
      "function": "createOrder(address,address,uint256,uint256,uint256,bytes[])",
      "arguments": [
        "0x4200000000000000000000000000000000000006",
        "0x5Fe161a97511aa3C185cBfFDCf281Fd510411343",
        "10000000000000000",
        "0",
        "0",
        "[0x504e41550100000003b801000000040d00b69bb2da96513c88434ab21d418229c2e03b389cefa3e735015e98b1561e0c3318268b54c21ebf66481b6b5fd533f1bff220b4d75ff43f9c766adecc3c91b47a01032c8af459524123cbfc13b882d9d967a946478e2b3346f78ea2099d9e084efa70553ed9d4a4bf8da28ed57ff00c544064c61781e39e38a326627cb2fe8d4e852f0104fae50cc78df54c8ccfc3ae9a783be1f9ae7ddc23aad55fc4aed3b6db334c111f2ffa3f09c3f0f468ac7250a018887d2e145edab9802e08d9fdf608bc610374c30006bb2b16d02e131c5f5a156d84bcedf12464c10ef9666f8c776ca3e241e8a111af0fdfed124e4110831a1d90c96400b84ab5a2f644e387a4d4a0898201ba19bee80008f3b87fba270cfbdf4c5112da6b6cc98d42073b72a6d6d6c11aa09a1d6d9daa076d43ff5164c8b56b0977cd7737f367c35fcd72029595fa156ca27829c08590aa010af126e81957ed6c617e51559809caf2a08519c6070d2cbc8cb6c5a9a95ae27db3210936bae045dc1e7d77f1b633c92e68d720b84787f202299200795d275b7681000b5565a669c557575bb9d98e32c16fad648685126bc1934758660235610547235f6cafae9ce7ea742d4441f6c1669dedd419dbb8fa78b9988a561c482df7adb4ca010cd9c8a5b46cb709f95d18b10386f6718e5524724b260ad76f7c41d853f98da2ce31c423efdef43475c511ac9c2aafac1caf79b5bad8625d9af243b58826edbb02000db6b019170f53fb9e51f914f3c49a10debaa890c2bbbea5538fbfd6973b7e57d4196fa371431e6e6e7e2ba088817b6250f7d9516990ddde26164a8f64f1bede47000e4f2d100278186f470fc5f56799fd84dd09d7cf56eb43da6d1de3b4645913066634ba969eca034b6eabb6f68de8b9fc06ed6e56af1427b2f60152da00c227ca49010f5901e4bddbcb00439008a3bea426bc7378410d476e2ae0b5b82857f422e9a946504a420c78c484062e96981d31f7972dd352342ae35dd4070bc722d831e7a3e800105276a0f386c8bf05bc64833624334b75ad63c49351c7b2b85a49dcf7062519252fd0668c4506c6a39a9c57304ec0530848cf8cde5f5398a0895d323b4069d7ca001128ccc964ffe6aafdd7d4223e169bde58d8f4b8b2aa675dcc9e2e202ce999017557796385928f0a2dc267d7cf29797ab0d6a4a3db5fd865d4775bcba0f9c1a0760168fd1cb800000000001ae101faedac5851e32b9b23b5f9411a8c2bac4aae3ed4dd7b811dd1a72ea4aa710000000009e7f17b014155575600000000000ef59279000027104303b506f6ba84e8eabca4f2ff30b11dc56d7ffc01005500ff61491a931112ddf1bd8147cd1b641375f79f5825126d665480874634fd0ace0000005c1ff4ef3a00000000087f0715fffffff80000000068fd1cb80000000068fd1cb80000005bca4a22400000000007b73d510daee5815bea917169399300f75d79706cbf8fa64cd84eb199eeec931bf47b42d3873f3470fc6bc12a1c91547f171ebb4556f46a9687d2875f29fbbaabb4b5b9d8d59003c94afe1253f5137058125f5c6608c83d8f5c4caf04e6f9d6fc196c8c42f3e3615af7e01501ac3b49d3ea5528694389602182887f87ba5ae0ad53d58ee0d1b52b9b834fc8f14bff73d02cd6f0cec3cd1e06604dfd54baa4d987601b3a3f4c0615fe734b29bb8d72261e0d30e0fc92838073e7321a9a26c43cdf00df1d22a4aefa52a5cae63a35f0ba0752d8863ce13f439723b3da9b2338fc691238cf6b6f88ed2e1ddb5c63bbfb56f6345573752ef6cc2d11c6be5f0802bfeaab8ead099e012e73]"
      ],
      "transaction": {
        "from": "0xdafe44ce6933ba24459453fe20f40d55a454a07f",
        "to": "0x41d897084fd42d0509f752954fecf48c62307b3f",
        "gas": "0x7fede",
        "value": "0xa",
        "input": "0x5236017200000000000000000000000042000000000000000000000000000000000000060000000000000000000000005fe161a97511aa3c185cbffdcf281fd510411343000000000000000000000000000000000000000000000000002386f26fc100000000000000000000000000000000000000000000000000000000000000000000000000000000000000000000000000000000000000000000000000000000000000000000000000000000000000000000000000000000000000000000000000c000000000000000000000000000000000000000000000000000000000000000010000000000000000000000000000000000000000000000000000000000000020000000000000000000000000000000000000000000000000000000000000051f504e41550100000003b801000000040d00b69bb2da96513c88434ab21d418229c2e03b389cefa3e735015e98b1561e0c3318268b54c21ebf66481b6b5fd533f1bff220b4d75ff43f9c766adecc3c91b47a01032c8af459524123cbfc13b882d9d967a946478e2b3346f78ea2099d9e084efa70553ed9d4a4bf8da28ed57ff00c544064c61781e39e38a326627cb2fe8d4e852f0104fae50cc78df54c8ccfc3ae9a783be1f9ae7ddc23aad55fc4aed3b6db334c111f2ffa3f09c3f0f468ac7250a018887d2e145edab9802e08d9fdf608bc610374c30006bb2b16d02e131c5f5a156d84bcedf12464c10ef9666f8c776ca3e241e8a111af0fdfed124e4110831a1d90c96400b84ab5a2f644e387a4d4a0898201ba19bee80008f3b87fba270cfbdf4c5112da6b6cc98d42073b72a6d6d6c11aa09a1d6d9daa076d43ff5164c8b56b0977cd7737f367c35fcd72029595fa156ca27829c08590aa010af126e81957ed6c617e51559809caf2a08519c6070d2cbc8cb6c5a9a95ae27db3210936bae045dc1e7d77f1b633c92e68d720b84787f202299200795d275b7681000b5565a669c557575bb9d98e32c16fad648685126bc1934758660235610547235f6cafae9ce7ea742d4441f6c1669dedd419dbb8fa78b9988a561c482df7adb4ca010cd9c8a5b46cb709f95d18b10386f6718e5524724b260ad76f7c41d853f98da2ce31c423efdef43475c511ac9c2aafac1caf79b5bad8625d9af243b58826edbb02000db6b019170f53fb9e51f914f3c49a10debaa890c2bbbea5538fbfd6973b7e57d4196fa371431e6e6e7e2ba088817b6250f7d9516990ddde26164a8f64f1bede47000e4f2d100278186f470fc5f56799fd84dd09d7cf56eb43da6d1de3b4645913066634ba969eca034b6eabb6f68de8b9fc06ed6e56af1427b2f60152da00c227ca49010f5901e4bddbcb00439008a3bea426bc7378410d476e2ae0b5b82857f422e9a946504a420c78c484062e96981d31f7972dd352342ae35dd4070bc722d831e7a3e800105276a0f386c8bf05bc64833624334b75ad63c49351c7b2b85a49dcf7062519252fd0668c4506c6a39a9c57304ec0530848cf8cde5f5398a0895d323b4069d7ca001128ccc964ffe6aafdd7d4223e169bde58d8f4b8b2aa675dcc9e2e202ce999017557796385928f0a2dc267d7cf29797ab0d6a4a3db5fd865d4775bcba0f9c1a0760168fd1cb800000000001ae101faedac5851e32b9b23b5f9411a8c2bac4aae3ed4dd7b811dd1a72ea4aa710000000009e7f17b014155575600000000000ef59279000027104303b506f6ba84e8eabca4f2ff30b11dc56d7ffc01005500ff61491a931112ddf1bd8147cd1b641375f79f5825126d665480874634fd0ace0000005c1ff4ef3a00000000087f0715fffffff80000000068fd1cb80000000068fd1cb80000005bca4a22400000000007b73d510daee5815bea917169399300f75d79706cbf8fa64cd84eb199eeec931bf47b42d3873f3470fc6bc12a1c91547f171ebb4556f46a9687d2875f29fbbaabb4b5b9d8d59003c94afe1253f5137058125f5c6608c83d8f5c4caf04e6f9d6fc196c8c42f3e3615af7e01501ac3b49d3ea5528694389602182887f87ba5ae0ad53d58ee0d1b52b9b834fc8f14bff73d02cd6f0cec3cd1e06604dfd54baa4d987601b3a3f4c0615fe734b29bb8d72261e0d30e0fc92838073e7321a9a26c43cdf00df1d22a4aefa52a5cae63a35f0ba0752d8863ce13f439723b3da9b2338fc691238cf6b6f88ed2e1ddb5c63bbfb56f6345573752ef6cc2d11c6be5f0802bfeaab8ead099e012e7300",
        "nonce": "0x91",
        "chainId": "0x14a34"
      },
      "additionalContracts": [],
      "isFixedGasLimit": false
    },
    {
      "hash": null,
      "transactionType": "CALL",
      "contractName": null,
      "contractAddress": "0x41d897084fd42d0509f752954fecf48c62307b3f",
      "function": "createOrder(address,address,uint256,uint256,uint256,bytes[])",
      "arguments": [
        "0x4200000000000000000000000000000000000006",
        "0x5Fe161a97511aa3C185cBfFDCf281Fd510411343",
        "10000000000000000",
        "0",
        "0",
        "[0x504e41550100000003b801000000040d0067127431d45f54863edde5be46c0cc621b23eba1aa7847ddfd18e754a521d9e41bfb3799d56b84c1ab6648adf88d7aa6fc22c74843968334d6e3e273320d1a4d00036a1b504abf09a708499647ec07ce2a6b7f224c4c7705b30ea7c174f7b87748187f0ff56f6735fb08cb4e77ec0e5c13618a2c53245b589226b7c32311944c2ec9000471463db892a1115b3fad0abb759118e1ed1e3fb0f1cd60188a7f35918c262d8d7782cc531d1c5aed7446f4c1878359a86ebb3584d0ba88b716ebdca3bdc2e056000603016dbeb5ed0b13388d35130f7f92e3bee5f920c2f13722be11972b3b9563493f3397c99088fa80c3e1898c225bc9424dd760ad7ba67dbb801729ae529808a500084ac1b080ab7155d7a6bfd9758a6aed2053aaa2dbd44060a555219c0ad18756784fd75680f7c82cbce44dd83af7dd106d25bcfaa7017cde6d58779ed7978a8248000b6587636ea7fa67e0bc4c4267f70d2361a296eee10eed5577fc107d3692f3a7360ca7885972dd68917510f73b6ba86da8b35e377d1d8d3ed50fc265bbcb72202b010cebcbd3a5a6ea6db306bdcf2e33bf981759a19c9c2d4518d533ffb33a4a6bc9f9495305e215c64d6c66f4a57aa3df394fe5ee68629d4d79160c677cf85951aa75010d70d1848f31807007853212fb05a087db779f5521fea419697389f7a5b66264c628dcaf38251be5196223d1ed82f622b9511376609ee3fa7b4a820fcb431f0b45010e3b1b11c677e1c5ee7476a773c6ccd43a941e29c6a9063340562268d1c509b27d4f4d5d3103ff48cbb6191750282e74342424ab5c22cfef22993cd975a2a59ba3010f43a6a7a005dfd657c9e5c1a27ccc4ebc6874b15c82d05af7d70c3b2f82c33aa675d9111583223cdf31b86cc67202397ca93d852adb9c884bc51603de15f5f7620110f39cf40cd4ecbf0cbb55b9966c2857813b5568a49a269c8163e79ca4a17a2d077d1c58ee096882232bd680b73eb9e77b4cec352d2ee57a1302a9d5839be8e8440011c43b43a3fbe8f7e6f9833662568b6b256eac78472ac16c84f699ffb6c2b4ac4c7ba2eefa6d57b5206d04cd1e48fdd5e821b2a6afb6c9dc6e75bc92abcefc201f00129fd6f8f7e5435ff89d8011df001c97b16b110de35a15fd877e8dc5cb32cdc53b04e42eb3da73db71c3fc417c9b2ba977a83d5701d2321ea13b322fa2b75848870168fd1cba00000000001ae101faedac5851e32b9b23b5f9411a8c2bac4aae3ed4dd7b811dd1a72ea4aa710000000009e7f181014155575600000000000ef5927f0000271070adaba85d3d42fb124ff6213ffdf8f5993e5ef801005500ff61491a931112ddf1bd8147cd1b641375f79f5825126d665480874634fd0ace0000005c1f117a380000000008fbfbf9fffffff80000000068fd1cba0000000068fd1cba0000005bca59d9b00000000007b73a080daee5815bea917169399300f75d79706cbf8fa64cd84eb199eeec931bf47b42d3873f3470fc6bc12a4c8d952e90d731500abed0e0c176caf2c116d3d4bff63ed34c8561ed53af40cac94d7d282878d89f343ba9abff0cd99d761ce37dfc2b8f2336ad8a61ddc92fd0a344596001f707d10588f77203bf989663e70941be2e73a65ef93777e285fc50c954663b901936175ee1e8fe95ca6f3f4254d443fb08b62f1bf78071224e5c2583f3183e44fe1b5c5e65a2e20a6add3871247944cbab8d2c1333a014420ea7c9e98ca1f41141ace85c92251eaff753863696cb1bfa05f7bb921a591a08863fc7c4844861a1de21ed8a945e6e177e201715c7392d0084c815b2cc7701]"
      ],
      "transaction": {
        "from": "0xdafe44ce6933ba24459453fe20f40d55a454a07f",
        "to": "0x41d897084fd42d0509f752954fecf48c62307b3f",
        "gas": "0x78d59",
        "value": "0xa",
        "input": "0x5236017200000000000000000000000042000000000000000000000000000000000000060000000000000000000000005fe161a97511aa3c185cbffdcf281fd510411343000000000000000000000000000000000000000000000000002386f26fc100000000000000000000000000000000000000000000000000000000000000000000000000000000000000000000000000000000000000000000000000000000000000000000000000000000000000000000000000000000000000000000000000c000000000000000000000000000000000000000000000000000000000000000010000000000000000000000000000000000000000000000000000000000000020000000000000000000000000000000000000000000000000000000000000051f504e41550100000003b801000000040d0067127431d45f54863edde5be46c0cc621b23eba1aa7847ddfd18e754a521d9e41bfb3799d56b84c1ab6648adf88d7aa6fc22c74843968334d6e3e273320d1a4d00036a1b504abf09a708499647ec07ce2a6b7f224c4c7705b30ea7c174f7b87748187f0ff56f6735fb08cb4e77ec0e5c13618a2c53245b589226b7c32311944c2ec9000471463db892a1115b3fad0abb759118e1ed1e3fb0f1cd60188a7f35918c262d8d7782cc531d1c5aed7446f4c1878359a86ebb3584d0ba88b716ebdca3bdc2e056000603016dbeb5ed0b13388d35130f7f92e3bee5f920c2f13722be11972b3b9563493f3397c99088fa80c3e1898c225bc9424dd760ad7ba67dbb801729ae529808a500084ac1b080ab7155d7a6bfd9758a6aed2053aaa2dbd44060a555219c0ad18756784fd75680f7c82cbce44dd83af7dd106d25bcfaa7017cde6d58779ed7978a8248000b6587636ea7fa67e0bc4c4267f70d2361a296eee10eed5577fc107d3692f3a7360ca7885972dd68917510f73b6ba86da8b35e377d1d8d3ed50fc265bbcb72202b010cebcbd3a5a6ea6db306bdcf2e33bf981759a19c9c2d4518d533ffb33a4a6bc9f9495305e215c64d6c66f4a57aa3df394fe5ee68629d4d79160c677cf85951aa75010d70d1848f31807007853212fb05a087db779f5521fea419697389f7a5b66264c628dcaf38251be5196223d1ed82f622b9511376609ee3fa7b4a820fcb431f0b45010e3b1b11c677e1c5ee7476a773c6ccd43a941e29c6a9063340562268d1c509b27d4f4d5d3103ff48cbb6191750282e74342424ab5c22cfef22993cd975a2a59ba3010f43a6a7a005dfd657c9e5c1a27ccc4ebc6874b15c82d05af7d70c3b2f82c33aa675d9111583223cdf31b86cc67202397ca93d852adb9c884bc51603de15f5f7620110f39cf40cd4ecbf0cbb55b9966c2857813b5568a49a269c8163e79ca4a17a2d077d1c58ee096882232bd680b73eb9e77b4cec352d2ee57a1302a9d5839be8e8440011c43b43a3fbe8f7e6f9833662568b6b256eac78472ac16c84f699ffb6c2b4ac4c7ba2eefa6d57b5206d04cd1e48fdd5e821b2a6afb6c9dc6e75bc92abcefc201f00129fd6f8f7e5435ff89d8011df001c97b16b110de35a15fd877e8dc5cb32cdc53b04e42eb3da73db71c3fc417c9b2ba977a83d5701d2321ea13b322fa2b75848870168fd1cba00000000001ae101faedac5851e32b9b23b5f9411a8c2bac4aae3ed4dd7b811dd1a72ea4aa710000000009e7f181014155575600000000000ef5927f0000271070adaba85d3d42fb124ff6213ffdf8f5993e5ef801005500ff61491a931112ddf1bd8147cd1b641375f79f5825126d665480874634fd0ace0000005c1f117a380000000008fbfbf9fffffff80000000068fd1cba0000000068fd1cba0000005bca59d9b00000000007b73a080daee5815bea917169399300f75d79706cbf8fa64cd84eb199eeec931bf47b42d3873f3470fc6bc12a4c8d952e90d731500abed0e0c176caf2c116d3d4bff63ed34c8561ed53af40cac94d7d282878d89f343ba9abff0cd99d761ce37dfc2b8f2336ad8a61ddc92fd0a344596001f707d10588f77203bf989663e70941be2e73a65ef93777e285fc50c954663b901936175ee1e8fe95ca6f3f4254d443fb08b62f1bf78071224e5c2583f3183e44fe1b5c5e65a2e20a6add3871247944cbab8d2c1333a014420ea7c9e98ca1f41141ace85c92251eaff753863696cb1bfa05f7bb921a591a08863fc7c4844861a1de21ed8a945e6e177e201715c7392d0084c815b2cc770100",
        "nonce": "0x92",
        "chainId": "0x14a34"
      },
      "additionalContracts": [],
      "isFixedGasLimit": false
    },
    {
      "hash": null,
      "transactionType": "CALL",
      "contractName": null,
      "contractAddress": "0x41d897084fd42d0509f752954fecf48c62307b3f",
      "function": "createOrder(address,address,uint256,uint256,uint256,bytes[])",
      "arguments": [
        "0x4200000000000000000000000000000000000006",
        "0x5Fe161a97511aa3C185cBfFDCf281Fd510411343",
        "10000000000000000",
        "0",
        "0",
        "[0x504e41550100000003b801000000040d000f6899911685d6b9b8fcff46aeddcfdd14738a1770f71d3450e626b66559f0ba408bf8376771fccbc00f273b510559a571e7c9e8eeb1be677609b838012c32260003fb72778651b2a61daea4ca12a428cc26fae0f048d97bf1c1665e614ba8ade0a465febb765f1331661f5798a5523d9304c3bc1dd8c56f29f2bb3f54ede35fad5c0104625c0b63687b3ddef62f39b725740a988fa8942212032985af0193dd60494a8e4916be3f2939df8ce95366675307001f35c79f864043b1d47de9a9e4bd010bb00106ed76e882db742e734231010d8bf71e84ae8aa638d7508e6b5d3a3e14cfcf1eeb665b0de5529c7ad498cb7b58a4dcf80a6e9ac33baeccec24844bd0c012e447120108437dfba62c2789fcc6187ee2bebd2b6bca51dda3806aaf20e20737b56f3ec0da565205e2c89f061fbb737655bca6bc5f3f8ca30e5feb1d9fc6f724f36bdf92c2010a76041eeb47aa620310b94192f7ca16351dfeb8d9626d9deb78390c2fe67310772601ee6e9b56cf844b0a9069803c7b93b63f727cad926ee737940da3b453cea6010bd0040c82fe8a45765f250c29a3be3c35473cfccbaa26fa7e666977d07a3bd52b696f0beaaec47ee9aedd024c7080f439e57bea0f1f667088c901a80516365505000cbfd792931fa6ff53464e05897dc8e59096f6f952a0ef433045a9a07516452cbb0f4f8bdfd2178eb9acdeeb7a3e18310d907683401a9a07ff4bbb5593ca29d8b9000d7828b52519fdff981fe870924e870871e2a6ee711b46de4686c042befed6113219ce443917881bfa228bad34fb5885860ba0f9d24d31c1bb6cb8c2470bc63632010ea1533d0db23bd89df60aa17f14203c8792bc4fa43c5be92c003f5c85606fbf1a51206c105830d1487107f5e155df517733a2d1e29f226eb76f72235715f8d7d0010fe1a6f414e7e56ceb6ee5a8c87a901dc78d1714e6c2654e5ca0ae72787e590fbf3e93b91d9643b78e8dd63cabb9ca03ecaae3601f76ac417020ddf2395dc707b90010d11a9306085627d9a3eaa7bc99d0ea7d65dbf2071511199e5ffdb09e45026b8a0a81a72d6eb5274d165cdffbb4b5505a17c555e018532ce980375de90b7a26bf0111a0466cf6c009ff9f88f8fbd1bef372d267c2bd253f4a41b91f652db35b0f9e240c62e3cea837a33d8f2b45a7d9288fc8e1efac56a893ebce7e0d73c36df4c2980068fd1cbd00000000001ae101faedac5851e32b9b23b5f9411a8c2bac4aae3ed4dd7b811dd1a72ea4aa710000000009e7f186014155575600000000000ef5928400002710ef16cc957c1e47fa7f8df76d23749a51120d84f901005500ff61491a931112ddf1bd8147cd1b641375f79f5825126d665480874634fd0ace0000005c1f1380ba0000000009d93c23fffffff80000000068fd1cbd0000000068fd1cbc0000005bca6524500000000007b760b90daee5815bea917169399300f75d79706cbf8fa64cd84eb199eeec931bf47b42d3873f3470fc6bc12a5d7b98f5156d5136650bfc1ec396411d10edd53fd51238e67f80308ec799366aacb34f637cd0bdbf5e6a8b98b2c0ad7383e9af31bedef6f7e1496c338134e9269061bb281eebba14ab6cd941d2379bdc652b61e03b0d9a556869f39af148260a60dc810cb82633cc2c505e279f346da2e135134370567c48efd10e4568fba0646066eca252f06305acd1d0b968ecec57dbd5d44320447005d5617e115e412608169525977403e2e09c99d8eddd4559ce014c5ed3e5d69e7cab3094f7f36571e0a0992eb8d684d8bcec8cfb5ac209722929bb02795acbe452ee49c218]"
      ],
      "transaction": {
        "from": "0xdafe44ce6933ba24459453fe20f40d55a454a07f",
        "to": "0x41d897084fd42d0509f752954fecf48c62307b3f",
        "gas": "0x78d79",
        "value": "0xa",
        "input": "0x5236017200000000000000000000000042000000000000000000000000000000000000060000000000000000000000005fe161a97511aa3c185cbffdcf281fd510411343000000000000000000000000000000000000000000000000002386f26fc100000000000000000000000000000000000000000000000000000000000000000000000000000000000000000000000000000000000000000000000000000000000000000000000000000000000000000000000000000000000000000000000000c000000000000000000000000000000000000000000000000000000000000000010000000000000000000000000000000000000000000000000000000000000020000000000000000000000000000000000000000000000000000000000000051f504e41550100000003b801000000040d000f6899911685d6b9b8fcff46aeddcfdd14738a1770f71d3450e626b66559f0ba408bf8376771fccbc00f273b510559a571e7c9e8eeb1be677609b838012c32260003fb72778651b2a61daea4ca12a428cc26fae0f048d97bf1c1665e614ba8ade0a465febb765f1331661f5798a5523d9304c3bc1dd8c56f29f2bb3f54ede35fad5c0104625c0b63687b3ddef62f39b725740a988fa8942212032985af0193dd60494a8e4916be3f2939df8ce95366675307001f35c79f864043b1d47de9a9e4bd010bb00106ed76e882db742e734231010d8bf71e84ae8aa638d7508e6b5d3a3e14cfcf1eeb665b0de5529c7ad498cb7b58a4dcf80a6e9ac33baeccec24844bd0c012e447120108437dfba62c2789fcc6187ee2bebd2b6bca51dda3806aaf20e20737b56f3ec0da565205e2c89f061fbb737655bca6bc5f3f8ca30e5feb1d9fc6f724f36bdf92c2010a76041eeb47aa620310b94192f7ca16351dfeb8d9626d9deb78390c2fe67310772601ee6e9b56cf844b0a9069803c7b93b63f727cad926ee737940da3b453cea6010bd0040c82fe8a45765f250c29a3be3c35473cfccbaa26fa7e666977d07a3bd52b696f0beaaec47ee9aedd024c7080f439e57bea0f1f667088c901a80516365505000cbfd792931fa6ff53464e05897dc8e59096f6f952a0ef433045a9a07516452cbb0f4f8bdfd2178eb9acdeeb7a3e18310d907683401a9a07ff4bbb5593ca29d8b9000d7828b52519fdff981fe870924e870871e2a6ee711b46de4686c042befed6113219ce443917881bfa228bad34fb5885860ba0f9d24d31c1bb6cb8c2470bc63632010ea1533d0db23bd89df60aa17f14203c8792bc4fa43c5be92c003f5c85606fbf1a51206c105830d1487107f5e155df517733a2d1e29f226eb76f72235715f8d7d0010fe1a6f414e7e56ceb6ee5a8c87a901dc78d1714e6c2654e5ca0ae72787e590fbf3e93b91d9643b78e8dd63cabb9ca03ecaae3601f76ac417020ddf2395dc707b90010d11a9306085627d9a3eaa7bc99d0ea7d65dbf2071511199e5ffdb09e45026b8a0a81a72d6eb5274d165cdffbb4b5505a17c555e018532ce980375de90b7a26bf0111a0466cf6c009ff9f88f8fbd1bef372d267c2bd253f4a41b91f652db35b0f9e240c62e3cea837a33d8f2b45a7d9288fc8e1efac56a893ebce7e0d73c36df4c2980068fd1cbd00000000001ae101faedac5851e32b9b23b5f9411a8c2bac4aae3ed4dd7b811dd1a72ea4aa710000000009e7f186014155575600000000000ef5928400002710ef16cc957c1e47fa7f8df76d23749a51120d84f901005500ff61491a931112ddf1bd8147cd1b641375f79f5825126d665480874634fd0ace0000005c1f1380ba0000000009d93c23fffffff80000000068fd1cbd0000000068fd1cbc0000005bca6524500000000007b760b90daee5815bea917169399300f75d79706cbf8fa64cd84eb199eeec931bf47b42d3873f3470fc6bc12a5d7b98f5156d5136650bfc1ec396411d10edd53fd51238e67f80308ec799366aacb34f637cd0bdbf5e6a8b98b2c0ad7383e9af31bedef6f7e1496c338134e9269061bb281eebba14ab6cd941d2379bdc652b61e03b0d9a556869f39af148260a60dc810cb82633cc2c505e279f346da2e135134370567c48efd10e4568fba0646066eca252f06305acd1d0b968ecec57dbd5d44320447005d5617e115e412608169525977403e2e09c99d8eddd4559ce014c5ed3e5d69e7cab3094f7f36571e0a0992eb8d684d8bcec8cfb5ac209722929bb02795acbe452ee49c21800",
        "nonce": "0x93",
        "chainId": "0x14a34"
      },
      "additionalContracts": [],
      "isFixedGasLimit": false
    },
    {
      "hash": null,
      "transactionType": "CALL",
      "contractName": null,
      "contractAddress": "0x41d897084fd42d0509f752954fecf48c62307b3f",
      "function": "createOrder(address,address,uint256,uint256,uint256,bytes[])",
      "arguments": [
        "0x4200000000000000000000000000000000000006",
        "0x5Fe161a97511aa3C185cBfFDCf281Fd510411343",
        "10000000000000000",
        "0",
        "0",
        "[0x504e41550100000003b801000000040d001093e216288f1ff3b7eca80bd569f8f418a2a45d8f0cff86ab891a4441de4f1109fd13e28c30cb77b43cd60b9302bbe613cb8f522077610e001c437c3b0196db0003db08032f331e301f7d3ccdfb156c64b3245a26e2fce23c82ba7101259a18345d34ca97e084629d198aac5d14e4bc984edba53ae70a2ece005aaed5edaaa4a06a0004dbe63ad8dc15ce81a17ae066ce05cb17710e9d5cddeb51a626de45c355517d687d1bc3e9aa777aca49a2bc526a072988d617e3f606f14e654bb404ad0b4488f001066a9f7295c9988c95b7f8a081a52e748e335bcf1d166e96afa5095a75f36654d37bb2e21150eb8e45b8375f44d48d55e33336a5800cb0aa7f2881e4269a52a7cd0008742badd60f66028c56d231d12b718df89d860f48834409719c1db383f2ba43d279202b7ed4be24b7be07e2619adb0b09a87c4cb0720e21a0de1927f85e2d2fdd010a9eeb979ff673277047cba126e4372d9ea9dd22ba1666c9d1760220fd47f8fca73671d8ffda74b86ccc8e70fad008c4ae53fe6e299b5abcf45547daa3ce310725000bb6121291d1f7431ad1b10c0a875b528169d95474f3da95974e8e7fe486da1c9c286916cf8dde5d64eb028ae19c7304c7e8c6753156dec791e4992efdc7db07ee010c00470bbd7563f0a8e135f3f8941d8b315f3112938e4e2150f086a9268b6a068e3d6fb4eafc0ce4edec9cf0e25bbe4b6ea4abc72c1df98d96f597e155359a0649000db426ac25a5706a7a1b216f5421bf77b6a9af6f0c73f1c708b4c28ce47c0ca3007e8ac0e5c923df6bae76be1df4c44b93d54813ee95ea75d60afb3e057ce9d5ef010e7b5236ffc8581fa2f1ff072ae4a3b47c2ed40744f8597eed6777351517d27d3d6d5541191325b8388428e7f84780ade3002778f5cee57d2d5e5ac336759aab15000f0efb16b0131403febd3b6cbb283062a52c9497ead717a5e445eaa5c5862afb295b989bd9aeb61ce6a4a39d6c3d8579141b06627fc1d3f5b2b95c3a79bd5b87bd0010ac756e2039bc00841d049cab7915d07b257483ac24b503a7b790e7c4854a3f002308a5059599d39e0830019c79ffd387168177b03c04421caf5a42c12e253d1d0111daaab049328c6c0bce53a889a8657ab7e8cb7831544373ff457369a3b49a63ae66184320751acbd07ff4adfd6545f041af67616b7ce7013cf0872b4c0c6e1b3f0068fd1cbe00000000001ae101faedac5851e32b9b23b5f9411a8c2bac4aae3ed4dd7b811dd1a72ea4aa710000000009e7f18a014155575600000000000ef5928800002710df1392d17a6110c185524e791c84a498140bc54801005500ff61491a931112ddf1bd8147cd1b641375f79f5825126d665480874634fd0ace0000005c1f22711c0000000009be3723fffffff80000000068fd1cbe0000000068fd1cbd0000005bca6dafd00000000007b78cb80daee5815bea917169399300f75d79706cbf8fa64cd84eb199eeec931bf47b42d3873f3470fc6bc12ad7805d3b2a954c2eb2a646c59451963c8386eaf7a8a7c236aa63fad79d5e3070fd746c616fae33a314670f1e958fbcb12ef3493817ae35fa0b9666319260646c9f314c5d1f8351f0dec24e3a5c7b90246a6d819fde1a9dd07e5a8848596173a13056102cd3225c7d148c971fedba74239d37aec52214f3a68e9ccd61c918a922a50915f3e7d3189b220b24980c31ad4f3e57536608f6b388e65855d1166dc310137949994381eccf9a6192a513e1edfc486b210244687e7691693307ac735d18e18a3c38dc2ceed63953b87a4de280fe9ed6a6661a806d636b0e35dd]"
      ],
      "transaction": {
        "from": "0xdafe44ce6933ba24459453fe20f40d55a454a07f",
        "to": "0x41d897084fd42d0509f752954fecf48c62307b3f",
        "gas": "0x78d0f",
        "value": "0xa",
        "input": "0x5236017200000000000000000000000042000000000000000000000000000000000000060000000000000000000000005fe161a97511aa3c185cbffdcf281fd510411343000000000000000000000000000000000000000000000000002386f26fc100000000000000000000000000000000000000000000000000000000000000000000000000000000000000000000000000000000000000000000000000000000000000000000000000000000000000000000000000000000000000000000000000c000000000000000000000000000000000000000000000000000000000000000010000000000000000000000000000000000000000000000000000000000000020000000000000000000000000000000000000000000000000000000000000051f504e41550100000003b801000000040d001093e216288f1ff3b7eca80bd569f8f418a2a45d8f0cff86ab891a4441de4f1109fd13e28c30cb77b43cd60b9302bbe613cb8f522077610e001c437c3b0196db0003db08032f331e301f7d3ccdfb156c64b3245a26e2fce23c82ba7101259a18345d34ca97e084629d198aac5d14e4bc984edba53ae70a2ece005aaed5edaaa4a06a0004dbe63ad8dc15ce81a17ae066ce05cb17710e9d5cddeb51a626de45c355517d687d1bc3e9aa777aca49a2bc526a072988d617e3f606f14e654bb404ad0b4488f001066a9f7295c9988c95b7f8a081a52e748e335bcf1d166e96afa5095a75f36654d37bb2e21150eb8e45b8375f44d48d55e33336a5800cb0aa7f2881e4269a52a7cd0008742badd60f66028c56d231d12b718df89d860f48834409719c1db383f2ba43d279202b7ed4be24b7be07e2619adb0b09a87c4cb0720e21a0de1927f85e2d2fdd010a9eeb979ff673277047cba126e4372d9ea9dd22ba1666c9d1760220fd47f8fca73671d8ffda74b86ccc8e70fad008c4ae53fe6e299b5abcf45547daa3ce310725000bb6121291d1f7431ad1b10c0a875b528169d95474f3da95974e8e7fe486da1c9c286916cf8dde5d64eb028ae19c7304c7e8c6753156dec791e4992efdc7db07ee010c00470bbd7563f0a8e135f3f8941d8b315f3112938e4e2150f086a9268b6a068e3d6fb4eafc0ce4edec9cf0e25bbe4b6ea4abc72c1df98d96f597e155359a0649000db426ac25a5706a7a1b216f5421bf77b6a9af6f0c73f1c708b4c28ce47c0ca3007e8ac0e5c923df6bae76be1df4c44b93d54813ee95ea75d60afb3e057ce9d5ef010e7b5236ffc8581fa2f1ff072ae4a3b47c2ed40744f8597eed6777351517d27d3d6d5541191325b8388428e7f84780ade3002778f5cee57d2d5e5ac336759aab15000f0efb16b0131403febd3b6cbb283062a52c9497ead717a5e445eaa5c5862afb295b989bd9aeb61ce6a4a39d6c3d8579141b06627fc1d3f5b2b95c3a79bd5b87bd0010ac756e2039bc00841d049cab7915d07b257483ac24b503a7b790e7c4854a3f002308a5059599d39e0830019c79ffd387168177b03c04421caf5a42c12e253d1d0111daaab049328c6c0bce53a889a8657ab7e8cb7831544373ff457369a3b49a63ae66184320751acbd07ff4adfd6545f041af67616b7ce7013cf0872b4c0c6e1b3f0068fd1cbe00000000001ae101faedac5851e32b9b23b5f9411a8c2bac4aae3ed4dd7b811dd1a72ea4aa710000000009e7f18a014155575600000000000ef5928800002710df1392d17a6110c185524e791c84a498140bc54801005500ff61491a931112ddf1bd8147cd1b641375f79f5825126d665480874634fd0ace0000005c1f22711c0000000009be3723fffffff80000000068fd1cbe0000000068fd1cbd0000005bca6dafd00000000007b78cb80daee5815bea917169399300f75d79706cbf8fa64cd84eb199eeec931bf47b42d3873f3470fc6bc12ad7805d3b2a954c2eb2a646c59451963c8386eaf7a8a7c236aa63fad79d5e3070fd746c616fae33a314670f1e958fbcb12ef3493817ae35fa0b9666319260646c9f314c5d1f8351f0dec24e3a5c7b90246a6d819fde1a9dd07e5a8848596173a13056102cd3225c7d148c971fedba74239d37aec52214f3a68e9ccd61c918a922a50915f3e7d3189b220b24980c31ad4f3e57536608f6b388e65855d1166dc310137949994381eccf9a6192a513e1edfc486b210244687e7691693307ac735d18e18a3c38dc2ceed63953b87a4de280fe9ed6a6661a806d636b0e35dd00",
        "nonce": "0x94",
        "chainId": "0x14a34"
      },
      "additionalContracts": [],
      "isFixedGasLimit": false
    }
  ],
  "receipts": [],
  "libraries": [],
  "pending": [],
  "returns": {},
  "timestamp": 1761418436035,
  "chain": 84532,
  "commit": "d96505c"
}