{
  "transactions": [
    {
      "hash": "0xdeac59f0b4d2f8902f7275d861f3a06c9a63060e052646f37fb5b939fa9e5b7d",
      "transactionType": "CALL",
      "contractName": null,
      "contractAddress": "0x41d897084fd42d0509f752954fecf48c62307b3f",
      "function": "createOrder(address,address,uint256,uint256,uint256,bytes[])",
      "arguments": [
        "0x4200000000000000000000000000000000000006",
        "0x5Fe161a97511aa3C185cBfFDCf281Fd510411343",
        "10000000000000000",
        "0",
        "0",
        "[0x504e41550100000003b801000000040d003f310bdb414175ec34eb5d6998018bc357ac149441761bd61bd4bb9f950609861cbbb4f37b01cdc1b22aeedacf863e40665a4c7f8ed8aee1b215d31f787d759800027e0d49241ee560b769c3ba303d7c9fb9f36074d442bb101c74c50d67329fb1715ae91e641a6bd30ac186d4577170756bdae88a1b6504c8ee5b699cfc732420cb000332c8989f6c25268fdcabc18e8c1fc83a4bef28188fe3b5597b76f2234aa06e3116997aded75168cbb6e2681730e5951b1175e853669e16e8e56383b8c0961c7a0104c82ce6351c6d279bb0a56df313adce441b4e291bcbaca1ee8ca3c0d4ebb0811e2c9717ecbf8573a2dfee608f2cf12158322a38f35ed4c0fd34619055fbd62b93010612f1c0f15780f41a842c3d40dea68287444e19ae4079c8817881a0fb4817d19421f3ed4fbabd2dedc95021d0af5fba17d00cbbc7371d815e6ec9508f096fb91600083815c67723ddb66738dcc771690e16a95729fc5c4c8b5f1b22733351dc7a5ca25680b38e61e7cde54e3f40909c165d10690169d9499ba65118cb037df7fcb1c4000b5c7704516fd0a423a6524ee042360becdf5698bdee9d547d79921fe8ab74abc70a7070b48671c8f79e02a1bf5353b7604158ab94b5791a69e251fd7fc777cd5e000cbbac4056d0608baf010d4859d08084986cc0881f8b6b38124562daa3fbb1246c3427b23b869773d52d161f08281faac89e60b65016ce399c8bc5fd68d2a6859f000d4ce5e11851aed96a58effb0ec22253c825570bf59c795649818f96ae9e8a91b5328df287e99e62430c13637ac37d0d1574fb8ebd5a04e176e5b2a650ab1a156f000e4ff4087ea48b07c1cfa817957e5c6dded05c56fe5b63d08b26f6494f0f33f87e20117b1a9e9c50b15a47582da7857d3d98288fab498bde093d20ebb9af71ac57000f28441d44791c06aafa12cc5433c0451abdf260308195f74c9e1b57d631acf3cd4aa72c5c5ebdce72202fc16dc9aff6c5e98d1651b6ae07f73c4a6834d5f4557d011011e7dc7d4cc739016689a963a02a5ccf09f15166838b607789128b487434071d5ccdcf449d6388334500802a8906f8d19ab950e2621ba56c5bc23c19abccd75700112b53a9d8e0a90356dca8c6ec05223156b2f63d162c142219042a6f2b3db838a07f19f197e296d93d11ca89363f9019774c833d14c0a8e9a06e2ddd691eb714020168fd1dfd00000000001ae101faedac5851e32b9b23b5f9411a8c2bac4aae3ed4dd7b811dd1a72ea4aa710000000009e7f473014155575600000000000ef59571000027104c9c70aac6c39c2bdc295ff4638b043de4f659d901005500ff61491a931112ddf1bd8147cd1b641375f79f5825126d665480874634fd0ace0000005c293c0968000000000791b556fffffff80000000068fd1dfd0000000068fd1dfc0000005bd183f4f00000000007c3953e0daee5815bea917169399300f75d79706cbf8fa64cd84eb199eeec931bf47b42d3873f3470fc6bc12ab23da1d5f3e5a5b2f01e2ce96a502dd3d791cbee995ec938a20032c5075abe4fdc1707b49253514806413faa33196f778517c2b5b18db2a3a4330f24a1b01b35462b96385ba20b764ff13264bb56f21c3f6b08be7d5c2429991f059ed370dd6fe5f517da7efaa0314f1dfb8995d237adeb97206659c81e807a4a20ec13d1c4de26c9262c939ee3b110a0684db2c8b6ceeb76b0327f72f832bf17cfd77b6a8d35a21e3d40b62b8510fd15f0c4c7b92abac71e6afe7b977d6b3eabe0711febf83e52430aed520610df0b3790de664cea45b5f744a4fe622bd4c6c39d8e]"
      ],
      "transaction": {
        "from": "0xdafe44ce6933ba24459453fe20f40d55a454a07f",
        "to": "0x41d897084fd42d0509f752954fecf48c62307b3f",
        "value": "0xa",
        "input": "0x5236017200000000000000000000000042000000000000000000000000000000000000060000000000000000000000005fe161a97511aa3c185cbffdcf281fd510411343000000000000000000000000000000000000000000000000002386f26fc100000000000000000000000000000000000000000000000000000000000000000000000000000000000000000000000000000000000000000000000000000000000000000000000000000000000000000000000000000000000000000000000000c000000000000000000000000000000000000000000000000000000000000000010000000000000000000000000000000000000000000000000000000000000020000000000000000000000000000000000000000000000000000000000000051f504e41550100000003b801000000040d003f310bdb414175ec34eb5d6998018bc357ac149441761bd61bd4bb9f950609861cbbb4f37b01cdc1b22aeedacf863e40665a4c7f8ed8aee1b215d31f787d759800027e0d49241ee560b769c3ba303d7c9fb9f36074d442bb101c74c50d67329fb1715ae91e641a6bd30ac186d4577170756bdae88a1b6504c8ee5b699cfc732420cb000332c8989f6c25268fdcabc18e8c1fc83a4bef28188fe3b5597b76f2234aa06e3116997aded75168cbb6e2681730e5951b1175e853669e16e8e56383b8c0961c7a0104c82ce6351c6d279bb0a56df313adce441b4e291bcbaca1ee8ca3c0d4ebb0811e2c9717ecbf8573a2dfee608f2cf12158322a38f35ed4c0fd34619055fbd62b93010612f1c0f15780f41a842c3d40dea68287444e19ae4079c8817881a0fb4817d19421f3ed4fbabd2dedc95021d0af5fba17d00cbbc7371d815e6ec9508f096fb91600083815c67723ddb66738dcc771690e16a95729fc5c4c8b5f1b22733351dc7a5ca25680b38e61e7cde54e3f40909c165d10690169d9499ba65118cb037df7fcb1c4000b5c7704516fd0a423a6524ee042360becdf5698bdee9d547d79921fe8ab74abc70a7070b48671c8f79e02a1bf5353b7604158ab94b5791a69e251fd7fc777cd5e000cbbac4056d0608baf010d4859d08084986cc0881f8b6b38124562daa3fbb1246c3427b23b869773d52d161f08281faac89e60b65016ce399c8bc5fd68d2a6859f000d4ce5e11851aed96a58effb0ec22253c825570bf59c795649818f96ae9e8a91b5328df287e99e62430c13637ac37d0d1574fb8ebd5a04e176e5b2a650ab1a156f000e4ff4087ea48b07c1cfa817957e5c6dded05c56fe5b63d08b26f6494f0f33f87e20117b1a9e9c50b15a47582da7857d3d98288fab498bde093d20ebb9af71ac57000f28441d44791c06aafa12cc5433c0451abdf260308195f74c9e1b57d631acf3cd4aa72c5c5ebdce72202fc16dc9aff6c5e98d1651b6ae07f73c4a6834d5f4557d011011e7dc7d4cc739016689a963a02a5ccf09f15166838b607789128b487434071d5ccdcf449d6388334500802a8906f8d19ab950e2621ba56c5bc23c19abccd75700112b53a9d8e0a90356dca8c6ec05223156b2f63d162c142219042a6f2b3db838a07f19f197e296d93d11ca89363f9019774c833d14c0a8e9a06e2ddd691eb714020168fd1dfd00000000001ae101faedac5851e32b9b23b5f9411a8c2bac4aae3ed4dd7b811dd1a72ea4aa710000000009e7f473014155575600000000000ef59571000027104c9c70aac6c39c2bdc295ff4638b043de4f659d901005500ff61491a931112ddf1bd8147cd1b641375f79f5825126d665480874634fd0ace0000005c293c0968000000000791b556fffffff80000000068fd1dfd0000000068fd1dfc0000005bd183f4f00000000007c3953e0daee5815bea917169399300f75d79706cbf8fa64cd84eb199eeec931bf47b42d3873f3470fc6bc12ab23da1d5f3e5a5b2f01e2ce96a502dd3d791cbee995ec938a20032c5075abe4fdc1707b49253514806413faa33196f778517c2b5b18db2a3a4330f24a1b01b35462b96385ba20b764ff13264bb56f21c3f6b08be7d5c2429991f059ed370dd6fe5f517da7efaa0314f1dfb8995d237adeb97206659c81e807a4a20ec13d1c4de26c9262c939ee3b110a0684db2c8b6ceeb76b0327f72f832bf17cfd77b6a8d35a21e3d40b62b8510fd15f0c4c7b92abac71e6afe7b977d6b3eabe0711febf83e52430aed520610df0b3790de664cea45b5f744a4fe622bd4c6c39d8e00",
        "nonce": "0x9c",
        "chainId": "0x14a34"
      },
      "additionalContracts": [],
      "isFixedGasLimit": false
    },
    {
      "hash": "0xc0b77d46261c73e6e54e2173efd69e980eef1f5d9874f7437301f2263d0fc5d7",
      "transactionType": "CALL",
      "contractName": null,
      "contractAddress": "0x41d897084fd42d0509f752954fecf48c62307b3f",
      "function": "createOrder(address,address,uint256,uint256,uint256,bytes[])",
      "arguments": [
        "0x4200000000000000000000000000000000000006",
        "0x5Fe161a97511aa3C185cBfFDCf281Fd510411343",
        "10000000000000000",
        "0",
        "0",
        "[0x504e41550100000003b801000000040d00ab980eea36664f9238bb0cf21d169cc0ac4f3c8887592a118483b47bbb4ac73477a5f79c8d4d9cf2a1431898119184d356b5fbd6d82274420cb94e8c18b6ccb10002acc85b61819f5ff4650533eb51d1228df2aa8bcff6ace14a5f44bd698b89d262200dc27bcdaad2f277718c58e054accf52dc5dbb9809c1f2d838201f7346576700036969763b633b898c0e32cdfcc475308a733a787a6165ad395e68eef8bff8a2f74b3dd88d82443612e2ba6461aec0936b951ea569259d2f5f58c5e4b83e02989300045ab9290e908f63d7497b3d43af91fa6699785a12c745f8d62bc8009d796a287d7440e82774f732e408104dce36bf01df6f152fa42c01cb2a8aff3382278d852401067c2590394c7e9bea087b019a69da01b07a8209027f45295b209b0a101f14c5c9563c77c8ebaf32a788171219d8fb0bc2400a9ee6240f62243bdd75d15eb4441a01089de732ae796a671ad1b96e67ee63375335f7535e93c8bcad05a65611889bae0a19bf248f30cfb3e69cc32143ee88409cf0e04f78327f041a7c49e07a5295e908010b247b58e1c12e96551f7c970e9c4690cd8d72fc1acdf406c096ac5e37beb70f3b7b6af548e0508d4c966a0c69a306c02a10ff36e1659ffbe5a7808c43186cf97e000c65a6d9bf2abfd42d59413a2dcb3713e21a1726187804f03c5748916091696cec5dca10755d10c8166abfbe15610e388bb4f45c9fa6e5ad9f1fa2a29b3dac9d20000d61af1a443b6ec91a802e1ba00c7d3196d2b0e27807b29d39c6ca5f52f367515c08b50d4293573cdc345f157718b8ef278855403f1b5a507cef21c4cfbffc868c000ea1148e4a510a5b50596d7188322efba3a828fd604f7212d5dcb5050a940355984e1ac13cddabe57ef356caa293752212cce574158dcf3e81ac24b7f8c4f2f3c4000f2bedae16a8db6cf94ea9c5fbb7f90408e5258ec836b502728e6de6b763b2957b65f49c7a5cf108bda670bd1c068c2b41d3bc5c3cd5d9eb8e0e66bff3593fffcc0110ddee6ae89f0ff4ff594c5a3c8554a890a875aaf444a276739b8bfa5a936e2185299e5ccc7bfef1bbd8b8ee3ad8cafb7fade01b2f223291f7e75db628f738e1670111f78da301416eb24565b0279fb5b847d3aeaa25a0b3e43d480a1a4d772fc0601201c5d9afd8621ae52ae3115f72d6b372064de839db8ed0c6e1a604a1a95f3dc20068fd1e0c00000000001ae101faedac5851e32b9b23b5f9411a8c2bac4aae3ed4dd7b811dd1a72ea4aa710000000009e7f497014155575600000000000ef59595000027104417d63d29db4b25eb7936f9ce775cdf0ea2c24701005500ff61491a931112ddf1bd8147cd1b641375f79f5825126d665480874634fd0ace0000005c3921cbb700000000096c79bdfffffff80000000068fd1e0c0000000068fd1e0c0000005bd1dbb1e00000000007c51e460daee5815bea917169399300f75d79706cbf8fa64cd84eb199eeec931bf47b42d3873f3470fc6bc12aec344bf1b96a7f2781ceb9a7408f4c8dcaf1d1ab69f5e7c6802516e6f7a4a2836f3373753adc8815dd980a04f94d6afc48e3871989e21a68da09bf7f287d2036f5d9b4b353e2537c888731332dc551506d2c4cbe60d1ae3373fbeb61b62dade164e1ac7a886d6acbc9aadbeb2070c35c6155fd11078fc54cfbfc5972b5615d8bad1a2c094b688f845176754ff9774c515e5c2e8c5a415bb8867e3c9c4fc9701e0edcf157d46efd3199e35e9e2048c19df9bf97b3a09f387f0a17651236ca363420bdb1b17131f6ee26f62526503e91d83c467fa7d3632172a2d6f532]"
      ],
      "transaction": {
        "from": "0xdafe44ce6933ba24459453fe20f40d55a454a07f",
        "to": "0x41d897084fd42d0509f752954fecf48c62307b3f",
        "value": "0xa",
        "input": "0x5236017200000000000000000000000042000000000000000000000000000000000000060000000000000000000000005fe161a97511aa3c185cbffdcf281fd510411343000000000000000000000000000000000000000000000000002386f26fc100000000000000000000000000000000000000000000000000000000000000000000000000000000000000000000000000000000000000000000000000000000000000000000000000000000000000000000000000000000000000000000000000c000000000000000000000000000000000000000000000000000000000000000010000000000000000000000000000000000000000000000000000000000000020000000000000000000000000000000000000000000000000000000000000051f504e41550100000003b801000000040d00ab980eea36664f9238bb0cf21d169cc0ac4f3c8887592a118483b47bbb4ac73477a5f79c8d4d9cf2a1431898119184d356b5fbd6d82274420cb94e8c18b6ccb10002acc85b61819f5ff4650533eb51d1228df2aa8bcff6ace14a5f44bd698b89d262200dc27bcdaad2f277718c58e054accf52dc5dbb9809c1f2d838201f7346576700036969763b633b898c0e32cdfcc475308a733a787a6165ad395e68eef8bff8a2f74b3dd88d82443612e2ba6461aec0936b951ea569259d2f5f58c5e4b83e02989300045ab9290e908f63d7497b3d43af91fa6699785a12c745f8d62bc8009d796a287d7440e82774f732e408104dce36bf01df6f152fa42c01cb2a8aff3382278d852401067c2590394c7e9bea087b019a69da01b07a8209027f45295b209b0a101f14c5c9563c77c8ebaf32a788171219d8fb0bc2400a9ee6240f62243bdd75d15eb4441a01089de732ae796a671ad1b96e67ee63375335f7535e93c8bcad05a65611889bae0a19bf248f30cfb3e69cc32143ee88409cf0e04f78327f041a7c49e07a5295e908010b247b58e1c12e96551f7c970e9c4690cd8d72fc1acdf406c096ac5e37beb70f3b7b6af548e0508d4c966a0c69a306c02a10ff36e1659ffbe5a7808c43186cf97e000c65a6d9bf2abfd42d59413a2dcb3713e21a1726187804f03c5748916091696cec5dca10755d10c8166abfbe15610e388bb4f45c9fa6e5ad9f1fa2a29b3dac9d20000d61af1a443b6ec91a802e1ba00c7d3196d2b0e27807b29d39c6ca5f52f367515c08b50d4293573cdc345f157718b8ef278855403f1b5a507cef21c4cfbffc868c000ea1148e4a510a5b50596d7188322efba3a828fd604f7212d5dcb5050a940355984e1ac13cddabe57ef356caa293752212cce574158dcf3e81ac24b7f8c4f2f3c4000f2bedae16a8db6cf94ea9c5fbb7f90408e5258ec836b502728e6de6b763b2957b65f49c7a5cf108bda670bd1c068c2b41d3bc5c3cd5d9eb8e0e66bff3593fffcc0110ddee6ae89f0ff4ff594c5a3c8554a890a875aaf444a276739b8bfa5a936e2185299e5ccc7bfef1bbd8b8ee3ad8cafb7fade01b2f223291f7e75db628f738e1670111f78da301416eb24565b0279fb5b847d3aeaa25a0b3e43d480a1a4d772fc0601201c5d9afd8621ae52ae3115f72d6b372064de839db8ed0c6e1a604a1a95f3dc20068fd1e0c00000000001ae101faedac5851e32b9b23b5f9411a8c2bac4aae3ed4dd7b811dd1a72ea4aa710000000009e7f497014155575600000000000ef59595000027104417d63d29db4b25eb7936f9ce775cdf0ea2c24701005500ff61491a931112ddf1bd8147cd1b641375f79f5825126d665480874634fd0ace0000005c3921cbb700000000096c79bdfffffff80000000068fd1e0c0000000068fd1e0c0000005bd1dbb1e00000000007c51e460daee5815bea917169399300f75d79706cbf8fa64cd84eb199eeec931bf47b42d3873f3470fc6bc12aec344bf1b96a7f2781ceb9a7408f4c8dcaf1d1ab69f5e7c6802516e6f7a4a2836f3373753adc8815dd980a04f94d6afc48e3871989e21a68da09bf7f287d2036f5d9b4b353e2537c888731332dc551506d2c4cbe60d1ae3373fbeb61b62dade164e1ac7a886d6acbc9aadbeb2070c35c6155fd11078fc54cfbfc5972b5615d8bad1a2c094b688f845176754ff9774c515e5c2e8c5a415bb8867e3c9c4fc9701e0edcf157d46efd3199e35e9e2048c19df9bf97b3a09f387f0a17651236ca363420bdb1b17131f6ee26f62526503e91d83c467fa7d3632172a2d6f53200",
        "nonce": "0x9d",
        "chainId": "0x14a34"
      },
      "additionalContracts": [],
      "isFixedGasLimit": false
    },
    {
      "hash": "0xf46691ccc947daeaf8f54ad18af2018fde3de7bda47d9b356eba0940c088941a",
      "transactionType": "CALL",
      "contractName": null,
      "contractAddress": "0x41d897084fd42d0509f752954fecf48c62307b3f",
      "function": "createOrder(address,address,uint256,uint256,uint256,bytes[])",
      "arguments": [
        "0x4200000000000000000000000000000000000006",
        "0x5Fe161a97511aa3C185cBfFDCf281Fd510411343",
        "10000000000000000",
        "0",
        "0",
        "[0x504e41550100000003b801000000040d005b33be57565ad2ae1a266521862b00b2b183498dd08d2956f93016b340b2bbf030f42a3918113ab629c444fadd1a05a19ddef87da9116a572598c65e5df94e8b0102d89128514a24769d97afed6394eecea58e02585f5943d6a447dd38e9c27162d432374a4b2ed1ad135523b95e3396ddabeac164624cfdf3bda2ad0a3235eafd0b010315fa05a2758f64eaebd3fc9fd2137dac62ce684efbf280445f31d90029e9e8e42dfc5e5137852cb68ccad12790b36a364ed11f39b43012921b74179b40a2cc9f0104c66566215f63bc74de2d03431ff800122be59bb90a140219a795e0538e81f49b0ab0e152572784b7b60e6bf3961cfad57dfad6678c4df88074b948dcf135b037010657cf9cbde4d4e98ca75fa96c51ab2640e4127e239900be3c344195ee0137c7380b976c2aa0a17e792e60ac5a327842dbbb7b5355a9dd3ae56b4dc4f331971ec500083c84ac5d129b2aa8c2abe565c317d0104de7086d7600ba10fe8be8b3efd8a41b11d1852aefb5640ab317819cea6ea057d4e143f53dcc38f0ecee3ab4c7b8ad8e010ac53dc399bf96082283676d0443a82d3151817462f84b350635c37667af1b78e50c35307e910fdfac847f83ab7f2be6a3c719b9128daceecd18790f99d48f46c8000bcd37fbface597a35439585b9ae5b33f405d1bfa50f7c99e4cf2585b9e9826ec70534944415811ac2f30021c1797cc65017191b818a398294d503fcd046773bc4000cc3e7813b53404d5956cda311566e82817ba93f254aabae35d5602d9e94a48b221cb357fba2f26334780457d3d709635fb856ba84c2fe05e9d4db0505e89512ca000d5f66470a8426f586793f8fc89f84a946e39165a1c2e027959753cc970b184fe62b0eaf2041b31f979dee59b75f23189f5346ac50293222eb31f3803e0137a861010f54d01bc24b86d21f4e0d9f6175d6fdb2670e35e2a9893d9dc7b23f033e516b2d2fe89cdb7c2e528104590dd889abc8fb653b03c40faaf98ec6c36ad11cc433e50010c1c123e7ee97fa3be4fce84110ab56de614b51138eef8908d37366317e0113ee5eba1ae76494a83f1d2795b03b9bb9bba1e901200aea565292579565c101b8ce001107698a281145445e8a148aa7c3bb1be3c288d27d59e248d717f1ce9431817ead35f456a22c98484523d6442b53bb994cf91de503f4b4fe1727ab1d1c95aadb0c0168fd1e1000000000001ae101faedac5851e32b9b23b5f9411a8c2bac4aae3ed4dd7b811dd1a72ea4aa710000000009e7f49e014155575600000000000ef5959c000027100582066f8f23ba74e94bd0151c761b4c7262b69a01005500ff61491a931112ddf1bd8147cd1b641375f79f5825126d665480874634fd0ace0000005c3a2a1ba800000000099bb1bcfffffff80000000068fd1e100000000068fd1e0f0000005bd1ed3e100000000007c5755d0daee5815bea917169399300f75d79706cbf8fa64cd84eb199eeec931bf47b42d3873f3470fc6bc12a5cea851fe43c8b4a39965ce701e58f544959d35684aff3e48b6f7d0ae2ea62030a094e7a7dcff8732295f23a623f24a79fed1edc2ea7f1d8c0bac027d334b3299fc46f4d6bf0ddb6540ba7195b5dc664027a30e4af8b7d23d151d218ce2feebb062f64596f7452a510ad153972c89ad75dfa76c3f8d3b7aa2a6f22db2931438bc900c1a9b42942e53aaaddd46b4f72af386bf39fb3cf2690bf80829b6337c2ecf3898140c4effe89789e01d89bbd8f28f0d7a07ae1a5fe6a32eebc2fc6bc32d6a95e0e4cba1ae9e8f154e453f026f9278bab9c16bca64677e2b2be49]"
      ],
      "transaction": {
        "from": "0xdafe44ce6933ba24459453fe20f40d55a454a07f",
        "to": "0x41d897084fd42d0509f752954fecf48c62307b3f",
        "value": "0xa",
        "input": "0x5236017200000000000000000000000042000000000000000000000000000000000000060000000000000000000000005fe161a97511aa3c185cbffdcf281fd510411343000000000000000000000000000000000000000000000000002386f26fc100000000000000000000000000000000000000000000000000000000000000000000000000000000000000000000000000000000000000000000000000000000000000000000000000000000000000000000000000000000000000000000000000c000000000000000000000000000000000000000000000000000000000000000010000000000000000000000000000000000000000000000000000000000000020000000000000000000000000000000000000000000000000000000000000051f504e41550100000003b801000000040d005b33be57565ad2ae1a266521862b00b2b183498dd08d2956f93016b340b2bbf030f42a3918113ab629c444fadd1a05a19ddef87da9116a572598c65e5df94e8b0102d89128514a24769d97afed6394eecea58e02585f5943d6a447dd38e9c27162d432374a4b2ed1ad135523b95e3396ddabeac164624cfdf3bda2ad0a3235eafd0b010315fa05a2758f64eaebd3fc9fd2137dac62ce684efbf280445f31d90029e9e8e42dfc5e5137852cb68ccad12790b36a364ed11f39b43012921b74179b40a2cc9f0104c66566215f63bc74de2d03431ff800122be59bb90a140219a795e0538e81f49b0ab0e152572784b7b60e6bf3961cfad57dfad6678c4df88074b948dcf135b037010657cf9cbde4d4e98ca75fa96c51ab2640e4127e239900be3c344195ee0137c7380b976c2aa0a17e792e60ac5a327842dbbb7b5355a9dd3ae56b4dc4f331971ec500083c84ac5d129b2aa8c2abe565c317d0104de7086d7600ba10fe8be8b3efd8a41b11d1852aefb5640ab317819cea6ea057d4e143f53dcc38f0ecee3ab4c7b8ad8e010ac53dc399bf96082283676d0443a82d3151817462f84b350635c37667af1b78e50c35307e910fdfac847f83ab7f2be6a3c719b9128daceecd18790f99d48f46c8000bcd37fbface597a35439585b9ae5b33f405d1bfa50f7c99e4cf2585b9e9826ec70534944415811ac2f30021c1797cc65017191b818a398294d503fcd046773bc4000cc3e7813b53404d5956cda311566e82817ba93f254aabae35d5602d9e94a48b221cb357fba2f26334780457d3d709635fb856ba84c2fe05e9d4db0505e89512ca000d5f66470a8426f586793f8fc89f84a946e39165a1c2e027959753cc970b184fe62b0eaf2041b31f979dee59b75f23189f5346ac50293222eb31f3803e0137a861010f54d01bc24b86d21f4e0d9f6175d6fdb2670e35e2a9893d9dc7b23f033e516b2d2fe89cdb7c2e528104590dd889abc8fb653b03c40faaf98ec6c36ad11cc433e50010c1c123e7ee97fa3be4fce84110ab56de614b51138eef8908d37366317e0113ee5eba1ae76494a83f1d2795b03b9bb9bba1e901200aea565292579565c101b8ce001107698a281145445e8a148aa7c3bb1be3c288d27d59e248d717f1ce9431817ead35f456a22c98484523d6442b53bb994cf91de503f4b4fe1727ab1d1c95aadb0c0168fd1e1000000000001ae101faedac5851e32b9b23b5f9411a8c2bac4aae3ed4dd7b811dd1a72ea4aa710000000009e7f49e014155575600000000000ef5959c000027100582066f8f23ba74e94bd0151c761b4c7262b69a01005500ff61491a931112ddf1bd8147cd1b641375f79f5825126d665480874634fd0ace0000005c3a2a1ba800000000099bb1bcfffffff80000000068fd1e100000000068fd1e0f0000005bd1ed3e100000000007c5755d0daee5815bea917169399300f75d79706cbf8fa64cd84eb199eeec931bf47b42d3873f3470fc6bc12a5cea851fe43c8b4a39965ce701e58f544959d35684aff3e48b6f7d0ae2ea62030a094e7a7dcff8732295f23a623f24a79fed1edc2ea7f1d8c0bac027d334b3299fc46f4d6bf0ddb6540ba7195b5dc664027a30e4af8b7d23d151d218ce2feebb062f64596f7452a510ad153972c89ad75dfa76c3f8d3b7aa2a6f22db2931438bc900c1a9b42942e53aaaddd46b4f72af386bf39fb3cf2690bf80829b6337c2ecf3898140c4effe89789e01d89bbd8f28f0d7a07ae1a5fe6a32eebc2fc6bc32d6a95e0e4cba1ae9e8f154e453f026f9278bab9c16bca64677e2b2be4900",
        "nonce": "0x9e",
        "chainId": "0x14a34"
      },
      "additionalContracts": [],
      "isFixedGasLimit": false
    },
    {
      "hash": "0xb09c63f85460f5d310f4afc51590ea2eb2bce297f36d0a753e1fd1828b3dc7b6",
      "transactionType": "CALL",
      "contractName": null,
      "contractAddress": "0x41d897084fd42d0509f752954fecf48c62307b3f",
      "function": "createOrder(address,address,uint256,uint256,uint256,bytes[])",
      "arguments": [
        "0x4200000000000000000000000000000000000006",
        "0x5Fe161a97511aa3C185cBfFDCf281Fd510411343",
        "10000000000000000",
        "0",
        "0",
        "[0x504e41550100000003b801000000040d00e0d4b9bb1cb2e693fa0750ca6c0059aa707f2f888abcfa62bf27c3440003fe372009ec9d9499bfe05d6523b574161cca38960674d0b7764a6f67fe30a61297c201033117ebfa5d47fe5bd4bac4e46f7552a4c998e27e2d3c79b914822bbd98a2ea6b26fdcbb09518d47564a0200e2f04a9d1d12039d55f46c5917370d270a9d15b610004b4497bce327cc83cb7d44f7ac9740f7f9b86c6ba95296245d214490137fc56d02fc1fc874e4d9ac70c253930843aafb203dde807a76cf4ed422e8685214f16e20006b61cd5728d56760cc7e19be9ab4981009eb3005c205b3dd4dc2ac4bf5cd900af5257d6f996ddf3fd40c5752e21a9e93cfb768f3b01216848a93cabf04c56b464000737999c9e8a192cf1df0bc1f99c35ee9d30586446dffe62423b371453cdd03433153f255a985f56578771a22995da71f918aa8f8bb40faeb1cbe49895d377c6d80008f6be2120457053ec4c01ef8b1a6a3f86bf888cc295b01a645fea637725b1d89e34ada62a7dafd45fc19089847857af546863b420341424efc27f080b4eed9363000b33256d28350f92e0f4655772d25147c20d06baef66728ced74ae19dcec61178d7dbda917f3626c99945dd922ef4b269c20aa8fd5c1ad637aa6f73c1b5ce50901000cb9fcd857dd28c47d3bf641ae052520b5072d2aa4e0504b0ed882921c91ff3fea515c33b637d348a366a47f9fa91d4bd531872c37dd79a5db5fa88ee5e1d3f83d010d9cae54351dd52f670eee5a208ea18e6a74e58d95cb355c51edf59e1564aeaf761636cd39d6d026c615e474fccf3e9870df320b3880b77bb5a9bd3167b718a10d000fa84969326f45b570998bd48c3a842a81c5f3563efc8d8b589bdb8407c88f8fff2e9a795d8acaa6d61f14ae964f6fbe396d6b506fe7ea1fc6b506d6b001cf8a350010d08f675dfa538771c21a52ba32f31fe9da4893c8c4222d702180be498e27c8415368c3c8c79dbc03b43f2ffe2605e05ea929b1657bee3d373d1d585963b1eec2001153ce4aa3a49195c3ca153eb0eba512b4c8a74fe3f958860a0ea78cfeba9184997a60747753c9170f14ddf2f6e691f1ff02d4cec1d7b4165bcdd47965a65345500012e44c033564bc51b770b3ad706c4c2d7e225d1a81bf07f2bd6ba3fe2bf9febbb73bac3561959b5b2388355eebaa186b12e964b8c61f1350c775b90e31068210630168fd1e1200000000001ae101faedac5851e32b9b23b5f9411a8c2bac4aae3ed4dd7b811dd1a72ea4aa710000000009e7f4a4014155575600000000000ef595a2000027108c19085a944634b38844dcdbfb7262d0d23e5b7701005500ff61491a931112ddf1bd8147cd1b641375f79f5825126d665480874634fd0ace0000005c39f1e1150000000009924d54fffffff80000000068fd1e120000000068fd1e120000005bd1fc80500000000007c5be3d0daee5815bea917169399300f75d79706cbf8fa64cd84eb199eeec931bf47b42d3873f3470fc6bc12a21ff89b8dafd743f389f7631c101e8302833daa6e05ce2bdd613782da9cb27d9af8359edb95d0e62480c6215c16cded14f311faa21666c7360adf9d75f7452dfabc11a97f4bcb51f6c0634e2f5c701a616ee30f9b8a6012cdbedabfea5f26ed59b89780043955f55c4a67cce405e61c0dac563be5aef48c612c6a017513e8c749e3a5664ecb6a132c22467adcffd92c378731c4a359ff7cbbe37acffb341108e1c224539476742d6e87670e69cdcf1b86c2ff6350b962502087b70773c670caa0984fc44d70c967f161ec6d5465e05ce6a3b52829f9b86999e58ef44]"
      ],
      "transaction": {
        "from": "0xdafe44ce6933ba24459453fe20f40d55a454a07f",
        "to": "0x41d897084fd42d0509f752954fecf48c62307b3f",
        "value": "0xa",
        "input": "0x5236017200000000000000000000000042000000000000000000000000000000000000060000000000000000000000005fe161a97511aa3c185cbffdcf281fd510411343000000000000000000000000000000000000000000000000002386f26fc100000000000000000000000000000000000000000000000000000000000000000000000000000000000000000000000000000000000000000000000000000000000000000000000000000000000000000000000000000000000000000000000000c000000000000000000000000000000000000000000000000000000000000000010000000000000000000000000000000000000000000000000000000000000020000000000000000000000000000000000000000000000000000000000000051f504e41550100000003b801000000040d00e0d4b9bb1cb2e693fa0750ca6c0059aa707f2f888abcfa62bf27c3440003fe372009ec9d9499bfe05d6523b574161cca38960674d0b7764a6f67fe30a61297c201033117ebfa5d47fe5bd4bac4e46f7552a4c998e27e2d3c79b914822bbd98a2ea6b26fdcbb09518d47564a0200e2f04a9d1d12039d55f46c5917370d270a9d15b610004b4497bce327cc83cb7d44f7ac9740f7f9b86c6ba95296245d214490137fc56d02fc1fc874e4d9ac70c253930843aafb203dde807a76cf4ed422e8685214f16e20006b61cd5728d56760cc7e19be9ab4981009eb3005c205b3dd4dc2ac4bf5cd900af5257d6f996ddf3fd40c5752e21a9e93cfb768f3b01216848a93cabf04c56b464000737999c9e8a192cf1df0bc1f99c35ee9d30586446dffe62423b371453cdd03433153f255a985f56578771a22995da71f918aa8f8bb40faeb1cbe49895d377c6d80008f6be2120457053ec4c01ef8b1a6a3f86bf888cc295b01a645fea637725b1d89e34ada62a7dafd45fc19089847857af546863b420341424efc27f080b4eed9363000b33256d28350f92e0f4655772d25147c20d06baef66728ced74ae19dcec61178d7dbda917f3626c99945dd922ef4b269c20aa8fd5c1ad637aa6f73c1b5ce50901000cb9fcd857dd28c47d3bf641ae052520b5072d2aa4e0504b0ed882921c91ff3fea515c33b637d348a366a47f9fa91d4bd531872c37dd79a5db5fa88ee5e1d3f83d010d9cae54351dd52f670eee5a208ea18e6a74e58d95cb355c51edf59e1564aeaf761636cd39d6d026c615e474fccf3e9870df320b3880b77bb5a9bd3167b718a10d000fa84969326f45b570998bd48c3a842a81c5f3563efc8d8b589bdb8407c88f8fff2e9a795d8acaa6d61f14ae964f6fbe396d6b506fe7ea1fc6b506d6b001cf8a350010d08f675dfa538771c21a52ba32f31fe9da4893c8c4222d702180be498e27c8415368c3c8c79dbc03b43f2ffe2605e05ea929b1657bee3d373d1d585963b1eec2001153ce4aa3a49195c3ca153eb0eba512b4c8a74fe3f958860a0ea78cfeba9184997a60747753c9170f14ddf2f6e691f1ff02d4cec1d7b4165bcdd47965a65345500012e44c033564bc51b770b3ad706c4c2d7e225d1a81bf07f2bd6ba3fe2bf9febbb73bac3561959b5b2388355eebaa186b12e964b8c61f1350c775b90e31068210630168fd1e1200000000001ae101faedac5851e32b9b23b5f9411a8c2bac4aae3ed4dd7b811dd1a72ea4aa710000000009e7f4a4014155575600000000000ef595a2000027108c19085a944634b38844dcdbfb7262d0d23e5b7701005500ff61491a931112ddf1bd8147cd1b641375f79f5825126d665480874634fd0ace0000005c39f1e1150000000009924d54fffffff80000000068fd1e120000000068fd1e120000005bd1fc80500000000007c5be3d0daee5815bea917169399300f75d79706cbf8fa64cd84eb199eeec931bf47b42d3873f3470fc6bc12a21ff89b8dafd743f389f7631c101e8302833daa6e05ce2bdd613782da9cb27d9af8359edb95d0e62480c6215c16cded14f311faa21666c7360adf9d75f7452dfabc11a97f4bcb51f6c0634e2f5c701a616ee30f9b8a6012cdbedabfea5f26ed59b89780043955f55c4a67cce405e61c0dac563be5aef48c612c6a017513e8c749e3a5664ecb6a132c22467adcffd92c378731c4a359ff7cbbe37acffb341108e1c224539476742d6e87670e69cdcf1b86c2ff6350b962502087b70773c670caa0984fc44d70c967f161ec6d5465e05ce6a3b52829f9b86999e58ef4400",
        "nonce": "0x9f",
        "chainId": "0x14a34"
      },
      "additionalContracts": [],
      "isFixedGasLimit": false
    },
    {
      "hash": "0x729164c87263d87142d229142cfe61c723b33d256d7b0078e405cf2e700593c2",
      "transactionType": "CALL",
      "contractName": null,
      "contractAddress": "0x41d897084fd42d0509f752954fecf48c62307b3f",
      "function": "createOrder(address,address,uint256,uint256,uint256,bytes[])",
      "arguments": [
        "0x4200000000000000000000000000000000000006",
        "0x5Fe161a97511aa3C185cBfFDCf281Fd510411343",
        "10000000000000000",
        "0",
        "0",
        "[0x504e41550100000003b801000000040d00816b97e5ada87faeb8ef2e1ecf383f20e409f46d4497c7e4ff211e08dfce0c4a496c48fc4acc3bad127ce77b2cfb569984f29f6289b5a09f752cda2dd24e29c20102eb0c0dd8efa1bc2176f0a1b47327c4e79f8cf05e92acbcb3e9a53c6ab52286040c9453380c487774a1647c74e975854624598def4bf7d28f6b3617ece64be36c00063219d9432f8635375d7d5fbef14e5fda70992b603b603614e70ba721fc61644916441e3e3b4321856066780564d047d8a0224d053fa0fbad8ff23aa36a638d05010803bbcd24f1ed7d4b0ab1b078dc096cb90b339462b8b5ad10bbd003b0b1090867655bb7ec23d8e134a8fd9e7571bd8cadded1de01e3d002858598a300be9e21c20009bcc314cc1f546a300860409f9a556489b33fe70118a95e35b39685cd3d8ea4d24fce44b7276aa9b81434171e6fb188d07e10a71cfb047e34a6c2cbe0effdd88c000ab70e5e4ac318123149569e58f96671528471c4622bc2274f82ad09714b02b68b0ca64016a3f2dabbd731128615e7ca192fb0c99f8670b3039f09ba3324b65dbf010bf92ef2e694287299c834c07eefee88fa16cb76eb1a575405a268953aaf72ad8a3ea2579cd8006e23b6fb8fc655073cea2b056c83b52c3e45a85110e297be3e7d000c2a4b52736159747a01625d681127cd6bd1bd7c739f28570f1324ddfec61218af24902938967419a4fdc5add94d430faee36916e3b6e1403597595fb950f119f8010de9fc754d4dee971a1c328ab66b2517afbcc5bc41c15be2da84437f99aa389b955e0c1002e47127fa48077d210f9b0d12971ddfc57445e104d3dee2687ffbffba000ee36c46689e1301ae6f7e57f5dccde1c758cd30a423c87ec19b8ab1fd31665acd176645c791a4cfb816d102615c12da07bd35d5df3fab96bb8a02755a3056e0e601101d5dfe0fdb17edddb134846993b4a6f48b197261158c605376520ce62068e2b15435c7752cb71242c05b91469a726e44fb1fb2d4936609b3356ae2d2fc0643ea0011a7daf47552017920aef4c45917cd77884067ab7c69947ecffdce956b09c5d86831c19799f8713d38f728203ae62dea87c4fbc9705b3c932195937d70ac80df23001210b9fcd8745d5763874baefcb563e01d0703375fbbb1c3d7eed8fc6cc03897db51e588822b25fec90059ed18a42e7bb8942aef3871914c3cc06de4b80d26ccb50068fd1e1400000000001ae101faedac5851e32b9b23b5f9411a8c2bac4aae3ed4dd7b811dd1a72ea4aa710000000009e7f4a9014155575600000000000ef595a700002710947b4546dc068c8012b78f18dd1bd2eb39df067701005500ff61491a931112ddf1bd8147cd1b641375f79f5825126d665480874634fd0ace0000005c39fe3cc900000000099ea90dfffffff80000000068fd1e140000000068fd1e140000005bd208dc600000000007c602ca0daee5815bea917169399300f75d79706cbf8fa64cd84eb199eeec931bf47b42d3873f3470fc6bc12aa0221e993cffe95a04ffe95fce9bd8b9a69b11d6cb22238cef59dc704583f43c44763256346b4d379f5f63dd34f5f8aa84591ee75b737960c88230323fb4dc52ced969444688c2848b1fc1a0499499f67045214e2c5c51f4cfdcb2c9defd4a69fd4f26d000fc2717741e6ca588f7666e49d8fe9e3e98a8bf7ae0c12a6822664f3f85183f61a93511463a303052b57df9963af8cba1043242230a946c8ce329309297d818796519e01abb744a005b526a4a302c7b07227424ddce4f77c6acb6074e8818201d3a512abb28830ea0e0bf7cac98eaf0f555ded9707d2362]"
      ],
      "transaction": {
        "from": "0xdafe44ce6933ba24459453fe20f40d55a454a07f",
        "to": "0x41d897084fd42d0509f752954fecf48c62307b3f",
        "value": "0xa",
        "input": "0x5236017200000000000000000000000042000000000000000000000000000000000000060000000000000000000000005fe161a97511aa3c185cbffdcf281fd510411343000000000000000000000000000000000000000000000000002386f26fc100000000000000000000000000000000000000000000000000000000000000000000000000000000000000000000000000000000000000000000000000000000000000000000000000000000000000000000000000000000000000000000000000c000000000000000000000000000000000000000000000000000000000000000010000000000000000000000000000000000000000000000000000000000000020000000000000000000000000000000000000000000000000000000000000051f504e41550100000003b801000000040d00816b97e5ada87faeb8ef2e1ecf383f20e409f46d4497c7e4ff211e08dfce0c4a496c48fc4acc3bad127ce77b2cfb569984f29f6289b5a09f752cda2dd24e29c20102eb0c0dd8efa1bc2176f0a1b47327c4e79f8cf05e92acbcb3e9a53c6ab52286040c9453380c487774a1647c74e975854624598def4bf7d28f6b3617ece64be36c00063219d9432f8635375d7d5fbef14e5fda70992b603b603614e70ba721fc61644916441e3e3b4321856066780564d047d8a0224d053fa0fbad8ff23aa36a638d05010803bbcd24f1ed7d4b0ab1b078dc096cb90b339462b8b5ad10bbd003b0b1090867655bb7ec23d8e134a8fd9e7571bd8cadded1de01e3d002858598a300be9e21c20009bcc314cc1f546a300860409f9a556489b33fe70118a95e35b39685cd3d8ea4d24fce44b7276aa9b81434171e6fb188d07e10a71cfb047e34a6c2cbe0effdd88c000ab70e5e4ac318123149569e58f96671528471c4622bc2274f82ad09714b02b68b0ca64016a3f2dabbd731128615e7ca192fb0c99f8670b3039f09ba3324b65dbf010bf92ef2e694287299c834c07eefee88fa16cb76eb1a575405a268953aaf72ad8a3ea2579cd8006e23b6fb8fc655073cea2b056c83b52c3e45a85110e297be3e7d000c2a4b52736159747a01625d681127cd6bd1bd7c739f28570f1324ddfec61218af24902938967419a4fdc5add94d430faee36916e3b6e1403597595fb950f119f8010de9fc754d4dee971a1c328ab66b2517afbcc5bc41c15be2da84437f99aa389b955e0c1002e47127fa48077d210f9b0d12971ddfc57445e104d3dee2687ffbffba000ee36c46689e1301ae6f7e57f5dccde1c758cd30a423c87ec19b8ab1fd31665acd176645c791a4cfb816d102615c12da07bd35d5df3fab96bb8a02755a3056e0e601101d5dfe0fdb17edddb134846993b4a6f48b197261158c605376520ce62068e2b15435c7752cb71242c05b91469a726e44fb1fb2d4936609b3356ae2d2fc0643ea0011a7daf47552017920aef4c45917cd77884067ab7c69947ecffdce956b09c5d86831c19799f8713d38f728203ae62dea87c4fbc9705b3c932195937d70ac80df23001210b9fcd8745d5763874baefcb563e01d0703375fbbb1c3d7eed8fc6cc03897db51e588822b25fec90059ed18a42e7bb8942aef3871914c3cc06de4b80d26ccb50068fd1e1400000000001ae101faedac5851e32b9b23b5f9411a8c2bac4aae3ed4dd7b811dd1a72ea4aa710000000009e7f4a9014155575600000000000ef595a700002710947b4546dc068c8012b78f18dd1bd2eb39df067701005500ff61491a931112ddf1bd8147cd1b641375f79f5825126d665480874634fd0ace0000005c39fe3cc900000000099ea90dfffffff80000000068fd1e140000000068fd1e140000005bd208dc600000000007c602ca0daee5815bea917169399300f75d79706cbf8fa64cd84eb199eeec931bf47b42d3873f3470fc6bc12aa0221e993cffe95a04ffe95fce9bd8b9a69b11d6cb22238cef59dc704583f43c44763256346b4d379f5f63dd34f5f8aa84591ee75b737960c88230323fb4dc52ced969444688c2848b1fc1a0499499f67045214e2c5c51f4cfdcb2c9defd4a69fd4f26d000fc2717741e6ca588f7666e49d8fe9e3e98a8bf7ae0c12a6822664f3f85183f61a93511463a303052b57df9963af8cba1043242230a946c8ce329309297d818796519e01abb744a005b526a4a302c7b07227424ddce4f77c6acb6074e8818201d3a512abb28830ea0e0bf7cac98eaf0f555ded9707d236200",
        "nonce": "0xa0",
        "chainId": "0x14a34"
      },
      "additionalContracts": [],
      "isFixedGasLimit": false
    },
    {
      "hash": "0xd6e1fba23e11e9f7baee2d6d941840d5b8cb597a5ac81ea69496cdd9898775e5",
      "transactionType": "CALL",
      "contractName": null,
      "contractAddress": "0x41d897084fd42d0509f752954fecf48c62307b3f",
      "function": "createOrder(address,address,uint256,uint256,uint256,bytes[])",
      "arguments": [
        "0x4200000000000000000000000000000000000006",
        "0x5Fe161a97511aa3C185cBfFDCf281Fd510411343",
        "10000000000000000",
        "0",
        "0",
        "[0x504e41550100000003b801000000040d001f4c578b816ba1b5c385ef2785c97f6e1ffedcca0d221cb0d5f4cd3ceb38ae1d5a3087140e54db6336e2fb9460fd85b5a4fe257c3d2fcf5e223633a75dc648db0102b1942c5d93bcc33d276da4949dc8f42fab4b6c0d76a847f67149b9bec10899302349045dcf5318f66a926275a2387f9910066b008fe0feeff9b3f1c8e1e7a0ce000348c6b2f4e5265d3b08e698ba5d7bd3c87211c1a571c290f9928f3dc669c869036f0520898f6f080a21acec2407a368888d1fdbef8419790064309720d2c1b07201047512157320f1f62617bbb8637e977bc10c8a865abf809818ae441ef73adf32925c7aaa425d75f1bafed5337abb39264207f5b1dfe709b7c04b041ee1831a40c900066a23c4789ee279e2daa453f23ed63aa99b974184c9d259584e6378c26701766419556a42fc1d2cdafe1735793e3dd9f236490181e8b8d589e108abac71b6e3a00108a2c4b24bf13335140a35e07ed0e9a534c7927166915083ee137c8d8ff393350b277547c1645eb1df8ff31c5ab0e89b3380f2b1842aa16a4648c92c96d47c42e6000bc23518bc6529eb8a89d11f05eb3b717e3103293ac500f3a3c9d656b3fea4668708ecdaf2d323719d5cb8b47e4eaaf23729c3fe8b0d7392d5c3192d6a956dd0ad010d2f4d436865681ac0ad78088f1f8ba93937bfae2c78437720dc0852ea86adcaa437bd7903b741176c8f3cbef5bdb8481111cd193692f6e639d93ea1cca55b0ca3000ea5a809640dac99b1483fbbd05a9f35b11dd55fc613455a6e2f497494e64031b93f6407a95250a7827a3759cdcdb3d27ca6fe63ba3b63fc525561c8cdae416081000f41f925f0d4a517ddfb57e649ddfdf5adca84d5346715faf2751340e8d15414df26b2855d611ab66a161b16ddc8a538baea2b51222ee0aa6fb120b8a7ded8428b011076f9c0a4e108efea33fe2eb09c031b7c10ab94c8812328ae95f787f31a27c4c849de6636963164a649e370de0bb503732c4b63619d03241617cdbc0c20953cc101114dc79c24d2ad913da0ed73049ee6071666d07da7aaca672bcc291e309d23fbe72b9fbcc2c4671402b1c262c926477dd4dafce022c50dc4ae9ba3d5c3ad20dc9a0112808936e1010a13c7d6da83745047dbaecd48896cb6e76d22231642d8532b1c8f6b3f50054efc058dd636684d0de014c4b027367cec8db6aa9a82d6bc2627c8260068fd1e1600000000001ae101faedac5851e32b9b23b5f9411a8c2bac4aae3ed4dd7b811dd1a72ea4aa710000000009e7f4ae014155575600000000000ef595ac00002710e1f58593140af6b9b395af734cd2de337bd36c0801005500ff61491a931112ddf1bd8147cd1b641375f79f5825126d665480874634fd0ace0000005c39fc003b0000000007d19268fffffff80000000068fd1e160000000068fd1e160000005bd216e6200000000007c6267a0daee5815bea917169399300f75d79706cbf8fa64cd84eb199eeec931bf47b42d3873f3470fc6bc12a18a6065b8ee34aff367568b651322ca3b1ae52aaaf59267784838bf24ed4c86a59f8f7e58c6a661d195b6b489d53376e902c3751f8cf452f9aa64f97824d21693ceef6fdc4c15e2104fa9bb9fcf9c6869a397376352ac01fb920d9854a9cc1efa69fcd2137f0325e65a56f226f0f2133b9b91db29571af72432b5a755856cee4a2b5460602095743c5d673e756ef8178fa3fefc733eb6d211cfa31935cd3a9c0f3f128d2485f40c027d18b71006f9ebc0ade3967b0b9e7e0b483b7748c02c1683812991f587f958ed97d9f2b3a8a4d4a0f45367f54fb3e81d36db96f]"
      ],
      "transaction": {
        "from": "0xdafe44ce6933ba24459453fe20f40d55a454a07f",
        "to": "0x41d897084fd42d0509f752954fecf48c62307b3f",
        "value": "0xa",
        "input": "0x5236017200000000000000000000000042000000000000000000000000000000000000060000000000000000000000005fe161a97511aa3c185cbffdcf281fd510411343000000000000000000000000000000000000000000000000002386f26fc100000000000000000000000000000000000000000000000000000000000000000000000000000000000000000000000000000000000000000000000000000000000000000000000000000000000000000000000000000000000000000000000000c000000000000000000000000000000000000000000000000000000000000000010000000000000000000000000000000000000000000000000000000000000020000000000000000000000000000000000000000000000000000000000000051f504e41550100000003b801000000040d001f4c578b816ba1b5c385ef2785c97f6e1ffedcca0d221cb0d5f4cd3ceb38ae1d5a3087140e54db6336e2fb9460fd85b5a4fe257c3d2fcf5e223633a75dc648db0102b1942c5d93bcc33d276da4949dc8f42fab4b6c0d76a847f67149b9bec10899302349045dcf5318f66a926275a2387f9910066b008fe0feeff9b3f1c8e1e7a0ce000348c6b2f4e5265d3b08e698ba5d7bd3c87211c1a571c290f9928f3dc669c869036f0520898f6f080a21acec2407a368888d1fdbef8419790064309720d2c1b07201047512157320f1f62617bbb8637e977bc10c8a865abf809818ae441ef73adf32925c7aaa425d75f1bafed5337abb39264207f5b1dfe709b7c04b041ee1831a40c900066a23c4789ee279e2daa453f23ed63aa99b974184c9d259584e6378c26701766419556a42fc1d2cdafe1735793e3dd9f236490181e8b8d589e108abac71b6e3a00108a2c4b24bf13335140a35e07ed0e9a534c7927166915083ee137c8d8ff393350b277547c1645eb1df8ff31c5ab0e89b3380f2b1842aa16a4648c92c96d47c42e6000bc23518bc6529eb8a89d11f05eb3b717e3103293ac500f3a3c9d656b3fea4668708ecdaf2d323719d5cb8b47e4eaaf23729c3fe8b0d7392d5c3192d6a956dd0ad010d2f4d436865681ac0ad78088f1f8ba93937bfae2c78437720dc0852ea86adcaa437bd7903b741176c8f3cbef5bdb8481111cd193692f6e639d93ea1cca55b0ca3000ea5a809640dac99b1483fbbd05a9f35b11dd55fc613455a6e2f497494e64031b93f6407a95250a7827a3759cdcdb3d27ca6fe63ba3b63fc525561c8cdae416081000f41f925f0d4a517ddfb57e649ddfdf5adca84d5346715faf2751340e8d15414df26b2855d611ab66a161b16ddc8a538baea2b51222ee0aa6fb120b8a7ded8428b011076f9c0a4e108efea33fe2eb09c031b7c10ab94c8812328ae95f787f31a27c4c849de6636963164a649e370de0bb503732c4b63619d03241617cdbc0c20953cc101114dc79c24d2ad913da0ed73049ee6071666d07da7aaca672bcc291e309d23fbe72b9fbcc2c4671402b1c262c926477dd4dafce022c50dc4ae9ba3d5c3ad20dc9a0112808936e1010a13c7d6da83745047dbaecd48896cb6e76d22231642d8532b1c8f6b3f50054efc058dd636684d0de014c4b027367cec8db6aa9a82d6bc2627c8260068fd1e1600000000001ae101faedac5851e32b9b23b5f9411a8c2bac4aae3ed4dd7b811dd1a72ea4aa710000000009e7f4ae014155575600000000000ef595ac00002710e1f58593140af6b9b395af734cd2de337bd36c0801005500ff61491a931112ddf1bd8147cd1b641375f79f5825126d665480874634fd0ace0000005c39fc003b0000000007d19268fffffff80000000068fd1e160000000068fd1e160000005bd216e6200000000007c6267a0daee5815bea917169399300f75d79706cbf8fa64cd84eb199eeec931bf47b42d3873f3470fc6bc12a18a6065b8ee34aff367568b651322ca3b1ae52aaaf59267784838bf24ed4c86a59f8f7e58c6a661d195b6b489d53376e902c3751f8cf452f9aa64f97824d21693ceef6fdc4c15e2104fa9bb9fcf9c6869a397376352ac01fb920d9854a9cc1efa69fcd2137f0325e65a56f226f0f2133b9b91db29571af72432b5a755856cee4a2b5460602095743c5d673e756ef8178fa3fefc733eb6d211cfa31935cd3a9c0f3f128d2485f40c027d18b71006f9ebc0ade3967b0b9e7e0b483b7748c02c1683812991f587f958ed97d9f2b3a8a4d4a0f45367f54fb3e81d36db96f00",
        "nonce": "0xa1",
        "chainId": "0x14a34"
      },
      "additionalContracts": [],
      "isFixedGasLimit": false
    },
    {
      "hash": "0xe22e97f9dd45767338e5e52e6570025f1f91970c46ff3c8bdb0b828dae8177ce",
      "transactionType": "CALL",
      "contractName": null,
      "contractAddress": "0x41d897084fd42d0509f752954fecf48c62307b3f",
      "function": "createOrder(address,address,uint256,uint256,uint256,bytes[])",
      "arguments": [
        "0x4200000000000000000000000000000000000006",
        "0x5Fe161a97511aa3C185cBfFDCf281Fd510411343",
        "10000000000000000",
        "0",
        "0",
        "[0x504e41550100000003b801000000040d009381a60f9d7312722528229673967fcaeb847c6127f3d0ee7d39915d3260378507c53778481a06eb44e07d74bf659a44b8614e1a88da57006996b93ab49af5bc0003bea5a2056ae26bb6302686c9f3a7ac662f0516711b1206caa6bc063ff2b7ac3267605bc01b6465c3a5b22afdf7deae3df50ffef182252c7a4d98f00cf75dee3601044ecc328a64b710e4dcc4c6c73d41efd931891793322739c924d8b0ab3c1a64176156362319b8b78c6f12bffa85d86608d1ac987fcd3081960678330c1e3aff920006e8061f2db4094bddb77f4bc3c3282b9707f0a0f530b7c3285a6089a8b0170ef13c0889fb35ef67e6379b9c1a11c9b332d480207006ccdfa7b1b05e94cc72a2730008eb20dbd89ccd26b879b8b1c37145dac076e3ebc7078ed48e9fd1821de0fa9caa7ec38715253856d922453ea889ecff66e38d89cfebab261a1b0c55af6290755f010b7d69d46ccb3d5272f4bbf97d7bd6ed6f2d8f26c9ac12403be1f18e6cb70f704f6efb43264079889f52761b2ee5903ccf36f57c6b52c73ea301957bea7089696a000cdaa5897df4c7671dd9fb0e6d1ecd9628b6fe165abb4df310f415b38db04b0ea0667673ef18225e5a8a28a85c5d68d436c7b322d9910918023d4390885f29ebbc010d970d0aba42d3ddbb695fc7e35da1782e65d04dd03cf972303c731b895154b23405bb3c4f9b4e64036f3f39be356cece3667074b91eeb8443eaac7badbe959285000eea3df005f94564eafbc5161ef6c22bc7317947aa09bb2d0f6b51958b8f31794d1f6666619236f8d4206a4208d09d52cbc0b70411f0560ff6ec0d064f1114e92b000fee6aa5c57c297371141852859c914dc5a65855346fb272717e889ab4f80868c4554b7864a4a2792988fb89665423fd2a2d6cd5c3ab858c979a76f28dc5aba3a900103b01ef4147c043f9a1deebc83caa2de3b58b68bc12089830a660864bf9db269570495cd314aec242fa43f7b8579aa2ccf1b9be8bcf7fbf7ff9791a1cea159795011106e1864048d127e581509dee202cf4f76703c78b4b682b896175207ee38ee8af0166ee6a81ccaaf8eb5b7afdaf8241a881124d78fc4a6cdff937ccfd8fa50d10001244325845a4b309432010e3cf2c518c387a30d878222e920c2a963428911692d7225b21adc949522652074138261460fcfe45b0ea781cd3b68357a8503e74915a0168fd1e1800000000001ae101faedac5851e32b9b23b5f9411a8c2bac4aae3ed4dd7b811dd1a72ea4aa710000000009e7f4b3014155575600000000000ef595b1000027106cf649c8c3821593ebb4d904f1bd7dc9328e69c701005500ff61491a931112ddf1bd8147cd1b641375f79f5825126d665480874634fd0ace0000005c3a27c9e300000000089b1f0dfffffff80000000068fd1e180000000068fd1e180000005bd2258c200000000007c63c1e0daee5815bea917169399300f75d79706cbf8fa64cd84eb199eeec931bf47b42d3873f3470fc6bc12a3a993f8e83beec992aaa9530bca19b5830d387c5a663168044e46443caec5f4da154e03f5022b6000fcf662b87722ffce69fb6dd0ca35f17d1217554c3887bcc9117f5738d76d0c19a3e591d9f8cbe2ad0f06405258609d1ee422936f9d7d4516dee22a25f5b4ec14580b001dfbfabd8fbd629ba62d611f6c1d75d60576ced5d8e51214bb38e8a9b373e408dfd2e0922edd30dd4b2eb47c02014a42eb4c904dd74131efa75962b6ffb10f551d21bc47cf15c58009ae4bdb75234f83285cb7f8102bba4a95412e3bed801e4a06277c04bbae18b8cb3079c52501a7285]"
      ],
      "transaction": {
        "from": "0xdafe44ce6933ba24459453fe20f40d55a454a07f",
        "to": "0x41d897084fd42d0509f752954fecf48c62307b3f",
        "value": "0xa",
        "input": "0x5236017200000000000000000000000042000000000000000000000000000000000000060000000000000000000000005fe161a97511aa3c185cbffdcf281fd510411343000000000000000000000000000000000000000000000000002386f26fc100000000000000000000000000000000000000000000000000000000000000000000000000000000000000000000000000000000000000000000000000000000000000000000000000000000000000000000000000000000000000000000000000c000000000000000000000000000000000000000000000000000000000000000010000000000000000000000000000000000000000000000000000000000000020000000000000000000000000000000000000000000000000000000000000051f504e41550100000003b801000000040d009381a60f9d7312722528229673967fcaeb847c6127f3d0ee7d39915d3260378507c53778481a06eb44e07d74bf659a44b8614e1a88da57006996b93ab49af5bc0003bea5a2056ae26bb6302686c9f3a7ac662f0516711b1206caa6bc063ff2b7ac3267605bc01b6465c3a5b22afdf7deae3df50ffef182252c7a4d98f00cf75dee3601044ecc328a64b710e4dcc4c6c73d41efd931891793322739c924d8b0ab3c1a64176156362319b8b78c6f12bffa85d86608d1ac987fcd3081960678330c1e3aff920006e8061f2db4094bddb77f4bc3c3282b9707f0a0f530b7c3285a6089a8b0170ef13c0889fb35ef67e6379b9c1a11c9b332d480207006ccdfa7b1b05e94cc72a2730008eb20dbd89ccd26b879b8b1c37145dac076e3ebc7078ed48e9fd1821de0fa9caa7ec38715253856d922453ea889ecff66e38d89cfebab261a1b0c55af6290755f010b7d69d46ccb3d5272f4bbf97d7bd6ed6f2d8f26c9ac12403be1f18e6cb70f704f6efb43264079889f52761b2ee5903ccf36f57c6b52c73ea301957bea7089696a000cdaa5897df4c7671dd9fb0e6d1ecd9628b6fe165abb4df310f415b38db04b0ea0667673ef18225e5a8a28a85c5d68d436c7b322d9910918023d4390885f29ebbc010d970d0aba42d3ddbb695fc7e35da1782e65d04dd03cf972303c731b895154b23405bb3c4f9b4e64036f3f39be356cece3667074b91eeb8443eaac7badbe959285000eea3df005f94564eafbc5161ef6c22bc7317947aa09bb2d0f6b51958b8f31794d1f6666619236f8d4206a4208d09d52cbc0b70411f0560ff6ec0d064f1114e92b000fee6aa5c57c297371141852859c914dc5a65855346fb272717e889ab4f80868c4554b7864a4a2792988fb89665423fd2a2d6cd5c3ab858c979a76f28dc5aba3a900103b01ef4147c043f9a1deebc83caa2de3b58b68bc12089830a660864bf9db269570495cd314aec242fa43f7b8579aa2ccf1b9be8bcf7fbf7ff9791a1cea159795011106e1864048d127e581509dee202cf4f76703c78b4b682b896175207ee38ee8af0166ee6a81ccaaf8eb5b7afdaf8241a881124d78fc4a6cdff937ccfd8fa50d10001244325845a4b309432010e3cf2c518c387a30d878222e920c2a963428911692d7225b21adc949522652074138261460fcfe45b0ea781cd3b68357a8503e74915a0168fd1e1800000000001ae101faedac5851e32b9b23b5f9411a8c2bac4aae3ed4dd7b811dd1a72ea4aa710000000009e7f4b3014155575600000000000ef595b1000027106cf649c8c3821593ebb4d904f1bd7dc9328e69c701005500ff61491a931112ddf1bd8147cd1b641375f79f5825126d665480874634fd0ace0000005c3a27c9e300000000089b1f0dfffffff80000000068fd1e180000000068fd1e180000005bd2258c200000000007c63c1e0daee5815bea917169399300f75d79706cbf8fa64cd84eb199eeec931bf47b42d3873f3470fc6bc12a3a993f8e83beec992aaa9530bca19b5830d387c5a663168044e46443caec5f4da154e03f5022b6000fcf662b87722ffce69fb6dd0ca35f17d1217554c3887bcc9117f5738d76d0c19a3e591d9f8cbe2ad0f06405258609d1ee422936f9d7d4516dee22a25f5b4ec14580b001dfbfabd8fbd629ba62d611f6c1d75d60576ced5d8e51214bb38e8a9b373e408dfd2e0922edd30dd4b2eb47c02014a42eb4c904dd74131efa75962b6ffb10f551d21bc47cf15c58009ae4bdb75234f83285cb7f8102bba4a95412e3bed801e4a06277c04bbae18b8cb3079c52501a728500",
        "nonce": "0xa2",
        "chainId": "0x14a34"
      },
      "additionalContracts": [],
      "isFixedGasLimit": false
    },
    {
      "hash": "0x7bce4bb27ab0a17d1d7e2b91e3b2228f47f6a5ec6b06fa822bdb8ac5843b287d",
      "transactionType": "CALL",
      "contractName": null,
      "contractAddress": "0x41d897084fd42d0509f752954fecf48c62307b3f",
      "function": "createOrder(address,address,uint256,uint256,uint256,bytes[])",
      "arguments": [
        "0x4200000000000000000000000000000000000006",
        "0x5Fe161a97511aa3C185cBfFDCf281Fd510411343",
        "10000000000000000",
        "0",
        "0",
        "[0x504e41550100000003b801000000040d00bc28063dc6d7923179b4d377d8de6109fcd0fbf24d0814eab5cf6ac828273b530f30f2d8e1f97e5b8a350034cea60fb4eb7661388508bd936f87c04cae92d90e0102eee206687a1856c6e9cbafe11823ceeae3698eaf670be6ad0ed90fcb4e340ce95b49efa842cc52f654871372fbe0da42ec6ef282afcd3c26fdf04507543b9cc9010399af61e0eb91dc56446df4b1c7808440f801de5b1eb9566c9371cd948e80e6eb5dac2cb5c903951595c6c6665e630315f962d03b580fd6d8d37278912c8a3b7d0004443f26e5f46124ea241743e4bd055542d8f0f9723ce562cfc356a869d55c6f3351bb3d138e49ef0fc1fe2c6f3bb26e70c6e2408234efd2f41496332a6d7ecb920006a18119d146e6291abac26d5345585fc258b119b7ebff6d9cd5cbdb0559af947d260e1f837c783eac3d8146cdbd69b829f14ff45b35fee544d9ac66936eee8df50108321d7f2eb6732642e98464c8bd0e595e7d526c49ab47035a504b79f093e5d5154637203f342cbfe724bad452191c4f93d84862d6238291997124863c693a29a7000b9a9022eeaad4d151df428a23d6e7c6e82376bc93bcb87acf1890289825b846b277ddf69692fb49c96867216b794ff341474a11475f4d2745274d2f30fa494d60010c4e8619f137dbd44fcc4afbc4e8348e06d5b3d46d927035a87055ba34839bc5fd0f34ab5036e2d27bc7eea50fefdba790bb008fd1208d5d7727a5eb75ddc4931e000d85dec5a9a0111b33e03c1be8576ba68a31287aafe4b6c88660162966f40b00d4194dbd0588e2d0790f63c473d5d0cd30dee98544097742c60c1daeb25481ee22000eab1c738d5201bd5273b29ea38579327815b07ca3085b23e76e847fccb5dff8ec449bab0edc3067b74548e01d8176e947a0e8cead69ee01695a10eb8b05506a42000f22ab64b6d9c653f27db1c4dbc5818102e77f89952fe2491f892763db4c4ae4525b4621763180092ee7d74160994ef6c4e74cfa8e31dd714a247a9b9d0124a8ae01100b2b24ef06ac6fb644b6a08ae2f0af365bb80630e1a1b9e08096b3ad177376663ebccb6bb34fdc7512f1211b7884225b0615dbad1569fc75d21be256ef8664f500119bac7845659ade6bccf43e79d1a24f6480c731876dbf887586150dbb3fa2891961b46ed294949cf3f715e64f964af64617ca0b81dbf85d6d4e4407691c01c1160168fd1e1a00000000001ae101faedac5851e32b9b23b5f9411a8c2bac4aae3ed4dd7b811dd1a72ea4aa710000000009e7f4b7014155575600000000000ef595b50000271062e0c35d87df0b83238fc27843b28cf5a685f41d01005500ff61491a931112ddf1bd8147cd1b641375f79f5825126d665480874634fd0ace0000005c3a22c24f0000000009c32e8efffffff80000000068fd1e1a0000000068fd1e1a0000005bd2303a800000000007c666210daee5815bea917169399300f75d79706cbf8fa64cd84eb199eeec931bf47b42d3873f3470fc6bc12aadfdfc850a6963947174d8fe63404359f7d2786890834fc704746e92d9a90fb2821d1999570590624b5cea82d2798f979a36089850f593ccdb3b4defc3df504e48b2eb2317610f311fa16c06975515dd82d374d939ad41a5363b0ecda3ff64ed9650e83d491e36310a7ca755a73237b2c4417f63f940c755d7ea78d79799fd90f33fc158757af0edbd65898a0b51b37bedd93fb77afd27142dd64be6104547c60f8b02484d32acec2ebd170508277b590e7cfa0c2b597149af56cb0c1838ede5106151fc3b0582e37dd55f9eb775398ce4998fdfab7b4ac4d73e7e76]"
      ],
      "transaction": {
        "from": "0xdafe44ce6933ba24459453fe20f40d55a454a07f",
        "to": "0x41d897084fd42d0509f752954fecf48c62307b3f",
        "value": "0xa",
        "input": "0x5236017200000000000000000000000042000000000000000000000000000000000000060000000000000000000000005fe161a97511aa3c185cbffdcf281fd510411343000000000000000000000000000000000000000000000000002386f26fc100000000000000000000000000000000000000000000000000000000000000000000000000000000000000000000000000000000000000000000000000000000000000000000000000000000000000000000000000000000000000000000000000c000000000000000000000000000000000000000000000000000000000000000010000000000000000000000000000000000000000000000000000000000000020000000000000000000000000000000000000000000000000000000000000051f504e41550100000003b801000000040d00bc28063dc6d7923179b4d377d8de6109fcd0fbf24d0814eab5cf6ac828273b530f30f2d8e1f97e5b8a350034cea60fb4eb7661388508bd936f87c04cae92d90e0102eee206687a1856c6e9cbafe11823ceeae3698eaf670be6ad0ed90fcb4e340ce95b49efa842cc52f654871372fbe0da42ec6ef282afcd3c26fdf04507543b9cc9010399af61e0eb91dc56446df4b1c7808440f801de5b1eb9566c9371cd948e80e6eb5dac2cb5c903951595c6c6665e630315f962d03b580fd6d8d37278912c8a3b7d0004443f26e5f46124ea241743e4bd055542d8f0f9723ce562cfc356a869d55c6f3351bb3d138e49ef0fc1fe2c6f3bb26e70c6e2408234efd2f41496332a6d7ecb920006a18119d146e6291abac26d5345585fc258b119b7ebff6d9cd5cbdb0559af947d260e1f837c783eac3d8146cdbd69b829f14ff45b35fee544d9ac66936eee8df50108321d7f2eb6732642e98464c8bd0e595e7d526c49ab47035a504b79f093e5d5154637203f342cbfe724bad452191c4f93d84862d6238291997124863c693a29a7000b9a9022eeaad4d151df428a23d6e7c6e82376bc93bcb87acf1890289825b846b277ddf69692fb49c96867216b794ff341474a11475f4d2745274d2f30fa494d60010c4e8619f137dbd44fcc4afbc4e8348e06d5b3d46d927035a87055ba34839bc5fd0f34ab5036e2d27bc7eea50fefdba790bb008fd1208d5d7727a5eb75ddc4931e000d85dec5a9a0111b33e03c1be8576ba68a31287aafe4b6c88660162966f40b00d4194dbd0588e2d0790f63c473d5d0cd30dee98544097742c60c1daeb25481ee22000eab1c738d5201bd5273b29ea38579327815b07ca3085b23e76e847fccb5dff8ec449bab0edc3067b74548e01d8176e947a0e8cead69ee01695a10eb8b05506a42000f22ab64b6d9c653f27db1c4dbc5818102e77f89952fe2491f892763db4c4ae4525b4621763180092ee7d74160994ef6c4e74cfa8e31dd714a247a9b9d0124a8ae01100b2b24ef06ac6fb644b6a08ae2f0af365bb80630e1a1b9e08096b3ad177376663ebccb6bb34fdc7512f1211b7884225b0615dbad1569fc75d21be256ef8664f500119bac7845659ade6bccf43e79d1a24f6480c731876dbf887586150dbb3fa2891961b46ed294949cf3f715e64f964af64617ca0b81dbf85d6d4e4407691c01c1160168fd1e1a00000000001ae101faedac5851e32b9b23b5f9411a8c2bac4aae3ed4dd7b811dd1a72ea4aa710000000009e7f4b7014155575600000000000ef595b50000271062e0c35d87df0b83238fc27843b28cf5a685f41d01005500ff61491a931112ddf1bd8147cd1b641375f79f5825126d665480874634fd0ace0000005c3a22c24f0000000009c32e8efffffff80000000068fd1e1a0000000068fd1e1a0000005bd2303a800000000007c666210daee5815bea917169399300f75d79706cbf8fa64cd84eb199eeec931bf47b42d3873f3470fc6bc12aadfdfc850a6963947174d8fe63404359f7d2786890834fc704746e92d9a90fb2821d1999570590624b5cea82d2798f979a36089850f593ccdb3b4defc3df504e48b2eb2317610f311fa16c06975515dd82d374d939ad41a5363b0ecda3ff64ed9650e83d491e36310a7ca755a73237b2c4417f63f940c755d7ea78d79799fd90f33fc158757af0edbd65898a0b51b37bedd93fb77afd27142dd64be6104547c60f8b02484d32acec2ebd170508277b590e7cfa0c2b597149af56cb0c1838ede5106151fc3b0582e37dd55f9eb775398ce4998fdfab7b4ac4d73e7e7600",
        "nonce": "0xa3",
        "chainId": "0x14a34"
      },
      "additionalContracts": [],
      "isFixedGasLimit": false
    },
    {
      "hash": "0x9b9a02b5c78ade0f6d1f421adce522d9dbcc82514f21210f7c2cbd493720ac95",
      "transactionType": "CALL",
      "contractName": null,
      "contractAddress": "0x41d897084fd42d0509f752954fecf48c62307b3f",
      "function": "createOrder(address,address,uint256,uint256,uint256,bytes[])",
      "arguments": [
        "0x4200000000000000000000000000000000000006",
        "0x5Fe161a97511aa3C185cBfFDCf281Fd510411343",
        "10000000000000000",
        "0",
        "0",
        "[0x504e41550100000003b801000000040d00c8e0d7b658d871f6c73765f6cd40e08e55ae17b2b53d2bfc2689b7c2d80c76457b835b35057f5ee832ab95fe700ca32cd8151ab6b9b03205956367cfa48d3e91000297b80e443c70d67576cf61e66d19cb5b75dac8225c1bad13c7c353c21cb1165f26565ff0eaada59dd2d1859f9f9d4413ec75d1711126f357ecb5bb7d37a429ba01039488f90c1eb40b03bc78dab5bbacb642983d9ee5ea233d144fff949bfa572d4d4a82d7e1055c62b228774f62964c7b4c73bbfcb55a501302a1a8e71403e8d4650004edc68d3eda407e6a102e1a14a66814c3092c3c83bb4e30819d22957dab7f1de85106a36e46f6892453c19e908479136a8ebc9ed01b0aa2a25673f695baa0010f0006e55e14348c8a1172e794855c2380fab068d18b5846da6ed5e3f6ecd44d2eff407d73c12b28c302ca1e536b70023f186f3534fcfaca641675a74ec39fec1b9e060008228ddf07c2546c02970ce8cd01134c496d94ce12d88afe3aa1c6b4c06679136f728b1642ffa44bd66c1d7e0b75a939b61c38a326b7ccbaa5e51f7929cb83c7ee00098032bc626b9fd61dbe906b02d630c2e642281f2d71dbf6ed8339c1b8f5f625af21751763e04c23f52c1daaf7705b884fceda1f7886cec749b4343187a908aceb010a78b4559fdeeb6441843fea0ae279c5528d5c727d35459d837a694d6a8a8c83440f29048e89fef600bdd2903ffb795980630f98ecb36ff9eacdfa3bc540035093000b06a95850015109230abfc19ea60916ed242cf289d1556562b59d2847c1ca92f22233345d4ae530d8d5a1637710f7340ac670d5221581760613f7e1299d0032d3000d1ba95b2a43b2a4cceb93ece59eae6150bbe0d4c5a516cdd7d3cfbcbe34148c072b8a79ee85b362257a7e949be13c9105c34ca3905d2d37e9e487bb95643a74a1010f7de67ab1ec9f5400288e7c5a93deb43fcab561f1cd5ba63a18f92d7e6871755e751cb7e699cb80eb3132c12c7170c208126b6635ccb7dc1ff29038a5440ff24e001055a12db4d2f088014f4b8166a34521f672d88500f8fcddc52fadcaf7bdc5bc04234a251bb51f8c1499a9e8cc6b690ed3cc4f09dbfb91161a8ff238ba6f9a9ec700119cf01c6b7f458fcdfeded013e80531a784537212ec918cedf957f56a4b4b1ffe7caba60daf934355ba7b115776b97775026139001202dcc66e11258a340afd000168fd1e1c00000000001ae101faedac5851e32b9b23b5f9411a8c2bac4aae3ed4dd7b811dd1a72ea4aa710000000009e7f4bc014155575600000000000ef595ba00002710a1844e4885a08b044d06960423fb594d06a0d39201005500ff61491a931112ddf1bd8147cd1b641375f79f5825126d665480874634fd0ace0000005c3a260e670000000009c67aa9fffffff80000000068fd1e1c0000000068fd1e1c0000005bd23d0bc00000000007c6a3510daee5815bea917169399300f75d79706cbf8fa64cd84eb199eeec931bf47b42d3873f3470fc6bc12a56212a06cdac12182424178beedaaa2ce35528abbf38e45732e00dabc8b0990e184b60725d8c4bdcfb979b28d2cb08cc2b0cccc5b50b637f74c683804c094bd01d133d721ec7649bb571116c492b53dacd768c55cc780b45077baf9b15152400ee6288f1719e23d07b4bfd42bc28aa5235e47d4429500f5f45a61bb2711d9c9410635ee6266aa427e8ab320eae70c87ef99920dc169403bb492e0e86aa7318568e0c812e78816327f5a859bb2fd19439cd6b1ac4e9ab9275eeaa52a12af5dc4ec5702f5bf39557b2f6d3250d8fe7ac154ad793b1776c8c666bc2c1be]"
      ],
      "transaction": {
        "from": "0xdafe44ce6933ba24459453fe20f40d55a454a07f",
        "to": "0x41d897084fd42d0509f752954fecf48c62307b3f",
        "value": "0xa",
        "input": "0x5236017200000000000000000000000042000000000000000000000000000000000000060000000000000000000000005fe161a97511aa3c185cbffdcf281fd510411343000000000000000000000000000000000000000000000000002386f26fc100000000000000000000000000000000000000000000000000000000000000000000000000000000000000000000000000000000000000000000000000000000000000000000000000000000000000000000000000000000000000000000000000c000000000000000000000000000000000000000000000000000000000000000010000000000000000000000000000000000000000000000000000000000000020000000000000000000000000000000000000000000000000000000000000051f504e41550100000003b801000000040d00c8e0d7b658d871f6c73765f6cd40e08e55ae17b2b53d2bfc2689b7c2d80c76457b835b35057f5ee832ab95fe700ca32cd8151ab6b9b03205956367cfa48d3e91000297b80e443c70d67576cf61e66d19cb5b75dac8225c1bad13c7c353c21cb1165f26565ff0eaada59dd2d1859f9f9d4413ec75d1711126f357ecb5bb7d37a429ba01039488f90c1eb40b03bc78dab5bbacb642983d9ee5ea233d144fff949bfa572d4d4a82d7e1055c62b228774f62964c7b4c73bbfcb55a501302a1a8e71403e8d4650004edc68d3eda407e6a102e1a14a66814c3092c3c83bb4e30819d22957dab7f1de85106a36e46f6892453c19e908479136a8ebc9ed01b0aa2a25673f695baa0010f0006e55e14348c8a1172e794855c2380fab068d18b5846da6ed5e3f6ecd44d2eff407d73c12b28c302ca1e536b70023f186f3534fcfaca641675a74ec39fec1b9e060008228ddf07c2546c02970ce8cd01134c496d94ce12d88afe3aa1c6b4c06679136f728b1642ffa44bd66c1d7e0b75a939b61c38a326b7ccbaa5e51f7929cb83c7ee00098032bc626b9fd61dbe906b02d630c2e642281f2d71dbf6ed8339c1b8f5f625af21751763e04c23f52c1daaf7705b884fceda1f7886cec749b4343187a908aceb010a78b4559fdeeb6441843fea0ae279c5528d5c727d35459d837a694d6a8a8c83440f29048e89fef600bdd2903ffb795980630f98ecb36ff9eacdfa3bc540035093000b06a95850015109230abfc19ea60916ed242cf289d1556562b59d2847c1ca92f22233345d4ae530d8d5a1637710f7340ac670d5221581760613f7e1299d0032d3000d1ba95b2a43b2a4cceb93ece59eae6150bbe0d4c5a516cdd7d3cfbcbe34148c072b8a79ee85b362257a7e949be13c9105c34ca3905d2d37e9e487bb95643a74a1010f7de67ab1ec9f5400288e7c5a93deb43fcab561f1cd5ba63a18f92d7e6871755e751cb7e699cb80eb3132c12c7170c208126b6635ccb7dc1ff29038a5440ff24e001055a12db4d2f088014f4b8166a34521f672d88500f8fcddc52fadcaf7bdc5bc04234a251bb51f8c1499a9e8cc6b690ed3cc4f09dbfb91161a8ff238ba6f9a9ec700119cf01c6b7f458fcdfeded013e80531a784537212ec918cedf957f56a4b4b1ffe7caba60daf934355ba7b115776b97775026139001202dcc66e11258a340afd000168fd1e1c00000000001ae101faedac5851e32b9b23b5f9411a8c2bac4aae3ed4dd7b811dd1a72ea4aa710000000009e7f4bc014155575600000000000ef595ba00002710a1844e4885a08b044d06960423fb594d06a0d39201005500ff61491a931112ddf1bd8147cd1b641375f79f5825126d665480874634fd0ace0000005c3a260e670000000009c67aa9fffffff80000000068fd1e1c0000000068fd1e1c0000005bd23d0bc00000000007c6a3510daee5815bea917169399300f75d79706cbf8fa64cd84eb199eeec931bf47b42d3873f3470fc6bc12a56212a06cdac12182424178beedaaa2ce35528abbf38e45732e00dabc8b0990e184b60725d8c4bdcfb979b28d2cb08cc2b0cccc5b50b637f74c683804c094bd01d133d721ec7649bb571116c492b53dacd768c55cc780b45077baf9b15152400ee6288f1719e23d07b4bfd42bc28aa5235e47d4429500f5f45a61bb2711d9c9410635ee6266aa427e8ab320eae70c87ef99920dc169403bb492e0e86aa7318568e0c812e78816327f5a859bb2fd19439cd6b1ac4e9ab9275eeaa52a12af5dc4ec5702f5bf39557b2f6d3250d8fe7ac154ad793b1776c8c666bc2c1be00",
        "nonce": "0xa4",
        "chainId": "0x14a34"
      },
      "additionalContracts": [],
      "isFixedGasLimit": false
    },
    {
      "hash": "0xd3b2018bf8a48d8bd6bff984ed331ca56b4a9bb547bc9cfd3bd4dc6c2e2849d1",
      "transactionType": "CALL",
      "contractName": null,
      "contractAddress": "0x41d897084fd42d0509f752954fecf48c62307b3f",
      "function": "createOrder(address,address,uint256,uint256,uint256,bytes[])",
      "arguments": [
        "0x4200000000000000000000000000000000000006",
        "0x5Fe161a97511aa3C185cBfFDCf281Fd510411343",
        "10000000000000000",
        "0",
        "0",
        "[0x504e41550100000003b801000000040d005551319f70548b3615f7730dd7a567b384c855f21d2571195dc4640f416e47661109c4ea5de19a822b61935704583b32e79d326568b861a43a1f0b8340b8383501039044e453197756f350fe9c2f78562ee7b7afe077cf22740dd18c81fdf8e9c2ba4fb3ab7ef8a3113ce94371ee8c45a1cd6f4e3aac50874ca49bbe9175bdc6f74d00043ae20bcb2a1a57aff3f2e07380aba569f5d606ea94b8625f4f530c637b25c3b32b28579dbe07ef38cc8420b3faad50006497da6649331871d5b310fc3f77a1170106d70f6835852511efdbe28cd6542f5dd5ef45a0694343608743d6ee60ce19c6a55ddc77320d8a5b740e25d9f7404e386726ea1fdf55c0516a78a487c471576d600108d89385dd6529c86af19e6da399c01ae8c411089dbb3903f324c5a09e1744bb781a1e321760d6e88332f4e97db414d5122a93dd0cfcbd76533a52d752d708c962010a284d626f1b4b8e4cb335a01acb7bb75bdaca3ffbe57821e15be3db30383109e945c5104de9955007c715bca6a1f4970b8ab4bd97b90f7b16dfe63132a9cc310e000b50846c57264ba1a080db2ea44563ecd123dfb8a5d3b3801482be231815c6142776fb2db940e8ff8be6c7cfbfe6eaa872a1dd6845ad03c48d3ad4b9cebb536119010c2c2d67d5765a39dce1923c8b9977f2f58d8e29f0809fa3b218447ae4605cf19a0dc206a55eb5701ea24953d0f3d368cec31b5e5846334aeaa52041f3f3755fd2000deffddad056e65141b784ec01ed23108ee92c9c27dae3e8bf6a60c0b5e91512be1452b6679fdb6aaa5d40229950a5b162a29f10c9aef4093bdcf4e352277ff979000e8cbb044301f440c79c0b3d9388702909d8ed0bb2554f5df6af659228d16eee786572236daf336ff6c6f195b50b8e9166d32aead49618b9102c5d30c817555163000f622d5788b6fd5c33ec9585f44496aaf53718d886cc8e77656b5afecabf009a1212d714919ab4fa23ca3afaf4eb6ed154e840e14f4657cf0c6da923e1344484da00108e6610a0c2f5629a7ecebef6d404e13d8a783b23c0668ab35abdddb237ade9a652a5eae36724fc22313f72c94640f4615b71f1e9c59e621a5de727104c3080b00111175ca4d5c1e42daa242b02c0522b9142dcb9d47896e8af1e22a193ea6e3663f237d854b65948300feee3d2000d190899d7000f16f94c33b06c4e54d0d71282520168fd1e1e00000000001ae101faedac5851e32b9b23b5f9411a8c2bac4aae3ed4dd7b811dd1a72ea4aa710000000009e7f4c1014155575600000000000ef595bf000027108c11503a29cc0fa935e4a5ce2b4c254f0cba13e601005500ff61491a931112ddf1bd8147cd1b641375f79f5825126d665480874634fd0ace0000005c3a4925720000000009e991b0fffffff80000000068fd1e1e0000000068fd1e1e0000005bd24967d00000000007c6e49b0daee5815bea917169399300f75d79706cbf8fa64cd84eb199eeec931bf47b42d3873f3470fc6bc12ac0ba1a1ec9e722f065c0e5f178b46d111bc85fc61a7864158695dea1999a773b795baea03d4dafd68bf1ddf46ddc944fed9f726c1c25a71d7867726742c4fb0c73f5d2dad21250e3888d981a33a543743a53f3b24024bf94b05b3d300a85c3e1cb298fe0eb21914d193a3dcfcbbbbd8293a6660dd477b717dbfd085d77bf6da2c0ab347ee9a19adb27ed6e11215ae8311b536e0d9fabbbf641c31ba351b59e5023104b5ae2f3e6524d55b6f7416d9bfc02805c2340f9aa72c2e01cd670f09a61203d8157b0048194ef020b3c6d81bb54856ced26211f439ea3196950]"
      ],
      "transaction": {
        "from": "0xdafe44ce6933ba24459453fe20f40d55a454a07f",
        "to": "0x41d897084fd42d0509f752954fecf48c62307b3f",
        "value": "0xa",
        "input": "0x5236017200000000000000000000000042000000000000000000000000000000000000060000000000000000000000005fe161a97511aa3c185cbffdcf281fd510411343000000000000000000000000000000000000000000000000002386f26fc100000000000000000000000000000000000000000000000000000000000000000000000000000000000000000000000000000000000000000000000000000000000000000000000000000000000000000000000000000000000000000000000000c000000000000000000000000000000000000000000000000000000000000000010000000000000000000000000000000000000000000000000000000000000020000000000000000000000000000000000000000000000000000000000000051f504e41550100000003b801000000040d005551319f70548b3615f7730dd7a567b384c855f21d2571195dc4640f416e47661109c4ea5de19a822b61935704583b32e79d326568b861a43a1f0b8340b8383501039044e453197756f350fe9c2f78562ee7b7afe077cf22740dd18c81fdf8e9c2ba4fb3ab7ef8a3113ce94371ee8c45a1cd6f4e3aac50874ca49bbe9175bdc6f74d00043ae20bcb2a1a57aff3f2e07380aba569f5d606ea94b8625f4f530c637b25c3b32b28579dbe07ef38cc8420b3faad50006497da6649331871d5b310fc3f77a1170106d70f6835852511efdbe28cd6542f5dd5ef45a0694343608743d6ee60ce19c6a55ddc77320d8a5b740e25d9f7404e386726ea1fdf55c0516a78a487c471576d600108d89385dd6529c86af19e6da399c01ae8c411089dbb3903f324c5a09e1744bb781a1e321760d6e88332f4e97db414d5122a93dd0cfcbd76533a52d752d708c962010a284d626f1b4b8e4cb335a01acb7bb75bdaca3ffbe57821e15be3db30383109e945c5104de9955007c715bca6a1f4970b8ab4bd97b90f7b16dfe63132a9cc310e000b50846c57264ba1a080db2ea44563ecd123dfb8a5d3b3801482be231815c6142776fb2db940e8ff8be6c7cfbfe6eaa872a1dd6845ad03c48d3ad4b9cebb536119010c2c2d67d5765a39dce1923c8b9977f2f58d8e29f0809fa3b218447ae4605cf19a0dc206a55eb5701ea24953d0f3d368cec31b5e5846334aeaa52041f3f3755fd2000deffddad056e65141b784ec01ed23108ee92c9c27dae3e8bf6a60c0b5e91512be1452b6679fdb6aaa5d40229950a5b162a29f10c9aef4093bdcf4e352277ff979000e8cbb044301f440c79c0b3d9388702909d8ed0bb2554f5df6af659228d16eee786572236daf336ff6c6f195b50b8e9166d32aead49618b9102c5d30c817555163000f622d5788b6fd5c33ec9585f44496aaf53718d886cc8e77656b5afecabf009a1212d714919ab4fa23ca3afaf4eb6ed154e840e14f4657cf0c6da923e1344484da00108e6610a0c2f5629a7ecebef6d404e13d8a783b23c0668ab35abdddb237ade9a652a5eae36724fc22313f72c94640f4615b71f1e9c59e621a5de727104c3080b00111175ca4d5c1e42daa242b02c0522b9142dcb9d47896e8af1e22a193ea6e3663f237d854b65948300feee3d2000d190899d7000f16f94c33b06c4e54d0d71282520168fd1e1e00000000001ae101faedac5851e32b9b23b5f9411a8c2bac4aae3ed4dd7b811dd1a72ea4aa710000000009e7f4c1014155575600000000000ef595bf000027108c11503a29cc0fa935e4a5ce2b4c254f0cba13e601005500ff61491a931112ddf1bd8147cd1b641375f79f5825126d665480874634fd0ace0000005c3a4925720000000009e991b0fffffff80000000068fd1e1e0000000068fd1e1e0000005bd24967d00000000007c6e49b0daee5815bea917169399300f75d79706cbf8fa64cd84eb199eeec931bf47b42d3873f3470fc6bc12ac0ba1a1ec9e722f065c0e5f178b46d111bc85fc61a7864158695dea1999a773b795baea03d4dafd68bf1ddf46ddc944fed9f726c1c25a71d7867726742c4fb0c73f5d2dad21250e3888d981a33a543743a53f3b24024bf94b05b3d300a85c3e1cb298fe0eb21914d193a3dcfcbbbbd8293a6660dd477b717dbfd085d77bf6da2c0ab347ee9a19adb27ed6e11215ae8311b536e0d9fabbbf641c31ba351b59e5023104b5ae2f3e6524d55b6f7416d9bfc02805c2340f9aa72c2e01cd670f09a61203d8157b0048194ef020b3c6d81bb54856ced26211f439ea319695000",
        "nonce": "0xa5",
        "chainId": "0x14a34"
      },
      "additionalContracts": [],
      "isFixedGasLimit": false
    },
    {
      "hash": "0xa1fd70156150b73232dc417d1b7e5820237bc382a342450d3ce3828a5fa297b6",
      "transactionType": "CALL",
      "contractName": null,
      "contractAddress": "0x41d897084fd42d0509f752954fecf48c62307b3f",
      "function": "createOrder(address,address,uint256,uint256,uint256,bytes[])",
      "arguments": [
        "0x4200000000000000000000000000000000000006",
        "0x5Fe161a97511aa3C185cBfFDCf281Fd510411343",
        "10000000000000000",
        "0",
        "0",
        "[0x504e41550100000003b801000000040d00c19a2c83d734eecd46abffe11f8ddad167303369674a1b4a0b50d71cbb663b316c0827202e183e356474567023420819a238c16f2452d1d237b224f88113a7b700032a49b18b675c0464d0f363f0a071de4e1c194863a2ca625f1ec03060d04064a77595ddb66c1a84972c90cfba473995aa3f70dccb9c9548ace429008498a8c6e0000423bf03ed9c7d8b593c9550b92bb2d608238169d8418278dc663395e5ab60818a1578055eba73bb284977107a11a3f03a683b0f8d7f0e89edebf0080d6b4b2ef100066d55caeda51e4f500eaa317a1d10789792f58858936b2bbb066a303d1b0eff627c6240f9aa074650c53223b14f94d974eaa6e640b89fcb4d6afb0cfc812373b40008b9f8482fa0a969584596e4b720f69c492e1a86ee72dc6667c4ae8069bf6ece1d66e34586199b267ca954e31a7f70b060baa4d35b60e5b933fce9964a19193f29000a352277d0743876a748c20a5c81eac907735b4f56be265ad81e6345515e56cea172c09da47f8fec737397980b7e17df350276bdf67dbc7700050bf00de6217a7f000b75bedc6113f03f8a4c720495161f7c8eb758f4858ad48cbe94f140548e10823c2a16bf8119b4be5a5cdf42b1e09ee30bd5a64fe4cb087e3172ea7d2b48db0639010de3081785d676329ebd49a79d551d36d716db25d9a8e1a51f93e76fdd30a874a5286004911bf400f1d1809662406eabf42c254457b640f77d6d1cfbeb8da4b960010ea50f4d731ec335f0049ac206ae780e0a10706323897066e115e7cc5cc9b458313c711387f4257f615f678ee2ce550fbac20b78e2af61f326034638dac72ebd88000ff89689ca3da0253840804a40144137c0510abc3c736c60e8194a89302df0fcaf3379ae05ef1cb2771895226d96083954aa788106b87387751b9222fdb205219b0010b92716a8554c5c3bd84b628801f64ac10bd331ea47dbc03955f863c7d3608fb6693b465ef816a5ea8b8afecbed1c2e416b26406e4ff980b1ebe1d4df8a8acb9a0011c66d478a04a5937ad9b0191fdfafbb46bafcbe97f59496c01a08d9530339848841cb97f3d86815f366230db6f2fb7de0cd0afaea0d825e3ed5ab97af530642ac011248b18509836e36b913ac60206dec8be94b49aa7a4e84add5515e0994c0a0113949b6852c07d8ef75db3ffb04207352653fe9417a5183dfbd64eb8009debc66c40168fd1e2000000000001ae101faedac5851e32b9b23b5f9411a8c2bac4aae3ed4dd7b811dd1a72ea4aa710000000009e7f4c5014155575600000000000ef595c3000027108d48c2c96c6591c776583952dd6235dd80978bb301005500ff61491a931112ddf1bd8147cd1b641375f79f5825126d665480874634fd0ace0000005c3a89d30e000000000a768912fffffff80000000068fd1e200000000068fd1e1f0000005bd253a1000000000007c714400daee5815bea917169399300f75d79706cbf8fa64cd84eb199eeec931bf47b42d3873f3470fc6bc12ab9139c21c5599528f8b48765efc0df828aa561cdb284d237a77cd02aca46a8210aa8bcfd49c42cc1930abafd32419113d605c06b688d340b358e5e7b7978f41eea9bdba1c4a49ccf2ee5742241afc59b8f8d375e9c3cf4ac13aacf1f7de84597e6e996acd0dfdc33575123838ec9f6213b4b49cf90fc51233c7e8e7d279ef484ef1499aeb8f3d552393e4f207171b94a5717c3fca04a604c49b463f73681a21be12613d315cd9beb65927650831ab167471e047592359b3e0e866c41fdc81901daea826282d925a7214605b74d1936ab4edc3101c804485f62122dff]"
      ],
      "transaction": {
        "from": "0xdafe44ce6933ba24459453fe20f40d55a454a07f",
        "to": "0x41d897084fd42d0509f752954fecf48c62307b3f",
        "value": "0xa",
        "input": "0x5236017200000000000000000000000042000000000000000000000000000000000000060000000000000000000000005fe161a97511aa3c185cbffdcf281fd510411343000000000000000000000000000000000000000000000000002386f26fc100000000000000000000000000000000000000000000000000000000000000000000000000000000000000000000000000000000000000000000000000000000000000000000000000000000000000000000000000000000000000000000000000c000000000000000000000000000000000000000000000000000000000000000010000000000000000000000000000000000000000000000000000000000000020000000000000000000000000000000000000000000000000000000000000051f504e41550100000003b801000000040d00c19a2c83d734eecd46abffe11f8ddad167303369674a1b4a0b50d71cbb663b316c0827202e183e356474567023420819a238c16f2452d1d237b224f88113a7b700032a49b18b675c0464d0f363f0a071de4e1c194863a2ca625f1ec03060d04064a77595ddb66c1a84972c90cfba473995aa3f70dccb9c9548ace429008498a8c6e0000423bf03ed9c7d8b593c9550b92bb2d608238169d8418278dc663395e5ab60818a1578055eba73bb284977107a11a3f03a683b0f8d7f0e89edebf0080d6b4b2ef100066d55caeda51e4f500eaa317a1d10789792f58858936b2bbb066a303d1b0eff627c6240f9aa074650c53223b14f94d974eaa6e640b89fcb4d6afb0cfc812373b40008b9f8482fa0a969584596e4b720f69c492e1a86ee72dc6667c4ae8069bf6ece1d66e34586199b267ca954e31a7f70b060baa4d35b60e5b933fce9964a19193f29000a352277d0743876a748c20a5c81eac907735b4f56be265ad81e6345515e56cea172c09da47f8fec737397980b7e17df350276bdf67dbc7700050bf00de6217a7f000b75bedc6113f03f8a4c720495161f7c8eb758f4858ad48cbe94f140548e10823c2a16bf8119b4be5a5cdf42b1e09ee30bd5a64fe4cb087e3172ea7d2b48db0639010de3081785d676329ebd49a79d551d36d716db25d9a8e1a51f93e76fdd30a874a5286004911bf400f1d1809662406eabf42c254457b640f77d6d1cfbeb8da4b960010ea50f4d731ec335f0049ac206ae780e0a10706323897066e115e7cc5cc9b458313c711387f4257f615f678ee2ce550fbac20b78e2af61f326034638dac72ebd88000ff89689ca3da0253840804a40144137c0510abc3c736c60e8194a89302df0fcaf3379ae05ef1cb2771895226d96083954aa788106b87387751b9222fdb205219b0010b92716a8554c5c3bd84b628801f64ac10bd331ea47dbc03955f863c7d3608fb6693b465ef816a5ea8b8afecbed1c2e416b26406e4ff980b1ebe1d4df8a8acb9a0011c66d478a04a5937ad9b0191fdfafbb46bafcbe97f59496c01a08d9530339848841cb97f3d86815f366230db6f2fb7de0cd0afaea0d825e3ed5ab97af530642ac011248b18509836e36b913ac60206dec8be94b49aa7a4e84add5515e0994c0a0113949b6852c07d8ef75db3ffb04207352653fe9417a5183dfbd64eb8009debc66c40168fd1e2000000000001ae101faedac5851e32b9b23b5f9411a8c2bac4aae3ed4dd7b811dd1a72ea4aa710000000009e7f4c5014155575600000000000ef595c3000027108d48c2c96c6591c776583952dd6235dd80978bb301005500ff61491a931112ddf1bd8147cd1b641375f79f5825126d665480874634fd0ace0000005c3a89d30e000000000a768912fffffff80000000068fd1e200000000068fd1e1f0000005bd253a1000000000007c714400daee5815bea917169399300f75d79706cbf8fa64cd84eb199eeec931bf47b42d3873f3470fc6bc12ab9139c21c5599528f8b48765efc0df828aa561cdb284d237a77cd02aca46a8210aa8bcfd49c42cc1930abafd32419113d605c06b688d340b358e5e7b7978f41eea9bdba1c4a49ccf2ee5742241afc59b8f8d375e9c3cf4ac13aacf1f7de84597e6e996acd0dfdc33575123838ec9f6213b4b49cf90fc51233c7e8e7d279ef484ef1499aeb8f3d552393e4f207171b94a5717c3fca04a604c49b463f73681a21be12613d315cd9beb65927650831ab167471e047592359b3e0e866c41fdc81901daea826282d925a7214605b74d1936ab4edc3101c804485f62122dff00",
        "nonce": "0xa6",
        "chainId": "0x14a34"
      },
      "additionalContracts": [],
      "isFixedGasLimit": false
    },
    {
      "hash": "0xffafb62f0e222e83d5d38c48a4ba6de165628504665bfa8338c3c6a775a47b35",
      "transactionType": "CALL",
      "contractName": null,
      "contractAddress": "0x41d897084fd42d0509f752954fecf48c62307b3f",
      "function": "createOrder(address,address,uint256,uint256,uint256,bytes[])",
      "arguments": [
        "0x4200000000000000000000000000000000000006",
        "0x5Fe161a97511aa3C185cBfFDCf281Fd510411343",
        "10000000000000000",
        "0",
        "0",
        "[0x504e41550100000003b801000000040d00f0bf45a8f1144a3522348226fe716d3fab73101b58a89c2af2fd3040c847cf9679cf65661584f15f0fc1408e83f231d52fd3ba2871e8e0ca32f2cb4498da38600002f378ea51dbac09c3aca86c1f57c35b3f37b0393776f25694348d00c36ff40c635cdc40673d36be66f1901d4486577375d003b7373229062aa1b73c9ed69a23ec0004ccb9420cd93fda9f0e7a733e8cdd87b760056d0585ce9d113924e6bfa0e2a8822e82d98e2737923e306e6359b4c2314b93b34e123ecefbe216ee6de7eb257a2901061d2f491164c6e647438e9d987ed304352104ed82933383d8f60b53b87d26d55e718b0f867f7ed4fca0aac1aa026c6f4144adb8b2a76e5c7fa9d789e18a98c81c0108f24ee794987f20f7d2d9355b8c9447063924e3315a385ca328b31e2c8e44c9825236e11f13763fa7ea4b777ca0c24655acf83507c0cc27dc22767687d90e2725010b9dbabeb154834207a12936ed6aa13ba70601d832da7abd3ae8761813395f62a9555c2bdb2881e09c9b368e7158a233de7f8ea8220f9d27919d9cc9442fb4c093000c163dd5a2d488b1804aac7c9cb491ffc6f7d6a51686c9faa21dd02c090880bb6a6dd4da1ccbd344715d2e12f6cb9a51081d6c4f554bdf2ad0b2254e9e5f9525d6000d326b959474a47b520147732268f158a85cde403626b4fd732f7c6db927d9eaad02b4cf1cb1b0f09d286a6bda4b01a63acbc47d787752e8264835d05d41d07b30010ee0c85ec5576e020cc5a2fcf8fcf48a72b53d2784bd47edfcc0ae2f541d616a1e6bfaf9b186ebf0c3d2187ae52954a5e0be658c2cd674f7d28aa0535beb8fcdbc000f5ca098a54a83c6f20fee4f778f1a7f2538ba71c0af7f59b2a4049a5e880f92d6662e2e90297e9076c890666bd0344902d78cdfdda0cf23a5feb645621c638b4801101e0dc70c4fbdb8b31b1a30031ad37fccc81f5464ebdc6fa03fd0f8566f01e18330eb201ee0ca1f6675310235242479abf1813c59e7f7c2b9753d249888c622d3011157dda65e70c90d71385c3a638e61041ebedf0b9df225b2c8e4950d58652113b71a704c50a9f883c2c00748896da0c6a6fe46439e4d6843dd4c2900d02a96ebcc01129801c46a28e57627f4b737953239e0d12c898d6cf4b0fc2b6a25f2cd1b2f931b16521f5a4a4a953f403eebffef11827ba0dc64ff7f1532d6b89b6f28dc0f98bd0168fd1e2300000000001ae101faedac5851e32b9b23b5f9411a8c2bac4aae3ed4dd7b811dd1a72ea4aa710000000009e7f4cb014155575600000000000ef595c9000027100dd9e75b21d431145b9b590ae239d09d9c3518b701005500ff61491a931112ddf1bd8147cd1b641375f79f5825126d665480874634fd0ace0000005c3a70ce180000000006a014a6fffffff80000000068fd1e230000000068fd1e230000005bd26972f00000000007c6e0630daee5815bea917169399300f75d79706cbf8fa64cd84eb199eeec931bf47b42d3873f3470fc6bc12a46da23460c99f6fb2ec561ad4a5f025176cf1121601f0c16b97315bdff732950c308696b80182e4ee62b13c627aa5def0e7358bb2ab96af3866cb86e22851209e50343a46ec296df16474d918389335abd8cd911fcec177bbe31b2ca3362dd781d743920c7b8dee8007b6a52fa3374a6bda602eb0cc3a51206acbcf93e4b6b2d9be042719bea9c01791a2106c3527fd3f183e1b29ff7d352b746f116d8d3302a216d4f6dc2a233944d3be4abee3af1ad5ae74353526338e2ebb085949abce6580b62c20cac9d1c6534f92b86aff979e9d700690130a29f4ae73ed002]"
      ],
      "transaction": {
        "from": "0xdafe44ce6933ba24459453fe20f40d55a454a07f",
        "to": "0x41d897084fd42d0509f752954fecf48c62307b3f",
        "value": "0xa",
        "input": "0x5236017200000000000000000000000042000000000000000000000000000000000000060000000000000000000000005fe161a97511aa3c185cbffdcf281fd510411343000000000000000000000000000000000000000000000000002386f26fc100000000000000000000000000000000000000000000000000000000000000000000000000000000000000000000000000000000000000000000000000000000000000000000000000000000000000000000000000000000000000000000000000c000000000000000000000000000000000000000000000000000000000000000010000000000000000000000000000000000000000000000000000000000000020000000000000000000000000000000000000000000000000000000000000051f504e41550100000003b801000000040d00f0bf45a8f1144a3522348226fe716d3fab73101b58a89c2af2fd3040c847cf9679cf65661584f15f0fc1408e83f231d52fd3ba2871e8e0ca32f2cb4498da38600002f378ea51dbac09c3aca86c1f57c35b3f37b0393776f25694348d00c36ff40c635cdc40673d36be66f1901d4486577375d003b7373229062aa1b73c9ed69a23ec0004ccb9420cd93fda9f0e7a733e8cdd87b760056d0585ce9d113924e6bfa0e2a8822e82d98e2737923e306e6359b4c2314b93b34e123ecefbe216ee6de7eb257a2901061d2f491164c6e647438e9d987ed304352104ed82933383d8f60b53b87d26d55e718b0f867f7ed4fca0aac1aa026c6f4144adb8b2a76e5c7fa9d789e18a98c81c0108f24ee794987f20f7d2d9355b8c9447063924e3315a385ca328b31e2c8e44c9825236e11f13763fa7ea4b777ca0c24655acf83507c0cc27dc22767687d90e2725010b9dbabeb154834207a12936ed6aa13ba70601d832da7abd3ae8761813395f62a9555c2bdb2881e09c9b368e7158a233de7f8ea8220f9d27919d9cc9442fb4c093000c163dd5a2d488b1804aac7c9cb491ffc6f7d6a51686c9faa21dd02c090880bb6a6dd4da1ccbd344715d2e12f6cb9a51081d6c4f554bdf2ad0b2254e9e5f9525d6000d326b959474a47b520147732268f158a85cde403626b4fd732f7c6db927d9eaad02b4cf1cb1b0f09d286a6bda4b01a63acbc47d787752e8264835d05d41d07b30010ee0c85ec5576e020cc5a2fcf8fcf48a72b53d2784bd47edfcc0ae2f541d616a1e6bfaf9b186ebf0c3d2187ae52954a5e0be658c2cd674f7d28aa0535beb8fcdbc000f5ca098a54a83c6f20fee4f778f1a7f2538ba71c0af7f59b2a4049a5e880f92d6662e2e90297e9076c890666bd0344902d78cdfdda0cf23a5feb645621c638b4801101e0dc70c4fbdb8b31b1a30031ad37fccc81f5464ebdc6fa03fd0f8566f01e18330eb201ee0ca1f6675310235242479abf1813c59e7f7c2b9753d249888c622d3011157dda65e70c90d71385c3a638e61041ebedf0b9df225b2c8e4950d58652113b71a704c50a9f883c2c00748896da0c6a6fe46439e4d6843dd4c2900d02a96ebcc01129801c46a28e57627f4b737953239e0d12c898d6cf4b0fc2b6a25f2cd1b2f931b16521f5a4a4a953f403eebffef11827ba0dc64ff7f1532d6b89b6f28dc0f98bd0168fd1e2300000000001ae101faedac5851e32b9b23b5f9411a8c2bac4aae3ed4dd7b811dd1a72ea4aa710000000009e7f4cb014155575600000000000ef595c9000027100dd9e75b21d431145b9b590ae239d09d9c3518b701005500ff61491a931112ddf1bd8147cd1b641375f79f5825126d665480874634fd0ace0000005c3a70ce180000000006a014a6fffffff80000000068fd1e230000000068fd1e230000005bd26972f00000000007c6e0630daee5815bea917169399300f75d79706cbf8fa64cd84eb199eeec931bf47b42d3873f3470fc6bc12a46da23460c99f6fb2ec561ad4a5f025176cf1121601f0c16b97315bdff732950c308696b80182e4ee62b13c627aa5def0e7358bb2ab96af3866cb86e22851209e50343a46ec296df16474d918389335abd8cd911fcec177bbe31b2ca3362dd781d743920c7b8dee8007b6a52fa3374a6bda602eb0cc3a51206acbcf93e4b6b2d9be042719bea9c01791a2106c3527fd3f183e1b29ff7d352b746f116d8d3302a216d4f6dc2a233944d3be4abee3af1ad5ae74353526338e2ebb085949abce6580b62c20cac9d1c6534f92b86aff979e9d700690130a29f4ae73ed00200",
        "nonce": "0xa7",
        "chainId": "0x14a34"
      },
      "additionalContracts": [],
      "isFixedGasLimit": false
    },
    {
      "hash": "0x489988a4bf7c6b6efb8a20b06dad81df7dc3aabf847aff10026edf25fd053881",
      "transactionType": "CALL",
      "contractName": null,
      "contractAddress": "0x41d897084fd42d0509f752954fecf48c62307b3f",
      "function": "createOrder(address,address,uint256,uint256,uint256,bytes[])",
      "arguments": [
        "0x4200000000000000000000000000000000000006",
        "0x5Fe161a97511aa3C185cBfFDCf281Fd510411343",
        "10000000000000000",
        "0",
        "0",
        "[0x504e41550100000003b801000000040d00a288f2ac27098172edc638878c3d67231c2045cfd6b86d85a9f155288d93196301bde3ed58be2dc5f13cd066879e652947a4d760265ea3ae3d36e508e0707e7a0102a2d45b38ce00f405f92a8d822970aedfff39c4ab2d05e9c6c8fd9689a8ba824b019c91be40a9703bd1e66bd80e1a75fdc9cf9370df7910fde112cb782aca0dc901034ce373c46508abc0424f4988911c994f1cefed363d75562fbd454808fe3cf30f3246346eaceda316ef4232bb56f636b55a78f267306ca6f6de6145c2d032de1100043d29bc5888196458830bba5d7a5b392be9e504034aa3fcc3646ff0faa9ad924009fe05acf88d2a639b1664b1948d9d65bddad38f272f3b1d9e2bf022740d7d9a0006b1ad5cac1179e2162334bfb4468f260f3167fbd7e8105c9d49b4c7abcd85dcbf20a6a5fd8ccec1d8c2cf467b8e59669b70c8662914e319076197af3722e6825701081207ae51ea871b073fedbd7cd033fec4fa973f2e961037c4c9e50eed29c70a666957000baebc9536dc9b01806b8d90f36e66168e97d85f604a613f7a7f13a584010a231e6a968586baff884f47ec76c63006581b723c60d6139c3d0ba634e66f21925bde88ec3fe99db6705a960d4fccd512ae2218bbea1e3d46a68f9bef7ab550a8010bb084860499d260f20cbd4bdfa92b112ecc2e076d69cdbd31fdec5d3b5f5b8db92dd6dde8332135d3bc5029470062231da1d68d97651e3805f42095c95b6c2ab5010c65ba3b8ae23c534c6de9f2f2fa343b75fafe28cee26cab0ec28eb883383bc3434844a207b9df356be868199d796d079c9c125908c344751665fb0108c5c77190010df131e2b1bdb76effb0d6eb09a9ceb9d771d723b043326d1f17b216624a3e528d6ee8526d75225619069e15d48ddc2bddaef2fc8a3eed7f48472d683bddf9a888000f07a054f3a15bb2d1b54920f8c3f541c845a5390c2a9897e11d7ceb6f6c7a87247385f00cce5713e393881bc85b3493f858807eaec3ff38ffcb02bc3f054e4f9b0010bc31b5ae656f81a4d73a7b5cbe74c3c2b5aaeb39f584f4c81786452e822bcdf46fbd2ef1bdf4f30efba5dab72e40152ab302b8d5d9d353edb0ba5a1fb775f7860111dfa73de234155e73faa88e09072b99b90491bd8e7bf8044ef87973d90ed88fed5d5b0eabac6bc9c9db6d7ea61bea7f3a25b3dd3ff823bd09f1f457d288f126b20168fd1e2500000000001ae101faedac5851e32b9b23b5f9411a8c2bac4aae3ed4dd7b811dd1a72ea4aa710000000009e7f4d1014155575600000000000ef595cf00002710e0fcc6b0f65e429c5b4fff6d0847b46406c30f3401005500ff61491a931112ddf1bd8147cd1b641375f79f5825126d665480874634fd0ace0000005c3957311f000000000809d253fffffff80000000068fd1e250000000068fd1e250000005bd27cd3e00000000007c6dab40daee5815bea917169399300f75d79706cbf8fa64cd84eb199eeec931bf47b42d3873f3470fc6bc12ab07fa1948d4124b3df82456cf1b3ae2ee88b5d3947439ff595ef46a0b14fa392214c1a587170c246d73c5d92a6b9ebff7df35986f25d47e705bc9212df15ea0461b5e12d6c5e32b6fb29cf4552c59ebce70419b6748b482a698cd58926fa639d756400b3e9460bf3d9ca0304594ff7650a9348ffe736d645d1818daeb9e8bfd36ab06153f6de221f1f5044879cd1c31145adad36b6823922c7e1a6989a24a228b536389e2d231597cc7f498c2dda9d705ae807dc0fb66984a0c201f76136d5df7f1d745f12b757a0cfa76d0126978c3bd7aa730300f0633d5ee2d153]"
      ],
      "transaction": {
        "from": "0xdafe44ce6933ba24459453fe20f40d55a454a07f",
        "to": "0x41d897084fd42d0509f752954fecf48c62307b3f",
        "value": "0xa",
        "input": "0x5236017200000000000000000000000042000000000000000000000000000000000000060000000000000000000000005fe161a97511aa3c185cbffdcf281fd510411343000000000000000000000000000000000000000000000000002386f26fc100000000000000000000000000000000000000000000000000000000000000000000000000000000000000000000000000000000000000000000000000000000000000000000000000000000000000000000000000000000000000000000000000c000000000000000000000000000000000000000000000000000000000000000010000000000000000000000000000000000000000000000000000000000000020000000000000000000000000000000000000000000000000000000000000051f504e41550100000003b801000000040d00a288f2ac27098172edc638878c3d67231c2045cfd6b86d85a9f155288d93196301bde3ed58be2dc5f13cd066879e652947a4d760265ea3ae3d36e508e0707e7a0102a2d45b38ce00f405f92a8d822970aedfff39c4ab2d05e9c6c8fd9689a8ba824b019c91be40a9703bd1e66bd80e1a75fdc9cf9370df7910fde112cb782aca0dc901034ce373c46508abc0424f4988911c994f1cefed363d75562fbd454808fe3cf30f3246346eaceda316ef4232bb56f636b55a78f267306ca6f6de6145c2d032de1100043d29bc5888196458830bba5d7a5b392be9e504034aa3fcc3646ff0faa9ad924009fe05acf88d2a639b1664b1948d9d65bddad38f272f3b1d9e2bf022740d7d9a0006b1ad5cac1179e2162334bfb4468f260f3167fbd7e8105c9d49b4c7abcd85dcbf20a6a5fd8ccec1d8c2cf467b8e59669b70c8662914e319076197af3722e6825701081207ae51ea871b073fedbd7cd033fec4fa973f2e961037c4c9e50eed29c70a666957000baebc9536dc9b01806b8d90f36e66168e97d85f604a613f7a7f13a584010a231e6a968586baff884f47ec76c63006581b723c60d6139c3d0ba634e66f21925bde88ec3fe99db6705a960d4fccd512ae2218bbea1e3d46a68f9bef7ab550a8010bb084860499d260f20cbd4bdfa92b112ecc2e076d69cdbd31fdec5d3b5f5b8db92dd6dde8332135d3bc5029470062231da1d68d97651e3805f42095c95b6c2ab5010c65ba3b8ae23c534c6de9f2f2fa343b75fafe28cee26cab0ec28eb883383bc3434844a207b9df356be868199d796d079c9c125908c344751665fb0108c5c77190010df131e2b1bdb76effb0d6eb09a9ceb9d771d723b043326d1f17b216624a3e528d6ee8526d75225619069e15d48ddc2bddaef2fc8a3eed7f48472d683bddf9a888000f07a054f3a15bb2d1b54920f8c3f541c845a5390c2a9897e11d7ceb6f6c7a87247385f00cce5713e393881bc85b3493f858807eaec3ff38ffcb02bc3f054e4f9b0010bc31b5ae656f81a4d73a7b5cbe74c3c2b5aaeb39f584f4c81786452e822bcdf46fbd2ef1bdf4f30efba5dab72e40152ab302b8d5d9d353edb0ba5a1fb775f7860111dfa73de234155e73faa88e09072b99b90491bd8e7bf8044ef87973d90ed88fed5d5b0eabac6bc9c9db6d7ea61bea7f3a25b3dd3ff823bd09f1f457d288f126b20168fd1e2500000000001ae101faedac5851e32b9b23b5f9411a8c2bac4aae3ed4dd7b811dd1a72ea4aa710000000009e7f4d1014155575600000000000ef595cf00002710e0fcc6b0f65e429c5b4fff6d0847b46406c30f3401005500ff61491a931112ddf1bd8147cd1b641375f79f5825126d665480874634fd0ace0000005c3957311f000000000809d253fffffff80000000068fd1e250000000068fd1e250000005bd27cd3e00000000007c6dab40daee5815bea917169399300f75d79706cbf8fa64cd84eb199eeec931bf47b42d3873f3470fc6bc12ab07fa1948d4124b3df82456cf1b3ae2ee88b5d3947439ff595ef46a0b14fa392214c1a587170c246d73c5d92a6b9ebff7df35986f25d47e705bc9212df15ea0461b5e12d6c5e32b6fb29cf4552c59ebce70419b6748b482a698cd58926fa639d756400b3e9460bf3d9ca0304594ff7650a9348ffe736d645d1818daeb9e8bfd36ab06153f6de221f1f5044879cd1c31145adad36b6823922c7e1a6989a24a228b536389e2d231597cc7f498c2dda9d705ae807dc0fb66984a0c201f76136d5df7f1d745f12b757a0cfa76d0126978c3bd7aa730300f0633d5ee2d15300",
        "nonce": "0xa8",
        "chainId": "0x14a34"
      },
      "additionalContracts": [],
      "isFixedGasLimit": false
    },
    {
      "hash": "0xac2b39024702e1c8aefd3998f9479d220d0e5d01ea0c39572960ca46dcc7f899",
      "transactionType": "CALL",
      "contractName": null,
      "contractAddress": "0x41d897084fd42d0509f752954fecf48c62307b3f",
      "function": "createOrder(address,address,uint256,uint256,uint256,bytes[])",
      "arguments": [
        "0x4200000000000000000000000000000000000006",
        "0x5Fe161a97511aa3C185cBfFDCf281Fd510411343",
        "10000000000000000",
        "0",
        "0",
        "[0x504e41550100000003b801000000040d00d279384e8b92f2e2e044e2896c6a7e8dac197c6a1e700d7670b886e2dec70d356c13e63ac6b1a7b48d25c0c7e7dc31897da814d61b74d42ed6b91fa755b28b3f0002ddcd19f9cf1ac56509ba69e7e710e979530c6ab3e6e80f77eac501bfb4c2457c7d6d68a622a2cf288e97de82e30826c813938f3c73a55a12489e692cae80605300033aecef8ab784cf1ca7b38da2be67c1c2ecbda6d51ee6ab70d90fbd562cc6c8997b0d4ba2c2d50df9716700018fd4fb147640d0c6414cc293f8e1fcc97f503b9a0004e9a594aba30e0e343faf1948af9d770732c3d9fb7a20921b0480cceaa60468de49bfbaa63c48ae585d5bac1b2edd26608f23756bfd8563910c76b8de770edbc0010697ee5340db90a1c6a4b6a3fced7dad55a5ddf3131e4ed44ca49ca8f1c1dd9bb820cbd03bfdbaa2f768691e395ce84ffb75812d02487d618fa41b5df9ce9792e5000829aaa7b07568c83234ef763a9f14cbb4aecf49675bb838d1b0e0054213f2ccea6104e131c7330f866c1ccfb158d5dc333f6f524aa5aa46a20f8792aa29eaa7aa000a2a1faa2e313dbc9b96de0c6f70dff54aba967c6ccf2af013d551fdee7336bcde4833f5c3c7863d9d6afa18ca886c3cbb0a2ffa05c16b3e7d559ff1adb5299b98010b154645433cbe37db0b89cb8f57fdfaf07a097cbb28a76db37aa4d6bb969a48ee4e175032a7ae4ae03cd2468a7b98c440ec8c1babd63d775e42742fb321a9955e010c947190671c4a3288dfc5c68be184ef3422167f52a0f2a9805494ef487623ef3b6e4359803534b8228d87cf1edd913eaf6bb4371652301828db5033c3f9f669e0000daf64a735049d34ae8df9114e94e98417e0bb7d67fcba0da448297def3e5560d536bbf43c7163b29965e8fbb208933c7482b771e54d174cc3f0d61f53e02bc837010ee5cd0d91bccceb1857fbecf3037859180e664b4f181d09b00f020cd9c02cca8e7dbebf49684765867d84a9146b6b7021a2c5bdf7c6f08b3028822b197fdcb8710010f0c63d1ee93bb2a1b01d19c86f9662ec193725b50d8208dbd69466dcd671fc48285b3cccc028787591123a888fe9bac20fe21b477735c9cd6423160a3ad5f3a400114e018f724aee56bca0eee991eb34da11f10145988b82ef537f60099c9a295f384230debdffb3954fe7e4adced1d65322528bd76a067d4a2a8d97903384c8b2310068fd1e2700000000001ae101faedac5851e32b9b23b5f9411a8c2bac4aae3ed4dd7b811dd1a72ea4aa710000000009e7f4d5014155575600000000000ef595d3000027104ef41b146d62acb0f7a45ae7dce793a3ebd4ddbb01005500ff61491a931112ddf1bd8147cd1b641375f79f5825126d665480874634fd0ace0000005c37f823000000000007cdab3bfffffff80000000068fd1e270000000068fd1e260000005bd289a5200000000007c6d5c80daee5815bea917169399300f75d79706cbf8fa64cd84eb199eeec931bf47b42d3873f3470fc6bc12a72d727427bc0250623c2fcc4820c67877b7cfc468eb3274f410d598c05a044149037b04f94b903d9b4b88b4fa04abae8cc54db47ac83f9cba3bb0aff056a70f069c0397a9848eed0c33a25f1db7fc9314f1ce62e88c5756b4827ecd9e6447cf678aa4013f5ed6f5dac72fe43bcfb936141cf0100563cf8ad6044521de934f0467cf9fb80e9bfe32d662f71ddab8c7cf8151099cb408be081fd035d6cf7360b17055bdf7acbe63a68866bebffa032b79555df0c7d176ad6feea36819a647b02364fb33483098766c456b7c9ed786d7aceba2ad5642fe808deb53ee6b4]"
      ],
      "transaction": {
        "from": "0xdafe44ce6933ba24459453fe20f40d55a454a07f",
        "to": "0x41d897084fd42d0509f752954fecf48c62307b3f",
        "value": "0xa",
        "input": "0x5236017200000000000000000000000042000000000000000000000000000000000000060000000000000000000000005fe161a97511aa3c185cbffdcf281fd510411343000000000000000000000000000000000000000000000000002386f26fc100000000000000000000000000000000000000000000000000000000000000000000000000000000000000000000000000000000000000000000000000000000000000000000000000000000000000000000000000000000000000000000000000c000000000000000000000000000000000000000000000000000000000000000010000000000000000000000000000000000000000000000000000000000000020000000000000000000000000000000000000000000000000000000000000051f504e41550100000003b801000000040d00d279384e8b92f2e2e044e2896c6a7e8dac197c6a1e700d7670b886e2dec70d356c13e63ac6b1a7b48d25c0c7e7dc31897da814d61b74d42ed6b91fa755b28b3f0002ddcd19f9cf1ac56509ba69e7e710e979530c6ab3e6e80f77eac501bfb4c2457c7d6d68a622a2cf288e97de82e30826c813938f3c73a55a12489e692cae80605300033aecef8ab784cf1ca7b38da2be67c1c2ecbda6d51ee6ab70d90fbd562cc6c8997b0d4ba2c2d50df9716700018fd4fb147640d0c6414cc293f8e1fcc97f503b9a0004e9a594aba30e0e343faf1948af9d770732c3d9fb7a20921b0480cceaa60468de49bfbaa63c48ae585d5bac1b2edd26608f23756bfd8563910c76b8de770edbc0010697ee5340db90a1c6a4b6a3fced7dad55a5ddf3131e4ed44ca49ca8f1c1dd9bb820cbd03bfdbaa2f768691e395ce84ffb75812d02487d618fa41b5df9ce9792e5000829aaa7b07568c83234ef763a9f14cbb4aecf49675bb838d1b0e0054213f2ccea6104e131c7330f866c1ccfb158d5dc333f6f524aa5aa46a20f8792aa29eaa7aa000a2a1faa2e313dbc9b96de0c6f70dff54aba967c6ccf2af013d551fdee7336bcde4833f5c3c7863d9d6afa18ca886c3cbb0a2ffa05c16b3e7d559ff1adb5299b98010b154645433cbe37db0b89cb8f57fdfaf07a097cbb28a76db37aa4d6bb969a48ee4e175032a7ae4ae03cd2468a7b98c440ec8c1babd63d775e42742fb321a9955e010c947190671c4a3288dfc5c68be184ef3422167f52a0f2a9805494ef487623ef3b6e4359803534b8228d87cf1edd913eaf6bb4371652301828db5033c3f9f669e0000daf64a735049d34ae8df9114e94e98417e0bb7d67fcba0da448297def3e5560d536bbf43c7163b29965e8fbb208933c7482b771e54d174cc3f0d61f53e02bc837010ee5cd0d91bccceb1857fbecf3037859180e664b4f181d09b00f020cd9c02cca8e7dbebf49684765867d84a9146b6b7021a2c5bdf7c6f08b3028822b197fdcb8710010f0c63d1ee93bb2a1b01d19c86f9662ec193725b50d8208dbd69466dcd671fc48285b3cccc028787591123a888fe9bac20fe21b477735c9cd6423160a3ad5f3a400114e018f724aee56bca0eee991eb34da11f10145988b82ef537f60099c9a295f384230debdffb3954fe7e4adced1d65322528bd76a067d4a2a8d97903384c8b2310068fd1e2700000000001ae101faedac5851e32b9b23b5f9411a8c2bac4aae3ed4dd7b811dd1a72ea4aa710000000009e7f4d5014155575600000000000ef595d3000027104ef41b146d62acb0f7a45ae7dce793a3ebd4ddbb01005500ff61491a931112ddf1bd8147cd1b641375f79f5825126d665480874634fd0ace0000005c37f823000000000007cdab3bfffffff80000000068fd1e270000000068fd1e260000005bd289a5200000000007c6d5c80daee5815bea917169399300f75d79706cbf8fa64cd84eb199eeec931bf47b42d3873f3470fc6bc12a72d727427bc0250623c2fcc4820c67877b7cfc468eb3274f410d598c05a044149037b04f94b903d9b4b88b4fa04abae8cc54db47ac83f9cba3bb0aff056a70f069c0397a9848eed0c33a25f1db7fc9314f1ce62e88c5756b4827ecd9e6447cf678aa4013f5ed6f5dac72fe43bcfb936141cf0100563cf8ad6044521de934f0467cf9fb80e9bfe32d662f71ddab8c7cf8151099cb408be081fd035d6cf7360b17055bdf7acbe63a68866bebffa032b79555df0c7d176ad6feea36819a647b02364fb33483098766c456b7c9ed786d7aceba2ad5642fe808deb53ee6b400",
        "nonce": "0xa9",
        "chainId": "0x14a34"
      },
      "additionalContracts": [],
      "isFixedGasLimit": false
    },
    {
      "hash": "0xb778834c45771342e50211b2de2b179bb7be332f9c98ba7234f063412c09da6f",
      "transactionType": "CALL",
      "contractName": null,
      "contractAddress": "0x41d897084fd42d0509f752954fecf48c62307b3f",
      "function": "createOrder(address,address,uint256,uint256,uint256,bytes[])",
      "arguments": [
        "0x4200000000000000000000000000000000000006",
        "0x5Fe161a97511aa3C185cBfFDCf281Fd510411343",
        "10000000000000000",
        "0",
        "0",
        "[0x504e41550100000003b801000000040d0025ae6b0b6cbb7ac1191bd36e9467e641bcc03adcf2cca14b8d4cf97d188475842417f9384090030ce05ec34b9851ca29f42bd9bd76095dfabc1c7dd7a6ce92fe0103d1d3c24a5151aca63e48483a2997bf9fe3641d6c84ceaa00ffc90545144f995e7ae6314ddae40e8499f20e886f7657f8a1499b89a600a17dc8d69b62012e8f510004125d4bad55bfc73c8e1b17b6c24f58be88391c6b4cd8ce983aec933abd1b8d060c7cb303de6dbd04f3566292ffdceb34c1629b35c2fe3b5887cf3bfbc144f4c6000620c66bef01c52227500b598cc02bebd0695d53c7a0bb05fd5c0fadbe446135aa49913ff192969630736d3c2b18146131d5a02fb921a563809a639820eb3d4945010830caa13786c4c31ac56af1ac7c04584d51f9e5185b3ae3d25bacedc3ac42eabc664d736810b47664455d07aa29ccffa840fcefc8da13eacecb9b4fbcb893d73b010aa19085350e2858cf7d6760d3202713c7a6ce31f0b15234a979793a2e0e7ae2167f04e49689cac619274285db5bc2163a17181d3aa142fa006a8ef5dcfabb2dea000be2f7cdb8d34c01b9d77b76cf7b0c563b5d4714640ff941bb431bd08f04cccddb02e38894acab4e68e6709b63a414d2c38368ca55c3c80c5d6d972b8a6a7ce4cc010c6a611566c54588cf6ebb3037dba44d95efab49bc925a5a09fe82ea68d881407119f65dfacf8e96c694ee0f349185c4d722fc4c9f1bb4452a98fbb81d9a5fa779010d7a12e809f035977b50410ff7af4c086014fed0cb869210ccb44e054c2c621e132ceae66154ac28bdafbd59daeaaad749dc5a5408a5229b4681c58fe8e660b020000e39ea0e04ecddc13aed95f25a16b57aa4233d6e1a683a24d8d7bdf92ae5d46b3f2f78b338d3aa2d5c505554209c05991a4a36798a4b993c0ab81ff5e7c08121eb010f6137f06509a375d8af71215cfc5fa4f835c00365586ba4569156ea974f86178b1d4916451f38011a5000ca53d946f0cbfc90eb5ad8a9d439b1c010329396ce7f00105b668da89b9acea20b1c68497f6a88e13536e5b359d6bfa7b30840157619dfe11689f3e112488294da621cfdacc71e4104ec4716f7ce4fbb5c1fe75c75ab920701115a2d8251ff35748be7545478a340f5a3ce2455b954b0673d0475f709d63a9f2a7184cdd156561493483fe5b532b7069db7f218f8bf0862a47003ff932f6cadef0168fd1e2800000000001ae101faedac5851e32b9b23b5f9411a8c2bac4aae3ed4dd7b811dd1a72ea4aa710000000009e7f4d9014155575600000000000ef595d70000271065e3c8a2990c8d3ee622dbba41ff51aead83b58e01005500ff61491a931112ddf1bd8147cd1b641375f79f5825126d665480874634fd0ace0000005c37b2fd15000000000932614afffffff80000000068fd1e280000000068fd1e280000005bd29516d00000000007c6e8320daee5815bea917169399300f75d79706cbf8fa64cd84eb199eeec931bf47b42d3873f3470fc6bc12a940b0cf7da20960e5e0b8b0a4a22fb141e0ecfbc7094d4b9fdc07896b1392b7a945affc0d70cf75769b904a5684e99c6ce58391c8897f532ec30ae643a7b496c487fda45d037f10d5b529b6eb59b253deb21eb68409f8d8ca8c2e4158bb16a233e13ef763ece7db9b32df64557917bb909af3ae7c72c55d1ff8e0e7c09d2c64d92a5976805cc3c2f2df6554df5c12aa1aef67fcbcb5855ad1c6ab5f849cc3455fa4982da73c0e674d2f6d95d35cfd5490bfd12644eb7e1ca3b90e869c7f6c07650bed4a1a27bc81e05ef3e66b1b536e73a1ed5e23d541125bd367507]"
      ],
      "transaction": {
        "from": "0xdafe44ce6933ba24459453fe20f40d55a454a07f",
        "to": "0x41d897084fd42d0509f752954fecf48c62307b3f",
        "value": "0xa",
        "input": "0x5236017200000000000000000000000042000000000000000000000000000000000000060000000000000000000000005fe161a97511aa3c185cbffdcf281fd510411343000000000000000000000000000000000000000000000000002386f26fc100000000000000000000000000000000000000000000000000000000000000000000000000000000000000000000000000000000000000000000000000000000000000000000000000000000000000000000000000000000000000000000000000c000000000000000000000000000000000000000000000000000000000000000010000000000000000000000000000000000000000000000000000000000000020000000000000000000000000000000000000000000000000000000000000051f504e41550100000003b801000000040d0025ae6b0b6cbb7ac1191bd36e9467e641bcc03adcf2cca14b8d4cf97d188475842417f9384090030ce05ec34b9851ca29f42bd9bd76095dfabc1c7dd7a6ce92fe0103d1d3c24a5151aca63e48483a2997bf9fe3641d6c84ceaa00ffc90545144f995e7ae6314ddae40e8499f20e886f7657f8a1499b89a600a17dc8d69b62012e8f510004125d4bad55bfc73c8e1b17b6c24f58be88391c6b4cd8ce983aec933abd1b8d060c7cb303de6dbd04f3566292ffdceb34c1629b35c2fe3b5887cf3bfbc144f4c6000620c66bef01c52227500b598cc02bebd0695d53c7a0bb05fd5c0fadbe446135aa49913ff192969630736d3c2b18146131d5a02fb921a563809a639820eb3d4945010830caa13786c4c31ac56af1ac7c04584d51f9e5185b3ae3d25bacedc3ac42eabc664d736810b47664455d07aa29ccffa840fcefc8da13eacecb9b4fbcb893d73b010aa19085350e2858cf7d6760d3202713c7a6ce31f0b15234a979793a2e0e7ae2167f04e49689cac619274285db5bc2163a17181d3aa142fa006a8ef5dcfabb2dea000be2f7cdb8d34c01b9d77b76cf7b0c563b5d4714640ff941bb431bd08f04cccddb02e38894acab4e68e6709b63a414d2c38368ca55c3c80c5d6d972b8a6a7ce4cc010c6a611566c54588cf6ebb3037dba44d95efab49bc925a5a09fe82ea68d881407119f65dfacf8e96c694ee0f349185c4d722fc4c9f1bb4452a98fbb81d9a5fa779010d7a12e809f035977b50410ff7af4c086014fed0cb869210ccb44e054c2c621e132ceae66154ac28bdafbd59daeaaad749dc5a5408a5229b4681c58fe8e660b020000e39ea0e04ecddc13aed95f25a16b57aa4233d6e1a683a24d8d7bdf92ae5d46b3f2f78b338d3aa2d5c505554209c05991a4a36798a4b993c0ab81ff5e7c08121eb010f6137f06509a375d8af71215cfc5fa4f835c00365586ba4569156ea974f86178b1d4916451f38011a5000ca53d946f0cbfc90eb5ad8a9d439b1c010329396ce7f00105b668da89b9acea20b1c68497f6a88e13536e5b359d6bfa7b30840157619dfe11689f3e112488294da621cfdacc71e4104ec4716f7ce4fbb5c1fe75c75ab920701115a2d8251ff35748be7545478a340f5a3ce2455b954b0673d0475f709d63a9f2a7184cdd156561493483fe5b532b7069db7f218f8bf0862a47003ff932f6cadef0168fd1e2800000000001ae101faedac5851e32b9b23b5f9411a8c2bac4aae3ed4dd7b811dd1a72ea4aa710000000009e7f4d9014155575600000000000ef595d70000271065e3c8a2990c8d3ee622dbba41ff51aead83b58e01005500ff61491a931112ddf1bd8147cd1b641375f79f5825126d665480874634fd0ace0000005c37b2fd15000000000932614afffffff80000000068fd1e280000000068fd1e280000005bd29516d00000000007c6e8320daee5815bea917169399300f75d79706cbf8fa64cd84eb199eeec931bf47b42d3873f3470fc6bc12a940b0cf7da20960e5e0b8b0a4a22fb141e0ecfbc7094d4b9fdc07896b1392b7a945affc0d70cf75769b904a5684e99c6ce58391c8897f532ec30ae643a7b496c487fda45d037f10d5b529b6eb59b253deb21eb68409f8d8ca8c2e4158bb16a233e13ef763ece7db9b32df64557917bb909af3ae7c72c55d1ff8e0e7c09d2c64d92a5976805cc3c2f2df6554df5c12aa1aef67fcbcb5855ad1c6ab5f849cc3455fa4982da73c0e674d2f6d95d35cfd5490bfd12644eb7e1ca3b90e869c7f6c07650bed4a1a27bc81e05ef3e66b1b536e73a1ed5e23d541125bd36750700",
        "nonce": "0xaa",
        "chainId": "0x14a34"
      },
      "additionalContracts": [],
      "isFixedGasLimit": false
    },
    {
      "hash": "0x80c551c19244647084fc89dee875c07d609edf23f75db2cd0df06e8d1fbfd990",
      "transactionType": "CALL",
      "contractName": null,
      "contractAddress": "0x41d897084fd42d0509f752954fecf48c62307b3f",
      "function": "createOrder(address,address,uint256,uint256,uint256,bytes[])",
      "arguments": [
        "0x4200000000000000000000000000000000000006",
        "0x5Fe161a97511aa3C185cBfFDCf281Fd510411343",
        "10000000000000000",
        "0",
        "0",
        "[0x504e41550100000003b801000000040d00c5a16b026947a3c86a46b8d60db87cf22253a11340bb37fd1e6ce6db235fd7f25d52a5beb93a56a69415110fcfe515eefdccd15d7a25a4ffbaa5b7d88a9d1318010257d3d3a6cb3201ab234e41c7ccdd146a9dd20718205f05070d8883c30baa11e119f532b989bc68964fabbf9abb83132140d0b2747fcb87b04ec38bdcce75df94000308ed758864267b4ac1cac1a20926c464ab8eae7765f4a0b66561470b8866192d68a2dd0daae8a51be0bf2d94b92d6f1e8ea9e4086d09d60cc43092c6580ffa7901042ec71b5dc9a5ef50edc64fef89a555e007f0aec75333f28c1c04889f660f48f375e2d4d729be9de2967f9a3326cf414e0e8e50260a246100361bc64c005db66f0106b8e3029817b39f43fc39badbf07dd8f0a3e76b6637c387bbaf05be36ff10702f496d2f306deec22da0cb6ab2b56797ad4e5a7148563f76e69476f9aa367d68820108e33a00ff3cdf90c898e283259d60f23ab786cb9c55437e9d483fa16eaffa852f45672d7bc45cdbf0668c97328d26bd9a321362eb74f5d5bb91fbf79968bf636c010ac3bd3d5291f623ae699732f5e57de179f4b5b5765eddd534489afe9c22fff6b6064317a352b9a363ea0198310f0e64da958b7b85a729fa62fcd48a7f3a55b2d5000b79e5ae6d6839359c0bbc9e0ecd70710119413414f9ae9b0f1e13bd45c58d6b485685e5cec03b97c25aa66385160740e4ff23493a05cbdee01cdfa43d09ee1f53010ca8b181dbfd9d39d58428551fa41dd6a0116d8c72e5c003765aeda595d7db0a8c69eb248e3ef6f061b6ba4e0ddaa2e815dc0f6f531d082bd4dd4df4c0ea112293000d48063b0feebd6824b43374ceb963127b7923740ec3bc0922c5f599a83e1d297532e2854e777606b618c1c9bd41afb67f0361b2367e106c34bfa6a688509af600010fa98bd9b26971ab98093488233a53f359ba1c7ec90749e4e87c5007d7ca5f83a427b20f61b0c0f0ba7ace37e614e0ecefa4c7bd66fbf1a6585cc5ce581dc8ad640011a77f84936107a87d3c689201deb589550a99f220dd152577b29593632678b2497aeda6a457106afe71e6a638fbedf267d64e919246e13b2939ff503068f9b35c0012808473c640992e5fedaf579de41ed8cade54901ddca886e708665eae30c95dc567b51fdcd897bccae0f6ab03723ac3d967d00c1cf0681b4d29b64d587a59106f0068fd1e2b00000000001ae101faedac5851e32b9b23b5f9411a8c2bac4aae3ed4dd7b811dd1a72ea4aa710000000009e7f4de014155575600000000000ef595dc0000271016b7081dfccee2e686b82dafd03074b1656f10e901005500ff61491a931112ddf1bd8147cd1b641375f79f5825126d665480874634fd0ace0000005c375635ba0000000007c58ffafffffff80000000068fd1e2b0000000068fd1e2a0000005bd2a51c600000000007c6dc3a0daee5815bea917169399300f75d79706cbf8fa64cd84eb199eeec931bf47b42d3873f3470fc6bc12ad849e74f42b446263716db4f8d5a22896f49d128489d4dffedf0ab35a928b99c79e49da0f1eed3f61bb1e2dc2fd1f0a3a60037dc9e5ef8a38c29b73db0bebcff0f7c41fc0c41f366d608ce7c23f65f4d189a4fc6ac3bc4d2f6db4f27df8e4368433a90fe59c02abdcc39992a52b1aa4900efd3b5bfb1b400c55041e3f4698dbc5f97797377933319daf2c99e03bdc9ad3396b3e47d44d549a26e2da69c4fa6414bb65b6717a0e50a1e1ca4dc6cfe7b878cbc34d72e1c7be576c6659bb1aa9e92f94a00f0ec15cd1109f95d536d5ed054e78e5e4b678761c060faabdf]"
      ],
      "transaction": {
        "from": "0xdafe44ce6933ba24459453fe20f40d55a454a07f",
        "to": "0x41d897084fd42d0509f752954fecf48c62307b3f",
        "value": "0xa",
        "input": "0x5236017200000000000000000000000042000000000000000000000000000000000000060000000000000000000000005fe161a97511aa3c185cbffdcf281fd510411343000000000000000000000000000000000000000000000000002386f26fc100000000000000000000000000000000000000000000000000000000000000000000000000000000000000000000000000000000000000000000000000000000000000000000000000000000000000000000000000000000000000000000000000c000000000000000000000000000000000000000000000000000000000000000010000000000000000000000000000000000000000000000000000000000000020000000000000000000000000000000000000000000000000000000000000051f504e41550100000003b801000000040d00c5a16b026947a3c86a46b8d60db87cf22253a11340bb37fd1e6ce6db235fd7f25d52a5beb93a56a69415110fcfe515eefdccd15d7a25a4ffbaa5b7d88a9d1318010257d3d3a6cb3201ab234e41c7ccdd146a9dd20718205f05070d8883c30baa11e119f532b989bc68964fabbf9abb83132140d0b2747fcb87b04ec38bdcce75df94000308ed758864267b4ac1cac1a20926c464ab8eae7765f4a0b66561470b8866192d68a2dd0daae8a51be0bf2d94b92d6f1e8ea9e4086d09d60cc43092c6580ffa7901042ec71b5dc9a5ef50edc64fef89a555e007f0aec75333f28c1c04889f660f48f375e2d4d729be9de2967f9a3326cf414e0e8e50260a246100361bc64c005db66f0106b8e3029817b39f43fc39badbf07dd8f0a3e76b6637c387bbaf05be36ff10702f496d2f306deec22da0cb6ab2b56797ad4e5a7148563f76e69476f9aa367d68820108e33a00ff3cdf90c898e283259d60f23ab786cb9c55437e9d483fa16eaffa852f45672d7bc45cdbf0668c97328d26bd9a321362eb74f5d5bb91fbf79968bf636c010ac3bd3d5291f623ae699732f5e57de179f4b5b5765eddd534489afe9c22fff6b6064317a352b9a363ea0198310f0e64da958b7b85a729fa62fcd48a7f3a55b2d5000b79e5ae6d6839359c0bbc9e0ecd70710119413414f9ae9b0f1e13bd45c58d6b485685e5cec03b97c25aa66385160740e4ff23493a05cbdee01cdfa43d09ee1f53010ca8b181dbfd9d39d58428551fa41dd6a0116d8c72e5c003765aeda595d7db0a8c69eb248e3ef6f061b6ba4e0ddaa2e815dc0f6f531d082bd4dd4df4c0ea112293000d48063b0feebd6824b43374ceb963127b7923740ec3bc0922c5f599a83e1d297532e2854e777606b618c1c9bd41afb67f0361b2367e106c34bfa6a688509af600010fa98bd9b26971ab98093488233a53f359ba1c7ec90749e4e87c5007d7ca5f83a427b20f61b0c0f0ba7ace37e614e0ecefa4c7bd66fbf1a6585cc5ce581dc8ad640011a77f84936107a87d3c689201deb589550a99f220dd152577b29593632678b2497aeda6a457106afe71e6a638fbedf267d64e919246e13b2939ff503068f9b35c0012808473c640992e5fedaf579de41ed8cade54901ddca886e708665eae30c95dc567b51fdcd897bccae0f6ab03723ac3d967d00c1cf0681b4d29b64d587a59106f0068fd1e2b00000000001ae101faedac5851e32b9b23b5f9411a8c2bac4aae3ed4dd7b811dd1a72ea4aa710000000009e7f4de014155575600000000000ef595dc0000271016b7081dfccee2e686b82dafd03074b1656f10e901005500ff61491a931112ddf1bd8147cd1b641375f79f5825126d665480874634fd0ace0000005c375635ba0000000007c58ffafffffff80000000068fd1e2b0000000068fd1e2a0000005bd2a51c600000000007c6dc3a0daee5815bea917169399300f75d79706cbf8fa64cd84eb199eeec931bf47b42d3873f3470fc6bc12ad849e74f42b446263716db4f8d5a22896f49d128489d4dffedf0ab35a928b99c79e49da0f1eed3f61bb1e2dc2fd1f0a3a60037dc9e5ef8a38c29b73db0bebcff0f7c41fc0c41f366d608ce7c23f65f4d189a4fc6ac3bc4d2f6db4f27df8e4368433a90fe59c02abdcc39992a52b1aa4900efd3b5bfb1b400c55041e3f4698dbc5f97797377933319daf2c99e03bdc9ad3396b3e47d44d549a26e2da69c4fa6414bb65b6717a0e50a1e1ca4dc6cfe7b878cbc34d72e1c7be576c6659bb1aa9e92f94a00f0ec15cd1109f95d536d5ed054e78e5e4b678761c060faabdf00",
        "nonce": "0xab",
        "chainId": "0x14a34"
      },
      "additionalContracts": [],
      "isFixedGasLimit": false
    },
    {
      "hash": "0xd17c7cc33691c758d0a8eb46b26764f1a5dfa280a24dd050864235f9d35e61e1",
      "transactionType": "CALL",
      "contractName": null,
      "contractAddress": "0x41d897084fd42d0509f752954fecf48c62307b3f",
      "function": "createOrder(address,address,uint256,uint256,uint256,bytes[])",
      "arguments": [
        "0x4200000000000000000000000000000000000006",
        "0x5Fe161a97511aa3C185cBfFDCf281Fd510411343",
        "10000000000000000",
        "0",
        "0",
        "[0x504e41550100000003b801000000040d003ef5ceda3214080f132b1350856f5f050af6c0d47e977082b0ae12175a38a91668e801569e23cb45bbe430acf5a3f7f09e73647197ebaea48edcf48ccd6746ab0104de99aaf875d7fce5e2814d5a823e9489d5d32a6f50e3bf599cca82f3b9b81ade417fa356c9cdb6b64da4b8b017b19ad27d53b5f3881c34f4ee67a3490d0dae970006eef8f7646275644c35deef76455366d1863199d0e2a0dd516c42f728b3a5ede250f01ccb2466207883c55952365e18bd523e31ad6c4b5e447d759eb1894a3a3b0108f6f9f7ab63362a8fa3991d7f8ca9a11bf098b13ee6bd694deaeda8e279046a3132b1c5b2adcaa5d8f6296151b74bfa3bb2f5f0f4c870319df11f58e6019f8a6d010ac88f2c1d0051f7978abdace0260cfd1cb20e1f8d8989ac5760dd4ec035ab1d5c5e7a09b3d3880923d61239ea08351c9161240baf2304df1802f62af0d44b773b010b8935478f9a32a8cfc55721de4106560bb397f9a49d9b71f84c922e1eab0520b85b807286b4cb8e364c9a24a984cf818f42747dd1e6125d630eacba9583e1b43d000c76e90cc6ad3bc129a7a50daf4744472bc1667cf6128fe435d723a43c4f51d36c43d599ed0d4b4f348ca57df4fdb356760aa5e0d5aa47852e7bb0fa4ba6bdd2c5010d4fb33644037cd083a9efc9e9af3ad102ad6b3ec1f9b5359022e48f1d06a154ee48b9dc2a1d762f91bb5c99f7df5273f90090bed3dedab201578e027880a36421000e9d994f55da7e2a976cdf8ec0c3ea10d9236d4188125c0c666f817c99729b6b5221994e6eae3ae5fd50b7b960c50d64003bf876ddd1122f421ffa752b948c4856000f110ee7673086315a43020d516660051f34d605c8b838d206a5fbb5c7d258a8c57c926e771308562c75d9182293b750fc7b5be2bb9d621217f8452a9c8e7bc0cf011061877a884e70691fb4a3e158ed1a256ea5f8c965f2fb7345d0f5a5eac15689a618e587990f1f0b3665502ef5ef233d3d3b3320855fe3cc3349af643d7c16a9c501119d78dcbb2abb127661222f7831ce06c8f0f184ea5ce7f24793bbccfdd64f902a139908d9b4ea70d3ce15e1ee8d966d809eaa82d5d98f3d36ec7131f7a2e4328b011244082a6ea3fa95c5edc801d26926030d5e83cedd1794f38fc16969c3efbcaff75bb22a6d000bb84bd6d38a48401f28adae03b03d2d2fcbb667ae968704222c330068fd1e2c00000000001ae101faedac5851e32b9b23b5f9411a8c2bac4aae3ed4dd7b811dd1a72ea4aa710000000009e7f4e2014155575600000000000ef595e00000271023d355b1053389b32d3fe4eff2506937993b000101005500ff61491a931112ddf1bd8147cd1b641375f79f5825126d665480874634fd0ace0000005c375f948e000000000746aff9fffffff80000000068fd1e2c0000000068fd1e2c0000005bd2b262d00000000007c6cc190daee5815bea917169399300f75d79706cbf8fa64cd84eb199eeec931bf47b42d3873f3470fc6bc12a66cba1d1bf5d6615331b24c9296e9b9d146303ef0250220669e6616bebbe14e9c4e85752a2640d9fe46cadfc1708e9e5981b58863a7c951a9a84c0c228e9b0115aa1cc090b8234a0db71e470924a30186ff17533a432c08e75b5e364ef92a327a55143a3e3edfadc620f1917a81197edab5b044d0c1607f5efe88b0d94f7eaf9bb9ef7f61370b287184ae55ee0e68f21c0d0a07283eec373bb332515b7a4318d493239f6dd7009b6e603a2838a31d57b66a74a8562e6b2f965f390d83173a23eb2af9ec2aff38809e2731eabfa2201971dbac7bd28daa11bb308944e]"
      ],
      "transaction": {
        "from": "0xdafe44ce6933ba24459453fe20f40d55a454a07f",
        "to": "0x41d897084fd42d0509f752954fecf48c62307b3f",
        "value": "0xa",
        "input": "0x5236017200000000000000000000000042000000000000000000000000000000000000060000000000000000000000005fe161a97511aa3c185cbffdcf281fd510411343000000000000000000000000000000000000000000000000002386f26fc100000000000000000000000000000000000000000000000000000000000000000000000000000000000000000000000000000000000000000000000000000000000000000000000000000000000000000000000000000000000000000000000000c000000000000000000000000000000000000000000000000000000000000000010000000000000000000000000000000000000000000000000000000000000020000000000000000000000000000000000000000000000000000000000000051f504e41550100000003b801000000040d003ef5ceda3214080f132b1350856f5f050af6c0d47e977082b0ae12175a38a91668e801569e23cb45bbe430acf5a3f7f09e73647197ebaea48edcf48ccd6746ab0104de99aaf875d7fce5e2814d5a823e9489d5d32a6f50e3bf599cca82f3b9b81ade417fa356c9cdb6b64da4b8b017b19ad27d53b5f3881c34f4ee67a3490d0dae970006eef8f7646275644c35deef76455366d1863199d0e2a0dd516c42f728b3a5ede250f01ccb2466207883c55952365e18bd523e31ad6c4b5e447d759eb1894a3a3b0108f6f9f7ab63362a8fa3991d7f8ca9a11bf098b13ee6bd694deaeda8e279046a3132b1c5b2adcaa5d8f6296151b74bfa3bb2f5f0f4c870319df11f58e6019f8a6d010ac88f2c1d0051f7978abdace0260cfd1cb20e1f8d8989ac5760dd4ec035ab1d5c5e7a09b3d3880923d61239ea08351c9161240baf2304df1802f62af0d44b773b010b8935478f9a32a8cfc55721de4106560bb397f9a49d9b71f84c922e1eab0520b85b807286b4cb8e364c9a24a984cf818f42747dd1e6125d630eacba9583e1b43d000c76e90cc6ad3bc129a7a50daf4744472bc1667cf6128fe435d723a43c4f51d36c43d599ed0d4b4f348ca57df4fdb356760aa5e0d5aa47852e7bb0fa4ba6bdd2c5010d4fb33644037cd083a9efc9e9af3ad102ad6b3ec1f9b5359022e48f1d06a154ee48b9dc2a1d762f91bb5c99f7df5273f90090bed3dedab201578e027880a36421000e9d994f55da7e2a976cdf8ec0c3ea10d9236d4188125c0c666f817c99729b6b5221994e6eae3ae5fd50b7b960c50d64003bf876ddd1122f421ffa752b948c4856000f110ee7673086315a43020d516660051f34d605c8b838d206a5fbb5c7d258a8c57c926e771308562c75d9182293b750fc7b5be2bb9d621217f8452a9c8e7bc0cf011061877a884e70691fb4a3e158ed1a256ea5f8c965f2fb7345d0f5a5eac15689a618e587990f1f0b3665502ef5ef233d3d3b3320855fe3cc3349af643d7c16a9c501119d78dcbb2abb127661222f7831ce06c8f0f184ea5ce7f24793bbccfdd64f902a139908d9b4ea70d3ce15e1ee8d966d809eaa82d5d98f3d36ec7131f7a2e4328b011244082a6ea3fa95c5edc801d26926030d5e83cedd1794f38fc16969c3efbcaff75bb22a6d000bb84bd6d38a48401f28adae03b03d2d2fcbb667ae968704222c330068fd1e2c00000000001ae101faedac5851e32b9b23b5f9411a8c2bac4aae3ed4dd7b811dd1a72ea4aa710000000009e7f4e2014155575600000000000ef595e00000271023d355b1053389b32d3fe4eff2506937993b000101005500ff61491a931112ddf1bd8147cd1b641375f79f5825126d665480874634fd0ace0000005c375f948e000000000746aff9fffffff80000000068fd1e2c0000000068fd1e2c0000005bd2b262d00000000007c6cc190daee5815bea917169399300f75d79706cbf8fa64cd84eb199eeec931bf47b42d3873f3470fc6bc12a66cba1d1bf5d6615331b24c9296e9b9d146303ef0250220669e6616bebbe14e9c4e85752a2640d9fe46cadfc1708e9e5981b58863a7c951a9a84c0c228e9b0115aa1cc090b8234a0db71e470924a30186ff17533a432c08e75b5e364ef92a327a55143a3e3edfadc620f1917a81197edab5b044d0c1607f5efe88b0d94f7eaf9bb9ef7f61370b287184ae55ee0e68f21c0d0a07283eec373bb332515b7a4318d493239f6dd7009b6e603a2838a31d57b66a74a8562e6b2f965f390d83173a23eb2af9ec2aff38809e2731eabfa2201971dbac7bd28daa11bb308944e00",
        "nonce": "0xac",
        "chainId": "0x14a34"
      },
      "additionalContracts": [],
      "isFixedGasLimit": false
    },
    {
      "hash": "0x3dd5d8a27617d0f8397d3084a6362d217b83719a5fb15b2aea23d81cc9a15c13",
      "transactionType": "CALL",
      "contractName": null,
      "contractAddress": "0x41d897084fd42d0509f752954fecf48c62307b3f",
      "function": "createOrder(address,address,uint256,uint256,uint256,bytes[])",
      "arguments": [
        "0x4200000000000000000000000000000000000006",
        "0x5Fe161a97511aa3C185cBfFDCf281Fd510411343",
        "10000000000000000",
        "0",
        "0",
        "[0x504e41550100000003b801000000040d00731bb8614c681812f2391ad2b2cc9175e30efb97b8d48f6dfd2ea9cf89b7f49c0b18d8ddb42fa81bd62e49475c7ec1868f330ecc1ff30f71fff133b01edfdf2200024d85c582fe026045bd0508a4436b5633f81d14bc5394d9c5ea90aa8a662532e902b85a31f6faabe2d3c48ec31bc613a48f1c309833801d5149d32ffe1f1d73ae01033093b455a8baa29ec07900545445fd0027ff9e51de39090b4f5e23bead813d953155fb8f1e315004b3ddd0a11d58539cff0de8ea4a42e834a99ad7d1ff9fc14d0104891ade900d1bc9700956eef1c733bbb4634f2d3f8ac32acd1969a99e3a3d8a3b30638be294be4d94da88ae673bc61e43d51e4ea12104a694a855b135433362230006a4fc499f3bc40f51111444197856e1c082d90a9744c7ad1015453c7b2b3854b9618c105cbdd2324f23ff67de5db769027d7a2db7d69d8af1d24c686bbcd6bf8d01081fc5f34b353cf725eb64c36e06982363205d76d6fb7f8932c343be3ffec2983671eef93241ffacd1a7d26b0e3849a064d932231523d3bfe27ed68e22c56ca5db000a04b44c5d7f35814e2afdad0384c3f9d8c27a6aa2428c9bc95a0837d8be66e3b4415b0e82030a5d9a32b800edd73fe07af87ee9451c20599e00bc809a38adcef4010b6f439cea3ebd107177317bc3d2b31d1756073a1df427b2f371f3ae8ddc45f29209d0dbd94ae02e6032c3c7c64b8dc22bde27967fd0f29dd2d6d4d25cc0083221010c276ff0b5a17d00043ea701b0c3a7b404576ae473dbf6cd75ca1dffbdbb7636ec071a0ffb8afb3e0a5a6d321357231be5a713dafcec3a99c5f3d4b09701582e1f000d850b44b60dae5b874eaa415ed500ab6255a07b9c3cbc311061f609756f1f748606f3e0ebbaba5e957bf5dd5f128539fffd6a5c820a324ce8c3c31e0fda1500fc000ef06aa700bc6a6d14430294c3bb245000e997b5c5650fac19a5cfd1e901de8ce24b6706af3a218aeb2cb3e115001be9e99a796f1a90da8adf8300f72f51734e9b0110d9dad70ac1faa1f96b01fdb1b437c5e72da2bc031d4b0b19f31b1fbb329a99fb0cca46e668b2b614f72e3df74e6e4804e292ce9d3fd60931c8dca8421f8a4e940111243c55fbcfe7c01baa37c8706479d6f9ab7de010ff0a742ce99753be72fcc67c7b7a4b2164d8744509abe7f8e563b5528279044e9614a8d0e24e6a2a36ba238a0168fd1e2e00000000001ae101faedac5851e32b9b23b5f9411a8c2bac4aae3ed4dd7b811dd1a72ea4aa710000000009e7f4e7014155575600000000000ef595e50000271081f1fb51b15e85df4082063dc3dfe13693354f2601005500ff61491a931112ddf1bd8147cd1b641375f79f5825126d665480874634fd0ace0000005c375f55f20000000006c1647cfffffff80000000068fd1e2e0000000068fd1e2e0000005bd2c3a0e00000000007c6a6dc0daee5815bea917169399300f75d79706cbf8fa64cd84eb199eeec931bf47b42d3873f3470fc6bc12aeb8797b3f84dc953434581cf13a7d944ed870bbc9842cd7eb22eab351fc0e7397110c2138244b391bca99a10b5c4382aa280eff058dfe154238c113ee13af2b4940538b574422de81ff53e2d9821dd2f8a5d83ef008c3132c0b29beef8182d939890f827fc30b933396f11495ff1b07294276bc0812e762def218c8e5829428e3229cb8f97192cc62b188cd4d702742a51921d68ef4a37b2fd3b5e5474fc689d99b308de024f83663351951e0a1205ed2e0cc536330b388a3024b95d1ab1b011a84209b27e50c0a253051ccc4f1180921e514324aed352cf699e37df]"
      ],
      "transaction": {
        "from": "0xdafe44ce6933ba24459453fe20f40d55a454a07f",
        "to": "0x41d897084fd42d0509f752954fecf48c62307b3f",
        "value": "0xa",
        "input": "0x5236017200000000000000000000000042000000000000000000000000000000000000060000000000000000000000005fe161a97511aa3c185cbffdcf281fd510411343000000000000000000000000000000000000000000000000002386f26fc100000000000000000000000000000000000000000000000000000000000000000000000000000000000000000000000000000000000000000000000000000000000000000000000000000000000000000000000000000000000000000000000000c000000000000000000000000000000000000000000000000000000000000000010000000000000000000000000000000000000000000000000000000000000020000000000000000000000000000000000000000000000000000000000000051f504e41550100000003b801000000040d00731bb8614c681812f2391ad2b2cc9175e30efb97b8d48f6dfd2ea9cf89b7f49c0b18d8ddb42fa81bd62e49475c7ec1868f330ecc1ff30f71fff133b01edfdf2200024d85c582fe026045bd0508a4436b5633f81d14bc5394d9c5ea90aa8a662532e902b85a31f6faabe2d3c48ec31bc613a48f1c309833801d5149d32ffe1f1d73ae01033093b455a8baa29ec07900545445fd0027ff9e51de39090b4f5e23bead813d953155fb8f1e315004b3ddd0a11d58539cff0de8ea4a42e834a99ad7d1ff9fc14d0104891ade900d1bc9700956eef1c733bbb4634f2d3f8ac32acd1969a99e3a3d8a3b30638be294be4d94da88ae673bc61e43d51e4ea12104a694a855b135433362230006a4fc499f3bc40f51111444197856e1c082d90a9744c7ad1015453c7b2b3854b9618c105cbdd2324f23ff67de5db769027d7a2db7d69d8af1d24c686bbcd6bf8d01081fc5f34b353cf725eb64c36e06982363205d76d6fb7f8932c343be3ffec2983671eef93241ffacd1a7d26b0e3849a064d932231523d3bfe27ed68e22c56ca5db000a04b44c5d7f35814e2afdad0384c3f9d8c27a6aa2428c9bc95a0837d8be66e3b4415b0e82030a5d9a32b800edd73fe07af87ee9451c20599e00bc809a38adcef4010b6f439cea3ebd107177317bc3d2b31d1756073a1df427b2f371f3ae8ddc45f29209d0dbd94ae02e6032c3c7c64b8dc22bde27967fd0f29dd2d6d4d25cc0083221010c276ff0b5a17d00043ea701b0c3a7b404576ae473dbf6cd75ca1dffbdbb7636ec071a0ffb8afb3e0a5a6d321357231be5a713dafcec3a99c5f3d4b09701582e1f000d850b44b60dae5b874eaa415ed500ab6255a07b9c3cbc311061f609756f1f748606f3e0ebbaba5e957bf5dd5f128539fffd6a5c820a324ce8c3c31e0fda1500fc000ef06aa700bc6a6d14430294c3bb245000e997b5c5650fac19a5cfd1e901de8ce24b6706af3a218aeb2cb3e115001be9e99a796f1a90da8adf8300f72f51734e9b0110d9dad70ac1faa1f96b01fdb1b437c5e72da2bc031d4b0b19f31b1fbb329a99fb0cca46e668b2b614f72e3df74e6e4804e292ce9d3fd60931c8dca8421f8a4e940111243c55fbcfe7c01baa37c8706479d6f9ab7de010ff0a742ce99753be72fcc67c7b7a4b2164d8744509abe7f8e563b5528279044e9614a8d0e24e6a2a36ba238a0168fd1e2e00000000001ae101faedac5851e32b9b23b5f9411a8c2bac4aae3ed4dd7b811dd1a72ea4aa710000000009e7f4e7014155575600000000000ef595e50000271081f1fb51b15e85df4082063dc3dfe13693354f2601005500ff61491a931112ddf1bd8147cd1b641375f79f5825126d665480874634fd0ace0000005c375f55f20000000006c1647cfffffff80000000068fd1e2e0000000068fd1e2e0000005bd2c3a0e00000000007c6a6dc0daee5815bea917169399300f75d79706cbf8fa64cd84eb199eeec931bf47b42d3873f3470fc6bc12aeb8797b3f84dc953434581cf13a7d944ed870bbc9842cd7eb22eab351fc0e7397110c2138244b391bca99a10b5c4382aa280eff058dfe154238c113ee13af2b4940538b574422de81ff53e2d9821dd2f8a5d83ef008c3132c0b29beef8182d939890f827fc30b933396f11495ff1b07294276bc0812e762def218c8e5829428e3229cb8f97192cc62b188cd4d702742a51921d68ef4a37b2fd3b5e5474fc689d99b308de024f83663351951e0a1205ed2e0cc536330b388a3024b95d1ab1b011a84209b27e50c0a253051ccc4f1180921e514324aed352cf699e37df00",
        "nonce": "0xad",
        "chainId": "0x14a34"
      },
      "additionalContracts": [],
      "isFixedGasLimit": false
    },
    {
      "hash": "0x6a2013dff4b2a076ffb2a9cbca496d81dbe8f226d5a03a92a329ed7d2b27bb72",
      "transactionType": "CALL",
      "contractName": null,
      "contractAddress": "0x41d897084fd42d0509f752954fecf48c62307b3f",
      "function": "createOrder(address,address,uint256,uint256,uint256,bytes[])",
      "arguments": [
        "0x4200000000000000000000000000000000000006",
        "0x5Fe161a97511aa3C185cBfFDCf281Fd510411343",
        "10000000000000000",
        "0",
        "0",
        "[0x504e41550100000003b801000000040d007e705e4f4f90a0bef0e085bb8b916ca24c502018d322262f6320245aa9a0483659c96e65bfa018ac3604474f36b35019c4ed97b7ded974fde965fc86688697bd0002fee15290b77ee4a324cf3c71072de33d5069ecaee7cf95f8ffcdcdb48ef39e2c6a15319e9e36670020e5498b5d3931bd570129589f1fb6bf746b60da8dadba2c0003ec082d0ddbf433d1cf28ab5ae2c10216fd6a062683054cf3764302dc42f052b2673516478848c56ac79309fa3e440d8ffcfcc061f9a054cb16fa913b172052a101069fe47eeab9909f0e25f4f30f5b12794dc64504c992b38c41cd48758eda1ac8a12e15e7cf94932dc75805ed1ba7fd1987d064ee71b2e831d0b06d6def8b244ba701080a217ccb79d06217f51b726012865d93371af73d174e16288217853ac84b644b792979bdf861716a67d1a6176e2ace0743a8e59d55c51459c9f4af973fb2504a010a60869b0c870db54d92ebf3ac17b758636607b535ce6d49c65dd644fe4da66ec96fb6d315af139460e382dbd581c9a634c311a7fc6e1b8249e73ff4e9fd358946010b54c3b26ba7349e5451811310b6e7c5517838cfa2f2cc41b9ad5bd95c6109be717ba55e8a5d7fc0aefab380a11fe6fe8b93e73cb725ed02746eb717cc6cba16a9000db3afc4818673877ad9df986675271171876ad5acaa75c7ce480ea5f5165a14f25b782e6791a711f151c4eee07171f35fb2b6949a749c5d7ed63c7f19707427fd010ea312b3f6d3e70d21163fc1025b2900d90b8ea5467e6c33f719e6d88aa12bf94d7c68488421cc7d26e34811f890617838e959c11d0d06b8fdcf2ca9562b301159010f8b7e1d39b67877f5fb380e2143156bea5df25dccdf8852664c4097bfcc24014224e875a7243fed2886109c1ff0afa7ac07c8ed23b5ad7db1eafc2e92af49767d00102dbe2173cbed619144817ac104411acc8de44978c49fb245fa114a392672d30514534bf33715446ceefca96f0898a2ef8d59b38d40182cf939aca8f5eb1277960011b24a6d8997ccff864e19752b2e83d75e19691b045b6d554ab4e59ec5e4def6fe1b0d0f1e4e6362532672d8660a5d97563e1fe2170fc120b308740470a6090f8801125c3a4ab5b7e03992bff77dac1840fd76f4e00c527a177ece33049d38a9e9c29450b50dd199bab5802b638e039e020e45e537b67a47ae8b99ff0936399f760f1b0068fd1e3000000000001ae101faedac5851e32b9b23b5f9411a8c2bac4aae3ed4dd7b811dd1a72ea4aa710000000009e7f4eb014155575600000000000ef595e900002710bd210d3cccf06d2922a4ed874158912f214a5a0301005500ff61491a931112ddf1bd8147cd1b641375f79f5825126d665480874634fd0ace0000005c363da1c00000000007daaf66fffffff80000000068fd1e300000000068fd1e300000005bd2d024000000000007c6a0e30daee5815bea917169399300f75d79706cbf8fa64cd84eb199eeec931bf47b42d3873f3470fc6bc12a3f619dafb15f5e6cf6f4c4d5f28837c8105800ff73acdff9355943385845c44a8c4490481b1b9dcb34586ea8bc9ba9df2ad711f5b02916ef0d704ac1266c233e8c15b2dc58266d29d1dd32aec9b0083fc4dafc8886b99a9da5d8b81bab7ab0eb442cfc02ce8a1c4456c213f199acbf42db90b7c6a4a20394005c1b0fd5168ac3327216156fe57781b5b457dac71381e35d93c8c680863f2944fc32cf7ebbc9fe6025c0037daf6c797e3d8b7647af8a704684afdc094ed297f20c36ac56cf56831a91cb88769f78af3f17ca79cc5be65c0c6a7e58668df61082e5faeb]"
      ],
      "transaction": {
        "from": "0xdafe44ce6933ba24459453fe20f40d55a454a07f",
        "to": "0x41d897084fd42d0509f752954fecf48c62307b3f",
        "value": "0xa",
        "input": "0x5236017200000000000000000000000042000000000000000000000000000000000000060000000000000000000000005fe161a97511aa3c185cbffdcf281fd510411343000000000000000000000000000000000000000000000000002386f26fc100000000000000000000000000000000000000000000000000000000000000000000000000000000000000000000000000000000000000000000000000000000000000000000000000000000000000000000000000000000000000000000000000c000000000000000000000000000000000000000000000000000000000000000010000000000000000000000000000000000000000000000000000000000000020000000000000000000000000000000000000000000000000000000000000051f504e41550100000003b801000000040d007e705e4f4f90a0bef0e085bb8b916ca24c502018d322262f6320245aa9a0483659c96e65bfa018ac3604474f36b35019c4ed97b7ded974fde965fc86688697bd0002fee15290b77ee4a324cf3c71072de33d5069ecaee7cf95f8ffcdcdb48ef39e2c6a15319e9e36670020e5498b5d3931bd570129589f1fb6bf746b60da8dadba2c0003ec082d0ddbf433d1cf28ab5ae2c10216fd6a062683054cf3764302dc42f052b2673516478848c56ac79309fa3e440d8ffcfcc061f9a054cb16fa913b172052a101069fe47eeab9909f0e25f4f30f5b12794dc64504c992b38c41cd48758eda1ac8a12e15e7cf94932dc75805ed1ba7fd1987d064ee71b2e831d0b06d6def8b244ba701080a217ccb79d06217f51b726012865d93371af73d174e16288217853ac84b644b792979bdf861716a67d1a6176e2ace0743a8e59d55c51459c9f4af973fb2504a010a60869b0c870db54d92ebf3ac17b758636607b535ce6d49c65dd644fe4da66ec96fb6d315af139460e382dbd581c9a634c311a7fc6e1b8249e73ff4e9fd358946010b54c3b26ba7349e5451811310b6e7c5517838cfa2f2cc41b9ad5bd95c6109be717ba55e8a5d7fc0aefab380a11fe6fe8b93e73cb725ed02746eb717cc6cba16a9000db3afc4818673877ad9df986675271171876ad5acaa75c7ce480ea5f5165a14f25b782e6791a711f151c4eee07171f35fb2b6949a749c5d7ed63c7f19707427fd010ea312b3f6d3e70d21163fc1025b2900d90b8ea5467e6c33f719e6d88aa12bf94d7c68488421cc7d26e34811f890617838e959c11d0d06b8fdcf2ca9562b301159010f8b7e1d39b67877f5fb380e2143156bea5df25dccdf8852664c4097bfcc24014224e875a7243fed2886109c1ff0afa7ac07c8ed23b5ad7db1eafc2e92af49767d00102dbe2173cbed619144817ac104411acc8de44978c49fb245fa114a392672d30514534bf33715446ceefca96f0898a2ef8d59b38d40182cf939aca8f5eb1277960011b24a6d8997ccff864e19752b2e83d75e19691b045b6d554ab4e59ec5e4def6fe1b0d0f1e4e6362532672d8660a5d97563e1fe2170fc120b308740470a6090f8801125c3a4ab5b7e03992bff77dac1840fd76f4e00c527a177ece33049d38a9e9c29450b50dd199bab5802b638e039e020e45e537b67a47ae8b99ff0936399f760f1b0068fd1e3000000000001ae101faedac5851e32b9b23b5f9411a8c2bac4aae3ed4dd7b811dd1a72ea4aa710000000009e7f4eb014155575600000000000ef595e900002710bd210d3cccf06d2922a4ed874158912f214a5a0301005500ff61491a931112ddf1bd8147cd1b641375f79f5825126d665480874634fd0ace0000005c363da1c00000000007daaf66fffffff80000000068fd1e300000000068fd1e300000005bd2d024000000000007c6a0e30daee5815bea917169399300f75d79706cbf8fa64cd84eb199eeec931bf47b42d3873f3470fc6bc12a3f619dafb15f5e6cf6f4c4d5f28837c8105800ff73acdff9355943385845c44a8c4490481b1b9dcb34586ea8bc9ba9df2ad711f5b02916ef0d704ac1266c233e8c15b2dc58266d29d1dd32aec9b0083fc4dafc8886b99a9da5d8b81bab7ab0eb442cfc02ce8a1c4456c213f199acbf42db90b7c6a4a20394005c1b0fd5168ac3327216156fe57781b5b457dac71381e35d93c8c680863f2944fc32cf7ebbc9fe6025c0037daf6c797e3d8b7647af8a704684afdc094ed297f20c36ac56cf56831a91cb88769f78af3f17ca79cc5be65c0c6a7e58668df61082e5faeb00",
        "nonce": "0xae",
        "chainId": "0x14a34"
      },
      "additionalContracts": [],
      "isFixedGasLimit": false
    },
    {
      "hash": "0x28a6f1557d6234abf0dadac47583993426a9ea697f922bb2f3261681c72bcab0",
      "transactionType": "CALL",
      "contractName": null,
      "contractAddress": "0x41d897084fd42d0509f752954fecf48c62307b3f",
      "function": "createOrder(address,address,uint256,uint256,uint256,bytes[])",
      "arguments": [
        "0x4200000000000000000000000000000000000006",
        "0x5Fe161a97511aa3C185cBfFDCf281Fd510411343",
        "10000000000000000",
        "0",
        "0",
        "[0x504e41550100000003b801000000040d0038c8fa1759cdea7f30ac6290605c088b5fb5b04484256fec7de1ca09d7c463370d317f26453054276ee10d4abb863317385973b8cffd68d6ba57a7ab17be5fb20102f0f742a4f8387b013621bbcb87248c61e69c6181aaeaf69f49d8f32ca2a21d1d2ba5ff56797bbf22fe442a61290e609572618402790e7aef89d575a60e7b2c930003abaaf1cbeb5efc6f48e6c687dd1516f8415fea1c438b5a5824719ba6026b3b4c008ffa927c146f16582dd7186a32d3a9517ae3b4a339cacf073ddfcbfd014ce50004c765c612148165b27dbd9f1de8b49ed9972e8524f7e75d5d80b0d08de4da144436e193683ae177878af8c84f555d8590045ca20957ac6cbfb335d54b228c6a9f000610800a423124ebacb235191089ae67fe1cc64b6d1c7f71726f8da214d8d017175dd4ebafbbfddeae72c600aef9ecf4b3d7c74e5fbd9dcbfaeb3212b9db223b4e01086c3ae08d0817cbc0284b6009220af771a721b40af44030b90a7682e42dbe737e72761b20917c5cdcdf1890223fc9afb7e4ca3af03a6bbc7d8cc1b2ce0dc807c1010b6249c1f769c2fe9ba4ece385ab393db2a9bd0a4b7429ad0275f030dc439b884d37495e973dbf6968f8bfd48a97296df1a20a3e7b055952c9c935c10eb6036a1c000ccc3b96bd1146cdd8329951d87d4746412dc6464b3d87e86f9b276b86288e4c3f1d4e5ad9ff325c2e9289de5b0ec32ac439656d348e6035977362a9e8f5942683000d0ad268e71db374f8d6d9b00662186139c3f6901a4d5cd2ce90509e1ec84496b1686f273c847e0e54db4e2b15434175acae7e834c245a19a746c419ac9f4f789c000eb82394d0d41802f1b8786fb50e3f6e2b8b5dd89992a187ae63fecf2349d5a6fb786028b7e36b70ae26e75e30cd46d44ee2c0af0b702c7db80905ceced8b6d465000ffd5fde6b039e527a2e525cf68e512ff0f2ca9e809ebc3b66cf8cfd6c3ec45708476c768178691beb48c49ea97732a163dbf49a7a000d21975c54dcf557daee3e01109df11f18701df40badf2a47c2145a7f4f5d7cabb68e214235066b6fb63ba34da7c9b01bd18d0fa41d98fb8f1e21acfd3345a2c9a7672a86fc974269311fd9a490011b6d364f4a7d6d2c2b99f3026b9aab4b23e6f04603a0179e2c03fc475ba4888567a62ec4808c483af302918e5c3a32fe69c76963974e4c6b0dc7029e3029fd1220168fd1e3200000000001ae101faedac5851e32b9b23b5f9411a8c2bac4aae3ed4dd7b811dd1a72ea4aa710000000009e7f4ef014155575600000000000ef595ed0000271071e63907398d7e8c54635defab737318941040df01005500ff61491a931112ddf1bd8147cd1b641375f79f5825126d665480874634fd0ace0000005c34e8a7d50000000006f34673fffffff80000000068fd1e320000000068fd1e310000005bd2dbbcc00000000007c6a7b30daee5815bea917169399300f75d79706cbf8fa64cd84eb199eeec931bf47b42d3873f3470fc6bc12a166c2d690a31edae971d6a623cc6d755c59ddef4f0488f063a56ff4b38e33e6f4783d837d52c74c0c18cb7ef0e1a7d83f419c4b622745978cc1155a184761f868de79315405525da3d0b14ef4ba3b4cdd23624c809283f24b5a31d34dc2d145090fa84e200a2002a3ce2081155205712be578b8c4f6a43743fcdfeb31902a5348be8bd928fc58fe332fa07fe6e01b15899a6ca31d1910de69fac7d0a429227acf0730c904fa5c21e66459e1a901039ba273ea0cdc7b4a81cce630d4e53ad102341091450bd3755bcdd04231b88ef677d35bdc5e1a0607694fd84ef5a]"
      ],
      "transaction": {
        "from": "0xdafe44ce6933ba24459453fe20f40d55a454a07f",
        "to": "0x41d897084fd42d0509f752954fecf48c62307b3f",
        "value": "0xa",
        "input": "0x5236017200000000000000000000000042000000000000000000000000000000000000060000000000000000000000005fe161a97511aa3c185cbffdcf281fd510411343000000000000000000000000000000000000000000000000002386f26fc100000000000000000000000000000000000000000000000000000000000000000000000000000000000000000000000000000000000000000000000000000000000000000000000000000000000000000000000000000000000000000000000000c000000000000000000000000000000000000000000000000000000000000000010000000000000000000000000000000000000000000000000000000000000020000000000000000000000000000000000000000000000000000000000000051f504e41550100000003b801000000040d0038c8fa1759cdea7f30ac6290605c088b5fb5b04484256fec7de1ca09d7c463370d317f26453054276ee10d4abb863317385973b8cffd68d6ba57a7ab17be5fb20102f0f742a4f8387b013621bbcb87248c61e69c6181aaeaf69f49d8f32ca2a21d1d2ba5ff56797bbf22fe442a61290e609572618402790e7aef89d575a60e7b2c930003abaaf1cbeb5efc6f48e6c687dd1516f8415fea1c438b5a5824719ba6026b3b4c008ffa927c146f16582dd7186a32d3a9517ae3b4a339cacf073ddfcbfd014ce50004c765c612148165b27dbd9f1de8b49ed9972e8524f7e75d5d80b0d08de4da144436e193683ae177878af8c84f555d8590045ca20957ac6cbfb335d54b228c6a9f000610800a423124ebacb235191089ae67fe1cc64b6d1c7f71726f8da214d8d017175dd4ebafbbfddeae72c600aef9ecf4b3d7c74e5fbd9dcbfaeb3212b9db223b4e01086c3ae08d0817cbc0284b6009220af771a721b40af44030b90a7682e42dbe737e72761b20917c5cdcdf1890223fc9afb7e4ca3af03a6bbc7d8cc1b2ce0dc807c1010b6249c1f769c2fe9ba4ece385ab393db2a9bd0a4b7429ad0275f030dc439b884d37495e973dbf6968f8bfd48a97296df1a20a3e7b055952c9c935c10eb6036a1c000ccc3b96bd1146cdd8329951d87d4746412dc6464b3d87e86f9b276b86288e4c3f1d4e5ad9ff325c2e9289de5b0ec32ac439656d348e6035977362a9e8f5942683000d0ad268e71db374f8d6d9b00662186139c3f6901a4d5cd2ce90509e1ec84496b1686f273c847e0e54db4e2b15434175acae7e834c245a19a746c419ac9f4f789c000eb82394d0d41802f1b8786fb50e3f6e2b8b5dd89992a187ae63fecf2349d5a6fb786028b7e36b70ae26e75e30cd46d44ee2c0af0b702c7db80905ceced8b6d465000ffd5fde6b039e527a2e525cf68e512ff0f2ca9e809ebc3b66cf8cfd6c3ec45708476c768178691beb48c49ea97732a163dbf49a7a000d21975c54dcf557daee3e01109df11f18701df40badf2a47c2145a7f4f5d7cabb68e214235066b6fb63ba34da7c9b01bd18d0fa41d98fb8f1e21acfd3345a2c9a7672a86fc974269311fd9a490011b6d364f4a7d6d2c2b99f3026b9aab4b23e6f04603a0179e2c03fc475ba4888567a62ec4808c483af302918e5c3a32fe69c76963974e4c6b0dc7029e3029fd1220168fd1e3200000000001ae101faedac5851e32b9b23b5f9411a8c2bac4aae3ed4dd7b811dd1a72ea4aa710000000009e7f4ef014155575600000000000ef595ed0000271071e63907398d7e8c54635defab737318941040df01005500ff61491a931112ddf1bd8147cd1b641375f79f5825126d665480874634fd0ace0000005c34e8a7d50000000006f34673fffffff80000000068fd1e320000000068fd1e310000005bd2dbbcc00000000007c6a7b30daee5815bea917169399300f75d79706cbf8fa64cd84eb199eeec931bf47b42d3873f3470fc6bc12a166c2d690a31edae971d6a623cc6d755c59ddef4f0488f063a56ff4b38e33e6f4783d837d52c74c0c18cb7ef0e1a7d83f419c4b622745978cc1155a184761f868de79315405525da3d0b14ef4ba3b4cdd23624c809283f24b5a31d34dc2d145090fa84e200a2002a3ce2081155205712be578b8c4f6a43743fcdfeb31902a5348be8bd928fc58fe332fa07fe6e01b15899a6ca31d1910de69fac7d0a429227acf0730c904fa5c21e66459e1a901039ba273ea0cdc7b4a81cce630d4e53ad102341091450bd3755bcdd04231b88ef677d35bdc5e1a0607694fd84ef5a00",
        "nonce": "0xaf",
        "chainId": "0x14a34"
      },
      "additionalContracts": [],
      "isFixedGasLimit": false
    }
  ],
  "receipts": [
    {
      "status": "0x1",
      "cumulativeGasUsed": "0x2a174f",
      "logs": [
        {
          "address": "0x4200000000000000000000000000000000000006",
          "topics": [
            "0xddf252ad1be2c89b69c2b068fc378daa952ba7f163c4a11628f55a4df523b3ef",
            "0x000000000000000000000000dafe44ce6933ba24459453fe20f40d55a454a07f",
            "0x00000000000000000000000041d897084fd42d0509f752954fecf48c62307b3f"
          ],
          "data": "0x000000000000000000000000000000000000000000000000002386f26fc10000",
          "blockHash": "0x7382370f5a96ae537e11f49003a0cb013dddf977b48e21072f64a22f0eec8252",
          "blockNumber": "0x1f4dfad",
          "blockTimestamp": "0x68fd1e3a",
          "transactionHash": "0xdeac59f0b4d2f8902f7275d861f3a06c9a63060e052646f37fb5b939fa9e5b7d",
          "transactionIndex": "0x1e",
          "logIndex": "0x26",
          "removed": false
        },
        {
          "address": "0x41d897084fd42d0509f752954fecf48c62307b3f",
          "topics": [
            "0x7448c7b7b021897f4f19bd7cdda03bed9c26cf75e56ea3bafd3c0d2c7ef24f4b",
            "0x8a5bf15be47f94a3e1523b6a0ac4eda370bd417ef5d9f8a72bd446c9c72ebab5",
            "0x000000000000000000000000dafe44ce6933ba24459453fe20f40d55a454a07f"
          ],
          "data": "0x00000000000000000000000042000000000000000000000000000000000000060000000000000000000000005fe161a97511aa3c185cbffdcf281fd510411343000000000000000000000000000000000000000000000000002386f26fc1000000000000000000000000000000000000000000000000000000000000000000000000000000000000000000000000000000000000000000000000000000000000000000000000000000000000000000000000000000000000000000000000002b",
          "blockHash": "0x7382370f5a96ae537e11f49003a0cb013dddf977b48e21072f64a22f0eec8252",
          "blockNumber": "0x1f4dfad",
          "blockTimestamp": "0x68fd1e3a",
          "transactionHash": "0xdeac59f0b4d2f8902f7275d861f3a06c9a63060e052646f37fb5b939fa9e5b7d",
          "transactionIndex": "0x1e",
          "logIndex": "0x27",
          "removed": false
        }
      ],
      "logsBloom": "0x00000000000000000000000000000000000000000000000000040000000000000040000000000000000000100000000000000200400000000020000000000000000000010080000000000008000000000000000000000000000002000000000000000000000000080800000000000000000000000000000000000010000040000000000000000000000000000000000400000000002000000000000000000000000000000000000000000000000000000000000000000000000000000000000000000002000000000000000000000028000000000000000000008000000000000000000000000000000000000000000000000010000000000000000000000000",
      "type": "0x2",
      "transactionHash": "0xdeac59f0b4d2f8902f7275d861f3a06c9a63060e052646f37fb5b939fa9e5b7d",
      "transactionIndex": "0x1e",
      "blockHash": "0x7382370f5a96ae537e11f49003a0cb013dddf977b48e21072f64a22f0eec8252",
      "blockNumber": "0x1f4dfad",
      "gasUsed": "0x54eb4",
      "effectiveGasPrice": "0xf4282",
      "from": "0xdafe44ce6933ba24459453fe20f40d55a454a07f",
      "to": "0x41d897084fd42d0509f752954fecf48c62307b3f",
      "contractAddress": null,
      "l1BaseFeeScalar": "0x44d",
      "l1BlobBaseFee": "0x1",
      "l1BlobBaseFeeScalar": "0xa118b",
      "l1Fee": "0x1eb",
      "l1GasPrice": "0x9",
      "l1GasUsed": "0x4d6e"
    },
    {
      "status": "0x1",
      "cumulativeGasUsed": "0xdc6023",
      "logs": [
        {
          "address": "0x4200000000000000000000000000000000000006",
          "topics": [
            "0xddf252ad1be2c89b69c2b068fc378daa952ba7f163c4a11628f55a4df523b3ef",
            "0x000000000000000000000000dafe44ce6933ba24459453fe20f40d55a454a07f",
            "0x00000000000000000000000041d897084fd42d0509f752954fecf48c62307b3f"
          ],
          "data": "0x000000000000000000000000000000000000000000000000002386f26fc10000",
          "blockHash": "0xca38b5a215d9e34685e9dfa77b3abb0f63c52987e2298d437e597c264cc29c7c",
          "blockNumber": "0x1f4dfae",
          "blockTimestamp": "0x68fd1e3c",
          "transactionHash": "0xc0b77d46261c73e6e54e2173efd69e980eef1f5d9874f7437301f2263d0fc5d7",
          "transactionIndex": "0x37",
          "logIndex": "0x186",
          "removed": false
        },
        {
          "address": "0x41d897084fd42d0509f752954fecf48c62307b3f",
          "topics": [
            "0x7448c7b7b021897f4f19bd7cdda03bed9c26cf75e56ea3bafd3c0d2c7ef24f4b",
            "0x8a5bf15be47f94a3e1523b6a0ac4eda370bd417ef5d9f8a72bd446c9c72ebab5",
            "0x000000000000000000000000dafe44ce6933ba24459453fe20f40d55a454a07f"
          ],
          "data": "0x00000000000000000000000042000000000000000000000000000000000000060000000000000000000000005fe161a97511aa3c185cbffdcf281fd510411343000000000000000000000000000000000000000000000000002386f26fc1000000000000000000000000000000000000000000000000000000000000000000000000000000000000000000000000000000000000000000000000000000000000000000000000000000000000000000000000000000000000000000000000002c",
          "blockHash": "0xca38b5a215d9e34685e9dfa77b3abb0f63c52987e2298d437e597c264cc29c7c",
          "blockNumber": "0x1f4dfae",
          "blockTimestamp": "0x68fd1e3c",
          "transactionHash": "0xc0b77d46261c73e6e54e2173efd69e980eef1f5d9874f7437301f2263d0fc5d7",
          "transactionIndex": "0x37",
          "logIndex": "0x187",
          "removed": false
        }
      ],
      "logsBloom": "0x00000000000000000000000000000000000000000000000000040000000000000040000000000000000000100000000000000200400000000020000000000000000000010080000000000008000000000000000000000000000002000000000000000000000000080800000000000000000000000000000000000010000040000000000000000000000000000000000400000000002000000000000000000000000000000000000000000000000000000000000000000000000000000000000000000002000000000000000000000028000000000000000000008000000000000000000000000000000000000000000000000010000000000000000000000000",
      "type": "0x2",
      "transactionHash": "0xc0b77d46261c73e6e54e2173efd69e980eef1f5d9874f7437301f2263d0fc5d7",
      "transactionIndex": "0x37",
      "blockHash": "0xca38b5a215d9e34685e9dfa77b3abb0f63c52987e2298d437e597c264cc29c7c",
      "blockNumber": "0x1f4dfae",
      "gasUsed": "0x54ec3",
      "effectiveGasPrice": "0xf4282",
      "from": "0xdafe44ce6933ba24459453fe20f40d55a454a07f",
      "to": "0x41d897084fd42d0509f752954fecf48c62307b3f",
      "contractAddress": null,
      "l1BaseFeeScalar": "0x44d",
      "l1BlobBaseFee": "0x1",
      "l1BlobBaseFeeScalar": "0xa118b",
      "l1Fee": "0x3f3",
      "l1GasPrice": "0x9",
      "l1GasUsed": "0x4d39"
    },
    {
      "status": "0x1",
      "cumulativeGasUsed": "0x3e47df",
      "logs": [
        {
          "address": "0x4200000000000000000000000000000000000006",
          "topics": [
            "0xddf252ad1be2c89b69c2b068fc378daa952ba7f163c4a11628f55a4df523b3ef",
            "0x000000000000000000000000dafe44ce6933ba24459453fe20f40d55a454a07f",
            "0x00000000000000000000000041d897084fd42d0509f752954fecf48c62307b3f"
          ],
          "data": "0x000000000000000000000000000000000000000000000000002386f26fc10000",
          "blockHash": "0x0d158c1c760ef01a562104a39dee791d18eed8a8a6b2a30ddac5fc082dd70d73",
          "blockNumber": "0x1f4dfaf",
          "blockTimestamp": "0x68fd1e3e",
          "transactionHash": "0xf46691ccc947daeaf8f54ad18af2018fde3de7bda47d9b356eba0940c088941a",
          "transactionIndex": "0x2b",
          "logIndex": "0x34",
          "removed": false
        },
        {
          "address": "0x41d897084fd42d0509f752954fecf48c62307b3f",
          "topics": [
            "0x7448c7b7b021897f4f19bd7cdda03bed9c26cf75e56ea3bafd3c0d2c7ef24f4b",
            "0x8a5bf15be47f94a3e1523b6a0ac4eda370bd417ef5d9f8a72bd446c9c72ebab5",
            "0x000000000000000000000000dafe44ce6933ba24459453fe20f40d55a454a07f"
          ],
          "data": "0x00000000000000000000000042000000000000000000000000000000000000060000000000000000000000005fe161a97511aa3c185cbffdcf281fd510411343000000000000000000000000000000000000000000000000002386f26fc1000000000000000000000000000000000000000000000000000000000000000000000000000000000000000000000000000000000000000000000000000000000000000000000000000000000000000000000000000000000000000000000000002d",
          "blockHash": "0x0d158c1c760ef01a562104a39dee791d18eed8a8a6b2a30ddac5fc082dd70d73",
          "blockNumber": "0x1f4dfaf",
          "blockTimestamp": "0x68fd1e3e",
          "transactionHash": "0xf46691ccc947daeaf8f54ad18af2018fde3de7bda47d9b356eba0940c088941a",
          "transactionIndex": "0x2b",
          "logIndex": "0x35",
          "removed": false
        }
      ],
      "logsBloom": "0x00000000000000000000000000000000000000000000000000040000000000000040000000000000000000100000000000000200400000000020000000000000000000010080000000000008000000000000000000000000000002000000000000000000000000080800000000000000000000000000000000000010000040000000000000000000000000000000000400000000002000000000000000000000000000000000000000000000000000000000000000000000000000000000000000000002000000000000000000000028000000000000000000008000000000000000000000000000000000000000000000000010000000000000000000000000",
      "type": "0x2",
      "transactionHash": "0xf46691ccc947daeaf8f54ad18af2018fde3de7bda47d9b356eba0940c088941a",
      "transactionIndex": "0x2b",
      "blockHash": "0x0d158c1c760ef01a562104a39dee791d18eed8a8a6b2a30ddac5fc082dd70d73",
      "blockNumber": "0x1f4dfaf",
      "gasUsed": "0x54ea5",
      "effectiveGasPrice": "0xf4282",
      "from": "0xdafe44ce6933ba24459453fe20f40d55a454a07f",
      "to": "0x41d897084fd42d0509f752954fecf48c62307b3f",
      "contractAddress": null,
      "l1BaseFeeScalar": "0x44d",
      "l1BlobBaseFee": "0x1",
      "l1BlobBaseFeeScalar": "0xa118b",
      "l1Fee": "0x51",
      "l1GasPrice": "0x9",
      "l1GasUsed": "0x4d61"
    },
    {
      "status": "0x1",
      "cumulativeGasUsed": "0xc59f79",
      "logs": [
        {
          "address": "0x4200000000000000000000000000000000000006",
          "topics": [
            "0xddf252ad1be2c89b69c2b068fc378daa952ba7f163c4a11628f55a4df523b3ef",
            "0x000000000000000000000000dafe44ce6933ba24459453fe20f40d55a454a07f",
            "0x00000000000000000000000041d897084fd42d0509f752954fecf48c62307b3f"
          ],
          "data": "0x000000000000000000000000000000000000000000000000002386f26fc10000",
          "blockHash": "0x2619a5290b1fde8852ad15a125fe7a9db8440fcc669a6e3242212d06b86f2b80",
          "blockNumber": "0x1f4dfb0",
          "blockTimestamp": "0x68fd1e40",
          "transactionHash": "0xb09c63f85460f5d310f4afc51590ea2eb2bce297f36d0a753e1fd1828b3dc7b6",
          "transactionIndex": "0x3d",
          "logIndex": "0x12e",
          "removed": false
        },
        {
          "address": "0x41d897084fd42d0509f752954fecf48c62307b3f",
          "topics": [
            "0x7448c7b7b021897f4f19bd7cdda03bed9c26cf75e56ea3bafd3c0d2c7ef24f4b",
            "0x8a5bf15be47f94a3e1523b6a0ac4eda370bd417ef5d9f8a72bd446c9c72ebab5",
            "0x000000000000000000000000dafe44ce6933ba24459453fe20f40d55a454a07f"
          ],
          "data": "0x00000000000000000000000042000000000000000000000000000000000000060000000000000000000000005fe161a97511aa3c185cbffdcf281fd510411343000000000000000000000000000000000000000000000000002386f26fc1000000000000000000000000000000000000000000000000000000000000000000000000000000000000000000000000000000000000000000000000000000000000000000000000000000000000000000000000000000000000000000000000002e",
          "blockHash": "0x2619a5290b1fde8852ad15a125fe7a9db8440fcc669a6e3242212d06b86f2b80",
          "blockNumber": "0x1f4dfb0",
          "blockTimestamp": "0x68fd1e40",
          "transactionHash": "0xb09c63f85460f5d310f4afc51590ea2eb2bce297f36d0a753e1fd1828b3dc7b6",
          "transactionIndex": "0x3d",
          "logIndex": "0x12f",
          "removed": false
        }
      ],
      "logsBloom": "0x00000000000000000000000000000000000000000000000000040000000000000040000000000000000000100000000000000200400000000020000000000000000000010080000000000008000000000000000000000000000002000000000000000000000000080800000000000000000000000000000000000010000040000000000000000000000000000000000400000000002000000000000000000000000000000000000000000000000000000000000000000000000000000000000000000002000000000000000000000028000000000000000000008000000000000000000000000000000000000000000000000010000000000000000000000000",
      "type": "0x2",
      "transactionHash": "0xb09c63f85460f5d310f4afc51590ea2eb2bce297f36d0a753e1fd1828b3dc7b6",
      "transactionIndex": "0x3d",
      "blockHash": "0x2619a5290b1fde8852ad15a125fe7a9db8440fcc669a6e3242212d06b86f2b80",
      "blockNumber": "0x1f4dfb0",
      "gasUsed": "0x54ea5",
      "effectiveGasPrice": "0xf4282",
      "from": "0xdafe44ce6933ba24459453fe20f40d55a454a07f",
      "to": "0x41d897084fd42d0509f752954fecf48c62307b3f",
      "contractAddress": null,
      "l1BaseFeeScalar": "0x44d",
      "l1BlobBaseFee": "0x1",
      "l1BlobBaseFeeScalar": "0xa118b",
      "l1Fee": "0x51",
      "l1GasPrice": "0x9",
      "l1GasUsed": "0x4d46"
    },
    {
      "status": "0x1",
      "cumulativeGasUsed": "0xb6cc79",
      "logs": [
        {
          "address": "0x4200000000000000000000000000000000000006",
          "topics": [
            "0xddf252ad1be2c89b69c2b068fc378daa952ba7f163c4a11628f55a4df523b3ef",
            "0x000000000000000000000000dafe44ce6933ba24459453fe20f40d55a454a07f",
            "0x00000000000000000000000041d897084fd42d0509f752954fecf48c62307b3f"
          ],
          "data": "0x000000000000000000000000000000000000000000000000002386f26fc10000",
          "blockHash": "0xde9881f6df44e1d5417715014c1cb42a4b0db6e8391b3af29bd48c6ca58cac0a",
          "blockNumber": "0x1f4dfb1",
          "blockTimestamp": "0x68fd1e42",
          "transactionHash": "0x729164c87263d87142d229142cfe61c723b33d256d7b0078e405cf2e700593c2",
          "transactionIndex": "0x42",
          "logIndex": "0xc4",
          "removed": false
        },
        {
          "address": "0x41d897084fd42d0509f752954fecf48c62307b3f",
          "topics": [
            "0x7448c7b7b021897f4f19bd7cdda03bed9c26cf75e56ea3bafd3c0d2c7ef24f4b",
            "0x8a5bf15be47f94a3e1523b6a0ac4eda370bd417ef5d9f8a72bd446c9c72ebab5",
            "0x000000000000000000000000dafe44ce6933ba24459453fe20f40d55a454a07f"
          ],
          "data": "0x00000000000000000000000042000000000000000000000000000000000000060000000000000000000000005fe161a97511aa3c185cbffdcf281fd510411343000000000000000000000000000000000000000000000000002386f26fc1000000000000000000000000000000000000000000000000000000000000000000000000000000000000000000000000000000000000000000000000000000000000000000000000000000000000000000000000000000000000000000000000002f",
          "blockHash": "0xde9881f6df44e1d5417715014c1cb42a4b0db6e8391b3af29bd48c6ca58cac0a",
          "blockNumber": "0x1f4dfb1",
          "blockTimestamp": "0x68fd1e42",
          "transactionHash": "0x729164c87263d87142d229142cfe61c723b33d256d7b0078e405cf2e700593c2",
          "transactionIndex": "0x42",
          "logIndex": "0xc5",
          "removed": false
        }
      ],
      "logsBloom": "0x00000000000000000000000000000000000000000000000000040000000000000040000000000000000000100000000000000200400000000020000000000000000000010080000000000008000000000000000000000000000002000000000000000000000000080800000000000000000000000000000000000010000040000000000000000000000000000000000400000000002000000000000000000000000000000000000000000000000000000000000000000000000000000000000000000002000000000000000000000028000000000000000000008000000000000000000000000000000000000000000000000010000000000000000000000000",
      "type": "0x2",
      "transactionHash": "0x729164c87263d87142d229142cfe61c723b33d256d7b0078e405cf2e700593c2",
      "transactionIndex": "0x42",
      "blockHash": "0xde9881f6df44e1d5417715014c1cb42a4b0db6e8391b3af29bd48c6ca58cac0a",
      "blockNumber": "0x1f4dfb1",
      "gasUsed": "0x54eae",
      "effectiveGasPrice": "0xf4282",
      "from": "0xdafe44ce6933ba24459453fe20f40d55a454a07f",
      "to": "0x41d897084fd42d0509f752954fecf48c62307b3f",
      "contractAddress": null,
      "l1BaseFeeScalar": "0x44d",
      "l1BlobBaseFee": "0x1",
      "l1BlobBaseFeeScalar": "0xa118b",
      "l1Fee": "0x3f3",
      "l1GasPrice": "0x9",
      "l1GasUsed": "0x4d39"
    },
    {
      "status": "0x1",
      "cumulativeGasUsed": "0x40f67e",
      "logs": [
        {
          "address": "0x4200000000000000000000000000000000000006",
          "topics": [
            "0xddf252ad1be2c89b69c2b068fc378daa952ba7f163c4a11628f55a4df523b3ef",
            "0x000000000000000000000000dafe44ce6933ba24459453fe20f40d55a454a07f",
            "0x00000000000000000000000041d897084fd42d0509f752954fecf48c62307b3f"
          ],
          "data": "0x000000000000000000000000000000000000000000000000002386f26fc10000",
          "blockHash": "0x6efb3ed1d64625ece95152680428a3721b251faa5537706ec448434549fccf2f",
          "blockNumber": "0x1f4dfb2",
          "blockTimestamp": "0x68fd1e44",
          "transactionHash": "0xd6e1fba23e11e9f7baee2d6d941840d5b8cb597a5ac81ea69496cdd9898775e5",
          "transactionIndex": "0x21",
          "logIndex": "0x49",
          "removed": false
        },
        {
          "address": "0x41d897084fd42d0509f752954fecf48c62307b3f",
          "topics": [
            "0x7448c7b7b021897f4f19bd7cdda03bed9c26cf75e56ea3bafd3c0d2c7ef24f4b",
            "0x8a5bf15be47f94a3e1523b6a0ac4eda370bd417ef5d9f8a72bd446c9c72ebab5",
            "0x000000000000000000000000dafe44ce6933ba24459453fe20f40d55a454a07f"
          ],
          "data": "0x00000000000000000000000042000000000000000000000000000000000000060000000000000000000000005fe161a97511aa3c185cbffdcf281fd510411343000000000000000000000000000000000000000000000000002386f26fc10000000000000000000000000000000000000000000000000000000000000000000000000000000000000000000000000000000000000000000000000000000000000000000000000000000000000000000000000000000000000000000000000030",
          "blockHash": "0x6efb3ed1d64625ece95152680428a3721b251faa5537706ec448434549fccf2f",
          "blockNumber": "0x1f4dfb2",
          "blockTimestamp": "0x68fd1e44",
          "transactionHash": "0xd6e1fba23e11e9f7baee2d6d941840d5b8cb597a5ac81ea69496cdd9898775e5",
          "transactionIndex": "0x21",
          "logIndex": "0x4a",
          "removed": false
        }
      ],
      "logsBloom": "0x00000000000000000000000000000000000000000000000000040000000000000040000000000000000000100000000000000200400000000020000000000000000000010080000000000008000000000000000000000000000002000000000000000000000000080800000000000000000000000000000000000010000040000000000000000000000000000000000400000000002000000000000000000000000000000000000000000000000000000000000000000000000000000000000000000002000000000000000000000028000000000000000000008000000000000000000000000000000000000000000000000010000000000000000000000000",
      "type": "0x2",
      "transactionHash": "0xd6e1fba23e11e9f7baee2d6d941840d5b8cb597a5ac81ea69496cdd9898775e5",
      "transactionIndex": "0x21",
      "blockHash": "0x6efb3ed1d64625ece95152680428a3721b251faa5537706ec448434549fccf2f",
      "blockNumber": "0x1f4dfb2",
      "gasUsed": "0x54eb4",
      "effectiveGasPrice": "0xf4282",
      "from": "0xdafe44ce6933ba24459453fe20f40d55a454a07f",
      "to": "0x41d897084fd42d0509f752954fecf48c62307b3f",
      "contractAddress": null,
      "l1BaseFeeScalar": "0x44d",
      "l1BlobBaseFee": "0x1",
      "l1BlobBaseFeeScalar": "0xa118b",
      "l1Fee": "0x51",
      "l1GasPrice": "0x9",
      "l1GasUsed": "0x4d1e"
    },
    {
      "status": "0x1",
      "cumulativeGasUsed": "0x11d9285",
      "logs": [
        {
          "address": "0x4200000000000000000000000000000000000006",
          "topics": [
            "0xddf252ad1be2c89b69c2b068fc378daa952ba7f163c4a11628f55a4df523b3ef",
            "0x000000000000000000000000dafe44ce6933ba24459453fe20f40d55a454a07f",
            "0x00000000000000000000000041d897084fd42d0509f752954fecf48c62307b3f"
          ],
          "data": "0x000000000000000000000000000000000000000000000000002386f26fc10000",
          "blockHash": "0xf332bddaa32811ce1249168301268fe170a06269a9483809e74cf61ad83ad5fb",
          "blockNumber": "0x1f4dfb3",
          "blockTimestamp": "0x68fd1e46",
          "transactionHash": "0xe22e97f9dd45767338e5e52e6570025f1f91970c46ff3c8bdb0b828dae8177ce",
          "transactionIndex": "0x2e",
          "logIndex": "0x180",
          "removed": false
        },
        {
          "address": "0x41d897084fd42d0509f752954fecf48c62307b3f",
          "topics": [
            "0x7448c7b7b021897f4f19bd7cdda03bed9c26cf75e56ea3bafd3c0d2c7ef24f4b",
            "0x8a5bf15be47f94a3e1523b6a0ac4eda370bd417ef5d9f8a72bd446c9c72ebab5",
            "0x000000000000000000000000dafe44ce6933ba24459453fe20f40d55a454a07f"
          ],
          "data": "0x00000000000000000000000042000000000000000000000000000000000000060000000000000000000000005fe161a97511aa3c185cbffdcf281fd510411343000000000000000000000000000000000000000000000000002386f26fc10000000000000000000000000000000000000000000000000000000000000000000000000000000000000000000000000000000000000000000000000000000000000000000000000000000000000000000000000000000000000000000000000032",
          "blockHash": "0xf332bddaa32811ce1249168301268fe170a06269a9483809e74cf61ad83ad5fb",
          "blockNumber": "0x1f4dfb3",
          "blockTimestamp": "0x68fd1e46",
          "transactionHash": "0xe22e97f9dd45767338e5e52e6570025f1f91970c46ff3c8bdb0b828dae8177ce",
          "transactionIndex": "0x2e",
          "logIndex": "0x181",
          "removed": false
        }
      ],
      "logsBloom": "0x00000000000000000000000000000000000000000000000000040000000000000040000000000000000000100000000000000200400000000020000000000000000000010080000000000008000000000000000000000000000002000000000000000000000000080800000000000000000000000000000000000010000040000000000000000000000000000000000400000000002000000000000000000000000000000000000000000000000000000000000000000000000000000000000000000002000000000000000000000028000000000000000000008000000000000000000000000000000000000000000000000010000000000000000000000000",
      "type": "0x2",
      "transactionHash": "0xe22e97f9dd45767338e5e52e6570025f1f91970c46ff3c8bdb0b828dae8177ce",
      "transactionIndex": "0x2e",
      "blockHash": "0xf332bddaa32811ce1249168301268fe170a06269a9483809e74cf61ad83ad5fb",
      "blockNumber": "0x1f4dfb3",
      "gasUsed": "0x54eab",
      "effectiveGasPrice": "0xf4282",
      "from": "0xdafe44ce6933ba24459453fe20f40d55a454a07f",
      "to": "0x41d897084fd42d0509f752954fecf48c62307b3f",
      "contractAddress": null,
      "l1BaseFeeScalar": "0x44d",
      "l1BlobBaseFee": "0x1",
      "l1BlobBaseFeeScalar": "0xa118b",
      "l1Fee": "0x3f2",
      "l1GasPrice": "0x9",
      "l1GasUsed": "0x4d2b"
    },
    {
      "status": "0x1",
      "cumulativeGasUsed": "0x3a2be8",
      "logs": [
        {
          "address": "0x4200000000000000000000000000000000000006",
          "topics": [
            "0xddf252ad1be2c89b69c2b068fc378daa952ba7f163c4a11628f55a4df523b3ef",
            "0x000000000000000000000000dafe44ce6933ba24459453fe20f40d55a454a07f",
            "0x00000000000000000000000041d897084fd42d0509f752954fecf48c62307b3f"
          ],
          "data": "0x000000000000000000000000000000000000000000000000002386f26fc10000",
          "blockHash": "0x3985992f135202d8ef016e9242966cdbfb1d82c93e1bc2a2ea0302d28fb54156",
          "blockNumber": "0x1f4dfb4",
          "blockTimestamp": "0x68fd1e48",
          "transactionHash": "0x7bce4bb27ab0a17d1d7e2b91e3b2228f47f6a5ec6b06fa822bdb8ac5843b287d",
          "transactionIndex": "0x1d",
          "logIndex": "0x26",
          "removed": false
        },
        {
          "address": "0x41d897084fd42d0509f752954fecf48c62307b3f",
          "topics": [
            "0x7448c7b7b021897f4f19bd7cdda03bed9c26cf75e56ea3bafd3c0d2c7ef24f4b",
            "0x8a5bf15be47f94a3e1523b6a0ac4eda370bd417ef5d9f8a72bd446c9c72ebab5",
            "0x000000000000000000000000dafe44ce6933ba24459453fe20f40d55a454a07f"
          ],
          "data": "0x00000000000000000000000042000000000000000000000000000000000000060000000000000000000000005fe161a97511aa3c185cbffdcf281fd510411343000000000000000000000000000000000000000000000000002386f26fc10000000000000000000000000000000000000000000000000000000000000000000000000000000000000000000000000000000000000000000000000000000000000000000000000000000000000000000000000000000000000000000000000033",
          "blockHash": "0x3985992f135202d8ef016e9242966cdbfb1d82c93e1bc2a2ea0302d28fb54156",
          "blockNumber": "0x1f4dfb4",
          "blockTimestamp": "0x68fd1e48",
          "transactionHash": "0x7bce4bb27ab0a17d1d7e2b91e3b2228f47f6a5ec6b06fa822bdb8ac5843b287d",
          "transactionIndex": "0x1d",
          "logIndex": "0x27",
          "removed": false
        }
      ],
      "logsBloom": "0x00000000000000000000000000000000000000000000000000040000000000000040000000000000000000100000000000000200400000000020000000000000000000010080000000000008000000000000000000000000000002000000000000000000000000080800000000000000000000000000000000000010000040000000000000000000000000000000000400000000002000000000000000000000000000000000000000000000000000000000000000000000000000000000000000000002000000000000000000000028000000000000000000008000000000000000000000000000000000000000000000000010000000000000000000000000",
      "type": "0x2",
      "transactionHash": "0x7bce4bb27ab0a17d1d7e2b91e3b2228f47f6a5ec6b06fa822bdb8ac5843b287d",
      "transactionIndex": "0x1d",
      "blockHash": "0x3985992f135202d8ef016e9242966cdbfb1d82c93e1bc2a2ea0302d28fb54156",
      "blockNumber": "0x1f4dfb4",
      "gasUsed": "0x54ec0",
      "effectiveGasPrice": "0xf4283",
      "from": "0xdafe44ce6933ba24459453fe20f40d55a454a07f",
      "to": "0x41d897084fd42d0509f752954fecf48c62307b3f",
      "contractAddress": null,
      "l1BaseFeeScalar": "0x44d",
      "l1BlobBaseFee": "0x1",
      "l1BlobBaseFeeScalar": "0xa118b",
      "l1Fee": "0x51",
      "l1GasPrice": "0x9",
      "l1GasUsed": "0x4d46"
    },
    {
      "status": "0x1",
      "cumulativeGasUsed": "0x23acb5",
      "logs": [
        {
          "address": "0x4200000000000000000000000000000000000006",
          "topics": [
            "0xddf252ad1be2c89b69c2b068fc378daa952ba7f163c4a11628f55a4df523b3ef",
            "0x000000000000000000000000dafe44ce6933ba24459453fe20f40d55a454a07f",
            "0x00000000000000000000000041d897084fd42d0509f752954fecf48c62307b3f"
          ],
          "data": "0x000000000000000000000000000000000000000000000000002386f26fc10000",
          "blockHash": "0x7b5ea316b31ccacc2f9a569566d8f1e5d9471f166498e9d6c1ffcdfd778765f8",
          "blockNumber": "0x1f4dfb6",
          "blockTimestamp": "0x68fd1e4c",
          "transactionHash": "0x9b9a02b5c78ade0f6d1f421adce522d9dbcc82514f21210f7c2cbd493720ac95",
          "transactionIndex": "0x8",
          "logIndex": "0x38",
          "removed": false
        },
        {
          "address": "0x41d897084fd42d0509f752954fecf48c62307b3f",
          "topics": [
            "0x7448c7b7b021897f4f19bd7cdda03bed9c26cf75e56ea3bafd3c0d2c7ef24f4b",
            "0x8a5bf15be47f94a3e1523b6a0ac4eda370bd417ef5d9f8a72bd446c9c72ebab5",
            "0x000000000000000000000000dafe44ce6933ba24459453fe20f40d55a454a07f"
          ],
          "data": "0x00000000000000000000000042000000000000000000000000000000000000060000000000000000000000005fe161a97511aa3c185cbffdcf281fd510411343000000000000000000000000000000000000000000000000002386f26fc10000000000000000000000000000000000000000000000000000000000000000000000000000000000000000000000000000000000000000000000000000000000000000000000000000000000000000000000000000000000000000000000000034",
          "blockHash": "0x7b5ea316b31ccacc2f9a569566d8f1e5d9471f166498e9d6c1ffcdfd778765f8",
          "blockNumber": "0x1f4dfb6",
          "blockTimestamp": "0x68fd1e4c",
          "transactionHash": "0x9b9a02b5c78ade0f6d1f421adce522d9dbcc82514f21210f7c2cbd493720ac95",
          "transactionIndex": "0x8",
          "logIndex": "0x39",
          "removed": false
        }
      ],
      "logsBloom": "0x00000000000000000000000000000000000000000000000000040000000000000040000000000000000000100000000000000200400000000020000000000000000000010080000000000008000000000000000000000000000002000000000000000000000000080800000000000000000000000000000000000010000040000000000000000000000000000000000400000000002000000000000000000000000000000000000000000000000000000000000000000000000000000000000000000002000000000000000000000028000000000000000000008000000000000000000000000000000000000000000000000010000000000000000000000000",
      "type": "0x2",
      "transactionHash": "0x9b9a02b5c78ade0f6d1f421adce522d9dbcc82514f21210f7c2cbd493720ac95",
      "transactionIndex": "0x8",
      "blockHash": "0x7b5ea316b31ccacc2f9a569566d8f1e5d9471f166498e9d6c1ffcdfd778765f8",
      "blockNumber": "0x1f4dfb6",
      "gasUsed": "0x54e6f",
      "effectiveGasPrice": "0xf4283",
      "from": "0xdafe44ce6933ba24459453fe20f40d55a454a07f",
      "to": "0x41d897084fd42d0509f752954fecf48c62307b3f",
      "contractAddress": null,
      "l1BaseFeeScalar": "0x44d",
      "l1BlobBaseFee": "0x1",
      "l1BlobBaseFeeScalar": "0xa118b",
      "l1Fee": "0x61",
      "l1GasPrice": "0x9",
      "l1GasUsed": "0x4d2b"
    },
    {
      "status": "0x1",
      "cumulativeGasUsed": "0x6938f",
      "logs": [
        {
          "address": "0x4200000000000000000000000000000000000006",
          "topics": [
            "0xddf252ad1be2c89b69c2b068fc378daa952ba7f163c4a11628f55a4df523b3ef",
            "0x000000000000000000000000dafe44ce6933ba24459453fe20f40d55a454a07f",
            "0x00000000000000000000000041d897084fd42d0509f752954fecf48c62307b3f"
          ],
          "data": "0x000000000000000000000000000000000000000000000000002386f26fc10000",
          "blockHash": "0xf8cde0e1b08bf23daf012ead30ab3cba9a273b9383d5994517276d2ef480509e",
          "blockNumber": "0x1f4dfb8",
          "blockTimestamp": "0x68fd1e50",
          "transactionHash": "0xd3b2018bf8a48d8bd6bff984ed331ca56b4a9bb547bc9cfd3bd4dc6c2e2849d1",
          "transactionIndex": "0x2",
          "logIndex": "0x1",
          "removed": false
        },
        {
          "address": "0x41d897084fd42d0509f752954fecf48c62307b3f",
          "topics": [
            "0x7448c7b7b021897f4f19bd7cdda03bed9c26cf75e56ea3bafd3c0d2c7ef24f4b",
            "0x8a5bf15be47f94a3e1523b6a0ac4eda370bd417ef5d9f8a72bd446c9c72ebab5",
            "0x000000000000000000000000dafe44ce6933ba24459453fe20f40d55a454a07f"
          ],
          "data": "0x00000000000000000000000042000000000000000000000000000000000000060000000000000000000000005fe161a97511aa3c185cbffdcf281fd510411343000000000000000000000000000000000000000000000000002386f26fc10000000000000000000000000000000000000000000000000000000000000000000000000000000000000000000000000000000000000000000000000000000000000000000000000000000000000000000000000000000000000000000000000036",
          "blockHash": "0xf8cde0e1b08bf23daf012ead30ab3cba9a273b9383d5994517276d2ef480509e",
          "blockNumber": "0x1f4dfb8",
          "blockTimestamp": "0x68fd1e50",
          "transactionHash": "0xd3b2018bf8a48d8bd6bff984ed331ca56b4a9bb547bc9cfd3bd4dc6c2e2849d1",
          "transactionIndex": "0x2",
          "logIndex": "0x2",
          "removed": false
        }
      ],
      "logsBloom": "0x00000000000000000000000000000000000000000000000000040000000000000040000000000000000000100000000000000200400000000020000000000000000000010080000000000008000000000000000000000000000002000000000000000000000000080800000000000000000000000000000000000010000040000000000000000000000000000000000400000000002000000000000000000000000000000000000000000000000000000000000000000000000000000000000000000002000000000000000000000028000000000000000000008000000000000000000000000000000000000000000000000010000000000000000000000000",
      "type": "0x2",
      "transactionHash": "0xd3b2018bf8a48d8bd6bff984ed331ca56b4a9bb547bc9cfd3bd4dc6c2e2849d1",
      "transactionIndex": "0x2",
      "blockHash": "0xf8cde0e1b08bf23daf012ead30ab3cba9a273b9383d5994517276d2ef480509e",
      "blockNumber": "0x1f4dfb8",
      "gasUsed": "0x54ec0",
      "effectiveGasPrice": "0xf4283",
      "from": "0xdafe44ce6933ba24459453fe20f40d55a454a07f",
      "to": "0x41d897084fd42d0509f752954fecf48c62307b3f",
      "contractAddress": null,
      "l1BaseFeeScalar": "0x44d",
      "l1BlobBaseFee": "0x1",
      "l1BlobBaseFeeScalar": "0xa118b",
      "l1Fee": "0x51",
      "l1GasPrice": "0x9",
      "l1GasUsed": "0x4d2b"
    },
    {
      "status": "0x1",
      "cumulativeGasUsed": "0xa8c43d",
      "logs": [
        {
          "address": "0x4200000000000000000000000000000000000006",
          "topics": [
            "0xddf252ad1be2c89b69c2b068fc378daa952ba7f163c4a11628f55a4df523b3ef",
            "0x000000000000000000000000dafe44ce6933ba24459453fe20f40d55a454a07f",
            "0x00000000000000000000000041d897084fd42d0509f752954fecf48c62307b3f"
          ],
          "data": "0x000000000000000000000000000000000000000000000000002386f26fc10000",
          "blockHash": "0xfe16e67dedd338a1155707946884d7c804a4d84e49b450c26110035fcdda355d",
          "blockNumber": "0x1f4dfb9",
          "blockTimestamp": "0x68fd1e52",
          "transactionHash": "0xa1fd70156150b73232dc417d1b7e5820237bc382a342450d3ce3828a5fa297b6",
          "transactionIndex": "0x3b",
          "logIndex": "0x13f",
          "removed": false
        },
        {
          "address": "0x41d897084fd42d0509f752954fecf48c62307b3f",
          "topics": [
            "0x7448c7b7b021897f4f19bd7cdda03bed9c26cf75e56ea3bafd3c0d2c7ef24f4b",
            "0x8a5bf15be47f94a3e1523b6a0ac4eda370bd417ef5d9f8a72bd446c9c72ebab5",
            "0x000000000000000000000000dafe44ce6933ba24459453fe20f40d55a454a07f"
          ],
          "data": "0x00000000000000000000000042000000000000000000000000000000000000060000000000000000000000005fe161a97511aa3c185cbffdcf281fd510411343000000000000000000000000000000000000000000000000002386f26fc10000000000000000000000000000000000000000000000000000000000000000000000000000000000000000000000000000000000000000000000000000000000000000000000000000000000000000000000000000000000000000000000000037",
          "blockHash": "0xfe16e67dedd338a1155707946884d7c804a4d84e49b450c26110035fcdda355d",
          "blockNumber": "0x1f4dfb9",
          "blockTimestamp": "0x68fd1e52",
          "transactionHash": "0xa1fd70156150b73232dc417d1b7e5820237bc382a342450d3ce3828a5fa297b6",
          "transactionIndex": "0x3b",
          "logIndex": "0x140",
          "removed": false
        }
      ],
      "logsBloom": "0x00000000000000000000000000000000000000000000000000040000000000000040000000000000000000100000000000000200400000000020000000000000000000010080000000000008000000000000000000000000000002000000000000000000000000080800000000000000000000000000000000000010000040000000000000000000000000000000000400000000002000000000000000000000000000000000000000000000000000000000000000000000000000000000000000000002000000000000000000000028000000000000000000008000000000000000000000000000000000000000000000000010000000000000000000000000",
      "type": "0x2",
      "transactionHash": "0xa1fd70156150b73232dc417d1b7e5820237bc382a342450d3ce3828a5fa297b6",
      "transactionIndex": "0x3b",
      "blockHash": "0xfe16e67dedd338a1155707946884d7c804a4d84e49b450c26110035fcdda355d",
      "blockNumber": "0x1f4dfb9",
      "gasUsed": "0x54e9c",
      "effectiveGasPrice": "0xf4283",
      "from": "0xdafe44ce6933ba24459453fe20f40d55a454a07f",
      "to": "0x41d897084fd42d0509f752954fecf48c62307b3f",
      "contractAddress": null,
      "l1BaseFeeScalar": "0x44d",
      "l1BlobBaseFee": "0x1",
      "l1BlobBaseFeeScalar": "0xa118b",
      "l1Fee": "0x51",
      "l1GasPrice": "0x9",
      "l1GasUsed": "0x4d6e"
    },
    {
      "status": "0x1",
      "cumulativeGasUsed": "0x484bb2",
      "logs": [
        {
          "address": "0x4200000000000000000000000000000000000006",
          "topics": [
            "0xddf252ad1be2c89b69c2b068fc378daa952ba7f163c4a11628f55a4df523b3ef",
            "0x000000000000000000000000dafe44ce6933ba24459453fe20f40d55a454a07f",
            "0x00000000000000000000000041d897084fd42d0509f752954fecf48c62307b3f"
          ],
          "data": "0x000000000000000000000000000000000000000000000000002386f26fc10000",
          "blockHash": "0xd97fda7dd51f2d5fabfb9735de64e493d85319889ea92c243f94ee97b6c36820",
          "blockNumber": "0x1f4dfba",
          "blockTimestamp": "0x68fd1e54",
          "transactionHash": "0xffafb62f0e222e83d5d38c48a4ba6de165628504665bfa8338c3c6a775a47b35",
          "transactionIndex": "0x18",
          "logIndex": "0x92",
          "removed": false
        },
        {
          "address": "0x41d897084fd42d0509f752954fecf48c62307b3f",
          "topics": [
            "0x7448c7b7b021897f4f19bd7cdda03bed9c26cf75e56ea3bafd3c0d2c7ef24f4b",
            "0x8a5bf15be47f94a3e1523b6a0ac4eda370bd417ef5d9f8a72bd446c9c72ebab5",
            "0x000000000000000000000000dafe44ce6933ba24459453fe20f40d55a454a07f"
          ],
          "data": "0x00000000000000000000000042000000000000000000000000000000000000060000000000000000000000005fe161a97511aa3c185cbffdcf281fd510411343000000000000000000000000000000000000000000000000002386f26fc10000000000000000000000000000000000000000000000000000000000000000000000000000000000000000000000000000000000000000000000000000000000000000000000000000000000000000000000000000000000000000000000000038",
          "blockHash": "0xd97fda7dd51f2d5fabfb9735de64e493d85319889ea92c243f94ee97b6c36820",
          "blockNumber": "0x1f4dfba",
          "blockTimestamp": "0x68fd1e54",
          "transactionHash": "0xffafb62f0e222e83d5d38c48a4ba6de165628504665bfa8338c3c6a775a47b35",
          "transactionIndex": "0x18",
          "logIndex": "0x93",
          "removed": false
        }
      ],
      "logsBloom": "0x00000000000000000000000000000000000000000000000000040000000000000040000000000000000000100000000000000200400000000020000000000000000000010080000000000008000000000000000000000000000002000000000000000000000000080800000000000000000000000000000000000010000040000000000000000000000000000000000400000000002000000000000000000000000000000000000000000000000000000000000000000000000000000000000000000002000000000000000000000028000000000000000000008000000000000000000000000000000000000000000000000010000000000000000000000000",
      "type": "0x2",
      "transactionHash": "0xffafb62f0e222e83d5d38c48a4ba6de165628504665bfa8338c3c6a775a47b35",
      "transactionIndex": "0x18",
      "blockHash": "0xd97fda7dd51f2d5fabfb9735de64e493d85319889ea92c243f94ee97b6c36820",
      "blockNumber": "0x1f4dfba",
      "gasUsed": "0x54ec3",
      "effectiveGasPrice": "0xf4283",
      "from": "0xdafe44ce6933ba24459453fe20f40d55a454a07f",
      "to": "0x41d897084fd42d0509f752954fecf48c62307b3f",
      "contractAddress": null,
      "l1BaseFeeScalar": "0x44d",
      "l1BlobBaseFee": "0x1",
      "l1BlobBaseFeeScalar": "0xa118b",
      "l1Fee": "0x51",
      "l1GasPrice": "0x9",
      "l1GasUsed": "0x4d46"
    },
    {
      "status": "0x1",
      "cumulativeGasUsed": "0x602df",
      "logs": [
        {
          "address": "0x4200000000000000000000000000000000000006",
          "topics": [
            "0xddf252ad1be2c89b69c2b068fc378daa952ba7f163c4a11628f55a4df523b3ef",
            "0x000000000000000000000000dafe44ce6933ba24459453fe20f40d55a454a07f",
            "0x00000000000000000000000041d897084fd42d0509f752954fecf48c62307b3f"
          ],
          "data": "0x000000000000000000000000000000000000000000000000002386f26fc10000",
          "blockHash": "0xbfc47cf7cfda1d4c3dd13c0c0061873debb51c5b94f56c25d0af827fe903575c",
          "blockNumber": "0x1f4dfbc",
          "blockTimestamp": "0x68fd1e58",
          "transactionHash": "0x489988a4bf7c6b6efb8a20b06dad81df7dc3aabf847aff10026edf25fd053881",
          "transactionIndex": "0x1",
          "logIndex": "0x0",
          "removed": false
        },
        {
          "address": "0x41d897084fd42d0509f752954fecf48c62307b3f",
          "topics": [
            "0x7448c7b7b021897f4f19bd7cdda03bed9c26cf75e56ea3bafd3c0d2c7ef24f4b",
            "0x8a5bf15be47f94a3e1523b6a0ac4eda370bd417ef5d9f8a72bd446c9c72ebab5",
            "0x000000000000000000000000dafe44ce6933ba24459453fe20f40d55a454a07f"
          ],
          "data": "0x00000000000000000000000042000000000000000000000000000000000000060000000000000000000000005fe161a97511aa3c185cbffdcf281fd510411343000000000000000000000000000000000000000000000000002386f26fc10000000000000000000000000000000000000000000000000000000000000000000000000000000000000000000000000000000000000000000000000000000000000000000000000000000000000000000000000000000000000000000000000039",
          "blockHash": "0xbfc47cf7cfda1d4c3dd13c0c0061873debb51c5b94f56c25d0af827fe903575c",
          "blockNumber": "0x1f4dfbc",
          "blockTimestamp": "0x68fd1e58",
          "transactionHash": "0x489988a4bf7c6b6efb8a20b06dad81df7dc3aabf847aff10026edf25fd053881",
          "transactionIndex": "0x1",
          "logIndex": "0x1",
          "removed": false
        }
      ],
      "logsBloom": "0x00000000000000000000000000000000000000000000000000040000000000000040000000000000000000100000000000000200400000000020000000000000000000010080000000000008000000000000000000000000000002000000000000000000000000080800000000000000000000000000000000000010000040000000000000000000000000000000000400000000002000000000000000000000000000000000000000000000000000000000000000000000000000000000000000000002000000000000000000000028000000000000000000008000000000000000000000000000000000000000000000000010000000000000000000000000",
      "type": "0x2",
      "transactionHash": "0x489988a4bf7c6b6efb8a20b06dad81df7dc3aabf847aff10026edf25fd053881",
      "transactionIndex": "0x1",
      "blockHash": "0xbfc47cf7cfda1d4c3dd13c0c0061873debb51c5b94f56c25d0af827fe903575c",
      "blockNumber": "0x1f4dfbc",
      "gasUsed": "0x54ec3",
      "effectiveGasPrice": "0xf4283",
      "from": "0xdafe44ce6933ba24459453fe20f40d55a454a07f",
      "to": "0x41d897084fd42d0509f752954fecf48c62307b3f",
      "contractAddress": null,
      "l1BaseFeeScalar": "0x44d",
      "l1BlobBaseFee": "0x1",
      "l1BlobBaseFeeScalar": "0xa118b",
      "l1Fee": "0x3f3",
      "l1GasPrice": "0x9",
      "l1GasUsed": "0x4d46"
    },
    {
      "status": "0x1",
      "cumulativeGasUsed": "0x62b794",
      "logs": [
        {
          "address": "0x4200000000000000000000000000000000000006",
          "topics": [
            "0xddf252ad1be2c89b69c2b068fc378daa952ba7f163c4a11628f55a4df523b3ef",
            "0x000000000000000000000000dafe44ce6933ba24459453fe20f40d55a454a07f",
            "0x00000000000000000000000041d897084fd42d0509f752954fecf48c62307b3f"
          ],
          "data": "0x000000000000000000000000000000000000000000000000002386f26fc10000",
          "blockHash": "0x11ce2528e75859646e5a8f48168907a4d7d97f2d4ac4696b31bda31417954a8b",
          "blockNumber": "0x1f4dfbd",
          "blockTimestamp": "0x68fd1e5a",
          "transactionHash": "0xac2b39024702e1c8aefd3998f9479d220d0e5d01ea0c39572960ca46dcc7f899",
          "transactionIndex": "0x35",
          "logIndex": "0xc7",
          "removed": false
        },
        {
          "address": "0x41d897084fd42d0509f752954fecf48c62307b3f",
          "topics": [
            "0x7448c7b7b021897f4f19bd7cdda03bed9c26cf75e56ea3bafd3c0d2c7ef24f4b",
            "0x8a5bf15be47f94a3e1523b6a0ac4eda370bd417ef5d9f8a72bd446c9c72ebab5",
            "0x000000000000000000000000dafe44ce6933ba24459453fe20f40d55a454a07f"
          ],
          "data": "0x00000000000000000000000042000000000000000000000000000000000000060000000000000000000000005fe161a97511aa3c185cbffdcf281fd510411343000000000000000000000000000000000000000000000000002386f26fc1000000000000000000000000000000000000000000000000000000000000000000000000000000000000000000000000000000000000000000000000000000000000000000000000000000000000000000000000000000000000000000000000003a",
          "blockHash": "0x11ce2528e75859646e5a8f48168907a4d7d97f2d4ac4696b31bda31417954a8b",
          "blockNumber": "0x1f4dfbd",
          "blockTimestamp": "0x68fd1e5a",
          "transactionHash": "0xac2b39024702e1c8aefd3998f9479d220d0e5d01ea0c39572960ca46dcc7f899",
          "transactionIndex": "0x35",
          "logIndex": "0xc8",
          "removed": false
        }
      ],
      "logsBloom": "0x00000000000000000000000000000000000000000000000000040000000000000040000000000000000000100000000000000200400000000020000000000000000000010080000000000008000000000000000000000000000002000000000000000000000000080800000000000000000000000000000000000010000040000000000000000000000000000000000400000000002000000000000000000000000000000000000000000000000000000000000000000000000000000000000000000002000000000000000000000028000000000000000000008000000000000000000000000000000000000000000000000010000000000000000000000000",
      "type": "0x2",
      "transactionHash": "0xac2b39024702e1c8aefd3998f9479d220d0e5d01ea0c39572960ca46dcc7f899",
      "transactionIndex": "0x35",
      "blockHash": "0x11ce2528e75859646e5a8f48168907a4d7d97f2d4ac4696b31bda31417954a8b",
      "blockNumber": "0x1f4dfbd",
      "gasUsed": "0x54ec3",
      "effectiveGasPrice": "0xf4284",
      "from": "0xdafe44ce6933ba24459453fe20f40d55a454a07f",
      "to": "0x41d897084fd42d0509f752954fecf48c62307b3f",
      "contractAddress": null,
      "l1BaseFeeScalar": "0x44d",
      "l1BlobBaseFee": "0x1",
      "l1BlobBaseFeeScalar": "0xa118b",
      "l1Fee": "0x51",
      "l1GasPrice": "0x9",
      "l1GasUsed": "0x4d54"
    },
    {
      "status": "0x1",
      "cumulativeGasUsed": "0x451442",
      "logs": [
        {
          "address": "0x4200000000000000000000000000000000000006",
          "topics": [
            "0xddf252ad1be2c89b69c2b068fc378daa952ba7f163c4a11628f55a4df523b3ef",
            "0x000000000000000000000000dafe44ce6933ba24459453fe20f40d55a454a07f",
            "0x00000000000000000000000041d897084fd42d0509f752954fecf48c62307b3f"
          ],
          "data": "0x000000000000000000000000000000000000000000000000002386f26fc10000",
          "blockHash": "0xab88a97a562997bd6c264d80cdffa1808f0622d7a26ca2b8dc4ec4b566a991a6",
          "blockNumber": "0x1f4dfbe",
          "blockTimestamp": "0x68fd1e5c",
          "transactionHash": "0xb778834c45771342e50211b2de2b179bb7be332f9c98ba7234f063412c09da6f",
          "transactionIndex": "0x1d",
          "logIndex": "0x52",
          "removed": false
        },
        {
          "address": "0x41d897084fd42d0509f752954fecf48c62307b3f",
          "topics": [
            "0x7448c7b7b021897f4f19bd7cdda03bed9c26cf75e56ea3bafd3c0d2c7ef24f4b",
            "0x8a5bf15be47f94a3e1523b6a0ac4eda370bd417ef5d9f8a72bd446c9c72ebab5",
            "0x000000000000000000000000dafe44ce6933ba24459453fe20f40d55a454a07f"
          ],
          "data": "0x00000000000000000000000042000000000000000000000000000000000000060000000000000000000000005fe161a97511aa3c185cbffdcf281fd510411343000000000000000000000000000000000000000000000000002386f26fc1000000000000000000000000000000000000000000000000000000000000000000000000000000000000000000000000000000000000000000000000000000000000000000000000000000000000000000000000000000000000000000000000003b",
          "blockHash": "0xab88a97a562997bd6c264d80cdffa1808f0622d7a26ca2b8dc4ec4b566a991a6",
          "blockNumber": "0x1f4dfbe",
          "blockTimestamp": "0x68fd1e5c",
          "transactionHash": "0xb778834c45771342e50211b2de2b179bb7be332f9c98ba7234f063412c09da6f",
          "transactionIndex": "0x1d",
          "logIndex": "0x53",
          "removed": false
        }
      ],
      "logsBloom": "0x00000000000000000000000000000000000000000000000000040000000000000040000000000000000000100000000000000200400000000020000000000000000000010080000000000008000000000000000000000000000002000000000000000000000000080800000000000000000000000000000000000010000040000000000000000000000000000000000400000000002000000000000000000000000000000000000000000000000000000000000000000000000000000000000000000002000000000000000000000028000000000000000000008000000000000000000000000000000000000000000000000010000000000000000000000000",
      "type": "0x2",
      "transactionHash": "0xb778834c45771342e50211b2de2b179bb7be332f9c98ba7234f063412c09da6f",
      "transactionIndex": "0x1d",
      "blockHash": "0xab88a97a562997bd6c264d80cdffa1808f0622d7a26ca2b8dc4ec4b566a991a6",
      "blockNumber": "0x1f4dfbe",
      "gasUsed": "0x54ed5",
      "effectiveGasPrice": "0xf4284",
      "from": "0xdafe44ce6933ba24459453fe20f40d55a454a07f",
      "to": "0x41d897084fd42d0509f752954fecf48c62307b3f",
      "contractAddress": null,
      "l1BaseFeeScalar": "0x44d",
      "l1BlobBaseFee": "0x1",
      "l1BlobBaseFeeScalar": "0xa118b",
      "l1Fee": "0x51",
      "l1GasPrice": "0x9",
      "l1GasUsed": "0x4d61"
    },
    {
      "status": "0x1",
      "cumulativeGasUsed": "0x686516",
      "logs": [
        {
          "address": "0x4200000000000000000000000000000000000006",
          "topics": [
            "0xddf252ad1be2c89b69c2b068fc378daa952ba7f163c4a11628f55a4df523b3ef",
            "0x000000000000000000000000dafe44ce6933ba24459453fe20f40d55a454a07f",
            "0x00000000000000000000000041d897084fd42d0509f752954fecf48c62307b3f"
          ],
          "data": "0x000000000000000000000000000000000000000000000000002386f26fc10000",
          "blockHash": "0xb22f9eb323f43e7108921346707d799a27c0f6fef4252cd6d2ae592c05171c1a",
          "blockNumber": "0x1f4dfbf",
          "blockTimestamp": "0x68fd1e5e",
          "transactionHash": "0x80c551c19244647084fc89dee875c07d609edf23f75db2cd0df06e8d1fbfd990",
          "transactionIndex": "0x36",
          "logIndex": "0x4d",
          "removed": false
        },
        {
          "address": "0x41d897084fd42d0509f752954fecf48c62307b3f",
          "topics": [
            "0x7448c7b7b021897f4f19bd7cdda03bed9c26cf75e56ea3bafd3c0d2c7ef24f4b",
            "0x8a5bf15be47f94a3e1523b6a0ac4eda370bd417ef5d9f8a72bd446c9c72ebab5",
            "0x000000000000000000000000dafe44ce6933ba24459453fe20f40d55a454a07f"
          ],
          "data": "0x00000000000000000000000042000000000000000000000000000000000000060000000000000000000000005fe161a97511aa3c185cbffdcf281fd510411343000000000000000000000000000000000000000000000000002386f26fc1000000000000000000000000000000000000000000000000000000000000000000000000000000000000000000000000000000000000000000000000000000000000000000000000000000000000000000000000000000000000000000000000003c",
          "blockHash": "0xb22f9eb323f43e7108921346707d799a27c0f6fef4252cd6d2ae592c05171c1a",
          "blockNumber": "0x1f4dfbf",
          "blockTimestamp": "0x68fd1e5e",
          "transactionHash": "0x80c551c19244647084fc89dee875c07d609edf23f75db2cd0df06e8d1fbfd990",
          "transactionIndex": "0x36",
          "logIndex": "0x4e",
          "removed": false
        }
      ],
      "logsBloom": "0x00000000000000000000000000000000000000000000000000040000000000000040000000000000000000100000000000000200400000000020000000000000000000010080000000000008000000000000000000000000000002000000000000000000000000080800000000000000000000000000000000000010000040000000000000000000000000000000000400000000002000000000000000000000000000000000000000000000000000000000000000000000000000000000000000000002000000000000000000000028000000000000000000008000000000000000000000000000000000000000000000000010000000000000000000000000",
      "type": "0x2",
      "transactionHash": "0x80c551c19244647084fc89dee875c07d609edf23f75db2cd0df06e8d1fbfd990",
      "transactionIndex": "0x36",
      "blockHash": "0xb22f9eb323f43e7108921346707d799a27c0f6fef4252cd6d2ae592c05171c1a",
      "blockNumber": "0x1f4dfbf",
      "gasUsed": "0x54e99",
      "effectiveGasPrice": "0xf4284",
      "from": "0xdafe44ce6933ba24459453fe20f40d55a454a07f",
      "to": "0x41d897084fd42d0509f752954fecf48c62307b3f",
      "contractAddress": null,
      "l1BaseFeeScalar": "0x44d",
      "l1BlobBaseFee": "0x1",
      "l1BlobBaseFeeScalar": "0xa118b",
      "l1Fee": "0x51",
      "l1GasPrice": "0x9",
      "l1GasUsed": "0x4d6e"
    },
    {
      "status": "0x1",
      "cumulativeGasUsed": "0x58847b",
      "logs": [
        {
          "address": "0x4200000000000000000000000000000000000006",
          "topics": [
            "0xddf252ad1be2c89b69c2b068fc378daa952ba7f163c4a11628f55a4df523b3ef",
            "0x000000000000000000000000dafe44ce6933ba24459453fe20f40d55a454a07f",
            "0x00000000000000000000000041d897084fd42d0509f752954fecf48c62307b3f"
          ],
          "data": "0x000000000000000000000000000000000000000000000000002386f26fc10000",
          "blockHash": "0x01ec06deb85e015ca6d667c309c90641622e04a6c301b0f25c57ca9ec6130dfe",
          "blockNumber": "0x1f4dfc0",
          "blockTimestamp": "0x68fd1e60",
          "transactionHash": "0xd17c7cc33691c758d0a8eb46b26764f1a5dfa280a24dd050864235f9d35e61e1",
          "transactionIndex": "0x1b",
          "logIndex": "0x42",
          "removed": false
        },
        {
          "address": "0x41d897084fd42d0509f752954fecf48c62307b3f",
          "topics": [
            "0x7448c7b7b021897f4f19bd7cdda03bed9c26cf75e56ea3bafd3c0d2c7ef24f4b",
            "0x8a5bf15be47f94a3e1523b6a0ac4eda370bd417ef5d9f8a72bd446c9c72ebab5",
            "0x000000000000000000000000dafe44ce6933ba24459453fe20f40d55a454a07f"
          ],
          "data": "0x00000000000000000000000042000000000000000000000000000000000000060000000000000000000000005fe161a97511aa3c185cbffdcf281fd510411343000000000000000000000000000000000000000000000000002386f26fc1000000000000000000000000000000000000000000000000000000000000000000000000000000000000000000000000000000000000000000000000000000000000000000000000000000000000000000000000000000000000000000000000003d",
          "blockHash": "0x01ec06deb85e015ca6d667c309c90641622e04a6c301b0f25c57ca9ec6130dfe",
          "blockNumber": "0x1f4dfc0",
          "blockTimestamp": "0x68fd1e60",
          "transactionHash": "0xd17c7cc33691c758d0a8eb46b26764f1a5dfa280a24dd050864235f9d35e61e1",
          "transactionIndex": "0x1b",
          "logIndex": "0x43",
          "removed": false
        }
      ],
      "logsBloom": "0x00000000000000000000000000000000000000000000000000040000000000000040000000000000000000100000000000000200400000000020000000000000000000010080000000000008000000000000000000000000000002000000000000000000000000080800000000000000000000000000000000000010000040000000000000000000000000000000000400000000002000000000000000000000000000000000000000000000000000000000000000000000000000000000000000000002000000000000000000000028000000000000000000008000000000000000000000000000000000000000000000000010000000000000000000000000",
      "type": "0x2",
      "transactionHash": "0xd17c7cc33691c758d0a8eb46b26764f1a5dfa280a24dd050864235f9d35e61e1",
      "transactionIndex": "0x1b",
      "blockHash": "0x01ec06deb85e015ca6d667c309c90641622e04a6c301b0f25c57ca9ec6130dfe",
      "blockNumber": "0x1f4dfc0",
      "gasUsed": "0x54ec0",
      "effectiveGasPrice": "0xf4284",
      "from": "0xdafe44ce6933ba24459453fe20f40d55a454a07f",
      "to": "0x41d897084fd42d0509f752954fecf48c62307b3f",
      "contractAddress": null,
      "l1BaseFeeScalar": "0x44d",
      "l1BlobBaseFee": "0x1",
      "l1BlobBaseFeeScalar": "0xa118b",
      "l1Fee": "0x51",
      "l1GasPrice": "0x9",
      "l1GasUsed": "0x4d39"
    },
    {
      "status": "0x1",
      "cumulativeGasUsed": "0xcbe6a6",
      "logs": [
        {
          "address": "0x4200000000000000000000000000000000000006",
          "topics": [
            "0xddf252ad1be2c89b69c2b068fc378daa952ba7f163c4a11628f55a4df523b3ef",
            "0x000000000000000000000000dafe44ce6933ba24459453fe20f40d55a454a07f",
            "0x00000000000000000000000041d897084fd42d0509f752954fecf48c62307b3f"
          ],
          "data": "0x000000000000000000000000000000000000000000000000002386f26fc10000",
          "blockHash": "0x7c6eb8424d95ce91412ba400ccaec5bebf65210c3459c25ada042089973a4696",
          "blockNumber": "0x1f4dfc1",
          "blockTimestamp": "0x68fd1e62",
          "transactionHash": "0x3dd5d8a27617d0f8397d3084a6362d217b83719a5fb15b2aea23d81cc9a15c13",
          "transactionIndex": "0x37",
          "logIndex": "0x148",
          "removed": false
        },
        {
          "address": "0x41d897084fd42d0509f752954fecf48c62307b3f",
          "topics": [
            "0x7448c7b7b021897f4f19bd7cdda03bed9c26cf75e56ea3bafd3c0d2c7ef24f4b",
            "0x8a5bf15be47f94a3e1523b6a0ac4eda370bd417ef5d9f8a72bd446c9c72ebab5",
            "0x000000000000000000000000dafe44ce6933ba24459453fe20f40d55a454a07f"
          ],
          "data": "0x00000000000000000000000042000000000000000000000000000000000000060000000000000000000000005fe161a97511aa3c185cbffdcf281fd510411343000000000000000000000000000000000000000000000000002386f26fc1000000000000000000000000000000000000000000000000000000000000000000000000000000000000000000000000000000000000000000000000000000000000000000000000000000000000000000000000000000000000000000000000003e",
          "blockHash": "0x7c6eb8424d95ce91412ba400ccaec5bebf65210c3459c25ada042089973a4696",
          "blockNumber": "0x1f4dfc1",
          "blockTimestamp": "0x68fd1e62",
          "transactionHash": "0x3dd5d8a27617d0f8397d3084a6362d217b83719a5fb15b2aea23d81cc9a15c13",
          "transactionIndex": "0x37",
          "logIndex": "0x149",
          "removed": false
        }
      ],
      "logsBloom": "0x00000000000000000000000000000000000000000000000000040000000000000040000000000000000000100000000000000200400000000020000000000000000000010080000000000008000000000000000000000000000002000000000000000000000000080800000000000000000000000000000000000010000040000000000000000000000000000000000400000000002000000000000000000000000000000000000000000000000000000000000000000000000000000000000000000002000000000000000000000028000000000000000000008000000000000000000000000000000000000000000000000010000000000000000000000000",
      "type": "0x2",
      "transactionHash": "0x3dd5d8a27617d0f8397d3084a6362d217b83719a5fb15b2aea23d81cc9a15c13",
      "transactionIndex": "0x37",
      "blockHash": "0x7c6eb8424d95ce91412ba400ccaec5bebf65210c3459c25ada042089973a4696",
      "blockNumber": "0x1f4dfc1",
      "gasUsed": "0x54e48",
      "effectiveGasPrice": "0xf4284",
      "from": "0xdafe44ce6933ba24459453fe20f40d55a454a07f",
      "to": "0x41d897084fd42d0509f752954fecf48c62307b3f",
      "contractAddress": null,
      "l1BaseFeeScalar": "0x44d",
      "l1BlobBaseFee": "0x1",
      "l1BlobBaseFeeScalar": "0xa118b",
      "l1Fee": "0x3f3",
      "l1GasPrice": "0x9",
      "l1GasUsed": "0x4d46"
    },
    {
      "status": "0x1",
      "cumulativeGasUsed": "0x1ca49d",
      "logs": [
        {
          "address": "0x4200000000000000000000000000000000000006",
          "topics": [
            "0xddf252ad1be2c89b69c2b068fc378daa952ba7f163c4a11628f55a4df523b3ef",
            "0x000000000000000000000000dafe44ce6933ba24459453fe20f40d55a454a07f",
            "0x00000000000000000000000041d897084fd42d0509f752954fecf48c62307b3f"
          ],
          "data": "0x000000000000000000000000000000000000000000000000002386f26fc10000",
          "blockHash": "0x276e6b925b6975785520f5e6edda112da7e03acd319b195e895981e026f1564e",
          "blockNumber": "0x1f4dfc2",
          "blockTimestamp": "0x68fd1e64",
          "transactionHash": "0x6a2013dff4b2a076ffb2a9cbca496d81dbe8f226d5a03a92a329ed7d2b27bb72",
          "transactionIndex": "0x1b",
          "logIndex": "0x25",
          "removed": false
        },
        {
          "address": "0x41d897084fd42d0509f752954fecf48c62307b3f",
          "topics": [
            "0x7448c7b7b021897f4f19bd7cdda03bed9c26cf75e56ea3bafd3c0d2c7ef24f4b",
            "0x8a5bf15be47f94a3e1523b6a0ac4eda370bd417ef5d9f8a72bd446c9c72ebab5",
            "0x000000000000000000000000dafe44ce6933ba24459453fe20f40d55a454a07f"
          ],
          "data": "0x00000000000000000000000042000000000000000000000000000000000000060000000000000000000000005fe161a97511aa3c185cbffdcf281fd510411343000000000000000000000000000000000000000000000000002386f26fc1000000000000000000000000000000000000000000000000000000000000000000000000000000000000000000000000000000000000000000000000000000000000000000000000000000000000000000000000000000000000000000000000003f",
          "blockHash": "0x276e6b925b6975785520f5e6edda112da7e03acd319b195e895981e026f1564e",
          "blockNumber": "0x1f4dfc2",
          "blockTimestamp": "0x68fd1e64",
          "transactionHash": "0x6a2013dff4b2a076ffb2a9cbca496d81dbe8f226d5a03a92a329ed7d2b27bb72",
          "transactionIndex": "0x1b",
          "logIndex": "0x26",
          "removed": false
        }
      ],
      "logsBloom": "0x00000000000000000000000000000000000000000000000000040000000000000040000000000000000000100000000000000200400000000020000000000000000000010080000000000008000000000000000000000000000002000000000000000000000000080800000000000000000000000000000000000010000040000000000000000000000000000000000400000000002000000000000000000000000000000000000000000000000000000000000000000000000000000000000000000002000000000000000000000028000000000000000000008000000000000000000000000000000000000000000000000010000000000000000000000000",
      "type": "0x2",
      "transactionHash": "0x6a2013dff4b2a076ffb2a9cbca496d81dbe8f226d5a03a92a329ed7d2b27bb72",
      "transactionIndex": "0x1b",
      "blockHash": "0x276e6b925b6975785520f5e6edda112da7e03acd319b195e895981e026f1564e",
      "blockNumber": "0x1f4dfc2",
      "gasUsed": "0x54ee1",
      "effectiveGasPrice": "0xf4284",
      "from": "0xdafe44ce6933ba24459453fe20f40d55a454a07f",
      "to": "0x41d897084fd42d0509f752954fecf48c62307b3f",
      "contractAddress": null,
      "l1BaseFeeScalar": "0x44d",
      "l1BlobBaseFee": "0x1",
      "l1BlobBaseFeeScalar": "0xa118b",
      "l1Fee": "0x51",
      "l1GasPrice": "0x9",
      "l1GasUsed": "0x4d11"
    },
    {
      "status": "0x1",
      "cumulativeGasUsed": "0x786bd1",
      "logs": [
        {
          "address": "0xa2aa501b19aff244d90cc15a4cf739d2725b5729",
          "topics": [
            "0xd06a6b7f4918494b3719217d1802786c1f5112a6c1d88fe2cfec00b4584f6aec",
            "0xff61491a931112ddf1bd8147cd1b641375f79f5825126d665480874634fd0ace"
          ],
          "data": "0x0000000000000000000000000000000000000000000000000000000068fd1e320000000000000000000000000000000000000000000000000000005c34e8a7d50000000000000000000000000000000000000000000000000000000006f34673",
          "blockHash": "0x675c9a2a4386eb7d5a87d4cc3d8f4d1af8610e64c6b437232e2098ae2b33cc54",
          "blockNumber": "0x1f4dfc3",
          "blockTimestamp": "0x68fd1e66",
          "transactionHash": "0x28a6f1557d6234abf0dadac47583993426a9ea697f922bb2f3261681c72bcab0",
          "transactionIndex": "0x3b",
          "logIndex": "0xca",
          "removed": false
        },
        {
          "address": "0x4200000000000000000000000000000000000006",
          "topics": [
            "0xddf252ad1be2c89b69c2b068fc378daa952ba7f163c4a11628f55a4df523b3ef",
            "0x000000000000000000000000dafe44ce6933ba24459453fe20f40d55a454a07f",
            "0x00000000000000000000000041d897084fd42d0509f752954fecf48c62307b3f"
          ],
          "data": "0x000000000000000000000000000000000000000000000000002386f26fc10000",
          "blockHash": "0x675c9a2a4386eb7d5a87d4cc3d8f4d1af8610e64c6b437232e2098ae2b33cc54",
          "blockNumber": "0x1f4dfc3",
          "blockTimestamp": "0x68fd1e66",
          "transactionHash": "0x28a6f1557d6234abf0dadac47583993426a9ea697f922bb2f3261681c72bcab0",
          "transactionIndex": "0x3b",
          "logIndex": "0xcb",
          "removed": false
        },
        {
          "address": "0x41d897084fd42d0509f752954fecf48c62307b3f",
          "topics": [
            "0x7448c7b7b021897f4f19bd7cdda03bed9c26cf75e56ea3bafd3c0d2c7ef24f4b",
            "0x8a5bf15be47f94a3e1523b6a0ac4eda370bd417ef5d9f8a72bd446c9c72ebab5",
            "0x000000000000000000000000dafe44ce6933ba24459453fe20f40d55a454a07f"
          ],
          "data": "0x00000000000000000000000042000000000000000000000000000000000000060000000000000000000000005fe161a97511aa3c185cbffdcf281fd510411343000000000000000000000000000000000000000000000000002386f26fc10000000000000000000000000000000000000000000000000000000000000000000000000000000000000000000000000000000000000000000000000000000000000000000000000000000000000000000000000000000000000000000000000040",
          "blockHash": "0x675c9a2a4386eb7d5a87d4cc3d8f4d1af8610e64c6b437232e2098ae2b33cc54",
          "blockNumber": "0x1f4dfc3",
          "blockTimestamp": "0x68fd1e66",
          "transactionHash": "0x28a6f1557d6234abf0dadac47583993426a9ea697f922bb2f3261681c72bcab0",
          "transactionIndex": "0x3b",
          "logIndex": "0xcc",
          "removed": false
        }
      ],
      "logsBloom": "0x00000000000000000000002000000000000000000000000000040000002000000040000000000000000000100000000000010200400000000020000000000000000000010180800000000008000000000000000000000000000002000002000000000000000000080800000000000000000000000000000000000010000040000000000000000000000000000000000400000000002000000000000000000000000000000000000000000000000000000000000000000001000000000000000000000002000000000000000000000028000000000000000000008000000000000000000000000000000000000000004000000010000000000000000100000000",
      "type": "0x2",
      "transactionHash": "0x28a6f1557d6234abf0dadac47583993426a9ea697f922bb2f3261681c72bcab0",
      "transactionIndex": "0x3b",
      "blockHash": "0x675c9a2a4386eb7d5a87d4cc3d8f4d1af8610e64c6b437232e2098ae2b33cc54",
      "blockNumber": "0x1f4dfc3",
      "gasUsed": "0x5777d",
      "effectiveGasPrice": "0xf4283",
      "from": "0xdafe44ce6933ba24459453fe20f40d55a454a07f",
      "to": "0x41d897084fd42d0509f752954fecf48c62307b3f",
      "contractAddress": null,
      "l1BaseFeeScalar": "0x44d",
      "l1BlobBaseFee": "0x1",
      "l1BlobBaseFeeScalar": "0xa118b",
      "l1Fee": "0x3f5",
      "l1GasPrice": "0x9",
      "l1GasUsed": "0x4d61"
    }
  ],
  "libraries": [],
  "pending": [],
  "returns": {},
  "timestamp": 1761418854415,
  "chain": 84532,
  "commit": "d96505c"
}